{
  "contractName": "EthSwap",
  "abi": [
    {
      "inputs": [
        {
          "internalType": "contract ERC20",
          "name": "_token",
          "type": "address"
        }
      ],
      "stateMutability": "nonpayable",
      "type": "constructor"
    },
    {
      "inputs": [],
      "name": "rate",
      "outputs": [
        {
          "internalType": "uint256",
          "name": "",
          "type": "uint256"
        }
      ],
      "stateMutability": "view",
      "type": "function",
      "constant": true
    },
    {
      "inputs": [],
      "name": "token",
      "outputs": [
        {
          "internalType": "contract ERC20",
          "name": "",
          "type": "address"
        }
      ],
      "stateMutability": "view",
      "type": "function",
      "constant": true
    },
    {
      "inputs": [],
      "name": "getToken",
      "outputs": [
        {
          "internalType": "address",
          "name": "",
          "type": "address"
        }
      ],
      "stateMutability": "view",
      "type": "function",
      "constant": true
    },
    {
      "inputs": [],
      "name": "getSwapBalance",
      "outputs": [
        {
          "internalType": "uint256",
          "name": "",
          "type": "uint256"
        }
      ],
      "stateMutability": "view",
      "type": "function",
      "constant": true
    },
    {
      "inputs": [],
      "name": "getThisAddress",
      "outputs": [
        {
          "internalType": "address",
          "name": "",
          "type": "address"
        }
      ],
      "stateMutability": "view",
      "type": "function",
      "constant": true
    },
    {
      "inputs": [],
      "name": "getMsgSender",
      "outputs": [
        {
          "internalType": "address",
          "name": "",
          "type": "address"
        }
      ],
      "stateMutability": "view",
      "type": "function",
      "constant": true
    },
    {
      "inputs": [],
      "name": "buyToken",
      "outputs": [],
      "stateMutability": "payable",
      "type": "function",
      "payable": true
    },
    {
      "inputs": [],
      "name": "getAmountToken",
      "outputs": [
        {
          "internalType": "uint256",
          "name": "",
          "type": "uint256"
        }
      ],
      "stateMutability": "payable",
      "type": "function",
      "payable": true
    },
    {
      "inputs": [
        {
          "internalType": "uint256",
          "name": "_amount",
          "type": "uint256"
        }
      ],
      "name": "sellToken",
      "outputs": [],
      "stateMutability": "payable",
      "type": "function",
      "payable": true
    }
  ],
  "bytecode": "0x6080604052606460015534801561001557600080fd5b50604051610b5f380380610b5f833981810160405281019061003791906100f2565b806000806101000a81548173ffffffffffffffffffffffffffffffffffffffff021916908373ffffffffffffffffffffffffffffffffffffffff1602179055505061011f565b600080fd5b600073ffffffffffffffffffffffffffffffffffffffff82169050919050565b60006100ad82610082565b9050919050565b60006100bf826100a2565b9050919050565b6100cf816100b4565b81146100da57600080fd5b50565b6000815190506100ec816100c6565b92915050565b6000602082840312156101085761010761007d565b5b6000610116848285016100dd565b91505092915050565b610a318061012e6000396000f3fe6080604052600436106100865760003560e01c80637a6ce2e1116100595780637a6ce2e11461011b578063a482171914610146578063c7b00aad14610150578063d39538221461017b578063fc0c546a146101a657610086565b806321df0da71461008b5780632397e4d7146100b65780632c4e722e146100d2578063658c8c35146100fd575b600080fd5b34801561009757600080fd5b506100a06101d1565b6040516100ad9190610667565b60405180910390f35b6100d060048036038101906100cb91906106bd565b6101fa565b005b3480156100de57600080fd5b506100e76103ab565b6040516100f491906106f9565b60405180910390f35b6101056103b1565b60405161011291906106f9565b60405180910390f35b34801561012757600080fd5b506101306103cb565b60405161013d9190610667565b60405180910390f35b61014e6103d3565b005b34801561015c57600080fd5b50610165610558565b60405161017291906106f9565b60405180910390f35b34801561018757600080fd5b506101906105fa565b60405161019d9190610667565b60405180910390f35b3480156101b257600080fd5b506101bb610602565b6040516101c89190610773565b60405180910390f35b60008060009054906101000a900473ffffffffffffffffffffffffffffffffffffffff16905090565b8060008054906101000a900473ffffffffffffffffffffffffffffffffffffffff1673ffffffffffffffffffffffffffffffffffffffff166370a08231336040518263ffffffff1660e01b81526004016102549190610667565b602060405180830381865afa158015610271573d6000803e3d6000fd5b505050506040513d601f19601f8201168201806040525081019061029591906107a3565b10156102a057600080fd5b6000600154826102b0919061082e565b9050804710156102bf57600080fd5b60008054906101000a900473ffffffffffffffffffffffffffffffffffffffff1673ffffffffffffffffffffffffffffffffffffffff166323b872dd3330856040518463ffffffff1660e01b815260040161031c9392919061085f565b6020604051808303816000875af115801561033b573d6000803e3d6000fd5b505050506040513d601f19601f8201168201806040525081019061035f91906108ce565b503373ffffffffffffffffffffffffffffffffffffffff166108fc829081150290604051600060405180830381858888f193505050501580156103a6573d6000803e3d6000fd5b505050565b60015481565b600080600154346103c291906108fb565b90508091505090565b600033905090565b6000600154346103e391906108fb565b90508060008054906101000a900473ffffffffffffffffffffffffffffffffffffffff1673ffffffffffffffffffffffffffffffffffffffff166389ded4846040518163ffffffff1660e01b8152600401602060405180830381865afa158015610451573d6000803e3d6000fd5b505050506040513d601f19601f8201168201806040525081019061047591906107a3565b10156104b6576040517f08c379a00000000000000000000000000000000000000000000000000000000081526004016104ad906109b2565b60405180910390fd5b60008054906101000a900473ffffffffffffffffffffffffffffffffffffffff1673ffffffffffffffffffffffffffffffffffffffff1663a9059cbb33836040518363ffffffff1660e01b81526004016105119291906109d2565b6020604051808303816000875af1158015610530573d6000803e3d6000fd5b505050506040513d601f19601f8201168201806040525081019061055491906108ce565b5050565b60008060009054906101000a900473ffffffffffffffffffffffffffffffffffffffff1673ffffffffffffffffffffffffffffffffffffffff166370a08231336040518263ffffffff1660e01b81526004016105b49190610667565b602060405180830381865afa1580156105d1573d6000803e3d6000fd5b505050506040513d601f19601f820116820180604052508101906105f591906107a3565b905090565b600030905090565b60008054906101000a900473ffffffffffffffffffffffffffffffffffffffff1681565b600073ffffffffffffffffffffffffffffffffffffffff82169050919050565b600061065182610626565b9050919050565b61066181610646565b82525050565b600060208201905061067c6000830184610658565b92915050565b600080fd5b6000819050919050565b61069a81610687565b81146106a557600080fd5b50565b6000813590506106b781610691565b92915050565b6000602082840312156106d3576106d2610682565b5b60006106e1848285016106a8565b91505092915050565b6106f381610687565b82525050565b600060208201905061070e60008301846106ea565b92915050565b6000819050919050565b600061073961073461072f84610626565b610714565b610626565b9050919050565b600061074b8261071e565b9050919050565b600061075d82610740565b9050919050565b61076d81610752565b82525050565b60006020820190506107886000830184610764565b92915050565b60008151905061079d81610691565b92915050565b6000602082840312156107b9576107b8610682565b5b60006107c78482850161078e565b91505092915050565b7f4e487b7100000000000000000000000000000000000000000000000000000000600052601260045260246000fd5b7f4e487b7100000000000000000000000000000000000000000000000000000000600052601160045260246000fd5b600061083982610687565b915061084483610687565b925082610854576108536107d0565b5b828204905092915050565b60006060820190506108746000830186610658565b6108816020830185610658565b61088e60408301846106ea565b949350505050565b60008115159050919050565b6108ab81610896565b81146108b657600080fd5b50565b6000815190506108c8816108a2565b92915050565b6000602082840312156108e4576108e3610682565b5b60006108f2848285016108b9565b91505092915050565b600061090682610687565b915061091183610687565b9250817fffffffffffffffffffffffffffffffffffffffffffffffffffffffffffffffff048311821515161561094a576109496107ff565b5b828202905092915050565b600082825260208201905092915050565b7f6572726f72205b315d0000000000000000000000000000000000000000000000600082015250565b600061099c600983610955565b91506109a782610966565b602082019050919050565b600060208201905081810360008301526109cb8161098f565b9050919050565b60006040820190506109e76000830185610658565b6109f460208301846106ea565b939250505056fea2646970667358221220b1b91723b52fedbdb0e9e3eaa0a656a5afa1bed676702c04fe4384316125f6f664736f6c634300080f0033",
  "immutableReferences": {},
  "source": "// SPDX-License-Identifier: MIT\npragma solidity ^0.8.15;\n\nimport \"../node_modules/@openzeppelin/contracts/token/ERC20/ERC20.sol\";\n\ncontract EthSwap {\n    ERC20 public token;\n    uint public rate = 100;\n\n    //  ERC20 CA  .\n    constructor(ERC20 _token) {\n        token = _token;\n    }\n\n    // EOA -> EthSwap (Contract) -> getToken() -> return JwToken CA\n    function getToken() public view returns (address) {\n        return address(token); // JwToken CA\n    }\n\n    // EOA -> EthSwap -> getSwapBalance() -> JwToken -> balanceOf()\n    function getSwapBalance() public view returns (uint) {\n        return token.balanceOf(msg.sender);\n    }\n\n    function getThisAddress() public view returns (address) {\n        return address(this);\n        //  this    (this == EthSwap)\n    }\n\n    function getMsgSender() public view returns (address) {\n        return msg.sender;\n    }\n\n    // ETH -> TOKEN buy\n    function buyToken() public payable {\n        uint256 tokenAmount = msg.value * rate;\n\n        require(token._balanceOf() >= tokenAmount, \"error [1]\");\n        token.transfer(msg.sender, tokenAmount); // from: EthSwap CA, to: msg.sender\n    }\n\n    function getAmountToken() public payable returns (uint256) {\n        uint256 tokenAmount = msg.value * rate;\n        return tokenAmount;\n    }\n\n    // TOKEN -> ETH sell\n    function sellToken(uint256 _amount) public payable {\n        require(token.balanceOf(msg.sender) >= _amount);\n        uint256 etherAmount = _amount / rate;\n\n        require(address(this).balance >= etherAmount);\n        token.transferFrom(msg.sender, address(this), _amount);\n        payable(msg.sender).transfer(etherAmount);\n    }\n}\n",
  "sourcePath": "/Users/zerohoney/hacker_project/web3hacker/contracts/EthSwap.sol",
  "compiler": {
    "name": "solc",
    "version": "0.8.15+commit.e14f2714.Emscripten.clang"
  },
  "schemaVersion": "3.4.14",
  "updatedAt": "2023-07-28T07:06:59.748Z",
  "networkType": "ethereum",
  "devdoc": {
    "kind": "dev",
    "methods": {},
    "version": 1
  },
  "userdoc": {
    "kind": "user",
    "methods": {},
    "version": 1
  }
}