{
  "contractName": "JwtToken",
  "abi": [
    {
      "inputs": [],
      "stateMutability": "nonpayable",
      "type": "constructor"
    },
    {
      "anonymous": false,
      "inputs": [
        {
          "indexed": true,
          "internalType": "address",
          "name": "owner",
          "type": "address"
        },
        {
          "indexed": true,
          "internalType": "address",
          "name": "spender",
          "type": "address"
        },
        {
          "indexed": false,
          "internalType": "uint256",
          "name": "value",
          "type": "uint256"
        }
      ],
      "name": "Approval",
      "type": "event"
    },
    {
      "anonymous": false,
      "inputs": [
        {
          "indexed": true,
          "internalType": "address",
          "name": "from",
          "type": "address"
        },
        {
          "indexed": true,
          "internalType": "address",
          "name": "to",
          "type": "address"
        },
        {
          "indexed": false,
          "internalType": "uint256",
          "name": "value",
          "type": "uint256"
        }
      ],
      "name": "Transfer",
      "type": "event"
    },
    {
      "inputs": [],
      "name": "_balanceOf",
      "outputs": [
        {
          "internalType": "uint256",
          "name": "",
          "type": "uint256"
        }
      ],
      "stateMutability": "view",
      "type": "function",
      "constant": true
    },
    {
      "inputs": [],
      "name": "_name",
      "outputs": [
        {
          "internalType": "string",
          "name": "",
          "type": "string"
        }
      ],
      "stateMutability": "view",
      "type": "function",
      "constant": true
    },
    {
      "inputs": [],
      "name": "_symbol",
      "outputs": [
        {
          "internalType": "string",
          "name": "",
          "type": "string"
        }
      ],
      "stateMutability": "view",
      "type": "function",
      "constant": true
    },
    {
      "inputs": [],
      "name": "_totalSupply",
      "outputs": [
        {
          "internalType": "uint256",
          "name": "",
          "type": "uint256"
        }
      ],
      "stateMutability": "view",
      "type": "function",
      "constant": true
    },
    {
      "inputs": [
        {
          "internalType": "address",
          "name": "owner",
          "type": "address"
        },
        {
          "internalType": "address",
          "name": "spender",
          "type": "address"
        }
      ],
      "name": "allowance",
      "outputs": [
        {
          "internalType": "uint256",
          "name": "",
          "type": "uint256"
        }
      ],
      "stateMutability": "view",
      "type": "function",
      "constant": true
    },
    {
      "inputs": [
        {
          "internalType": "address",
          "name": "spender",
          "type": "address"
        },
        {
          "internalType": "uint256",
          "name": "amount",
          "type": "uint256"
        }
      ],
      "name": "approve",
      "outputs": [
        {
          "internalType": "bool",
          "name": "",
          "type": "bool"
        }
      ],
      "stateMutability": "nonpayable",
      "type": "function"
    },
    {
      "inputs": [
        {
          "internalType": "address",
          "name": "account",
          "type": "address"
        }
      ],
      "name": "balanceOf",
      "outputs": [
        {
          "internalType": "uint256",
          "name": "",
          "type": "uint256"
        }
      ],
      "stateMutability": "view",
      "type": "function",
      "constant": true
    },
    {
      "inputs": [
        {
          "internalType": "address",
          "name": "to",
          "type": "address"
        },
        {
          "internalType": "uint256",
          "name": "tokenAmount",
          "type": "uint256"
        }
      ],
      "name": "buyToken",
      "outputs": [],
      "stateMutability": "payable",
      "type": "function",
      "payable": true
    },
    {
      "inputs": [],
      "name": "decimals",
      "outputs": [
        {
          "internalType": "uint8",
          "name": "",
          "type": "uint8"
        }
      ],
      "stateMutability": "view",
      "type": "function",
      "constant": true
    },
    {
      "inputs": [
        {
          "internalType": "address",
          "name": "spender",
          "type": "address"
        },
        {
          "internalType": "uint256",
          "name": "subtractedValue",
          "type": "uint256"
        }
      ],
      "name": "decreaseAllowance",
      "outputs": [
        {
          "internalType": "bool",
          "name": "",
          "type": "bool"
        }
      ],
      "stateMutability": "nonpayable",
      "type": "function"
    },
    {
      "inputs": [
        {
          "internalType": "address",
          "name": "spender",
          "type": "address"
        },
        {
          "internalType": "uint256",
          "name": "addedValue",
          "type": "uint256"
        }
      ],
      "name": "increaseAllowance",
      "outputs": [
        {
          "internalType": "bool",
          "name": "",
          "type": "bool"
        }
      ],
      "stateMutability": "nonpayable",
      "type": "function"
    },
    {
      "inputs": [],
      "name": "name",
      "outputs": [
        {
          "internalType": "string",
          "name": "",
          "type": "string"
        }
      ],
      "stateMutability": "view",
      "type": "function",
      "constant": true
    },
    {
      "inputs": [],
      "name": "symbol",
      "outputs": [
        {
          "internalType": "string",
          "name": "",
          "type": "string"
        }
      ],
      "stateMutability": "view",
      "type": "function",
      "constant": true
    },
    {
      "inputs": [],
      "name": "totalSupply",
      "outputs": [
        {
          "internalType": "uint256",
          "name": "",
          "type": "uint256"
        }
      ],
      "stateMutability": "view",
      "type": "function",
      "constant": true
    },
    {
      "inputs": [
        {
          "internalType": "address",
          "name": "to",
          "type": "address"
        },
        {
          "internalType": "uint256",
          "name": "amount",
          "type": "uint256"
        }
      ],
      "name": "transfer",
      "outputs": [
        {
          "internalType": "bool",
          "name": "",
          "type": "bool"
        }
      ],
      "stateMutability": "nonpayable",
      "type": "function"
    },
    {
      "inputs": [
        {
          "internalType": "address",
          "name": "from",
          "type": "address"
        },
        {
          "internalType": "address",
          "name": "to",
          "type": "address"
        },
        {
          "internalType": "uint256",
          "name": "amount",
          "type": "uint256"
        }
      ],
      "name": "transferFrom",
      "outputs": [
        {
          "internalType": "bool",
          "name": "",
          "type": "bool"
        }
      ],
      "stateMutability": "nonpayable",
      "type": "function"
    }
  ],
  "bytecode": "0x60806040526040518060400160405280600881526020017f4a7774546f6b656e000000000000000000000000000000000000000000000000815250600690816200004a919062000671565b506040518060400160405280600381526020017f4a544b00000000000000000000000000000000000000000000000000000000008152506007908162000091919062000671565b50620000a26200027760201b60201c565b600a620000b09190620008e8565b611388620000bf919062000939565b600855348015620000cf57600080fd5b5060068054620000df9062000460565b80601f01602080910402602001604051908101604052809291908181526020018280546200010d9062000460565b80156200015e5780601f1062000132576101008083540402835291602001916200015e565b820191906000526020600020905b8154815290600101906020018083116200014057829003601f168201915b505050505060078054620001729062000460565b80601f0160208091040260200160405190810160405280929190818152602001828054620001a09062000460565b8015620001f15780601f10620001c557610100808354040283529160200191620001f1565b820191906000526020600020905b815481529060010190602001808311620001d357829003601f168201915b5050505050816003908162000207919062000671565b50806004908162000219919062000671565b5033600560006101000a81548173ffffffffffffffffffffffffffffffffffffffff021916908373ffffffffffffffffffffffffffffffffffffffff160217905550505062000271336008546200028060201b60201c565b62000aa8565b60006012905090565b600073ffffffffffffffffffffffffffffffffffffffff168273ffffffffffffffffffffffffffffffffffffffff1603620002f2576040517f08c379a0000000000000000000000000000000000000000000000000000000008152600401620002e990620009fb565b60405180910390fd5b6200030660008383620003ed60201b60201c565b80600260008282546200031a919062000a1d565b92505081905550806000808473ffffffffffffffffffffffffffffffffffffffff1673ffffffffffffffffffffffffffffffffffffffff168152602001908152602001600020600082825401925050819055508173ffffffffffffffffffffffffffffffffffffffff16600073ffffffffffffffffffffffffffffffffffffffff167fddf252ad1be2c89b69c2b068fc378daa952ba7f163c4a11628f55a4df523b3ef83604051620003cd919062000a8b565b60405180910390a3620003e960008383620003f260201b60201c565b5050565b505050565b505050565b600081519050919050565b7f4e487b7100000000000000000000000000000000000000000000000000000000600052604160045260246000fd5b7f4e487b7100000000000000000000000000000000000000000000000000000000600052602260045260246000fd5b600060028204905060018216806200047957607f821691505b6020821081036200048f576200048e62000431565b5b50919050565b60008190508160005260206000209050919050565b60006020601f8301049050919050565b600082821b905092915050565b600060088302620004f97fffffffffffffffffffffffffffffffffffffffffffffffffffffffffffffffff82620004ba565b620005058683620004ba565b95508019841693508086168417925050509392505050565b6000819050919050565b6000819050919050565b6000620005526200054c62000546846200051d565b62000527565b6200051d565b9050919050565b6000819050919050565b6200056e8362000531565b620005866200057d8262000559565b848454620004c7565b825550505050565b600090565b6200059d6200058e565b620005aa81848462000563565b505050565b5b81811015620005d257620005c660008262000593565b600181019050620005b0565b5050565b601f8211156200062157620005eb8162000495565b620005f684620004aa565b8101602085101562000606578190505b6200061e6200061585620004aa565b830182620005af565b50505b505050565b600082821c905092915050565b6000620006466000198460080262000626565b1980831691505092915050565b600062000661838362000633565b9150826002028217905092915050565b6200067c82620003f7565b67ffffffffffffffff81111562000698576200069762000402565b5b620006a4825462000460565b620006b1828285620005d6565b600060209050601f831160018114620006e95760008415620006d4578287015190505b620006e0858262000653565b86555062000750565b601f198416620006f98662000495565b60005b828110156200072357848901518255600182019150602085019450602081019050620006fc565b868310156200074357848901516200073f601f89168262000633565b8355505b6001600288020188555050505b505050505050565b7f4e487b7100000000000000000000000000000000000000000000000000000000600052601160045260246000fd5b60008160011c9050919050565b6000808291508390505b6001851115620007e657808604811115620007be57620007bd62000758565b5b6001851615620007ce5780820291505b8081029050620007de8562000787565b94506200079e565b94509492505050565b600082620008015760019050620008d4565b81620008115760009050620008d4565b81600181146200082a576002811462000835576200086b565b6001915050620008d4565b60ff8411156200084a576200084962000758565b5b8360020a91508482111562000864576200086362000758565b5b50620008d4565b5060208310610133831016604e8410600b8410161715620008a55782820a9050838111156200089f576200089e62000758565b5b620008d4565b620008b4848484600162000794565b92509050818404811115620008ce57620008cd62000758565b5b81810290505b9392505050565b600060ff82169050919050565b6000620008f5826200051d565b91506200090283620008db565b9250620009317fffffffffffffffffffffffffffffffffffffffffffffffffffffffffffffffff8484620007ef565b905092915050565b600062000946826200051d565b915062000953836200051d565b9250817fffffffffffffffffffffffffffffffffffffffffffffffffffffffffffffffff04831182151516156200098f576200098e62000758565b5b828202905092915050565b600082825260208201905092915050565b7f45524332303a206d696e7420746f20746865207a65726f206164647265737300600082015250565b6000620009e3601f836200099a565b9150620009f082620009ab565b602082019050919050565b6000602082019050818103600083015262000a1681620009d4565b9050919050565b600062000a2a826200051d565b915062000a37836200051d565b9250827fffffffffffffffffffffffffffffffffffffffffffffffffffffffffffffffff0382111562000a6f5762000a6e62000758565b5b828201905092915050565b62000a85816200051d565b82525050565b600060208201905062000aa2600083018462000a7a565b92915050565b61158d8062000ab86000396000f3fe6080604052600436106100f35760003560e01c806370a082311161008a578063a9059cbb11610059578063a9059cbb14610347578063b09f126614610384578063d28d8852146103af578063dd62ed3e146103da576100f3565b806370a082311461027757806389ded484146102b457806395d89b41146102df578063a457c2d71461030a576100f3565b8063313ce567116100c6578063313ce567146101c857806339509351146101f35780633eaaf86b1461023057806368f8fc101461025b576100f3565b806306fdde03146100f8578063095ea7b31461012357806318160ddd1461016057806323b872dd1461018b575b600080fd5b34801561010457600080fd5b5061010d610417565b60405161011a9190610e48565b60405180910390f35b34801561012f57600080fd5b5061014a60048036038101906101459190610f03565b6104a9565b6040516101579190610f5e565b60405180910390f35b34801561016c57600080fd5b506101756104cc565b6040516101829190610f88565b60405180910390f35b34801561019757600080fd5b506101b260048036038101906101ad9190610fa3565b6104d6565b6040516101bf9190610f5e565b60405180910390f35b3480156101d457600080fd5b506101dd610505565b6040516101ea9190611012565b60405180910390f35b3480156101ff57600080fd5b5061021a60048036038101906102159190610f03565b61050e565b6040516102279190610f5e565b60405180910390f35b34801561023c57600080fd5b50610245610545565b6040516102529190610f88565b60405180910390f35b61027560048036038101906102709190610f03565b61054b565b005b34801561028357600080fd5b5061029e6004803603810190610299919061102d565b61055a565b6040516102ab9190610f88565b60405180910390f35b3480156102c057600080fd5b506102c96105a2565b6040516102d69190610f88565b60405180910390f35b3480156102eb57600080fd5b506102f46105e8565b6040516103019190610e48565b60405180910390f35b34801561031657600080fd5b50610331600480360381019061032c9190610f03565b61067a565b60405161033e9190610f5e565b60405180910390f35b34801561035357600080fd5b5061036e60048036038101906103699190610f03565b6106f1565b60405161037b9190610f5e565b60405180910390f35b34801561039057600080fd5b5061039961072f565b6040516103a69190610e48565b60405180910390f35b3480156103bb57600080fd5b506103c46107bd565b6040516103d19190610e48565b60405180910390f35b3480156103e657600080fd5b5061040160048036038101906103fc919061105a565b61084b565b60405161040e9190610f88565b60405180910390f35b606060038054610426906110c9565b80601f0160208091040260200160405190810160405280929190818152602001828054610452906110c9565b801561049f5780601f106104745761010080835404028352916020019161049f565b820191906000526020600020905b81548152906001019060200180831161048257829003601f168201915b5050505050905090565b6000806104b46108d2565b90506104c18185856108da565b600191505092915050565b6000600254905090565b6000806104e16108d2565b90506104ee858285610aa3565b6104f9858585610b2f565b60019150509392505050565b60006012905090565b6000806105196108d2565b905061053a81858561052b858961084b565b6105359190611129565b6108da565b600191505092915050565b60085481565b610556308383610b2f565b5050565b60008060008373ffffffffffffffffffffffffffffffffffffffff1673ffffffffffffffffffffffffffffffffffffffff168152602001908152602001600020549050919050565b60008060003073ffffffffffffffffffffffffffffffffffffffff1673ffffffffffffffffffffffffffffffffffffffff16815260200190815260200160002054905090565b6060600480546105f7906110c9565b80601f0160208091040260200160405190810160405280929190818152602001828054610623906110c9565b80156106705780601f1061064557610100808354040283529160200191610670565b820191906000526020600020905b81548152906001019060200180831161065357829003601f168201915b5050505050905090565b6000806106856108d2565b90506000610693828661084b565b9050838110156106d8576040517f08c379a00000000000000000000000000000000000000000000000000000000081526004016106cf906111f1565b60405180910390fd5b6106e582868684036108da565b60019250505092915050565b600080600560009054906101000a900473ffffffffffffffffffffffffffffffffffffffff169050610724818585610b2f565b600191505092915050565b6007805461073c906110c9565b80601f0160208091040260200160405190810160405280929190818152602001828054610768906110c9565b80156107b55780601f1061078a576101008083540402835291602001916107b5565b820191906000526020600020905b81548152906001019060200180831161079857829003601f168201915b505050505081565b600680546107ca906110c9565b80601f01602080910402602001604051908101604052809291908181526020018280546107f6906110c9565b80156108435780601f1061081857610100808354040283529160200191610843565b820191906000526020600020905b81548152906001019060200180831161082657829003601f168201915b505050505081565b6000600160008473ffffffffffffffffffffffffffffffffffffffff1673ffffffffffffffffffffffffffffffffffffffff16815260200190815260200160002060008373ffffffffffffffffffffffffffffffffffffffff1673ffffffffffffffffffffffffffffffffffffffff16815260200190815260200160002054905092915050565b600033905090565b600073ffffffffffffffffffffffffffffffffffffffff168373ffffffffffffffffffffffffffffffffffffffff1603610949576040517f08c379a000000000000000000000000000000000000000000000000000000000815260040161094090611283565b60405180910390fd5b600073ffffffffffffffffffffffffffffffffffffffff168273ffffffffffffffffffffffffffffffffffffffff16036109b8576040517f08c379a00000000000000000000000000000000000000000000000000000000081526004016109af90611315565b60405180910390fd5b80600160008573ffffffffffffffffffffffffffffffffffffffff1673ffffffffffffffffffffffffffffffffffffffff16815260200190815260200160002060008473ffffffffffffffffffffffffffffffffffffffff1673ffffffffffffffffffffffffffffffffffffffff168152602001908152602001600020819055508173ffffffffffffffffffffffffffffffffffffffff168373ffffffffffffffffffffffffffffffffffffffff167f8c5be1e5ebec7d5bd14f71427d1e84f3dd0314c0f7b2291e5b200ac8c7c3b92583604051610a969190610f88565b60405180910390a3505050565b6000610aaf848461084b565b90507fffffffffffffffffffffffffffffffffffffffffffffffffffffffffffffffff8114610b295781811015610b1b576040517f08c379a0000000000000000000000000000000000000000000000000000000008152600401610b1290611381565b60405180910390fd5b610b2884848484036108da565b5b50505050565b600073ffffffffffffffffffffffffffffffffffffffff168373ffffffffffffffffffffffffffffffffffffffff1603610b9e576040517f08c379a0000000000000000000000000000000000000000000000000000000008152600401610b9590611413565b60405180910390fd5b600073ffffffffffffffffffffffffffffffffffffffff168273ffffffffffffffffffffffffffffffffffffffff1603610c0d576040517f08c379a0000000000000000000000000000000000000000000000000000000008152600401610c04906114a5565b60405180910390fd5b610c18838383610da5565b60008060008573ffffffffffffffffffffffffffffffffffffffff1673ffffffffffffffffffffffffffffffffffffffff16815260200190815260200160002054905081811015610c9e576040517f08c379a0000000000000000000000000000000000000000000000000000000008152600401610c9590611537565b60405180910390fd5b8181036000808673ffffffffffffffffffffffffffffffffffffffff1673ffffffffffffffffffffffffffffffffffffffff16815260200190815260200160002081905550816000808573ffffffffffffffffffffffffffffffffffffffff1673ffffffffffffffffffffffffffffffffffffffff168152602001908152602001600020600082825401925050819055508273ffffffffffffffffffffffffffffffffffffffff168473ffffffffffffffffffffffffffffffffffffffff167fddf252ad1be2c89b69c2b068fc378daa952ba7f163c4a11628f55a4df523b3ef84604051610d8c9190610f88565b60405180910390a3610d9f848484610daa565b50505050565b505050565b505050565b600081519050919050565b600082825260208201905092915050565b60005b83811015610de9578082015181840152602081019050610dce565b83811115610df8576000848401525b50505050565b6000601f19601f8301169050919050565b6000610e1a82610daf565b610e248185610dba565b9350610e34818560208601610dcb565b610e3d81610dfe565b840191505092915050565b60006020820190508181036000830152610e628184610e0f565b905092915050565b600080fd5b600073ffffffffffffffffffffffffffffffffffffffff82169050919050565b6000610e9a82610e6f565b9050919050565b610eaa81610e8f565b8114610eb557600080fd5b50565b600081359050610ec781610ea1565b92915050565b6000819050919050565b610ee081610ecd565b8114610eeb57600080fd5b50565b600081359050610efd81610ed7565b92915050565b60008060408385031215610f1a57610f19610e6a565b5b6000610f2885828601610eb8565b9250506020610f3985828601610eee565b9150509250929050565b60008115159050919050565b610f5881610f43565b82525050565b6000602082019050610f736000830184610f4f565b92915050565b610f8281610ecd565b82525050565b6000602082019050610f9d6000830184610f79565b92915050565b600080600060608486031215610fbc57610fbb610e6a565b5b6000610fca86828701610eb8565b9350506020610fdb86828701610eb8565b9250506040610fec86828701610eee565b9150509250925092565b600060ff82169050919050565b61100c81610ff6565b82525050565b60006020820190506110276000830184611003565b92915050565b60006020828403121561104357611042610e6a565b5b600061105184828501610eb8565b91505092915050565b6000806040838503121561107157611070610e6a565b5b600061107f85828601610eb8565b925050602061109085828601610eb8565b9150509250929050565b7f4e487b7100000000000000000000000000000000000000000000000000000000600052602260045260246000fd5b600060028204905060018216806110e157607f821691505b6020821081036110f4576110f361109a565b5b50919050565b7f4e487b7100000000000000000000000000000000000000000000000000000000600052601160045260246000fd5b600061113482610ecd565b915061113f83610ecd565b9250827fffffffffffffffffffffffffffffffffffffffffffffffffffffffffffffffff03821115611174576111736110fa565b5b828201905092915050565b7f45524332303a2064656372656173656420616c6c6f77616e63652062656c6f7760008201527f207a65726f000000000000000000000000000000000000000000000000000000602082015250565b60006111db602583610dba565b91506111e68261117f565b604082019050919050565b6000602082019050818103600083015261120a816111ce565b9050919050565b7f45524332303a20617070726f76652066726f6d20746865207a65726f2061646460008201527f7265737300000000000000000000000000000000000000000000000000000000602082015250565b600061126d602483610dba565b915061127882611211565b604082019050919050565b6000602082019050818103600083015261129c81611260565b9050919050565b7f45524332303a20617070726f766520746f20746865207a65726f20616464726560008201527f7373000000000000000000000000000000000000000000000000000000000000602082015250565b60006112ff602283610dba565b915061130a826112a3565b604082019050919050565b6000602082019050818103600083015261132e816112f2565b9050919050565b7f45524332303a20696e73756666696369656e7420616c6c6f77616e6365000000600082015250565b600061136b601d83610dba565b915061137682611335565b602082019050919050565b6000602082019050818103600083015261139a8161135e565b9050919050565b7f45524332303a207472616e736665722066726f6d20746865207a65726f20616460008201527f6472657373000000000000000000000000000000000000000000000000000000602082015250565b60006113fd602583610dba565b9150611408826113a1565b604082019050919050565b6000602082019050818103600083015261142c816113f0565b9050919050565b7f45524332303a207472616e7366657220746f20746865207a65726f206164647260008201527f6573730000000000000000000000000000000000000000000000000000000000602082015250565b600061148f602383610dba565b915061149a82611433565b604082019050919050565b600060208201905081810360008301526114be81611482565b9050919050565b7f45524332303a207472616e7366657220616d6f756e742065786365656473206260008201527f616c616e63650000000000000000000000000000000000000000000000000000602082015250565b6000611521602683610dba565b915061152c826114c5565b604082019050919050565b6000602082019050818103600083015261155081611514565b905091905056fea2646970667358221220e4b52fd3031b8eec10b5d0ac7112ef2dac4f812d4e5241498e98e68e7111283864736f6c634300080f0033",
  "immutableReferences": {},
  "source": "pragma solidity ^0.8.15;\n\nimport \"../node_modules/@openzeppelin/contracts/token/ERC20/ERC20.sol\";\n\ncontract JwtToken is ERC20 {\n    string public _name = \"JwtToken\";\n    string public _symbol = \"JTK\";\n    uint256 public _totalSupply = 5000 * (10 ** decimals());\n\n    constructor() ERC20(_name, _symbol) {\n        // _mint() :     \n        _mint(msg.sender, _totalSupply);\n    }\n}\n\n// (0) 0x9b4ac0c393490c539b7b2655abe550ef2f59c5f6473438e2dd5de22870252a82\n// (1) 0xbcad4a12e86716e1755e9ea8477269d9521ed50362c354bff28b593a2cea7386\n// (2) 0xf3d2c034e5a632e91fac0d2b8b991a6d8355f6163d33bfbfa60d365e4dcdce02\n// (3) 0x0e7f40b7bbeca36993d1630c92b984bf55ae14028bbeaf6a7c904d8021ee1fef\n// (4) 0xeb6f575041bf35b2ed92f49053ebb1fba1fd03fd7d6594b1da48dce4d44b5d64\n// (5) 0x68d5c3ab7a4d34dcd5e467cc0edb00d5e87b7a854d3404f8b3771849c93bb940\n// (6) 0x7420de026f3cd743cb47fbefa89bd7944579173a39765f0d3f8444a0b49824b7\n// (7) 0x13578084ecb04d96717c3988cefb125167efb23f5b15938573347d7d7dcd0bca\n// (8) 0x5d82859c0411bd6f68b1f5afb11bf423bea22a668d79a6836aa62f201fe38825\n// (9) 0xb74d7b8fc3787552ae93feefb856da2c01451070879f13c5d87cc9671b2f7e2d",
  "sourcePath": "/Users/zerohoney/hacker_project/web3hacker/contracts/JwtToken.sol",
  "compiler": {
    "name": "solc",
    "version": "0.8.15+commit.e14f2714.Emscripten.clang"
  },
  "schemaVersion": "3.4.14",
  "updatedAt": "2023-07-28T07:06:59.739Z",
  "networkType": "ethereum",
  "devdoc": {
    "kind": "dev",
    "methods": {
      "allowance(address,address)": {
        "details": "See {IERC20-allowance}."
      },
      "approve(address,uint256)": {
        "details": "See {IERC20-approve}. NOTE: If `amount` is the maximum `uint256`, the allowance is not updated on `transferFrom`. This is semantically equivalent to an infinite approval. Requirements: - `spender` cannot be the zero address."
      },
      "balanceOf(address)": {
        "details": "See {IERC20-balanceOf}."
      },
      "decimals()": {
        "details": "Returns the number of decimals used to get its user representation. For example, if `decimals` equals `2`, a balance of `505` tokens should be displayed to a user as `5.05` (`505 / 10 ** 2`). Tokens usually opt for a value of 18, imitating the relationship between Ether and Wei. This is the default value returned by this function, unless it's overridden. NOTE: This information is only used for _display_ purposes: it in no way affects any of the arithmetic of the contract, including {IERC20-balanceOf} and {IERC20-transfer}."
      },
      "decreaseAllowance(address,uint256)": {
        "details": "Atomically decreases the allowance granted to `spender` by the caller. This is an alternative to {approve} that can be used as a mitigation for problems described in {IERC20-approve}. Emits an {Approval} event indicating the updated allowance. Requirements: - `spender` cannot be the zero address. - `spender` must have allowance for the caller of at least `subtractedValue`."
      },
      "increaseAllowance(address,uint256)": {
        "details": "Atomically increases the allowance granted to `spender` by the caller. This is an alternative to {approve} that can be used as a mitigation for problems described in {IERC20-approve}. Emits an {Approval} event indicating the updated allowance. Requirements: - `spender` cannot be the zero address."
      },
      "name()": {
        "details": "Returns the name of the token."
      },
      "symbol()": {
        "details": "Returns the symbol of the token, usually a shorter version of the name."
      },
      "totalSupply()": {
        "details": "See {IERC20-totalSupply}."
      },
      "transfer(address,uint256)": {
        "details": "See {IERC20-transfer}. Requirements: - `to` cannot be the zero address. - the caller must have a balance of at least `amount`."
      },
      "transferFrom(address,address,uint256)": {
        "details": "See {IERC20-transferFrom}. Emits an {Approval} event indicating the updated allowance. This is not required by the EIP. See the note at the beginning of {ERC20}. NOTE: Does not update the allowance if the current allowance is the maximum `uint256`. Requirements: - `from` and `to` cannot be the zero address. - `from` must have a balance of at least `amount`. - the caller must have allowance for ``from``'s tokens of at least `amount`."
      }
    },
    "version": 1
  },
  "userdoc": {
    "kind": "user",
    "methods": {},
    "version": 1
  }
}