{
	"myNFT.sol": {
		"MyNFT": {
			"abi": [
				{
					"inputs": [
						{
							"internalType": "string",
							"name": "_name",
							"type": "string"
						},
						{
							"internalType": "string",
							"name": "_symbol",
							"type": "string"
						}
					],
					"stateMutability": "nonpayable",
					"type": "constructor"
				},
				{
					"inputs": [
						{
							"internalType": "address",
							"name": "sender",
							"type": "address"
						},
						{
							"internalType": "uint256",
							"name": "tokenId",
							"type": "uint256"
						},
						{
							"internalType": "address",
							"name": "owner",
							"type": "address"
						}
					],
					"name": "ERC721IncorrectOwner",
					"type": "error"
				},
				{
					"inputs": [
						{
							"internalType": "address",
							"name": "operator",
							"type": "address"
						},
						{
							"internalType": "uint256",
							"name": "tokenId",
							"type": "uint256"
						}
					],
					"name": "ERC721InsufficientApproval",
					"type": "error"
				},
				{
					"inputs": [
						{
							"internalType": "address",
							"name": "approver",
							"type": "address"
						}
					],
					"name": "ERC721InvalidApprover",
					"type": "error"
				},
				{
					"inputs": [
						{
							"internalType": "address",
							"name": "operator",
							"type": "address"
						}
					],
					"name": "ERC721InvalidOperator",
					"type": "error"
				},
				{
					"inputs": [
						{
							"internalType": "address",
							"name": "owner",
							"type": "address"
						}
					],
					"name": "ERC721InvalidOwner",
					"type": "error"
				},
				{
					"inputs": [
						{
							"internalType": "address",
							"name": "receiver",
							"type": "address"
						}
					],
					"name": "ERC721InvalidReceiver",
					"type": "error"
				},
				{
					"inputs": [
						{
							"internalType": "address",
							"name": "sender",
							"type": "address"
						}
					],
					"name": "ERC721InvalidSender",
					"type": "error"
				},
				{
					"inputs": [
						{
							"internalType": "uint256",
							"name": "tokenId",
							"type": "uint256"
						}
					],
					"name": "ERC721NonexistentToken",
					"type": "error"
				},
				{
					"anonymous": false,
					"inputs": [
						{
							"indexed": true,
							"internalType": "address",
							"name": "owner",
							"type": "address"
						},
						{
							"indexed": true,
							"internalType": "address",
							"name": "approved",
							"type": "address"
						},
						{
							"indexed": true,
							"internalType": "uint256",
							"name": "tokenId",
							"type": "uint256"
						}
					],
					"name": "Approval",
					"type": "event"
				},
				{
					"anonymous": false,
					"inputs": [
						{
							"indexed": true,
							"internalType": "address",
							"name": "owner",
							"type": "address"
						},
						{
							"indexed": true,
							"internalType": "address",
							"name": "operator",
							"type": "address"
						},
						{
							"indexed": false,
							"internalType": "bool",
							"name": "approved",
							"type": "bool"
						}
					],
					"name": "ApprovalForAll",
					"type": "event"
				},
				{
					"anonymous": false,
					"inputs": [
						{
							"indexed": true,
							"internalType": "address",
							"name": "from",
							"type": "address"
						},
						{
							"indexed": true,
							"internalType": "address",
							"name": "to",
							"type": "address"
						},
						{
							"indexed": true,
							"internalType": "uint256",
							"name": "tokenId",
							"type": "uint256"
						}
					],
					"name": "Transfer",
					"type": "event"
				},
				{
					"inputs": [
						{
							"internalType": "address",
							"name": "to",
							"type": "address"
						},
						{
							"internalType": "uint256",
							"name": "tokenId",
							"type": "uint256"
						}
					],
					"name": "approve",
					"outputs": [],
					"stateMutability": "nonpayable",
					"type": "function"
				},
				{
					"inputs": [
						{
							"internalType": "address",
							"name": "owner",
							"type": "address"
						}
					],
					"name": "balanceOf",
					"outputs": [
						{
							"internalType": "uint256",
							"name": "",
							"type": "uint256"
						}
					],
					"stateMutability": "view",
					"type": "function"
				},
				{
					"inputs": [
						{
							"internalType": "uint256",
							"name": "tokenId",
							"type": "uint256"
						}
					],
					"name": "getApproved",
					"outputs": [
						{
							"internalType": "address",
							"name": "",
							"type": "address"
						}
					],
					"stateMutability": "view",
					"type": "function"
				},
				{
					"inputs": [
						{
							"internalType": "address",
							"name": "owner",
							"type": "address"
						},
						{
							"internalType": "address",
							"name": "operator",
							"type": "address"
						}
					],
					"name": "isApprovedForAll",
					"outputs": [
						{
							"internalType": "bool",
							"name": "",
							"type": "bool"
						}
					],
					"stateMutability": "view",
					"type": "function"
				},
				{
					"inputs": [
						{
							"internalType": "string",
							"name": "tokenURI",
							"type": "string"
						}
					],
					"name": "minting",
					"outputs": [],
					"stateMutability": "nonpayable",
					"type": "function"
				},
				{
					"inputs": [],
					"name": "name",
					"outputs": [
						{
							"internalType": "string",
							"name": "",
							"type": "string"
						}
					],
					"stateMutability": "view",
					"type": "function"
				},
				{
					"inputs": [
						{
							"internalType": "uint256",
							"name": "tokenId",
							"type": "uint256"
						}
					],
					"name": "ownerOf",
					"outputs": [
						{
							"internalType": "address",
							"name": "",
							"type": "address"
						}
					],
					"stateMutability": "view",
					"type": "function"
				},
				{
					"inputs": [
						{
							"internalType": "address",
							"name": "from",
							"type": "address"
						},
						{
							"internalType": "address",
							"name": "to",
							"type": "address"
						},
						{
							"internalType": "uint256",
							"name": "tokenId",
							"type": "uint256"
						}
					],
					"name": "safeTransferFrom",
					"outputs": [],
					"stateMutability": "nonpayable",
					"type": "function"
				},
				{
					"inputs": [
						{
							"internalType": "address",
							"name": "from",
							"type": "address"
						},
						{
							"internalType": "address",
							"name": "to",
							"type": "address"
						},
						{
							"internalType": "uint256",
							"name": "tokenId",
							"type": "uint256"
						},
						{
							"internalType": "bytes",
							"name": "data",
							"type": "bytes"
						}
					],
					"name": "safeTransferFrom",
					"outputs": [],
					"stateMutability": "nonpayable",
					"type": "function"
				},
				{
					"inputs": [
						{
							"internalType": "address",
							"name": "owner",
							"type": "address"
						},
						{
							"internalType": "address",
							"name": "operator",
							"type": "address"
						},
						{
							"internalType": "bool",
							"name": "approved",
							"type": "bool"
						}
					],
					"name": "setAppAll",
					"outputs": [],
					"stateMutability": "nonpayable",
					"type": "function"
				},
				{
					"inputs": [
						{
							"internalType": "address",
							"name": "operator",
							"type": "address"
						},
						{
							"internalType": "bool",
							"name": "approved",
							"type": "bool"
						}
					],
					"name": "setApprovalForAll",
					"outputs": [],
					"stateMutability": "nonpayable",
					"type": "function"
				},
				{
					"inputs": [
						{
							"internalType": "bytes4",
							"name": "interfaceId",
							"type": "bytes4"
						}
					],
					"name": "supportsInterface",
					"outputs": [
						{
							"internalType": "bool",
							"name": "",
							"type": "bool"
						}
					],
					"stateMutability": "view",
					"type": "function"
				},
				{
					"inputs": [],
					"name": "symbol",
					"outputs": [
						{
							"internalType": "string",
							"name": "",
							"type": "string"
						}
					],
					"stateMutability": "view",
					"type": "function"
				},
				{
					"inputs": [
						{
							"internalType": "uint256",
							"name": "_tokenId",
							"type": "uint256"
						}
					],
					"name": "tokenURI",
					"outputs": [
						{
							"internalType": "string",
							"name": "",
							"type": "string"
						}
					],
					"stateMutability": "view",
					"type": "function"
				},
				{
					"inputs": [
						{
							"internalType": "address",
							"name": "from",
							"type": "address"
						},
						{
							"internalType": "address",
							"name": "to",
							"type": "address"
						},
						{
							"internalType": "uint256",
							"name": "tokenId",
							"type": "uint256"
						}
					],
					"name": "transferFrom",
					"outputs": [],
					"stateMutability": "nonpayable",
					"type": "function"
				}
			],
			"devdoc": {
				"errors": {
					"ERC721IncorrectOwner(address,uint256,address)": [
						{
							"details": "Indicates an error related to the ownership over a particular token. Used in transfers.",
							"params": {
								"owner": "Address of the current owner of a token.",
								"sender": "Address whose tokens are being transferred.",
								"tokenId": "Identifier number of a token."
							}
						}
					],
					"ERC721InsufficientApproval(address,uint256)": [
						{
							"details": "Indicates a failure with the `operator`’s approval. Used in transfers.",
							"params": {
								"operator": "Address that may be allowed to operate on tokens without being their owner.",
								"tokenId": "Identifier number of a token."
							}
						}
					],
					"ERC721InvalidApprover(address)": [
						{
							"details": "Indicates a failure with the `approver` of a token to be approved. Used in approvals.",
							"params": {
								"approver": "Address initiating an approval operation."
							}
						}
					],
					"ERC721InvalidOperator(address)": [
						{
							"details": "Indicates a failure with the `operator` to be approved. Used in approvals.",
							"params": {
								"operator": "Address that may be allowed to operate on tokens without being their owner."
							}
						}
					],
					"ERC721InvalidOwner(address)": [
						{
							"details": "Indicates that an address can't be an owner. For example, `address(0)` is a forbidden owner in EIP-20. Used in balance queries.",
							"params": {
								"owner": "Address of the current owner of a token."
							}
						}
					],
					"ERC721InvalidReceiver(address)": [
						{
							"details": "Indicates a failure with the token `receiver`. Used in transfers.",
							"params": {
								"receiver": "Address to which tokens are being transferred."
							}
						}
					],
					"ERC721InvalidSender(address)": [
						{
							"details": "Indicates a failure with the token `sender`. Used in transfers.",
							"params": {
								"sender": "Address whose tokens are being transferred."
							}
						}
					],
					"ERC721NonexistentToken(uint256)": [
						{
							"details": "Indicates a `tokenId` whose `owner` is the zero address.",
							"params": {
								"tokenId": "Identifier number of a token."
							}
						}
					]
				},
				"events": {
					"Approval(address,address,uint256)": {
						"details": "Emitted when `owner` enables `approved` to manage the `tokenId` token."
					},
					"ApprovalForAll(address,address,bool)": {
						"details": "Emitted when `owner` enables or disables (`approved`) `operator` to manage all of its assets."
					},
					"Transfer(address,address,uint256)": {
						"details": "Emitted when `tokenId` token is transferred from `from` to `to`."
					}
				},
				"kind": "dev",
				"methods": {
					"approve(address,uint256)": {
						"details": "See {IERC721-approve}."
					},
					"balanceOf(address)": {
						"details": "See {IERC721-balanceOf}."
					},
					"getApproved(uint256)": {
						"details": "See {IERC721-getApproved}."
					},
					"isApprovedForAll(address,address)": {
						"details": "See {IERC721-isApprovedForAll}."
					},
					"name()": {
						"details": "See {IERC721Metadata-name}."
					},
					"ownerOf(uint256)": {
						"details": "See {IERC721-ownerOf}."
					},
					"safeTransferFrom(address,address,uint256)": {
						"details": "See {IERC721-safeTransferFrom}."
					},
					"safeTransferFrom(address,address,uint256,bytes)": {
						"details": "See {IERC721-safeTransferFrom}."
					},
					"setApprovalForAll(address,bool)": {
						"details": "See {IERC721-setApprovalForAll}."
					},
					"supportsInterface(bytes4)": {
						"details": "See {IERC165-supportsInterface}."
					},
					"symbol()": {
						"details": "See {IERC721Metadata-symbol}."
					},
					"transferFrom(address,address,uint256)": {
						"details": "See {IERC721-transferFrom}."
					}
				},
				"version": 1
			},
			"evm": {
				"assembly": "    /* \"myNFT.sol\":137:1430  contract MyNFT is ERC721 {... */\n  mstore(0x40, 0x80)\n    /* \"myNFT.sol\":367:368  0 */\n  0x00\n    /* \"myNFT.sol\":348:368  uint totalSupply = 0 */\n  0x07\n  sstore\n    /* \"myNFT.sol\":169:275  constructor(... */\n  callvalue\n  dup1\n  iszero\n  tag_1\n  jumpi\n  0x00\n  dup1\n  revert\ntag_1:\n  pop\n  mload(0x40)\n  sub(codesize, bytecodeSize)\n  dup1\n  bytecodeSize\n  dup4\n  codecopy\n  dup2\n  dup2\n  add\n  0x40\n  mstore\n  dup2\n  add\n  swap1\n  tag_2\n  swap2\n  swap1\n  tag_3\n  jump\t// in\ntag_2:\n    /* \"myNFT.sol\":257:262  _name */\n  dup2\n    /* \"myNFT.sol\":264:271  _symbol */\n  dup2\n    /* \"node_modules/@openzeppelin/contracts/token/ERC721/ERC721.sol\":2371:2376  name_ */\n  dup2\n    /* \"node_modules/@openzeppelin/contracts/token/ERC721/ERC721.sol\":2363:2368  _name */\n  0x00\n    /* \"node_modules/@openzeppelin/contracts/token/ERC721/ERC721.sol\":2363:2376  _name = name_ */\n  swap1\n  dup2\n  tag_7\n  swap2\n  swap1\n  tag_8\n  jump\t// in\ntag_7:\n  pop\n    /* \"node_modules/@openzeppelin/contracts/token/ERC721/ERC721.sol\":2396:2403  symbol_ */\n  dup1\n    /* \"node_modules/@openzeppelin/contracts/token/ERC721/ERC721.sol\":2386:2393  _symbol */\n  0x01\n    /* \"node_modules/@openzeppelin/contracts/token/ERC721/ERC721.sol\":2386:2403  _symbol = symbol_ */\n  swap1\n  dup2\n  tag_9\n  swap2\n  swap1\n  tag_8\n  jump\t// in\ntag_9:\n  pop\n    /* \"node_modules/@openzeppelin/contracts/token/ERC721/ERC721.sol\":2297:2410  constructor(string memory name_, string memory symbol_) {... */\n  pop\n  pop\n    /* \"myNFT.sol\":169:275  constructor(... */\n  pop\n  pop\n    /* \"myNFT.sol\":137:1430  contract MyNFT is ERC721 {... */\n  jump(tag_11)\n    /* \"#utility.yul\":7:82   */\ntag_12:\n    /* \"#utility.yul\":40:46   */\n  0x00\n    /* \"#utility.yul\":73:75   */\n  0x40\n    /* \"#utility.yul\":67:76   */\n  mload\n    /* \"#utility.yul\":57:76   */\n  swap1\n  pop\n    /* \"#utility.yul\":7:82   */\n  swap1\n  jump\t// out\n    /* \"#utility.yul\":88:205   */\ntag_13:\n    /* \"#utility.yul\":197:198   */\n  0x00\n    /* \"#utility.yul\":194:195   */\n  dup1\n    /* \"#utility.yul\":187:199   */\n  revert\n    /* \"#utility.yul\":211:328   */\ntag_14:\n    /* \"#utility.yul\":320:321   */\n  0x00\n    /* \"#utility.yul\":317:318   */\n  dup1\n    /* \"#utility.yul\":310:322   */\n  revert\n    /* \"#utility.yul\":334:451   */\ntag_15:\n    /* \"#utility.yul\":443:444   */\n  0x00\n    /* \"#utility.yul\":440:441   */\n  dup1\n    /* \"#utility.yul\":433:445   */\n  revert\n    /* \"#utility.yul\":457:574   */\ntag_16:\n    /* \"#utility.yul\":566:567   */\n  0x00\n    /* \"#utility.yul\":563:564   */\n  dup1\n    /* \"#utility.yul\":556:568   */\n  revert\n    /* \"#utility.yul\":580:682   */\ntag_17:\n    /* \"#utility.yul\":621:627   */\n  0x00\n    /* \"#utility.yul\":672:674   */\n  0x1f\n    /* \"#utility.yul\":668:675   */\n  not\n    /* \"#utility.yul\":663:665   */\n  0x1f\n    /* \"#utility.yul\":656:661   */\n  dup4\n    /* \"#utility.yul\":652:666   */\n  add\n    /* \"#utility.yul\":648:676   */\n  and\n    /* \"#utility.yul\":638:676   */\n  swap1\n  pop\n    /* \"#utility.yul\":580:682   */\n  swap2\n  swap1\n  pop\n  jump\t// out\n    /* \"#utility.yul\":688:868   */\ntag_18:\n    /* \"#utility.yul\":736:813   */\n  0x4e487b7100000000000000000000000000000000000000000000000000000000\n    /* \"#utility.yul\":733:734   */\n  0x00\n    /* \"#utility.yul\":726:814   */\n  mstore\n    /* \"#utility.yul\":833:837   */\n  0x41\n    /* \"#utility.yul\":830:831   */\n  0x04\n    /* \"#utility.yul\":823:838   */\n  mstore\n    /* \"#utility.yul\":857:861   */\n  0x24\n    /* \"#utility.yul\":854:855   */\n  0x00\n    /* \"#utility.yul\":847:862   */\n  revert\n    /* \"#utility.yul\":874:1155   */\ntag_19:\n    /* \"#utility.yul\":957:984   */\n  tag_53\n    /* \"#utility.yul\":979:983   */\n  dup3\n    /* \"#utility.yul\":957:984   */\n  tag_17\n  jump\t// in\ntag_53:\n    /* \"#utility.yul\":949:955   */\n  dup2\n    /* \"#utility.yul\":945:985   */\n  add\n    /* \"#utility.yul\":1087:1093   */\n  dup2\n    /* \"#utility.yul\":1075:1085   */\n  dup2\n    /* \"#utility.yul\":1072:1094   */\n  lt\n    /* \"#utility.yul\":1051:1069   */\n  0xffffffffffffffff\n    /* \"#utility.yul\":1039:1049   */\n  dup3\n    /* \"#utility.yul\":1036:1070   */\n  gt\n    /* \"#utility.yul\":1033:1095   */\n  or\n    /* \"#utility.yul\":1030:1118   */\n  iszero\n  tag_54\n  jumpi\n    /* \"#utility.yul\":1098:1116   */\n  tag_55\n  tag_18\n  jump\t// in\ntag_55:\n    /* \"#utility.yul\":1030:1118   */\ntag_54:\n    /* \"#utility.yul\":1138:1148   */\n  dup1\n    /* \"#utility.yul\":1134:1136   */\n  0x40\n    /* \"#utility.yul\":1127:1149   */\n  mstore\n    /* \"#utility.yul\":917:1155   */\n  pop\n    /* \"#utility.yul\":874:1155   */\n  pop\n  pop\n  jump\t// out\n    /* \"#utility.yul\":1161:1290   */\ntag_20:\n    /* \"#utility.yul\":1195:1201   */\n  0x00\n    /* \"#utility.yul\":1222:1242   */\n  tag_57\n  tag_12\n  jump\t// in\ntag_57:\n    /* \"#utility.yul\":1212:1242   */\n  swap1\n  pop\n    /* \"#utility.yul\":1251:1284   */\n  tag_58\n    /* \"#utility.yul\":1279:1283   */\n  dup3\n    /* \"#utility.yul\":1271:1277   */\n  dup3\n    /* \"#utility.yul\":1251:1284   */\n  tag_19\n  jump\t// in\ntag_58:\n    /* \"#utility.yul\":1161:1290   */\n  swap2\n  swap1\n  pop\n  jump\t// out\n    /* \"#utility.yul\":1296:1604   */\ntag_21:\n    /* \"#utility.yul\":1358:1362   */\n  0x00\n    /* \"#utility.yul\":1448:1466   */\n  0xffffffffffffffff\n    /* \"#utility.yul\":1440:1446   */\n  dup3\n    /* \"#utility.yul\":1437:1467   */\n  gt\n    /* \"#utility.yul\":1434:1490   */\n  iszero\n  tag_60\n  jumpi\n    /* \"#utility.yul\":1470:1488   */\n  tag_61\n  tag_18\n  jump\t// in\ntag_61:\n    /* \"#utility.yul\":1434:1490   */\ntag_60:\n    /* \"#utility.yul\":1508:1537   */\n  tag_62\n    /* \"#utility.yul\":1530:1536   */\n  dup3\n    /* \"#utility.yul\":1508:1537   */\n  tag_17\n  jump\t// in\ntag_62:\n    /* \"#utility.yul\":1500:1537   */\n  swap1\n  pop\n    /* \"#utility.yul\":1592:1596   */\n  0x20\n    /* \"#utility.yul\":1586:1590   */\n  dup2\n    /* \"#utility.yul\":1582:1597   */\n  add\n    /* \"#utility.yul\":1574:1597   */\n  swap1\n  pop\n    /* \"#utility.yul\":1296:1604   */\n  swap2\n  swap1\n  pop\n  jump\t// out\n    /* \"#utility.yul\":1610:1856   */\ntag_22:\n    /* \"#utility.yul\":1691:1692   */\n  0x00\n    /* \"#utility.yul\":1701:1814   */\ntag_64:\n    /* \"#utility.yul\":1715:1721   */\n  dup4\n    /* \"#utility.yul\":1712:1713   */\n  dup2\n    /* \"#utility.yul\":1709:1722   */\n  lt\n    /* \"#utility.yul\":1701:1814   */\n  iszero\n  tag_66\n  jumpi\n    /* \"#utility.yul\":1800:1801   */\n  dup1\n    /* \"#utility.yul\":1795:1798   */\n  dup3\n    /* \"#utility.yul\":1791:1802   */\n  add\n    /* \"#utility.yul\":1785:1803   */\n  mload\n    /* \"#utility.yul\":1781:1782   */\n  dup2\n    /* \"#utility.yul\":1776:1779   */\n  dup5\n    /* \"#utility.yul\":1772:1783   */\n  add\n    /* \"#utility.yul\":1765:1804   */\n  mstore\n    /* \"#utility.yul\":1737:1739   */\n  0x20\n    /* \"#utility.yul\":1734:1735   */\n  dup2\n    /* \"#utility.yul\":1730:1740   */\n  add\n    /* \"#utility.yul\":1725:1740   */\n  swap1\n  pop\n    /* \"#utility.yul\":1701:1814   */\n  jump(tag_64)\ntag_66:\n    /* \"#utility.yul\":1848:1849   */\n  0x00\n    /* \"#utility.yul\":1839:1845   */\n  dup5\n    /* \"#utility.yul\":1834:1837   */\n  dup5\n    /* \"#utility.yul\":1830:1846   */\n  add\n    /* \"#utility.yul\":1823:1850   */\n  mstore\n    /* \"#utility.yul\":1672:1856   */\n  pop\n    /* \"#utility.yul\":1610:1856   */\n  pop\n  pop\n  pop\n  jump\t// out\n    /* \"#utility.yul\":1862:2296   */\ntag_23:\n    /* \"#utility.yul\":1951:1956   */\n  0x00\n    /* \"#utility.yul\":1976:2042   */\n  tag_68\n    /* \"#utility.yul\":1992:2041   */\n  tag_69\n    /* \"#utility.yul\":2034:2040   */\n  dup5\n    /* \"#utility.yul\":1992:2041   */\n  tag_21\n  jump\t// in\ntag_69:\n    /* \"#utility.yul\":1976:2042   */\n  tag_20\n  jump\t// in\ntag_68:\n    /* \"#utility.yul\":1967:2042   */\n  swap1\n  pop\n    /* \"#utility.yul\":2065:2071   */\n  dup3\n    /* \"#utility.yul\":2058:2063   */\n  dup2\n    /* \"#utility.yul\":2051:2072   */\n  mstore\n    /* \"#utility.yul\":2103:2107   */\n  0x20\n    /* \"#utility.yul\":2096:2101   */\n  dup2\n    /* \"#utility.yul\":2092:2108   */\n  add\n    /* \"#utility.yul\":2141:2144   */\n  dup5\n    /* \"#utility.yul\":2132:2138   */\n  dup5\n    /* \"#utility.yul\":2127:2130   */\n  dup5\n    /* \"#utility.yul\":2123:2139   */\n  add\n    /* \"#utility.yul\":2120:2145   */\n  gt\n    /* \"#utility.yul\":2117:2229   */\n  iszero\n  tag_70\n  jumpi\n    /* \"#utility.yul\":2148:2227   */\n  tag_71\n  tag_16\n  jump\t// in\ntag_71:\n    /* \"#utility.yul\":2117:2229   */\ntag_70:\n    /* \"#utility.yul\":2238:2290   */\n  tag_72\n    /* \"#utility.yul\":2283:2289   */\n  dup5\n    /* \"#utility.yul\":2278:2281   */\n  dup3\n    /* \"#utility.yul\":2273:2276   */\n  dup6\n    /* \"#utility.yul\":2238:2290   */\n  tag_22\n  jump\t// in\ntag_72:\n    /* \"#utility.yul\":1957:2296   */\n  pop\n    /* \"#utility.yul\":1862:2296   */\n  swap4\n  swap3\n  pop\n  pop\n  pop\n  jump\t// out\n    /* \"#utility.yul\":2316:2671   */\ntag_24:\n    /* \"#utility.yul\":2383:2388   */\n  0x00\n    /* \"#utility.yul\":2432:2435   */\n  dup3\n    /* \"#utility.yul\":2425:2429   */\n  0x1f\n    /* \"#utility.yul\":2417:2423   */\n  dup4\n    /* \"#utility.yul\":2413:2430   */\n  add\n    /* \"#utility.yul\":2409:2436   */\n  slt\n    /* \"#utility.yul\":2399:2521   */\n  tag_74\n  jumpi\n    /* \"#utility.yul\":2440:2519   */\n  tag_75\n  tag_15\n  jump\t// in\ntag_75:\n    /* \"#utility.yul\":2399:2521   */\ntag_74:\n    /* \"#utility.yul\":2550:2556   */\n  dup2\n    /* \"#utility.yul\":2544:2557   */\n  mload\n    /* \"#utility.yul\":2575:2665   */\n  tag_76\n    /* \"#utility.yul\":2661:2664   */\n  dup5\n    /* \"#utility.yul\":2653:2659   */\n  dup3\n    /* \"#utility.yul\":2646:2650   */\n  0x20\n    /* \"#utility.yul\":2638:2644   */\n  dup7\n    /* \"#utility.yul\":2634:2651   */\n  add\n    /* \"#utility.yul\":2575:2665   */\n  tag_23\n  jump\t// in\ntag_76:\n    /* \"#utility.yul\":2566:2665   */\n  swap2\n  pop\n    /* \"#utility.yul\":2389:2671   */\n  pop\n    /* \"#utility.yul\":2316:2671   */\n  swap3\n  swap2\n  pop\n  pop\n  jump\t// out\n    /* \"#utility.yul\":2677:3530   */\ntag_3:\n    /* \"#utility.yul\":2776:2782   */\n  0x00\n    /* \"#utility.yul\":2784:2790   */\n  dup1\n    /* \"#utility.yul\":2833:2835   */\n  0x40\n    /* \"#utility.yul\":2821:2830   */\n  dup4\n    /* \"#utility.yul\":2812:2819   */\n  dup6\n    /* \"#utility.yul\":2808:2831   */\n  sub\n    /* \"#utility.yul\":2804:2836   */\n  slt\n    /* \"#utility.yul\":2801:2920   */\n  iszero\n  tag_78\n  jumpi\n    /* \"#utility.yul\":2839:2918   */\n  tag_79\n  tag_13\n  jump\t// in\ntag_79:\n    /* \"#utility.yul\":2801:2920   */\ntag_78:\n    /* \"#utility.yul\":2980:2981   */\n  0x00\n    /* \"#utility.yul\":2969:2978   */\n  dup4\n    /* \"#utility.yul\":2965:2982   */\n  add\n    /* \"#utility.yul\":2959:2983   */\n  mload\n    /* \"#utility.yul\":3010:3028   */\n  0xffffffffffffffff\n    /* \"#utility.yul\":3002:3008   */\n  dup2\n    /* \"#utility.yul\":2999:3029   */\n  gt\n    /* \"#utility.yul\":2996:3113   */\n  iszero\n  tag_80\n  jumpi\n    /* \"#utility.yul\":3032:3111   */\n  tag_81\n  tag_14\n  jump\t// in\ntag_81:\n    /* \"#utility.yul\":2996:3113   */\ntag_80:\n    /* \"#utility.yul\":3137:3211   */\n  tag_82\n    /* \"#utility.yul\":3203:3210   */\n  dup6\n    /* \"#utility.yul\":3194:3200   */\n  dup3\n    /* \"#utility.yul\":3183:3192   */\n  dup7\n    /* \"#utility.yul\":3179:3201   */\n  add\n    /* \"#utility.yul\":3137:3211   */\n  tag_24\n  jump\t// in\ntag_82:\n    /* \"#utility.yul\":3127:3211   */\n  swap3\n  pop\n    /* \"#utility.yul\":2930:3221   */\n  pop\n    /* \"#utility.yul\":3281:3283   */\n  0x20\n    /* \"#utility.yul\":3270:3279   */\n  dup4\n    /* \"#utility.yul\":3266:3284   */\n  add\n    /* \"#utility.yul\":3260:3285   */\n  mload\n    /* \"#utility.yul\":3312:3330   */\n  0xffffffffffffffff\n    /* \"#utility.yul\":3304:3310   */\n  dup2\n    /* \"#utility.yul\":3301:3331   */\n  gt\n    /* \"#utility.yul\":3298:3415   */\n  iszero\n  tag_83\n  jumpi\n    /* \"#utility.yul\":3334:3413   */\n  tag_84\n  tag_14\n  jump\t// in\ntag_84:\n    /* \"#utility.yul\":3298:3415   */\ntag_83:\n    /* \"#utility.yul\":3439:3513   */\n  tag_85\n    /* \"#utility.yul\":3505:3512   */\n  dup6\n    /* \"#utility.yul\":3496:3502   */\n  dup3\n    /* \"#utility.yul\":3485:3494   */\n  dup7\n    /* \"#utility.yul\":3481:3503   */\n  add\n    /* \"#utility.yul\":3439:3513   */\n  tag_24\n  jump\t// in\ntag_85:\n    /* \"#utility.yul\":3429:3513   */\n  swap2\n  pop\n    /* \"#utility.yul\":3231:3523   */\n  pop\n    /* \"#utility.yul\":2677:3530   */\n  swap3\n  pop\n  swap3\n  swap1\n  pop\n  jump\t// out\n    /* \"#utility.yul\":3536:3635   */\ntag_25:\n    /* \"#utility.yul\":3588:3594   */\n  0x00\n    /* \"#utility.yul\":3622:3627   */\n  dup2\n    /* \"#utility.yul\":3616:3628   */\n  mload\n    /* \"#utility.yul\":3606:3628   */\n  swap1\n  pop\n    /* \"#utility.yul\":3536:3635   */\n  swap2\n  swap1\n  pop\n  jump\t// out\n    /* \"#utility.yul\":3641:3821   */\ntag_26:\n    /* \"#utility.yul\":3689:3766   */\n  0x4e487b7100000000000000000000000000000000000000000000000000000000\n    /* \"#utility.yul\":3686:3687   */\n  0x00\n    /* \"#utility.yul\":3679:3767   */\n  mstore\n    /* \"#utility.yul\":3786:3790   */\n  0x22\n    /* \"#utility.yul\":3783:3784   */\n  0x04\n    /* \"#utility.yul\":3776:3791   */\n  mstore\n    /* \"#utility.yul\":3810:3814   */\n  0x24\n    /* \"#utility.yul\":3807:3808   */\n  0x00\n    /* \"#utility.yul\":3800:3815   */\n  revert\n    /* \"#utility.yul\":3827:4147   */\ntag_27:\n    /* \"#utility.yul\":3871:3877   */\n  0x00\n    /* \"#utility.yul\":3908:3909   */\n  0x02\n    /* \"#utility.yul\":3902:3906   */\n  dup3\n    /* \"#utility.yul\":3898:3910   */\n  div\n    /* \"#utility.yul\":3888:3910   */\n  swap1\n  pop\n    /* \"#utility.yul\":3955:3956   */\n  0x01\n    /* \"#utility.yul\":3949:3953   */\n  dup3\n    /* \"#utility.yul\":3945:3957   */\n  and\n    /* \"#utility.yul\":3976:3994   */\n  dup1\n    /* \"#utility.yul\":3966:4047   */\n  tag_89\n  jumpi\n    /* \"#utility.yul\":4032:4036   */\n  0x7f\n    /* \"#utility.yul\":4024:4030   */\n  dup3\n    /* \"#utility.yul\":4020:4037   */\n  and\n    /* \"#utility.yul\":4010:4037   */\n  swap2\n  pop\n    /* \"#utility.yul\":3966:4047   */\ntag_89:\n    /* \"#utility.yul\":4094:4096   */\n  0x20\n    /* \"#utility.yul\":4086:4092   */\n  dup3\n    /* \"#utility.yul\":4083:4097   */\n  lt\n    /* \"#utility.yul\":4063:4081   */\n  dup2\n    /* \"#utility.yul\":4060:4098   */\n  sub\n    /* \"#utility.yul\":4057:4141   */\n  tag_90\n  jumpi\n    /* \"#utility.yul\":4113:4131   */\n  tag_91\n  tag_26\n  jump\t// in\ntag_91:\n    /* \"#utility.yul\":4057:4141   */\ntag_90:\n    /* \"#utility.yul\":3878:4147   */\n  pop\n    /* \"#utility.yul\":3827:4147   */\n  swap2\n  swap1\n  pop\n  jump\t// out\n    /* \"#utility.yul\":4153:4294   */\ntag_28:\n    /* \"#utility.yul\":4202:4206   */\n  0x00\n    /* \"#utility.yul\":4225:4228   */\n  dup2\n    /* \"#utility.yul\":4217:4228   */\n  swap1\n  pop\n    /* \"#utility.yul\":4248:4251   */\n  dup2\n    /* \"#utility.yul\":4245:4246   */\n  0x00\n    /* \"#utility.yul\":4238:4252   */\n  mstore\n    /* \"#utility.yul\":4282:4286   */\n  0x20\n    /* \"#utility.yul\":4279:4280   */\n  0x00\n    /* \"#utility.yul\":4269:4287   */\n  keccak256\n    /* \"#utility.yul\":4261:4287   */\n  swap1\n  pop\n    /* \"#utility.yul\":4153:4294   */\n  swap2\n  swap1\n  pop\n  jump\t// out\n    /* \"#utility.yul\":4300:4393   */\ntag_29:\n    /* \"#utility.yul\":4337:4343   */\n  0x00\n    /* \"#utility.yul\":4384:4386   */\n  0x20\n    /* \"#utility.yul\":4379:4381   */\n  0x1f\n    /* \"#utility.yul\":4372:4377   */\n  dup4\n    /* \"#utility.yul\":4368:4382   */\n  add\n    /* \"#utility.yul\":4364:4387   */\n  div\n    /* \"#utility.yul\":4354:4387   */\n  swap1\n  pop\n    /* \"#utility.yul\":4300:4393   */\n  swap2\n  swap1\n  pop\n  jump\t// out\n    /* \"#utility.yul\":4399:4506   */\ntag_30:\n    /* \"#utility.yul\":4443:4451   */\n  0x00\n    /* \"#utility.yul\":4493:4498   */\n  dup3\n    /* \"#utility.yul\":4487:4491   */\n  dup3\n    /* \"#utility.yul\":4483:4499   */\n  shl\n    /* \"#utility.yul\":4462:4499   */\n  swap1\n  pop\n    /* \"#utility.yul\":4399:4506   */\n  swap3\n  swap2\n  pop\n  pop\n  jump\t// out\n    /* \"#utility.yul\":4512:4905   */\ntag_31:\n    /* \"#utility.yul\":4581:4587   */\n  0x00\n    /* \"#utility.yul\":4631:4632   */\n  0x08\n    /* \"#utility.yul\":4619:4629   */\n  dup4\n    /* \"#utility.yul\":4615:4633   */\n  mul\n    /* \"#utility.yul\":4654:4751   */\n  tag_96\n    /* \"#utility.yul\":4684:4750   */\n  0xffffffffffffffffffffffffffffffffffffffffffffffffffffffffffffffff\n    /* \"#utility.yul\":4673:4682   */\n  dup3\n    /* \"#utility.yul\":4654:4751   */\n  tag_30\n  jump\t// in\ntag_96:\n    /* \"#utility.yul\":4772:4811   */\n  tag_97\n    /* \"#utility.yul\":4802:4810   */\n  dup7\n    /* \"#utility.yul\":4791:4800   */\n  dup4\n    /* \"#utility.yul\":4772:4811   */\n  tag_30\n  jump\t// in\ntag_97:\n    /* \"#utility.yul\":4760:4811   */\n  swap6\n  pop\n    /* \"#utility.yul\":4844:4848   */\n  dup1\n    /* \"#utility.yul\":4840:4849   */\n  not\n    /* \"#utility.yul\":4833:4838   */\n  dup5\n    /* \"#utility.yul\":4829:4850   */\n  and\n    /* \"#utility.yul\":4820:4850   */\n  swap4\n  pop\n    /* \"#utility.yul\":4893:4897   */\n  dup1\n    /* \"#utility.yul\":4883:4891   */\n  dup7\n    /* \"#utility.yul\":4879:4898   */\n  and\n    /* \"#utility.yul\":4872:4877   */\n  dup5\n    /* \"#utility.yul\":4869:4899   */\n  or\n    /* \"#utility.yul\":4859:4899   */\n  swap3\n  pop\n    /* \"#utility.yul\":4588:4905   */\n  pop\n  pop\n    /* \"#utility.yul\":4512:4905   */\n  swap4\n  swap3\n  pop\n  pop\n  pop\n  jump\t// out\n    /* \"#utility.yul\":4911:4988   */\ntag_32:\n    /* \"#utility.yul\":4948:4955   */\n  0x00\n    /* \"#utility.yul\":4977:4982   */\n  dup2\n    /* \"#utility.yul\":4966:4982   */\n  swap1\n  pop\n    /* \"#utility.yul\":4911:4988   */\n  swap2\n  swap1\n  pop\n  jump\t// out\n    /* \"#utility.yul\":4994:5054   */\ntag_33:\n    /* \"#utility.yul\":5022:5025   */\n  0x00\n    /* \"#utility.yul\":5043:5048   */\n  dup2\n    /* \"#utility.yul\":5036:5048   */\n  swap1\n  pop\n    /* \"#utility.yul\":4994:5054   */\n  swap2\n  swap1\n  pop\n  jump\t// out\n    /* \"#utility.yul\":5060:5202   */\ntag_34:\n    /* \"#utility.yul\":5110:5119   */\n  0x00\n    /* \"#utility.yul\":5143:5196   */\n  tag_101\n    /* \"#utility.yul\":5161:5195   */\n  tag_102\n    /* \"#utility.yul\":5170:5194   */\n  tag_103\n    /* \"#utility.yul\":5188:5193   */\n  dup5\n    /* \"#utility.yul\":5170:5194   */\n  tag_32\n  jump\t// in\ntag_103:\n    /* \"#utility.yul\":5161:5195   */\n  tag_33\n  jump\t// in\ntag_102:\n    /* \"#utility.yul\":5143:5196   */\n  tag_32\n  jump\t// in\ntag_101:\n    /* \"#utility.yul\":5130:5196   */\n  swap1\n  pop\n    /* \"#utility.yul\":5060:5202   */\n  swap2\n  swap1\n  pop\n  jump\t// out\n    /* \"#utility.yul\":5208:5283   */\ntag_35:\n    /* \"#utility.yul\":5251:5254   */\n  0x00\n    /* \"#utility.yul\":5272:5277   */\n  dup2\n    /* \"#utility.yul\":5265:5277   */\n  swap1\n  pop\n    /* \"#utility.yul\":5208:5283   */\n  swap2\n  swap1\n  pop\n  jump\t// out\n    /* \"#utility.yul\":5289:5558   */\ntag_36:\n    /* \"#utility.yul\":5399:5438   */\n  tag_106\n    /* \"#utility.yul\":5430:5437   */\n  dup4\n    /* \"#utility.yul\":5399:5438   */\n  tag_34\n  jump\t// in\ntag_106:\n    /* \"#utility.yul\":5460:5551   */\n  tag_107\n    /* \"#utility.yul\":5509:5550   */\n  tag_108\n    /* \"#utility.yul\":5533:5549   */\n  dup3\n    /* \"#utility.yul\":5509:5550   */\n  tag_35\n  jump\t// in\ntag_108:\n    /* \"#utility.yul\":5501:5507   */\n  dup5\n    /* \"#utility.yul\":5494:5498   */\n  dup5\n    /* \"#utility.yul\":5488:5499   */\n  sload\n    /* \"#utility.yul\":5460:5551   */\n  tag_31\n  jump\t// in\ntag_107:\n    /* \"#utility.yul\":5454:5458   */\n  dup3\n    /* \"#utility.yul\":5447:5552   */\n  sstore\n    /* \"#utility.yul\":5365:5558   */\n  pop\n    /* \"#utility.yul\":5289:5558   */\n  pop\n  pop\n  pop\n  jump\t// out\n    /* \"#utility.yul\":5564:5637   */\ntag_37:\n    /* \"#utility.yul\":5609:5612   */\n  0x00\n    /* \"#utility.yul\":5564:5637   */\n  swap1\n  jump\t// out\n    /* \"#utility.yul\":5643:5832   */\ntag_38:\n    /* \"#utility.yul\":5720:5752   */\n  tag_111\n  tag_37\n  jump\t// in\ntag_111:\n    /* \"#utility.yul\":5761:5826   */\n  tag_112\n    /* \"#utility.yul\":5819:5825   */\n  dup2\n    /* \"#utility.yul\":5811:5817   */\n  dup5\n    /* \"#utility.yul\":5805:5809   */\n  dup5\n    /* \"#utility.yul\":5761:5826   */\n  tag_36\n  jump\t// in\ntag_112:\n    /* \"#utility.yul\":5696:5832   */\n  pop\n    /* \"#utility.yul\":5643:5832   */\n  pop\n  pop\n  jump\t// out\n    /* \"#utility.yul\":5838:6024   */\ntag_39:\n    /* \"#utility.yul\":5898:6018   */\ntag_114:\n    /* \"#utility.yul\":5915:5918   */\n  dup2\n    /* \"#utility.yul\":5908:5913   */\n  dup2\n    /* \"#utility.yul\":5905:5919   */\n  lt\n    /* \"#utility.yul\":5898:6018   */\n  iszero\n  tag_116\n  jumpi\n    /* \"#utility.yul\":5969:6008   */\n  tag_117\n    /* \"#utility.yul\":6006:6007   */\n  0x00\n    /* \"#utility.yul\":5999:6004   */\n  dup3\n    /* \"#utility.yul\":5969:6008   */\n  tag_38\n  jump\t// in\ntag_117:\n    /* \"#utility.yul\":5942:5943   */\n  0x01\n    /* \"#utility.yul\":5935:5940   */\n  dup2\n    /* \"#utility.yul\":5931:5944   */\n  add\n    /* \"#utility.yul\":5922:5944   */\n  swap1\n  pop\n    /* \"#utility.yul\":5898:6018   */\n  jump(tag_114)\ntag_116:\n    /* \"#utility.yul\":5838:6024   */\n  pop\n  pop\n  jump\t// out\n    /* \"#utility.yul\":6030:6573   */\ntag_40:\n    /* \"#utility.yul\":6131:6133   */\n  0x1f\n    /* \"#utility.yul\":6126:6129   */\n  dup3\n    /* \"#utility.yul\":6123:6134   */\n  gt\n    /* \"#utility.yul\":6120:6566   */\n  iszero\n  tag_119\n  jumpi\n    /* \"#utility.yul\":6165:6203   */\n  tag_120\n    /* \"#utility.yul\":6197:6202   */\n  dup2\n    /* \"#utility.yul\":6165:6203   */\n  tag_28\n  jump\t// in\ntag_120:\n    /* \"#utility.yul\":6249:6278   */\n  tag_121\n    /* \"#utility.yul\":6267:6277   */\n  dup5\n    /* \"#utility.yul\":6249:6278   */\n  tag_29\n  jump\t// in\ntag_121:\n    /* \"#utility.yul\":6239:6247   */\n  dup2\n    /* \"#utility.yul\":6235:6279   */\n  add\n    /* \"#utility.yul\":6432:6434   */\n  0x20\n    /* \"#utility.yul\":6420:6430   */\n  dup6\n    /* \"#utility.yul\":6417:6435   */\n  lt\n    /* \"#utility.yul\":6414:6463   */\n  iszero\n  tag_122\n  jumpi\n    /* \"#utility.yul\":6453:6461   */\n  dup2\n    /* \"#utility.yul\":6438:6461   */\n  swap1\n  pop\n    /* \"#utility.yul\":6414:6463   */\ntag_122:\n    /* \"#utility.yul\":6476:6556   */\n  tag_123\n    /* \"#utility.yul\":6532:6554   */\n  tag_124\n    /* \"#utility.yul\":6550:6553   */\n  dup6\n    /* \"#utility.yul\":6532:6554   */\n  tag_29\n  jump\t// in\ntag_124:\n    /* \"#utility.yul\":6522:6530   */\n  dup4\n    /* \"#utility.yul\":6518:6555   */\n  add\n    /* \"#utility.yul\":6505:6516   */\n  dup3\n    /* \"#utility.yul\":6476:6556   */\n  tag_39\n  jump\t// in\ntag_123:\n    /* \"#utility.yul\":6135:6566   */\n  pop\n  pop\n    /* \"#utility.yul\":6120:6566   */\ntag_119:\n    /* \"#utility.yul\":6030:6573   */\n  pop\n  pop\n  pop\n  jump\t// out\n    /* \"#utility.yul\":6579:6696   */\ntag_41:\n    /* \"#utility.yul\":6633:6641   */\n  0x00\n    /* \"#utility.yul\":6683:6688   */\n  dup3\n    /* \"#utility.yul\":6677:6681   */\n  dup3\n    /* \"#utility.yul\":6673:6689   */\n  shr\n    /* \"#utility.yul\":6652:6689   */\n  swap1\n  pop\n    /* \"#utility.yul\":6579:6696   */\n  swap3\n  swap2\n  pop\n  pop\n  jump\t// out\n    /* \"#utility.yul\":6702:6871   */\ntag_42:\n    /* \"#utility.yul\":6746:6752   */\n  0x00\n    /* \"#utility.yul\":6779:6830   */\n  tag_127\n    /* \"#utility.yul\":6827:6828   */\n  0x00\n    /* \"#utility.yul\":6823:6829   */\n  not\n    /* \"#utility.yul\":6815:6820   */\n  dup5\n    /* \"#utility.yul\":6812:6813   */\n  0x08\n    /* \"#utility.yul\":6808:6821   */\n  mul\n    /* \"#utility.yul\":6779:6830   */\n  tag_41\n  jump\t// in\ntag_127:\n    /* \"#utility.yul\":6775:6831   */\n  not\n    /* \"#utility.yul\":6860:6864   */\n  dup1\n    /* \"#utility.yul\":6854:6858   */\n  dup4\n    /* \"#utility.yul\":6850:6865   */\n  and\n    /* \"#utility.yul\":6840:6865   */\n  swap2\n  pop\n    /* \"#utility.yul\":6753:6871   */\n  pop\n    /* \"#utility.yul\":6702:6871   */\n  swap3\n  swap2\n  pop\n  pop\n  jump\t// out\n    /* \"#utility.yul\":6876:7171   */\ntag_43:\n    /* \"#utility.yul\":6952:6956   */\n  0x00\n    /* \"#utility.yul\":7098:7127   */\n  tag_129\n    /* \"#utility.yul\":7123:7126   */\n  dup4\n    /* \"#utility.yul\":7117:7121   */\n  dup4\n    /* \"#utility.yul\":7098:7127   */\n  tag_42\n  jump\t// in\ntag_129:\n    /* \"#utility.yul\":7090:7127   */\n  swap2\n  pop\n    /* \"#utility.yul\":7160:7163   */\n  dup3\n    /* \"#utility.yul\":7157:7158   */\n  0x02\n    /* \"#utility.yul\":7153:7164   */\n  mul\n    /* \"#utility.yul\":7147:7151   */\n  dup3\n    /* \"#utility.yul\":7144:7165   */\n  or\n    /* \"#utility.yul\":7136:7165   */\n  swap1\n  pop\n    /* \"#utility.yul\":6876:7171   */\n  swap3\n  swap2\n  pop\n  pop\n  jump\t// out\n    /* \"#utility.yul\":7176:8571   */\ntag_8:\n    /* \"#utility.yul\":7293:7330   */\n  tag_131\n    /* \"#utility.yul\":7326:7329   */\n  dup3\n    /* \"#utility.yul\":7293:7330   */\n  tag_25\n  jump\t// in\ntag_131:\n    /* \"#utility.yul\":7395:7413   */\n  0xffffffffffffffff\n    /* \"#utility.yul\":7387:7393   */\n  dup2\n    /* \"#utility.yul\":7384:7414   */\n  gt\n    /* \"#utility.yul\":7381:7437   */\n  iszero\n  tag_132\n  jumpi\n    /* \"#utility.yul\":7417:7435   */\n  tag_133\n  tag_18\n  jump\t// in\ntag_133:\n    /* \"#utility.yul\":7381:7437   */\ntag_132:\n    /* \"#utility.yul\":7461:7499   */\n  tag_134\n    /* \"#utility.yul\":7493:7497   */\n  dup3\n    /* \"#utility.yul\":7487:7498   */\n  sload\n    /* \"#utility.yul\":7461:7499   */\n  tag_27\n  jump\t// in\ntag_134:\n    /* \"#utility.yul\":7546:7613   */\n  tag_135\n    /* \"#utility.yul\":7606:7612   */\n  dup3\n    /* \"#utility.yul\":7598:7604   */\n  dup3\n    /* \"#utility.yul\":7592:7596   */\n  dup6\n    /* \"#utility.yul\":7546:7613   */\n  tag_40\n  jump\t// in\ntag_135:\n    /* \"#utility.yul\":7640:7641   */\n  0x00\n    /* \"#utility.yul\":7664:7668   */\n  0x20\n    /* \"#utility.yul\":7651:7668   */\n  swap1\n  pop\n    /* \"#utility.yul\":7696:7698   */\n  0x1f\n    /* \"#utility.yul\":7688:7694   */\n  dup4\n    /* \"#utility.yul\":7685:7699   */\n  gt\n    /* \"#utility.yul\":7713:7714   */\n  0x01\n    /* \"#utility.yul\":7708:8326   */\n  dup2\n  eq\n  tag_137\n  jumpi\n    /* \"#utility.yul\":8370:8371   */\n  0x00\n    /* \"#utility.yul\":8387:8393   */\n  dup5\n    /* \"#utility.yul\":8384:8461   */\n  iszero\n  tag_138\n  jumpi\n    /* \"#utility.yul\":8436:8445   */\n  dup3\n    /* \"#utility.yul\":8431:8434   */\n  dup8\n    /* \"#utility.yul\":8427:8446   */\n  add\n    /* \"#utility.yul\":8421:8447   */\n  mload\n    /* \"#utility.yul\":8412:8447   */\n  swap1\n  pop\n    /* \"#utility.yul\":8384:8461   */\ntag_138:\n    /* \"#utility.yul\":8487:8554   */\n  tag_139\n    /* \"#utility.yul\":8547:8553   */\n  dup6\n    /* \"#utility.yul\":8540:8545   */\n  dup3\n    /* \"#utility.yul\":8487:8554   */\n  tag_43\n  jump\t// in\ntag_139:\n    /* \"#utility.yul\":8481:8485   */\n  dup7\n    /* \"#utility.yul\":8474:8555   */\n  sstore\n    /* \"#utility.yul\":8343:8565   */\n  pop\n    /* \"#utility.yul\":7678:8565   */\n  jump(tag_136)\n    /* \"#utility.yul\":7708:8326   */\ntag_137:\n    /* \"#utility.yul\":7760:7764   */\n  0x1f\n    /* \"#utility.yul\":7756:7765   */\n  not\n    /* \"#utility.yul\":7748:7754   */\n  dup5\n    /* \"#utility.yul\":7744:7766   */\n  and\n    /* \"#utility.yul\":7794:7831   */\n  tag_140\n    /* \"#utility.yul\":7826:7830   */\n  dup7\n    /* \"#utility.yul\":7794:7831   */\n  tag_28\n  jump\t// in\ntag_140:\n    /* \"#utility.yul\":7853:7854   */\n  0x00\n    /* \"#utility.yul\":7867:8075   */\ntag_141:\n    /* \"#utility.yul\":7881:7888   */\n  dup3\n    /* \"#utility.yul\":7878:7879   */\n  dup2\n    /* \"#utility.yul\":7875:7889   */\n  lt\n    /* \"#utility.yul\":7867:8075   */\n  iszero\n  tag_143\n  jumpi\n    /* \"#utility.yul\":7960:7969   */\n  dup5\n    /* \"#utility.yul\":7955:7958   */\n  dup10\n    /* \"#utility.yul\":7951:7970   */\n  add\n    /* \"#utility.yul\":7945:7971   */\n  mload\n    /* \"#utility.yul\":7937:7943   */\n  dup3\n    /* \"#utility.yul\":7930:7972   */\n  sstore\n    /* \"#utility.yul\":8011:8012   */\n  0x01\n    /* \"#utility.yul\":8003:8009   */\n  dup3\n    /* \"#utility.yul\":7999:8013   */\n  add\n    /* \"#utility.yul\":7989:8013   */\n  swap2\n  pop\n    /* \"#utility.yul\":8058:8060   */\n  0x20\n    /* \"#utility.yul\":8047:8056   */\n  dup6\n    /* \"#utility.yul\":8043:8061   */\n  add\n    /* \"#utility.yul\":8030:8061   */\n  swap5\n  pop\n    /* \"#utility.yul\":7904:7908   */\n  0x20\n    /* \"#utility.yul\":7901:7902   */\n  dup2\n    /* \"#utility.yul\":7897:7909   */\n  add\n    /* \"#utility.yul\":7892:7909   */\n  swap1\n  pop\n    /* \"#utility.yul\":7867:8075   */\n  jump(tag_141)\ntag_143:\n    /* \"#utility.yul\":8103:8109   */\n  dup7\n    /* \"#utility.yul\":8094:8101   */\n  dup4\n    /* \"#utility.yul\":8091:8110   */\n  lt\n    /* \"#utility.yul\":8088:8267   */\n  iszero\n  tag_144\n  jumpi\n    /* \"#utility.yul\":8161:8170   */\n  dup5\n    /* \"#utility.yul\":8156:8159   */\n  dup10\n    /* \"#utility.yul\":8152:8171   */\n  add\n    /* \"#utility.yul\":8146:8172   */\n  mload\n    /* \"#utility.yul\":8204:8252   */\n  tag_145\n    /* \"#utility.yul\":8246:8250   */\n  0x1f\n    /* \"#utility.yul\":8238:8244   */\n  dup10\n    /* \"#utility.yul\":8234:8251   */\n  and\n    /* \"#utility.yul\":8223:8232   */\n  dup3\n    /* \"#utility.yul\":8204:8252   */\n  tag_42\n  jump\t// in\ntag_145:\n    /* \"#utility.yul\":8196:8202   */\n  dup4\n    /* \"#utility.yul\":8189:8253   */\n  sstore\n    /* \"#utility.yul\":8111:8267   */\n  pop\n    /* \"#utility.yul\":8088:8267   */\ntag_144:\n    /* \"#utility.yul\":8313:8314   */\n  0x01\n    /* \"#utility.yul\":8309:8310   */\n  0x02\n    /* \"#utility.yul\":8301:8307   */\n  dup9\n    /* \"#utility.yul\":8297:8311   */\n  mul\n    /* \"#utility.yul\":8293:8315   */\n  add\n    /* \"#utility.yul\":8287:8291   */\n  dup9\n    /* \"#utility.yul\":8280:8316   */\n  sstore\n    /* \"#utility.yul\":7715:8326   */\n  pop\n  pop\n  pop\n    /* \"#utility.yul\":7678:8565   */\ntag_136:\n  pop\n    /* \"#utility.yul\":7268:8571   */\n  pop\n  pop\n  pop\n    /* \"#utility.yul\":7176:8571   */\n  pop\n  pop\n  jump\t// out\n    /* \"myNFT.sol\":137:1430  contract MyNFT is ERC721 {... */\ntag_11:\n  dataSize(sub_0)\n  dup1\n  dataOffset(sub_0)\n  0x00\n  codecopy\n  0x00\n  return\nstop\n\nsub_0: assembly {\n        /* \"myNFT.sol\":137:1430  contract MyNFT is ERC721 {... */\n      mstore(0x40, 0x80)\n      callvalue\n      dup1\n      iszero\n      tag_1\n      jumpi\n      0x00\n      dup1\n      revert\n    tag_1:\n      pop\n      jumpi(tag_2, lt(calldatasize, 0x04))\n      shr(0xe0, calldataload(0x00))\n      dup1\n      0x42842e0e\n      gt\n      tag_18\n      jumpi\n      dup1\n      0xa22cb465\n      gt\n      tag_19\n      jumpi\n      dup1\n      0xa22cb465\n      eq\n      tag_14\n      jumpi\n      dup1\n      0xb88d4fde\n      eq\n      tag_15\n      jumpi\n      dup1\n      0xc87b56dd\n      eq\n      tag_16\n      jumpi\n      dup1\n      0xe985e9c5\n      eq\n      tag_17\n      jumpi\n      jump(tag_2)\n    tag_19:\n      dup1\n      0x42842e0e\n      eq\n      tag_10\n      jumpi\n      dup1\n      0x6352211e\n      eq\n      tag_11\n      jumpi\n      dup1\n      0x70a08231\n      eq\n      tag_12\n      jumpi\n      dup1\n      0x95d89b41\n      eq\n      tag_13\n      jumpi\n      jump(tag_2)\n    tag_18:\n      dup1\n      0x095ea7b3\n      gt\n      tag_20\n      jumpi\n      dup1\n      0x095ea7b3\n      eq\n      tag_6\n      jumpi\n      dup1\n      0x0bdc9008\n      eq\n      tag_7\n      jumpi\n      dup1\n      0x23b872dd\n      eq\n      tag_8\n      jumpi\n      dup1\n      0x29d6724e\n      eq\n      tag_9\n      jumpi\n      jump(tag_2)\n    tag_20:\n      dup1\n      0x01ffc9a7\n      eq\n      tag_3\n      jumpi\n      dup1\n      0x06fdde03\n      eq\n      tag_4\n      jumpi\n      dup1\n      0x081812fc\n      eq\n      tag_5\n      jumpi\n    tag_2:\n      0x00\n      dup1\n      revert\n        /* \"node_modules/@openzeppelin/contracts/token/ERC721/ERC721.sol\":2578:2878  function supportsInterface(bytes4 interfaceId) public view virtual override(ERC165, IERC165) returns (bool) {... */\n    tag_3:\n      tag_21\n      0x04\n      dup1\n      calldatasize\n      sub\n      dup2\n      add\n      swap1\n      tag_22\n      swap2\n      swap1\n      tag_23\n      jump\t// in\n    tag_22:\n      tag_24\n      jump\t// in\n    tag_21:\n      mload(0x40)\n      tag_25\n      swap2\n      swap1\n      tag_26\n      jump\t// in\n    tag_25:\n      mload(0x40)\n      dup1\n      swap2\n      sub\n      swap1\n      return\n        /* \"node_modules/@openzeppelin/contracts/token/ERC721/ERC721.sol\":3684:3773  function name() public view virtual returns (string memory) {... */\n    tag_4:\n      tag_27\n      tag_28\n      jump\t// in\n    tag_27:\n      mload(0x40)\n      tag_29\n      swap2\n      swap1\n      tag_30\n      jump\t// in\n    tag_29:\n      mload(0x40)\n      dup1\n      swap2\n      sub\n      swap1\n      return\n        /* \"node_modules/@openzeppelin/contracts/token/ERC721/ERC721.sol\":5400:5554  function getApproved(uint256 tokenId) public view virtual returns (address) {... */\n    tag_5:\n      tag_31\n      0x04\n      dup1\n      calldatasize\n      sub\n      dup2\n      add\n      swap1\n      tag_32\n      swap2\n      swap1\n      tag_33\n      jump\t// in\n    tag_32:\n      tag_34\n      jump\t// in\n    tag_31:\n      mload(0x40)\n      tag_35\n      swap2\n      swap1\n      tag_36\n      jump\t// in\n    tag_35:\n      mload(0x40)\n      dup1\n      swap2\n      sub\n      swap1\n      return\n        /* \"node_modules/@openzeppelin/contracts/token/ERC721/ERC721.sol\":5226:5339  function approve(address to, uint256 tokenId) public virtual {... */\n    tag_6:\n      tag_37\n      0x04\n      dup1\n      calldatasize\n      sub\n      dup2\n      add\n      swap1\n      tag_38\n      swap2\n      swap1\n      tag_39\n      jump\t// in\n    tag_38:\n      tag_40\n      jump\t// in\n    tag_37:\n      stop\n        /* \"myNFT.sol\":381:551  function minting( string memory tokenURI) public {... */\n    tag_7:\n      tag_41\n      0x04\n      dup1\n      calldatasize\n      sub\n      dup2\n      add\n      swap1\n      tag_42\n      swap2\n      swap1\n      tag_43\n      jump\t// in\n    tag_42:\n      tag_44\n      jump\t// in\n    tag_41:\n      stop\n        /* \"node_modules/@openzeppelin/contracts/token/ERC721/ERC721.sol\":6078:6656  function transferFrom(address from, address to, uint256 tokenId) public virtual {... */\n    tag_8:\n      tag_45\n      0x04\n      dup1\n      calldatasize\n      sub\n      dup2\n      add\n      swap1\n      tag_46\n      swap2\n      swap1\n      tag_47\n      jump\t// in\n    tag_46:\n      tag_48\n      jump\t// in\n    tag_45:\n      stop\n        /* \"myNFT.sol\":1229:1367  function setAppAll(address owner, address operator, bool approved) public {... */\n    tag_9:\n      tag_49\n      0x04\n      dup1\n      calldatasize\n      sub\n      dup2\n      add\n      swap1\n      tag_50\n      swap2\n      swap1\n      tag_51\n      jump\t// in\n    tag_50:\n      tag_52\n      jump\t// in\n    tag_49:\n      stop\n        /* \"node_modules/@openzeppelin/contracts/token/ERC721/ERC721.sol\":6722:6854  function safeTransferFrom(address from, address to, uint256 tokenId) public {... */\n    tag_10:\n      tag_53\n      0x04\n      dup1\n      calldatasize\n      sub\n      dup2\n      add\n      swap1\n      tag_54\n      swap2\n      swap1\n      tag_47\n      jump\t// in\n    tag_54:\n      tag_55\n      jump\t// in\n    tag_53:\n      stop\n        /* \"node_modules/@openzeppelin/contracts/token/ERC721/ERC721.sol\":3460:3578  function ownerOf(uint256 tokenId) public view virtual returns (address) {... */\n    tag_11:\n      tag_56\n      0x04\n      dup1\n      calldatasize\n      sub\n      dup2\n      add\n      swap1\n      tag_57\n      swap2\n      swap1\n      tag_33\n      jump\t// in\n    tag_57:\n      tag_58\n      jump\t// in\n    tag_56:\n      mload(0x40)\n      tag_59\n      swap2\n      swap1\n      tag_36\n      jump\t// in\n    tag_59:\n      mload(0x40)\n      dup1\n      swap2\n      sub\n      swap1\n      return\n        /* \"node_modules/@openzeppelin/contracts/token/ERC721/ERC721.sol\":3023:3231  function balanceOf(address owner) public view virtual returns (uint256) {... */\n    tag_12:\n      tag_60\n      0x04\n      dup1\n      calldatasize\n      sub\n      dup2\n      add\n      swap1\n      tag_61\n      swap2\n      swap1\n      tag_62\n      jump\t// in\n    tag_61:\n      tag_63\n      jump\t// in\n    tag_60:\n      mload(0x40)\n      tag_64\n      swap2\n      swap1\n      tag_65\n      jump\t// in\n    tag_64:\n      mload(0x40)\n      dup1\n      swap2\n      sub\n      swap1\n      return\n        /* \"node_modules/@openzeppelin/contracts/token/ERC721/ERC721.sol\":3837:3930  function symbol() public view virtual returns (string memory) {... */\n    tag_13:\n      tag_66\n      tag_67\n      jump\t// in\n    tag_66:\n      mload(0x40)\n      tag_68\n      swap2\n      swap1\n      tag_30\n      jump\t// in\n    tag_68:\n      mload(0x40)\n      dup1\n      swap2\n      sub\n      swap1\n      return\n        /* \"node_modules/@openzeppelin/contracts/token/ERC721/ERC721.sol\":5653:5797  function setApprovalForAll(address operator, bool approved) public virtual {... */\n    tag_14:\n      tag_69\n      0x04\n      dup1\n      calldatasize\n      sub\n      dup2\n      add\n      swap1\n      tag_70\n      swap2\n      swap1\n      tag_71\n      jump\t// in\n    tag_70:\n      tag_72\n      jump\t// in\n    tag_69:\n      stop\n        /* \"node_modules/@openzeppelin/contracts/token/ERC721/ERC721.sol\":6920:7128  function safeTransferFrom(address from, address to, uint256 tokenId, bytes memory data) public virtual {... */\n    tag_15:\n      tag_73\n      0x04\n      dup1\n      calldatasize\n      sub\n      dup2\n      add\n      swap1\n      tag_74\n      swap2\n      swap1\n      tag_75\n      jump\t// in\n    tag_74:\n      tag_76\n      jump\t// in\n    tag_73:\n      stop\n        /* \"myNFT.sol\":704:936  function tokenURI(uint256 _tokenId) public view override returns (string memory){... */\n    tag_16:\n      tag_77\n      0x04\n      dup1\n      calldatasize\n      sub\n      dup2\n      add\n      swap1\n      tag_78\n      swap2\n      swap1\n      tag_33\n      jump\t// in\n    tag_78:\n      tag_79\n      jump\t// in\n    tag_77:\n      mload(0x40)\n      tag_80\n      swap2\n      swap1\n      tag_30\n      jump\t// in\n    tag_80:\n      mload(0x40)\n      dup1\n      swap2\n      sub\n      swap1\n      return\n        /* \"node_modules/@openzeppelin/contracts/token/ERC721/ERC721.sol\":5863:6016  function isApprovedForAll(address owner, address operator) public view virtual returns (bool) {... */\n    tag_17:\n      tag_81\n      0x04\n      dup1\n      calldatasize\n      sub\n      dup2\n      add\n      swap1\n      tag_82\n      swap2\n      swap1\n      tag_83\n      jump\t// in\n    tag_82:\n      tag_84\n      jump\t// in\n    tag_81:\n      mload(0x40)\n      tag_85\n      swap2\n      swap1\n      tag_26\n      jump\t// in\n    tag_85:\n      mload(0x40)\n      dup1\n      swap2\n      sub\n      swap1\n      return\n        /* \"node_modules/@openzeppelin/contracts/token/ERC721/ERC721.sol\":2578:2878  function supportsInterface(bytes4 interfaceId) public view virtual override(ERC165, IERC165) returns (bool) {... */\n    tag_24:\n        /* \"node_modules/@openzeppelin/contracts/token/ERC721/ERC721.sol\":2680:2684  bool */\n      0x00\n        /* \"node_modules/@openzeppelin/contracts/token/ERC721/ERC721.sol\":2730:2755  type(IERC721).interfaceId */\n      0x80ac58cd00000000000000000000000000000000000000000000000000000000\n        /* \"node_modules/@openzeppelin/contracts/token/ERC721/ERC721.sol\":2715:2755  interfaceId == type(IERC721).interfaceId */\n      not(0xffffffffffffffffffffffffffffffffffffffffffffffffffffffff)\n      and\n        /* \"node_modules/@openzeppelin/contracts/token/ERC721/ERC721.sol\":2715:2726  interfaceId */\n      dup3\n        /* \"node_modules/@openzeppelin/contracts/token/ERC721/ERC721.sol\":2715:2755  interfaceId == type(IERC721).interfaceId */\n      not(0xffffffffffffffffffffffffffffffffffffffffffffffffffffffff)\n      and\n      eq\n        /* \"node_modules/@openzeppelin/contracts/token/ERC721/ERC721.sol\":2715:2819  interfaceId == type(IERC721).interfaceId ||... */\n      dup1\n      tag_87\n      jumpi\n      pop\n        /* \"node_modules/@openzeppelin/contracts/token/ERC721/ERC721.sol\":2786:2819  type(IERC721Metadata).interfaceId */\n      0x5b5e139f00000000000000000000000000000000000000000000000000000000\n        /* \"node_modules/@openzeppelin/contracts/token/ERC721/ERC721.sol\":2771:2819  interfaceId == type(IERC721Metadata).interfaceId */\n      not(0xffffffffffffffffffffffffffffffffffffffffffffffffffffffff)\n      and\n        /* \"node_modules/@openzeppelin/contracts/token/ERC721/ERC721.sol\":2771:2782  interfaceId */\n      dup3\n        /* \"node_modules/@openzeppelin/contracts/token/ERC721/ERC721.sol\":2771:2819  interfaceId == type(IERC721Metadata).interfaceId */\n      not(0xffffffffffffffffffffffffffffffffffffffffffffffffffffffff)\n      and\n      eq\n        /* \"node_modules/@openzeppelin/contracts/token/ERC721/ERC721.sol\":2715:2819  interfaceId == type(IERC721).interfaceId ||... */\n    tag_87:\n        /* \"node_modules/@openzeppelin/contracts/token/ERC721/ERC721.sol\":2715:2871  interfaceId == type(IERC721).interfaceId ||... */\n      dup1\n      tag_88\n      jumpi\n      pop\n        /* \"node_modules/@openzeppelin/contracts/token/ERC721/ERC721.sol\":2835:2871  super.supportsInterface(interfaceId) */\n      tag_89\n        /* \"node_modules/@openzeppelin/contracts/token/ERC721/ERC721.sol\":2859:2870  interfaceId */\n      dup3\n        /* \"node_modules/@openzeppelin/contracts/token/ERC721/ERC721.sol\":2835:2858  super.supportsInterface */\n      tag_90\n        /* \"node_modules/@openzeppelin/contracts/token/ERC721/ERC721.sol\":2835:2871  super.supportsInterface(interfaceId) */\n      jump\t// in\n    tag_89:\n        /* \"node_modules/@openzeppelin/contracts/token/ERC721/ERC721.sol\":2715:2871  interfaceId == type(IERC721).interfaceId ||... */\n    tag_88:\n        /* \"node_modules/@openzeppelin/contracts/token/ERC721/ERC721.sol\":2696:2871  return... */\n      swap1\n      pop\n        /* \"node_modules/@openzeppelin/contracts/token/ERC721/ERC721.sol\":2578:2878  function supportsInterface(bytes4 interfaceId) public view virtual override(ERC165, IERC165) returns (bool) {... */\n      swap2\n      swap1\n      pop\n      jump\t// out\n        /* \"node_modules/@openzeppelin/contracts/token/ERC721/ERC721.sol\":3684:3773  function name() public view virtual returns (string memory) {... */\n    tag_28:\n        /* \"node_modules/@openzeppelin/contracts/token/ERC721/ERC721.sol\":3729:3742  string memory */\n      0x60\n        /* \"node_modules/@openzeppelin/contracts/token/ERC721/ERC721.sol\":3761:3766  _name */\n      0x00\n        /* \"node_modules/@openzeppelin/contracts/token/ERC721/ERC721.sol\":3754:3766  return _name */\n      dup1\n      sload\n      tag_92\n      swap1\n      tag_93\n      jump\t// in\n    tag_92:\n      dup1\n      0x1f\n      add\n      0x20\n      dup1\n      swap2\n      div\n      mul\n      0x20\n      add\n      mload(0x40)\n      swap1\n      dup2\n      add\n      0x40\n      mstore\n      dup1\n      swap3\n      swap2\n      swap1\n      dup2\n      dup2\n      mstore\n      0x20\n      add\n      dup3\n      dup1\n      sload\n      tag_94\n      swap1\n      tag_93\n      jump\t// in\n    tag_94:\n      dup1\n      iszero\n      tag_95\n      jumpi\n      dup1\n      0x1f\n      lt\n      tag_96\n      jumpi\n      0x0100\n      dup1\n      dup4\n      sload\n      div\n      mul\n      dup4\n      mstore\n      swap2\n      0x20\n      add\n      swap2\n      jump(tag_95)\n    tag_96:\n      dup3\n      add\n      swap2\n      swap1\n      0x00\n      mstore\n      keccak256(0x00, 0x20)\n      swap1\n    tag_97:\n      dup2\n      sload\n      dup2\n      mstore\n      swap1\n      0x01\n      add\n      swap1\n      0x20\n      add\n      dup1\n      dup4\n      gt\n      tag_97\n      jumpi\n      dup3\n      swap1\n      sub\n      0x1f\n      and\n      dup3\n      add\n      swap2\n    tag_95:\n      pop\n      pop\n      pop\n      pop\n      pop\n      swap1\n      pop\n        /* \"node_modules/@openzeppelin/contracts/token/ERC721/ERC721.sol\":3684:3773  function name() public view virtual returns (string memory) {... */\n      swap1\n      jump\t// out\n        /* \"node_modules/@openzeppelin/contracts/token/ERC721/ERC721.sol\":5400:5554  function getApproved(uint256 tokenId) public view virtual returns (address) {... */\n    tag_34:\n        /* \"node_modules/@openzeppelin/contracts/token/ERC721/ERC721.sol\":5467:5474  address */\n      0x00\n        /* \"node_modules/@openzeppelin/contracts/token/ERC721/ERC721.sol\":5486:5508  _requireOwned(tokenId) */\n      tag_99\n        /* \"node_modules/@openzeppelin/contracts/token/ERC721/ERC721.sol\":5500:5507  tokenId */\n      dup3\n        /* \"node_modules/@openzeppelin/contracts/token/ERC721/ERC721.sol\":5486:5499  _requireOwned */\n      tag_100\n        /* \"node_modules/@openzeppelin/contracts/token/ERC721/ERC721.sol\":5486:5508  _requireOwned(tokenId) */\n      jump\t// in\n    tag_99:\n      pop\n        /* \"node_modules/@openzeppelin/contracts/token/ERC721/ERC721.sol\":5526:5547  _getApproved(tokenId) */\n      tag_101\n        /* \"node_modules/@openzeppelin/contracts/token/ERC721/ERC721.sol\":5539:5546  tokenId */\n      dup3\n        /* \"node_modules/@openzeppelin/contracts/token/ERC721/ERC721.sol\":5526:5538  _getApproved */\n      tag_102\n        /* \"node_modules/@openzeppelin/contracts/token/ERC721/ERC721.sol\":5526:5547  _getApproved(tokenId) */\n      jump\t// in\n    tag_101:\n        /* \"node_modules/@openzeppelin/contracts/token/ERC721/ERC721.sol\":5519:5547  return _getApproved(tokenId) */\n      swap1\n      pop\n        /* \"node_modules/@openzeppelin/contracts/token/ERC721/ERC721.sol\":5400:5554  function getApproved(uint256 tokenId) public view virtual returns (address) {... */\n      swap2\n      swap1\n      pop\n      jump\t// out\n        /* \"node_modules/@openzeppelin/contracts/token/ERC721/ERC721.sol\":5226:5339  function approve(address to, uint256 tokenId) public virtual {... */\n    tag_40:\n        /* \"node_modules/@openzeppelin/contracts/token/ERC721/ERC721.sol\":5297:5332  _approve(to, tokenId, _msgSender()) */\n      tag_104\n        /* \"node_modules/@openzeppelin/contracts/token/ERC721/ERC721.sol\":5306:5308  to */\n      dup3\n        /* \"node_modules/@openzeppelin/contracts/token/ERC721/ERC721.sol\":5310:5317  tokenId */\n      dup3\n        /* \"node_modules/@openzeppelin/contracts/token/ERC721/ERC721.sol\":5319:5331  _msgSender() */\n      tag_105\n        /* \"node_modules/@openzeppelin/contracts/token/ERC721/ERC721.sol\":5319:5329  _msgSender */\n      tag_106\n        /* \"node_modules/@openzeppelin/contracts/token/ERC721/ERC721.sol\":5319:5331  _msgSender() */\n      jump\t// in\n    tag_105:\n        /* \"node_modules/@openzeppelin/contracts/token/ERC721/ERC721.sol\":5297:5305  _approve */\n      tag_107\n        /* \"node_modules/@openzeppelin/contracts/token/ERC721/ERC721.sol\":5297:5332  _approve(to, tokenId, _msgSender()) */\n      jump\t// in\n    tag_104:\n        /* \"node_modules/@openzeppelin/contracts/token/ERC721/ERC721.sol\":5226:5339  function approve(address to, uint256 tokenId) public virtual {... */\n      pop\n      pop\n      jump\t// out\n        /* \"myNFT.sol\":381:551  function minting( string memory tokenURI) public {... */\n    tag_44:\n        /* \"myNFT.sol\":467:475  tokenURI */\n      dup1\n        /* \"myNFT.sol\":441:451  _tokenURIs */\n      0x06\n        /* \"myNFT.sol\":441:464  _tokenURIs[totalSupply] */\n      0x00\n        /* \"myNFT.sol\":452:463  totalSupply */\n      sload(0x07)\n        /* \"myNFT.sol\":441:464  _tokenURIs[totalSupply] */\n      dup2\n      mstore\n      0x20\n      add\n      swap1\n      dup2\n      mstore\n      0x20\n      add\n      0x00\n      keccak256\n        /* \"myNFT.sol\":441:475  _tokenURIs[totalSupply] = tokenURI */\n      swap1\n      dup2\n      tag_109\n      swap2\n      swap1\n      tag_110\n      jump\t// in\n    tag_109:\n      pop\n        /* \"myNFT.sol\":486:516  _mint(msg.sender, totalSupply) */\n      tag_111\n        /* \"myNFT.sol\":492:502  msg.sender */\n      caller\n        /* \"myNFT.sol\":504:515  totalSupply */\n      sload(0x07)\n        /* \"myNFT.sol\":486:491  _mint */\n      tag_112\n        /* \"myNFT.sol\":486:516  _mint(msg.sender, totalSupply) */\n      jump\t// in\n    tag_111:\n        /* \"myNFT.sol\":542:543  1 */\n      0x01\n        /* \"myNFT.sol\":527:538  totalSupply */\n      0x07\n      0x00\n        /* \"myNFT.sol\":527:543  totalSupply += 1 */\n      dup3\n      dup3\n      sload\n      tag_113\n      swap2\n      swap1\n      tag_114\n      jump\t// in\n    tag_113:\n      swap3\n      pop\n      pop\n      dup2\n      swap1\n      sstore\n      pop\n        /* \"myNFT.sol\":381:551  function minting( string memory tokenURI) public {... */\n      pop\n      jump\t// out\n        /* \"node_modules/@openzeppelin/contracts/token/ERC721/ERC721.sol\":6078:6656  function transferFrom(address from, address to, uint256 tokenId) public virtual {... */\n    tag_48:\n        /* \"node_modules/@openzeppelin/contracts/token/ERC721/ERC721.sol\":6186:6187  0 */\n      0x00\n        /* \"node_modules/@openzeppelin/contracts/token/ERC721/ERC721.sol\":6172:6188  to == address(0) */\n      0xffffffffffffffffffffffffffffffffffffffff\n      and\n        /* \"node_modules/@openzeppelin/contracts/token/ERC721/ERC721.sol\":6172:6174  to */\n      dup3\n        /* \"node_modules/@openzeppelin/contracts/token/ERC721/ERC721.sol\":6172:6188  to == address(0) */\n      0xffffffffffffffffffffffffffffffffffffffff\n      and\n      sub\n        /* \"node_modules/@openzeppelin/contracts/token/ERC721/ERC721.sol\":6168:6255  if (to == address(0)) {... */\n      tag_116\n      jumpi\n        /* \"node_modules/@openzeppelin/contracts/token/ERC721/ERC721.sol\":6241:6242  0 */\n      0x00\n        /* \"node_modules/@openzeppelin/contracts/token/ERC721/ERC721.sol\":6211:6244  ERC721InvalidReceiver(address(0)) */\n      mload(0x40)\n      0x64a0ae9200000000000000000000000000000000000000000000000000000000\n      dup2\n      mstore\n      0x04\n      add\n      tag_117\n      swap2\n      swap1\n      tag_36\n      jump\t// in\n    tag_117:\n      mload(0x40)\n      dup1\n      swap2\n      sub\n      swap1\n      revert\n        /* \"node_modules/@openzeppelin/contracts/token/ERC721/ERC721.sol\":6168:6255  if (to == address(0)) {... */\n    tag_116:\n        /* \"node_modules/@openzeppelin/contracts/token/ERC721/ERC721.sol\":6473:6494  address previousOwner */\n      0x00\n        /* \"node_modules/@openzeppelin/contracts/token/ERC721/ERC721.sol\":6497:6531  _update(to, tokenId, _msgSender()) */\n      tag_118\n        /* \"node_modules/@openzeppelin/contracts/token/ERC721/ERC721.sol\":6505:6507  to */\n      dup4\n        /* \"node_modules/@openzeppelin/contracts/token/ERC721/ERC721.sol\":6509:6516  tokenId */\n      dup4\n        /* \"node_modules/@openzeppelin/contracts/token/ERC721/ERC721.sol\":6518:6530  _msgSender() */\n      tag_119\n        /* \"node_modules/@openzeppelin/contracts/token/ERC721/ERC721.sol\":6518:6528  _msgSender */\n      tag_106\n        /* \"node_modules/@openzeppelin/contracts/token/ERC721/ERC721.sol\":6518:6530  _msgSender() */\n      jump\t// in\n    tag_119:\n        /* \"node_modules/@openzeppelin/contracts/token/ERC721/ERC721.sol\":6497:6504  _update */\n      tag_120\n        /* \"node_modules/@openzeppelin/contracts/token/ERC721/ERC721.sol\":6497:6531  _update(to, tokenId, _msgSender()) */\n      jump\t// in\n    tag_118:\n        /* \"node_modules/@openzeppelin/contracts/token/ERC721/ERC721.sol\":6473:6531  address previousOwner = _update(to, tokenId, _msgSender()) */\n      swap1\n      pop\n        /* \"node_modules/@openzeppelin/contracts/token/ERC721/ERC721.sol\":6562:6566  from */\n      dup4\n        /* \"node_modules/@openzeppelin/contracts/token/ERC721/ERC721.sol\":6545:6566  previousOwner != from */\n      0xffffffffffffffffffffffffffffffffffffffff\n      and\n        /* \"node_modules/@openzeppelin/contracts/token/ERC721/ERC721.sol\":6545:6558  previousOwner */\n      dup2\n        /* \"node_modules/@openzeppelin/contracts/token/ERC721/ERC721.sol\":6545:6566  previousOwner != from */\n      0xffffffffffffffffffffffffffffffffffffffff\n      and\n      eq\n        /* \"node_modules/@openzeppelin/contracts/token/ERC721/ERC721.sol\":6541:6650  if (previousOwner != from) {... */\n      tag_121\n      jumpi\n        /* \"node_modules/@openzeppelin/contracts/token/ERC721/ERC721.sol\":6610:6614  from */\n      dup4\n        /* \"node_modules/@openzeppelin/contracts/token/ERC721/ERC721.sol\":6616:6623  tokenId */\n      dup3\n        /* \"node_modules/@openzeppelin/contracts/token/ERC721/ERC721.sol\":6625:6638  previousOwner */\n      dup3\n        /* \"node_modules/@openzeppelin/contracts/token/ERC721/ERC721.sol\":6589:6639  ERC721IncorrectOwner(from, tokenId, previousOwner) */\n      mload(0x40)\n      0x64283d7b00000000000000000000000000000000000000000000000000000000\n      dup2\n      mstore\n      0x04\n      add\n      tag_122\n      swap4\n      swap3\n      swap2\n      swap1\n      tag_123\n      jump\t// in\n    tag_122:\n      mload(0x40)\n      dup1\n      swap2\n      sub\n      swap1\n      revert\n        /* \"node_modules/@openzeppelin/contracts/token/ERC721/ERC721.sol\":6541:6650  if (previousOwner != from) {... */\n    tag_121:\n        /* \"node_modules/@openzeppelin/contracts/token/ERC721/ERC721.sol\":6158:6656  {... */\n      pop\n        /* \"node_modules/@openzeppelin/contracts/token/ERC721/ERC721.sol\":6078:6656  function transferFrom(address from, address to, uint256 tokenId) public virtual {... */\n      pop\n      pop\n      pop\n      jump\t// out\n        /* \"myNFT.sol\":1229:1367  function setAppAll(address owner, address operator, bool approved) public {... */\n    tag_52:\n        /* \"myNFT.sol\":1314:1359  _setApprovalForAll(owner, operator, approved) */\n      tag_125\n        /* \"myNFT.sol\":1333:1338  owner */\n      dup4\n        /* \"myNFT.sol\":1340:1348  operator */\n      dup4\n        /* \"myNFT.sol\":1350:1358  approved */\n      dup4\n        /* \"myNFT.sol\":1314:1332  _setApprovalForAll */\n      tag_126\n        /* \"myNFT.sol\":1314:1359  _setApprovalForAll(owner, operator, approved) */\n      jump\t// in\n    tag_125:\n        /* \"myNFT.sol\":1229:1367  function setAppAll(address owner, address operator, bool approved) public {... */\n      pop\n      pop\n      pop\n      jump\t// out\n        /* \"node_modules/@openzeppelin/contracts/token/ERC721/ERC721.sol\":6722:6854  function safeTransferFrom(address from, address to, uint256 tokenId) public {... */\n    tag_55:\n        /* \"node_modules/@openzeppelin/contracts/token/ERC721/ERC721.sol\":6808:6847  safeTransferFrom(from, to, tokenId, \"\") */\n      tag_128\n        /* \"node_modules/@openzeppelin/contracts/token/ERC721/ERC721.sol\":6825:6829  from */\n      dup4\n        /* \"node_modules/@openzeppelin/contracts/token/ERC721/ERC721.sol\":6831:6833  to */\n      dup4\n        /* \"node_modules/@openzeppelin/contracts/token/ERC721/ERC721.sol\":6835:6842  tokenId */\n      dup4\n        /* \"node_modules/@openzeppelin/contracts/token/ERC721/ERC721.sol\":6808:6847  safeTransferFrom(from, to, tokenId, \"\") */\n      mload(0x40)\n      dup1\n      0x20\n      add\n      0x40\n      mstore\n      dup1\n      0x00\n      dup2\n      mstore\n      pop\n        /* \"node_modules/@openzeppelin/contracts/token/ERC721/ERC721.sol\":6808:6824  safeTransferFrom */\n      tag_76\n        /* \"node_modules/@openzeppelin/contracts/token/ERC721/ERC721.sol\":6808:6847  safeTransferFrom(from, to, tokenId, \"\") */\n      jump\t// in\n    tag_128:\n        /* \"node_modules/@openzeppelin/contracts/token/ERC721/ERC721.sol\":6722:6854  function safeTransferFrom(address from, address to, uint256 tokenId) public {... */\n      pop\n      pop\n      pop\n      jump\t// out\n        /* \"node_modules/@openzeppelin/contracts/token/ERC721/ERC721.sol\":3460:3578  function ownerOf(uint256 tokenId) public view virtual returns (address) {... */\n    tag_58:\n        /* \"node_modules/@openzeppelin/contracts/token/ERC721/ERC721.sol\":3523:3530  address */\n      0x00\n        /* \"node_modules/@openzeppelin/contracts/token/ERC721/ERC721.sol\":3549:3571  _requireOwned(tokenId) */\n      tag_130\n        /* \"node_modules/@openzeppelin/contracts/token/ERC721/ERC721.sol\":3563:3570  tokenId */\n      dup3\n        /* \"node_modules/@openzeppelin/contracts/token/ERC721/ERC721.sol\":3549:3562  _requireOwned */\n      tag_100\n        /* \"node_modules/@openzeppelin/contracts/token/ERC721/ERC721.sol\":3549:3571  _requireOwned(tokenId) */\n      jump\t// in\n    tag_130:\n        /* \"node_modules/@openzeppelin/contracts/token/ERC721/ERC721.sol\":3542:3571  return _requireOwned(tokenId) */\n      swap1\n      pop\n        /* \"node_modules/@openzeppelin/contracts/token/ERC721/ERC721.sol\":3460:3578  function ownerOf(uint256 tokenId) public view virtual returns (address) {... */\n      swap2\n      swap1\n      pop\n      jump\t// out\n        /* \"node_modules/@openzeppelin/contracts/token/ERC721/ERC721.sol\":3023:3231  function balanceOf(address owner) public view virtual returns (uint256) {... */\n    tag_63:\n        /* \"node_modules/@openzeppelin/contracts/token/ERC721/ERC721.sol\":3086:3093  uint256 */\n      0x00\n        /* \"node_modules/@openzeppelin/contracts/token/ERC721/ERC721.sol\":3126:3127  0 */\n      dup1\n        /* \"node_modules/@openzeppelin/contracts/token/ERC721/ERC721.sol\":3109:3128  owner == address(0) */\n      0xffffffffffffffffffffffffffffffffffffffff\n      and\n        /* \"node_modules/@openzeppelin/contracts/token/ERC721/ERC721.sol\":3109:3114  owner */\n      dup3\n        /* \"node_modules/@openzeppelin/contracts/token/ERC721/ERC721.sol\":3109:3128  owner == address(0) */\n      0xffffffffffffffffffffffffffffffffffffffff\n      and\n      sub\n        /* \"node_modules/@openzeppelin/contracts/token/ERC721/ERC721.sol\":3105:3192  if (owner == address(0)) {... */\n      tag_132\n      jumpi\n        /* \"node_modules/@openzeppelin/contracts/token/ERC721/ERC721.sol\":3178:3179  0 */\n      0x00\n        /* \"node_modules/@openzeppelin/contracts/token/ERC721/ERC721.sol\":3151:3181  ERC721InvalidOwner(address(0)) */\n      mload(0x40)\n      0x89c62b6400000000000000000000000000000000000000000000000000000000\n      dup2\n      mstore\n      0x04\n      add\n      tag_133\n      swap2\n      swap1\n      tag_36\n      jump\t// in\n    tag_133:\n      mload(0x40)\n      dup1\n      swap2\n      sub\n      swap1\n      revert\n        /* \"node_modules/@openzeppelin/contracts/token/ERC721/ERC721.sol\":3105:3192  if (owner == address(0)) {... */\n    tag_132:\n        /* \"node_modules/@openzeppelin/contracts/token/ERC721/ERC721.sol\":3208:3217  _balances */\n      0x03\n        /* \"node_modules/@openzeppelin/contracts/token/ERC721/ERC721.sol\":3208:3224  _balances[owner] */\n      0x00\n        /* \"node_modules/@openzeppelin/contracts/token/ERC721/ERC721.sol\":3218:3223  owner */\n      dup4\n        /* \"node_modules/@openzeppelin/contracts/token/ERC721/ERC721.sol\":3208:3224  _balances[owner] */\n      0xffffffffffffffffffffffffffffffffffffffff\n      and\n      0xffffffffffffffffffffffffffffffffffffffff\n      and\n      dup2\n      mstore\n      0x20\n      add\n      swap1\n      dup2\n      mstore\n      0x20\n      add\n      0x00\n      keccak256\n      sload\n        /* \"node_modules/@openzeppelin/contracts/token/ERC721/ERC721.sol\":3201:3224  return _balances[owner] */\n      swap1\n      pop\n        /* \"node_modules/@openzeppelin/contracts/token/ERC721/ERC721.sol\":3023:3231  function balanceOf(address owner) public view virtual returns (uint256) {... */\n      swap2\n      swap1\n      pop\n      jump\t// out\n        /* \"node_modules/@openzeppelin/contracts/token/ERC721/ERC721.sol\":3837:3930  function symbol() public view virtual returns (string memory) {... */\n    tag_67:\n        /* \"node_modules/@openzeppelin/contracts/token/ERC721/ERC721.sol\":3884:3897  string memory */\n      0x60\n        /* \"node_modules/@openzeppelin/contracts/token/ERC721/ERC721.sol\":3916:3923  _symbol */\n      0x01\n        /* \"node_modules/@openzeppelin/contracts/token/ERC721/ERC721.sol\":3909:3923  return _symbol */\n      dup1\n      sload\n      tag_135\n      swap1\n      tag_93\n      jump\t// in\n    tag_135:\n      dup1\n      0x1f\n      add\n      0x20\n      dup1\n      swap2\n      div\n      mul\n      0x20\n      add\n      mload(0x40)\n      swap1\n      dup2\n      add\n      0x40\n      mstore\n      dup1\n      swap3\n      swap2\n      swap1\n      dup2\n      dup2\n      mstore\n      0x20\n      add\n      dup3\n      dup1\n      sload\n      tag_136\n      swap1\n      tag_93\n      jump\t// in\n    tag_136:\n      dup1\n      iszero\n      tag_137\n      jumpi\n      dup1\n      0x1f\n      lt\n      tag_138\n      jumpi\n      0x0100\n      dup1\n      dup4\n      sload\n      div\n      mul\n      dup4\n      mstore\n      swap2\n      0x20\n      add\n      swap2\n      jump(tag_137)\n    tag_138:\n      dup3\n      add\n      swap2\n      swap1\n      0x00\n      mstore\n      keccak256(0x00, 0x20)\n      swap1\n    tag_139:\n      dup2\n      sload\n      dup2\n      mstore\n      swap1\n      0x01\n      add\n      swap1\n      0x20\n      add\n      dup1\n      dup4\n      gt\n      tag_139\n      jumpi\n      dup3\n      swap1\n      sub\n      0x1f\n      and\n      dup3\n      add\n      swap2\n    tag_137:\n      pop\n      pop\n      pop\n      pop\n      pop\n      swap1\n      pop\n        /* \"node_modules/@openzeppelin/contracts/token/ERC721/ERC721.sol\":3837:3930  function symbol() public view virtual returns (string memory) {... */\n      swap1\n      jump\t// out\n        /* \"node_modules/@openzeppelin/contracts/token/ERC721/ERC721.sol\":5653:5797  function setApprovalForAll(address operator, bool approved) public virtual {... */\n    tag_72:\n        /* \"node_modules/@openzeppelin/contracts/token/ERC721/ERC721.sol\":5738:5790  _setApprovalForAll(_msgSender(), operator, approved) */\n      tag_141\n        /* \"node_modules/@openzeppelin/contracts/token/ERC721/ERC721.sol\":5757:5769  _msgSender() */\n      tag_142\n        /* \"node_modules/@openzeppelin/contracts/token/ERC721/ERC721.sol\":5757:5767  _msgSender */\n      tag_106\n        /* \"node_modules/@openzeppelin/contracts/token/ERC721/ERC721.sol\":5757:5769  _msgSender() */\n      jump\t// in\n    tag_142:\n        /* \"node_modules/@openzeppelin/contracts/token/ERC721/ERC721.sol\":5771:5779  operator */\n      dup4\n        /* \"node_modules/@openzeppelin/contracts/token/ERC721/ERC721.sol\":5781:5789  approved */\n      dup4\n        /* \"node_modules/@openzeppelin/contracts/token/ERC721/ERC721.sol\":5738:5756  _setApprovalForAll */\n      tag_126\n        /* \"node_modules/@openzeppelin/contracts/token/ERC721/ERC721.sol\":5738:5790  _setApprovalForAll(_msgSender(), operator, approved) */\n      jump\t// in\n    tag_141:\n        /* \"node_modules/@openzeppelin/contracts/token/ERC721/ERC721.sol\":5653:5797  function setApprovalForAll(address operator, bool approved) public virtual {... */\n      pop\n      pop\n      jump\t// out\n        /* \"node_modules/@openzeppelin/contracts/token/ERC721/ERC721.sol\":6920:7128  function safeTransferFrom(address from, address to, uint256 tokenId, bytes memory data) public virtual {... */\n    tag_76:\n        /* \"node_modules/@openzeppelin/contracts/token/ERC721/ERC721.sol\":7033:7064  transferFrom(from, to, tokenId) */\n      tag_144\n        /* \"node_modules/@openzeppelin/contracts/token/ERC721/ERC721.sol\":7046:7050  from */\n      dup5\n        /* \"node_modules/@openzeppelin/contracts/token/ERC721/ERC721.sol\":7052:7054  to */\n      dup5\n        /* \"node_modules/@openzeppelin/contracts/token/ERC721/ERC721.sol\":7056:7063  tokenId */\n      dup5\n        /* \"node_modules/@openzeppelin/contracts/token/ERC721/ERC721.sol\":7033:7045  transferFrom */\n      tag_48\n        /* \"node_modules/@openzeppelin/contracts/token/ERC721/ERC721.sol\":7033:7064  transferFrom(from, to, tokenId) */\n      jump\t// in\n    tag_144:\n        /* \"node_modules/@openzeppelin/contracts/token/ERC721/ERC721.sol\":7074:7121  _checkOnERC721Received(from, to, tokenId, data) */\n      tag_145\n        /* \"node_modules/@openzeppelin/contracts/token/ERC721/ERC721.sol\":7097:7101  from */\n      dup5\n        /* \"node_modules/@openzeppelin/contracts/token/ERC721/ERC721.sol\":7103:7105  to */\n      dup5\n        /* \"node_modules/@openzeppelin/contracts/token/ERC721/ERC721.sol\":7107:7114  tokenId */\n      dup5\n        /* \"node_modules/@openzeppelin/contracts/token/ERC721/ERC721.sol\":7116:7120  data */\n      dup5\n        /* \"node_modules/@openzeppelin/contracts/token/ERC721/ERC721.sol\":7074:7096  _checkOnERC721Received */\n      tag_146\n        /* \"node_modules/@openzeppelin/contracts/token/ERC721/ERC721.sol\":7074:7121  _checkOnERC721Received(from, to, tokenId, data) */\n      jump\t// in\n    tag_145:\n        /* \"node_modules/@openzeppelin/contracts/token/ERC721/ERC721.sol\":6920:7128  function safeTransferFrom(address from, address to, uint256 tokenId, bytes memory data) public virtual {... */\n      pop\n      pop\n      pop\n      pop\n      jump\t// out\n        /* \"myNFT.sol\":704:936  function tokenURI(uint256 _tokenId) public view override returns (string memory){... */\n    tag_79:\n        /* \"myNFT.sol\":770:783  string memory */\n      0x60\n        /* \"myNFT.sol\":908:918  _tokenURIs */\n      0x06\n        /* \"myNFT.sol\":908:928  _tokenURIs[_tokenId] */\n      0x00\n        /* \"myNFT.sol\":919:927  _tokenId */\n      dup4\n        /* \"myNFT.sol\":908:928  _tokenURIs[_tokenId] */\n      dup2\n      mstore\n      0x20\n      add\n      swap1\n      dup2\n      mstore\n      0x20\n      add\n      0x00\n      keccak256\n        /* \"myNFT.sol\":901:928  return _tokenURIs[_tokenId] */\n      dup1\n      sload\n      tag_148\n      swap1\n      tag_93\n      jump\t// in\n    tag_148:\n      dup1\n      0x1f\n      add\n      0x20\n      dup1\n      swap2\n      div\n      mul\n      0x20\n      add\n      mload(0x40)\n      swap1\n      dup2\n      add\n      0x40\n      mstore\n      dup1\n      swap3\n      swap2\n      swap1\n      dup2\n      dup2\n      mstore\n      0x20\n      add\n      dup3\n      dup1\n      sload\n      tag_149\n      swap1\n      tag_93\n      jump\t// in\n    tag_149:\n      dup1\n      iszero\n      tag_150\n      jumpi\n      dup1\n      0x1f\n      lt\n      tag_151\n      jumpi\n      0x0100\n      dup1\n      dup4\n      sload\n      div\n      mul\n      dup4\n      mstore\n      swap2\n      0x20\n      add\n      swap2\n      jump(tag_150)\n    tag_151:\n      dup3\n      add\n      swap2\n      swap1\n      0x00\n      mstore\n      keccak256(0x00, 0x20)\n      swap1\n    tag_152:\n      dup2\n      sload\n      dup2\n      mstore\n      swap1\n      0x01\n      add\n      swap1\n      0x20\n      add\n      dup1\n      dup4\n      gt\n      tag_152\n      jumpi\n      dup3\n      swap1\n      sub\n      0x1f\n      and\n      dup3\n      add\n      swap2\n    tag_150:\n      pop\n      pop\n      pop\n      pop\n      pop\n      swap1\n      pop\n        /* \"myNFT.sol\":704:936  function tokenURI(uint256 _tokenId) public view override returns (string memory){... */\n      swap2\n      swap1\n      pop\n      jump\t// out\n        /* \"node_modules/@openzeppelin/contracts/token/ERC721/ERC721.sol\":5863:6016  function isApprovedForAll(address owner, address operator) public view virtual returns (bool) {... */\n    tag_84:\n        /* \"node_modules/@openzeppelin/contracts/token/ERC721/ERC721.sol\":5951:5955  bool */\n      0x00\n        /* \"node_modules/@openzeppelin/contracts/token/ERC721/ERC721.sol\":5974:5992  _operatorApprovals */\n      0x05\n        /* \"node_modules/@openzeppelin/contracts/token/ERC721/ERC721.sol\":5974:5999  _operatorApprovals[owner] */\n      0x00\n        /* \"node_modules/@openzeppelin/contracts/token/ERC721/ERC721.sol\":5993:5998  owner */\n      dup5\n        /* \"node_modules/@openzeppelin/contracts/token/ERC721/ERC721.sol\":5974:5999  _operatorApprovals[owner] */\n      0xffffffffffffffffffffffffffffffffffffffff\n      and\n      0xffffffffffffffffffffffffffffffffffffffff\n      and\n      dup2\n      mstore\n      0x20\n      add\n      swap1\n      dup2\n      mstore\n      0x20\n      add\n      0x00\n      keccak256\n        /* \"node_modules/@openzeppelin/contracts/token/ERC721/ERC721.sol\":5974:6009  _operatorApprovals[owner][operator] */\n      0x00\n        /* \"node_modules/@openzeppelin/contracts/token/ERC721/ERC721.sol\":6000:6008  operator */\n      dup4\n        /* \"node_modules/@openzeppelin/contracts/token/ERC721/ERC721.sol\":5974:6009  _operatorApprovals[owner][operator] */\n      0xffffffffffffffffffffffffffffffffffffffff\n      and\n      0xffffffffffffffffffffffffffffffffffffffff\n      and\n      dup2\n      mstore\n      0x20\n      add\n      swap1\n      dup2\n      mstore\n      0x20\n      add\n      0x00\n      keccak256\n      0x00\n      swap1\n      sload\n      swap1\n      0x0100\n      exp\n      swap1\n      div\n      0xff\n      and\n        /* \"node_modules/@openzeppelin/contracts/token/ERC721/ERC721.sol\":5967:6009  return _operatorApprovals[owner][operator] */\n      swap1\n      pop\n        /* \"node_modules/@openzeppelin/contracts/token/ERC721/ERC721.sol\":5863:6016  function isApprovedForAll(address owner, address operator) public view virtual returns (bool) {... */\n      swap3\n      swap2\n      pop\n      pop\n      jump\t// out\n        /* \"node_modules/@openzeppelin/contracts/utils/introspection/ERC165.sol\":762:908  function supportsInterface(bytes4 interfaceId) public view virtual returns (bool) {... */\n    tag_90:\n        /* \"node_modules/@openzeppelin/contracts/utils/introspection/ERC165.sol\":838:842  bool */\n      0x00\n        /* \"node_modules/@openzeppelin/contracts/utils/introspection/ERC165.sol\":876:901  type(IERC165).interfaceId */\n      0x01ffc9a700000000000000000000000000000000000000000000000000000000\n        /* \"node_modules/@openzeppelin/contracts/utils/introspection/ERC165.sol\":861:901  interfaceId == type(IERC165).interfaceId */\n      not(0xffffffffffffffffffffffffffffffffffffffffffffffffffffffff)\n      and\n        /* \"node_modules/@openzeppelin/contracts/utils/introspection/ERC165.sol\":861:872  interfaceId */\n      dup3\n        /* \"node_modules/@openzeppelin/contracts/utils/introspection/ERC165.sol\":861:901  interfaceId == type(IERC165).interfaceId */\n      not(0xffffffffffffffffffffffffffffffffffffffffffffffffffffffff)\n      and\n      eq\n        /* \"node_modules/@openzeppelin/contracts/utils/introspection/ERC165.sol\":854:901  return interfaceId == type(IERC165).interfaceId */\n      swap1\n      pop\n        /* \"node_modules/@openzeppelin/contracts/utils/introspection/ERC165.sol\":762:908  function supportsInterface(bytes4 interfaceId) public view virtual returns (bool) {... */\n      swap2\n      swap1\n      pop\n      jump\t// out\n        /* \"node_modules/@openzeppelin/contracts/token/ERC721/ERC721.sol\":18101:18342  function _requireOwned(uint256 tokenId) internal view returns (address) {... */\n    tag_100:\n        /* \"node_modules/@openzeppelin/contracts/token/ERC721/ERC721.sol\":18164:18171  address */\n      0x00\n        /* \"node_modules/@openzeppelin/contracts/token/ERC721/ERC721.sol\":18183:18196  address owner */\n      dup1\n        /* \"node_modules/@openzeppelin/contracts/token/ERC721/ERC721.sol\":18199:18216  _ownerOf(tokenId) */\n      tag_156\n        /* \"node_modules/@openzeppelin/contracts/token/ERC721/ERC721.sol\":18208:18215  tokenId */\n      dup4\n        /* \"node_modules/@openzeppelin/contracts/token/ERC721/ERC721.sol\":18199:18207  _ownerOf */\n      tag_157\n        /* \"node_modules/@openzeppelin/contracts/token/ERC721/ERC721.sol\":18199:18216  _ownerOf(tokenId) */\n      jump\t// in\n    tag_156:\n        /* \"node_modules/@openzeppelin/contracts/token/ERC721/ERC721.sol\":18183:18216  address owner = _ownerOf(tokenId) */\n      swap1\n      pop\n        /* \"node_modules/@openzeppelin/contracts/token/ERC721/ERC721.sol\":18247:18248  0 */\n      0x00\n        /* \"node_modules/@openzeppelin/contracts/token/ERC721/ERC721.sol\":18230:18249  owner == address(0) */\n      0xffffffffffffffffffffffffffffffffffffffff\n      and\n        /* \"node_modules/@openzeppelin/contracts/token/ERC721/ERC721.sol\":18230:18235  owner */\n      dup2\n        /* \"node_modules/@openzeppelin/contracts/token/ERC721/ERC721.sol\":18230:18249  owner == address(0) */\n      0xffffffffffffffffffffffffffffffffffffffff\n      and\n      sub\n        /* \"node_modules/@openzeppelin/contracts/token/ERC721/ERC721.sol\":18226:18314  if (owner == address(0)) {... */\n      tag_158\n      jumpi\n        /* \"node_modules/@openzeppelin/contracts/token/ERC721/ERC721.sol\":18295:18302  tokenId */\n      dup3\n        /* \"node_modules/@openzeppelin/contracts/token/ERC721/ERC721.sol\":18272:18303  ERC721NonexistentToken(tokenId) */\n      mload(0x40)\n      0x7e27328900000000000000000000000000000000000000000000000000000000\n      dup2\n      mstore\n      0x04\n      add\n      tag_159\n      swap2\n      swap1\n      tag_65\n      jump\t// in\n    tag_159:\n      mload(0x40)\n      dup1\n      swap2\n      sub\n      swap1\n      revert\n        /* \"node_modules/@openzeppelin/contracts/token/ERC721/ERC721.sol\":18226:18314  if (owner == address(0)) {... */\n    tag_158:\n        /* \"node_modules/@openzeppelin/contracts/token/ERC721/ERC721.sol\":18330:18335  owner */\n      dup1\n        /* \"node_modules/@openzeppelin/contracts/token/ERC721/ERC721.sol\":18323:18335  return owner */\n      swap2\n      pop\n      pop\n        /* \"node_modules/@openzeppelin/contracts/token/ERC721/ERC721.sol\":18101:18342  function _requireOwned(uint256 tokenId) internal view returns (address) {... */\n      swap2\n      swap1\n      pop\n      jump\t// out\n        /* \"node_modules/@openzeppelin/contracts/token/ERC721/ERC721.sol\":7873:8000  function _getApproved(uint256 tokenId) internal view virtual returns (address) {... */\n    tag_102:\n        /* \"node_modules/@openzeppelin/contracts/token/ERC721/ERC721.sol\":7943:7950  address */\n      0x00\n        /* \"node_modules/@openzeppelin/contracts/token/ERC721/ERC721.sol\":7969:7984  _tokenApprovals */\n      0x04\n        /* \"node_modules/@openzeppelin/contracts/token/ERC721/ERC721.sol\":7969:7993  _tokenApprovals[tokenId] */\n      0x00\n        /* \"node_modules/@openzeppelin/contracts/token/ERC721/ERC721.sol\":7985:7992  tokenId */\n      dup4\n        /* \"node_modules/@openzeppelin/contracts/token/ERC721/ERC721.sol\":7969:7993  _tokenApprovals[tokenId] */\n      dup2\n      mstore\n      0x20\n      add\n      swap1\n      dup2\n      mstore\n      0x20\n      add\n      0x00\n      keccak256\n      0x00\n      swap1\n      sload\n      swap1\n      0x0100\n      exp\n      swap1\n      div\n      0xffffffffffffffffffffffffffffffffffffffff\n      and\n        /* \"node_modules/@openzeppelin/contracts/token/ERC721/ERC721.sol\":7962:7993  return _tokenApprovals[tokenId] */\n      swap1\n      pop\n        /* \"node_modules/@openzeppelin/contracts/token/ERC721/ERC721.sol\":7873:8000  function _getApproved(uint256 tokenId) internal view virtual returns (address) {... */\n      swap2\n      swap1\n      pop\n      jump\t// out\n        /* \"node_modules/@openzeppelin/contracts/utils/Context.sol\":656:752  function _msgSender() internal view virtual returns (address) {... */\n    tag_106:\n        /* \"node_modules/@openzeppelin/contracts/utils/Context.sol\":709:716  address */\n      0x00\n        /* \"node_modules/@openzeppelin/contracts/utils/Context.sol\":735:745  msg.sender */\n      caller\n        /* \"node_modules/@openzeppelin/contracts/utils/Context.sol\":728:745  return msg.sender */\n      swap1\n      pop\n        /* \"node_modules/@openzeppelin/contracts/utils/Context.sol\":656:752  function _msgSender() internal view virtual returns (address) {... */\n      swap1\n      jump\t// out\n        /* \"node_modules/@openzeppelin/contracts/token/ERC721/ERC721.sol\":16353:16473  function _approve(address to, uint256 tokenId, address auth) internal {... */\n    tag_107:\n        /* \"node_modules/@openzeppelin/contracts/token/ERC721/ERC721.sol\":16433:16466  _approve(to, tokenId, auth, true) */\n      tag_163\n        /* \"node_modules/@openzeppelin/contracts/token/ERC721/ERC721.sol\":16442:16444  to */\n      dup4\n        /* \"node_modules/@openzeppelin/contracts/token/ERC721/ERC721.sol\":16446:16453  tokenId */\n      dup4\n        /* \"node_modules/@openzeppelin/contracts/token/ERC721/ERC721.sol\":16455:16459  auth */\n      dup4\n        /* \"node_modules/@openzeppelin/contracts/token/ERC721/ERC721.sol\":16461:16465  true */\n      0x01\n        /* \"node_modules/@openzeppelin/contracts/token/ERC721/ERC721.sol\":16433:16441  _approve */\n      tag_164\n        /* \"node_modules/@openzeppelin/contracts/token/ERC721/ERC721.sol\":16433:16466  _approve(to, tokenId, auth, true) */\n      jump\t// in\n    tag_163:\n        /* \"node_modules/@openzeppelin/contracts/token/ERC721/ERC721.sol\":16353:16473  function _approve(address to, uint256 tokenId, address auth) internal {... */\n      pop\n      pop\n      pop\n      jump\t// out\n        /* \"node_modules/@openzeppelin/contracts/token/ERC721/ERC721.sol\":11890:12217  function _mint(address to, uint256 tokenId) internal {... */\n    tag_112:\n        /* \"node_modules/@openzeppelin/contracts/token/ERC721/ERC721.sol\":11971:11972  0 */\n      0x00\n        /* \"node_modules/@openzeppelin/contracts/token/ERC721/ERC721.sol\":11957:11973  to == address(0) */\n      0xffffffffffffffffffffffffffffffffffffffff\n      and\n        /* \"node_modules/@openzeppelin/contracts/token/ERC721/ERC721.sol\":11957:11959  to */\n      dup3\n        /* \"node_modules/@openzeppelin/contracts/token/ERC721/ERC721.sol\":11957:11973  to == address(0) */\n      0xffffffffffffffffffffffffffffffffffffffff\n      and\n      sub\n        /* \"node_modules/@openzeppelin/contracts/token/ERC721/ERC721.sol\":11953:12040  if (to == address(0)) {... */\n      tag_166\n      jumpi\n        /* \"node_modules/@openzeppelin/contracts/token/ERC721/ERC721.sol\":12026:12027  0 */\n      0x00\n        /* \"node_modules/@openzeppelin/contracts/token/ERC721/ERC721.sol\":11996:12029  ERC721InvalidReceiver(address(0)) */\n      mload(0x40)\n      0x64a0ae9200000000000000000000000000000000000000000000000000000000\n      dup2\n      mstore\n      0x04\n      add\n      tag_167\n      swap2\n      swap1\n      tag_36\n      jump\t// in\n    tag_167:\n      mload(0x40)\n      dup1\n      swap2\n      sub\n      swap1\n      revert\n        /* \"node_modules/@openzeppelin/contracts/token/ERC721/ERC721.sol\":11953:12040  if (to == address(0)) {... */\n    tag_166:\n        /* \"node_modules/@openzeppelin/contracts/token/ERC721/ERC721.sol\":12049:12070  address previousOwner */\n      0x00\n        /* \"node_modules/@openzeppelin/contracts/token/ERC721/ERC721.sol\":12073:12105  _update(to, tokenId, address(0)) */\n      tag_168\n        /* \"node_modules/@openzeppelin/contracts/token/ERC721/ERC721.sol\":12081:12083  to */\n      dup4\n        /* \"node_modules/@openzeppelin/contracts/token/ERC721/ERC721.sol\":12085:12092  tokenId */\n      dup4\n        /* \"node_modules/@openzeppelin/contracts/token/ERC721/ERC721.sol\":12102:12103  0 */\n      0x00\n        /* \"node_modules/@openzeppelin/contracts/token/ERC721/ERC721.sol\":12073:12080  _update */\n      tag_120\n        /* \"node_modules/@openzeppelin/contracts/token/ERC721/ERC721.sol\":12073:12105  _update(to, tokenId, address(0)) */\n      jump\t// in\n    tag_168:\n        /* \"node_modules/@openzeppelin/contracts/token/ERC721/ERC721.sol\":12049:12105  address previousOwner = _update(to, tokenId, address(0)) */\n      swap1\n      pop\n        /* \"node_modules/@openzeppelin/contracts/token/ERC721/ERC721.sol\":12144:12145  0 */\n      0x00\n        /* \"node_modules/@openzeppelin/contracts/token/ERC721/ERC721.sol\":12119:12146  previousOwner != address(0) */\n      0xffffffffffffffffffffffffffffffffffffffff\n      and\n        /* \"node_modules/@openzeppelin/contracts/token/ERC721/ERC721.sol\":12119:12132  previousOwner */\n      dup2\n        /* \"node_modules/@openzeppelin/contracts/token/ERC721/ERC721.sol\":12119:12146  previousOwner != address(0) */\n      0xffffffffffffffffffffffffffffffffffffffff\n      and\n      eq\n        /* \"node_modules/@openzeppelin/contracts/token/ERC721/ERC721.sol\":12115:12211  if (previousOwner != address(0)) {... */\n      tag_169\n      jumpi\n        /* \"node_modules/@openzeppelin/contracts/token/ERC721/ERC721.sol\":12197:12198  0 */\n      0x00\n        /* \"node_modules/@openzeppelin/contracts/token/ERC721/ERC721.sol\":12169:12200  ERC721InvalidSender(address(0)) */\n      mload(0x40)\n      0x73c6ac6e00000000000000000000000000000000000000000000000000000000\n      dup2\n      mstore\n      0x04\n      add\n      tag_170\n      swap2\n      swap1\n      tag_36\n      jump\t// in\n    tag_170:\n      mload(0x40)\n      dup1\n      swap2\n      sub\n      swap1\n      revert\n        /* \"node_modules/@openzeppelin/contracts/token/ERC721/ERC721.sol\":12115:12211  if (previousOwner != address(0)) {... */\n    tag_169:\n        /* \"node_modules/@openzeppelin/contracts/token/ERC721/ERC721.sol\":11943:12217  {... */\n      pop\n        /* \"node_modules/@openzeppelin/contracts/token/ERC721/ERC721.sol\":11890:12217  function _mint(address to, uint256 tokenId) internal {... */\n      pop\n      pop\n      jump\t// out\n        /* \"node_modules/@openzeppelin/contracts/token/ERC721/ERC721.sol\":10773:11568  function _update(address to, uint256 tokenId, address auth) internal virtual returns (address) {... */\n    tag_120:\n        /* \"node_modules/@openzeppelin/contracts/token/ERC721/ERC721.sol\":10859:10866  address */\n      0x00\n        /* \"node_modules/@openzeppelin/contracts/token/ERC721/ERC721.sol\":10878:10890  address from */\n      dup1\n        /* \"node_modules/@openzeppelin/contracts/token/ERC721/ERC721.sol\":10893:10910  _ownerOf(tokenId) */\n      tag_172\n        /* \"node_modules/@openzeppelin/contracts/token/ERC721/ERC721.sol\":10902:10909  tokenId */\n      dup5\n        /* \"node_modules/@openzeppelin/contracts/token/ERC721/ERC721.sol\":10893:10901  _ownerOf */\n      tag_157\n        /* \"node_modules/@openzeppelin/contracts/token/ERC721/ERC721.sol\":10893:10910  _ownerOf(tokenId) */\n      jump\t// in\n    tag_172:\n        /* \"node_modules/@openzeppelin/contracts/token/ERC721/ERC721.sol\":10878:10910  address from = _ownerOf(tokenId) */\n      swap1\n      pop\n        /* \"node_modules/@openzeppelin/contracts/token/ERC721/ERC721.sol\":10986:10987  0 */\n      0x00\n        /* \"node_modules/@openzeppelin/contracts/token/ERC721/ERC721.sol\":10970:10988  auth != address(0) */\n      0xffffffffffffffffffffffffffffffffffffffff\n      and\n        /* \"node_modules/@openzeppelin/contracts/token/ERC721/ERC721.sol\":10970:10974  auth */\n      dup4\n        /* \"node_modules/@openzeppelin/contracts/token/ERC721/ERC721.sol\":10970:10988  auth != address(0) */\n      0xffffffffffffffffffffffffffffffffffffffff\n      and\n      eq\n        /* \"node_modules/@openzeppelin/contracts/token/ERC721/ERC721.sol\":10966:11052  if (auth != address(0)) {... */\n      tag_173\n      jumpi\n        /* \"node_modules/@openzeppelin/contracts/token/ERC721/ERC721.sol\":11004:11041  _checkAuthorized(from, auth, tokenId) */\n      tag_174\n        /* \"node_modules/@openzeppelin/contracts/token/ERC721/ERC721.sol\":11021:11025  from */\n      dup2\n        /* \"node_modules/@openzeppelin/contracts/token/ERC721/ERC721.sol\":11027:11031  auth */\n      dup5\n        /* \"node_modules/@openzeppelin/contracts/token/ERC721/ERC721.sol\":11033:11040  tokenId */\n      dup7\n        /* \"node_modules/@openzeppelin/contracts/token/ERC721/ERC721.sol\":11004:11020  _checkAuthorized */\n      tag_175\n        /* \"node_modules/@openzeppelin/contracts/token/ERC721/ERC721.sol\":11004:11041  _checkAuthorized(from, auth, tokenId) */\n      jump\t// in\n    tag_174:\n        /* \"node_modules/@openzeppelin/contracts/token/ERC721/ERC721.sol\":10966:11052  if (auth != address(0)) {... */\n    tag_173:\n        /* \"node_modules/@openzeppelin/contracts/token/ERC721/ERC721.sol\":11112:11113  0 */\n      0x00\n        /* \"node_modules/@openzeppelin/contracts/token/ERC721/ERC721.sol\":11096:11114  from != address(0) */\n      0xffffffffffffffffffffffffffffffffffffffff\n      and\n        /* \"node_modules/@openzeppelin/contracts/token/ERC721/ERC721.sol\":11096:11100  from */\n      dup2\n        /* \"node_modules/@openzeppelin/contracts/token/ERC721/ERC721.sol\":11096:11114  from != address(0) */\n      0xffffffffffffffffffffffffffffffffffffffff\n      and\n      eq\n        /* \"node_modules/@openzeppelin/contracts/token/ERC721/ERC721.sol\":11092:11348  if (from != address(0)) {... */\n      tag_176\n      jumpi\n        /* \"node_modules/@openzeppelin/contracts/token/ERC721/ERC721.sol\":11212:11260  _approve(address(0), tokenId, address(0), false) */\n      tag_177\n        /* \"node_modules/@openzeppelin/contracts/token/ERC721/ERC721.sol\":11229:11230  0 */\n      0x00\n        /* \"node_modules/@openzeppelin/contracts/token/ERC721/ERC721.sol\":11233:11240  tokenId */\n      dup6\n        /* \"node_modules/@openzeppelin/contracts/token/ERC721/ERC721.sol\":11250:11251  0 */\n      0x00\n        /* \"node_modules/@openzeppelin/contracts/token/ERC721/ERC721.sol\":11254:11259  false */\n      dup1\n        /* \"node_modules/@openzeppelin/contracts/token/ERC721/ERC721.sol\":11212:11220  _approve */\n      tag_164\n        /* \"node_modules/@openzeppelin/contracts/token/ERC721/ERC721.sol\":11212:11260  _approve(address(0), tokenId, address(0), false) */\n      jump\t// in\n    tag_177:\n        /* \"node_modules/@openzeppelin/contracts/token/ERC721/ERC721.sol\":11322:11323  1 */\n      0x01\n        /* \"node_modules/@openzeppelin/contracts/token/ERC721/ERC721.sol\":11303:11312  _balances */\n      0x03\n        /* \"node_modules/@openzeppelin/contracts/token/ERC721/ERC721.sol\":11303:11318  _balances[from] */\n      0x00\n        /* \"node_modules/@openzeppelin/contracts/token/ERC721/ERC721.sol\":11313:11317  from */\n      dup4\n        /* \"node_modules/@openzeppelin/contracts/token/ERC721/ERC721.sol\":11303:11318  _balances[from] */\n      0xffffffffffffffffffffffffffffffffffffffff\n      and\n      0xffffffffffffffffffffffffffffffffffffffff\n      and\n      dup2\n      mstore\n      0x20\n      add\n      swap1\n      dup2\n      mstore\n      0x20\n      add\n      0x00\n      keccak256\n      0x00\n        /* \"node_modules/@openzeppelin/contracts/token/ERC721/ERC721.sol\":11303:11323  _balances[from] -= 1 */\n      dup3\n      dup3\n      sload\n      sub\n      swap3\n      pop\n      pop\n      dup2\n      swap1\n      sstore\n      pop\n        /* \"node_modules/@openzeppelin/contracts/token/ERC721/ERC721.sol\":11092:11348  if (from != address(0)) {... */\n    tag_176:\n        /* \"node_modules/@openzeppelin/contracts/token/ERC721/ERC721.sol\":11376:11377  0 */\n      0x00\n        /* \"node_modules/@openzeppelin/contracts/token/ERC721/ERC721.sol\":11362:11378  to != address(0) */\n      0xffffffffffffffffffffffffffffffffffffffff\n      and\n        /* \"node_modules/@openzeppelin/contracts/token/ERC721/ERC721.sol\":11362:11364  to */\n      dup6\n        /* \"node_modules/@openzeppelin/contracts/token/ERC721/ERC721.sol\":11362:11378  to != address(0) */\n      0xffffffffffffffffffffffffffffffffffffffff\n      and\n      eq\n        /* \"node_modules/@openzeppelin/contracts/token/ERC721/ERC721.sol\":11358:11465  if (to != address(0)) {... */\n      tag_178\n      jumpi\n        /* \"node_modules/@openzeppelin/contracts/token/ERC721/ERC721.sol\":11439:11440  1 */\n      0x01\n        /* \"node_modules/@openzeppelin/contracts/token/ERC721/ERC721.sol\":11422:11431  _balances */\n      0x03\n        /* \"node_modules/@openzeppelin/contracts/token/ERC721/ERC721.sol\":11422:11435  _balances[to] */\n      0x00\n        /* \"node_modules/@openzeppelin/contracts/token/ERC721/ERC721.sol\":11432:11434  to */\n      dup8\n        /* \"node_modules/@openzeppelin/contracts/token/ERC721/ERC721.sol\":11422:11435  _balances[to] */\n      0xffffffffffffffffffffffffffffffffffffffff\n      and\n      0xffffffffffffffffffffffffffffffffffffffff\n      and\n      dup2\n      mstore\n      0x20\n      add\n      swap1\n      dup2\n      mstore\n      0x20\n      add\n      0x00\n      keccak256\n      0x00\n        /* \"node_modules/@openzeppelin/contracts/token/ERC721/ERC721.sol\":11422:11440  _balances[to] += 1 */\n      dup3\n      dup3\n      sload\n      add\n      swap3\n      pop\n      pop\n      dup2\n      swap1\n      sstore\n      pop\n        /* \"node_modules/@openzeppelin/contracts/token/ERC721/ERC721.sol\":11358:11465  if (to != address(0)) {... */\n    tag_178:\n        /* \"node_modules/@openzeppelin/contracts/token/ERC721/ERC721.sol\":11494:11496  to */\n      dup5\n        /* \"node_modules/@openzeppelin/contracts/token/ERC721/ERC721.sol\":11475:11482  _owners */\n      0x02\n        /* \"node_modules/@openzeppelin/contracts/token/ERC721/ERC721.sol\":11475:11491  _owners[tokenId] */\n      0x00\n        /* \"node_modules/@openzeppelin/contracts/token/ERC721/ERC721.sol\":11483:11490  tokenId */\n      dup7\n        /* \"node_modules/@openzeppelin/contracts/token/ERC721/ERC721.sol\":11475:11491  _owners[tokenId] */\n      dup2\n      mstore\n      0x20\n      add\n      swap1\n      dup2\n      mstore\n      0x20\n      add\n      0x00\n      keccak256\n      0x00\n        /* \"node_modules/@openzeppelin/contracts/token/ERC721/ERC721.sol\":11475:11496  _owners[tokenId] = to */\n      0x0100\n      exp\n      dup2\n      sload\n      dup2\n      0xffffffffffffffffffffffffffffffffffffffff\n      mul\n      not\n      and\n      swap1\n      dup4\n      0xffffffffffffffffffffffffffffffffffffffff\n      and\n      mul\n      or\n      swap1\n      sstore\n      pop\n        /* \"node_modules/@openzeppelin/contracts/token/ERC721/ERC721.sol\":11531:11538  tokenId */\n      dup4\n        /* \"node_modules/@openzeppelin/contracts/token/ERC721/ERC721.sol\":11527:11529  to */\n      dup6\n        /* \"node_modules/@openzeppelin/contracts/token/ERC721/ERC721.sol\":11512:11539  Transfer(from, to, tokenId) */\n      0xffffffffffffffffffffffffffffffffffffffff\n      and\n        /* \"node_modules/@openzeppelin/contracts/token/ERC721/ERC721.sol\":11521:11525  from */\n      dup3\n        /* \"node_modules/@openzeppelin/contracts/token/ERC721/ERC721.sol\":11512:11539  Transfer(from, to, tokenId) */\n      0xffffffffffffffffffffffffffffffffffffffff\n      and\n      0xddf252ad1be2c89b69c2b068fc378daa952ba7f163c4a11628f55a4df523b3ef\n      mload(0x40)\n      mload(0x40)\n      dup1\n      swap2\n      sub\n      swap1\n      log4\n        /* \"node_modules/@openzeppelin/contracts/token/ERC721/ERC721.sol\":11557:11561  from */\n      dup1\n        /* \"node_modules/@openzeppelin/contracts/token/ERC721/ERC721.sol\":11550:11561  return from */\n      swap2\n      pop\n      pop\n        /* \"node_modules/@openzeppelin/contracts/token/ERC721/ERC721.sol\":10773:11568  function _update(address to, uint256 tokenId, address auth) internal virtual returns (address) {... */\n      swap4\n      swap3\n      pop\n      pop\n      pop\n      jump\t// out\n        /* \"node_modules/@openzeppelin/contracts/token/ERC721/ERC721.sol\":17526:17866  function _setApprovalForAll(address owner, address operator, bool approved) internal virtual {... */\n    tag_126:\n        /* \"node_modules/@openzeppelin/contracts/token/ERC721/ERC721.sol\":17653:17654  0 */\n      0x00\n        /* \"node_modules/@openzeppelin/contracts/token/ERC721/ERC721.sol\":17633:17655  operator == address(0) */\n      0xffffffffffffffffffffffffffffffffffffffff\n      and\n        /* \"node_modules/@openzeppelin/contracts/token/ERC721/ERC721.sol\":17633:17641  operator */\n      dup3\n        /* \"node_modules/@openzeppelin/contracts/token/ERC721/ERC721.sol\":17633:17655  operator == address(0) */\n      0xffffffffffffffffffffffffffffffffffffffff\n      and\n      sub\n        /* \"node_modules/@openzeppelin/contracts/token/ERC721/ERC721.sol\":17629:17720  if (operator == address(0)) {... */\n      tag_180\n      jumpi\n        /* \"node_modules/@openzeppelin/contracts/token/ERC721/ERC721.sol\":17700:17708  operator */\n      dup2\n        /* \"node_modules/@openzeppelin/contracts/token/ERC721/ERC721.sol\":17678:17709  ERC721InvalidOperator(operator) */\n      mload(0x40)\n      0x5b08ba1800000000000000000000000000000000000000000000000000000000\n      dup2\n      mstore\n      0x04\n      add\n      tag_181\n      swap2\n      swap1\n      tag_36\n      jump\t// in\n    tag_181:\n      mload(0x40)\n      dup1\n      swap2\n      sub\n      swap1\n      revert\n        /* \"node_modules/@openzeppelin/contracts/token/ERC721/ERC721.sol\":17629:17720  if (operator == address(0)) {... */\n    tag_180:\n        /* \"node_modules/@openzeppelin/contracts/token/ERC721/ERC721.sol\":17767:17775  approved */\n      dup1\n        /* \"node_modules/@openzeppelin/contracts/token/ERC721/ERC721.sol\":17729:17747  _operatorApprovals */\n      0x05\n        /* \"node_modules/@openzeppelin/contracts/token/ERC721/ERC721.sol\":17729:17754  _operatorApprovals[owner] */\n      0x00\n        /* \"node_modules/@openzeppelin/contracts/token/ERC721/ERC721.sol\":17748:17753  owner */\n      dup6\n        /* \"node_modules/@openzeppelin/contracts/token/ERC721/ERC721.sol\":17729:17754  _operatorApprovals[owner] */\n      0xffffffffffffffffffffffffffffffffffffffff\n      and\n      0xffffffffffffffffffffffffffffffffffffffff\n      and\n      dup2\n      mstore\n      0x20\n      add\n      swap1\n      dup2\n      mstore\n      0x20\n      add\n      0x00\n      keccak256\n        /* \"node_modules/@openzeppelin/contracts/token/ERC721/ERC721.sol\":17729:17764  _operatorApprovals[owner][operator] */\n      0x00\n        /* \"node_modules/@openzeppelin/contracts/token/ERC721/ERC721.sol\":17755:17763  operator */\n      dup5\n        /* \"node_modules/@openzeppelin/contracts/token/ERC721/ERC721.sol\":17729:17764  _operatorApprovals[owner][operator] */\n      0xffffffffffffffffffffffffffffffffffffffff\n      and\n      0xffffffffffffffffffffffffffffffffffffffff\n      and\n      dup2\n      mstore\n      0x20\n      add\n      swap1\n      dup2\n      mstore\n      0x20\n      add\n      0x00\n      keccak256\n      0x00\n        /* \"node_modules/@openzeppelin/contracts/token/ERC721/ERC721.sol\":17729:17775  _operatorApprovals[owner][operator] = approved */\n      0x0100\n      exp\n      dup2\n      sload\n      dup2\n      0xff\n      mul\n      not\n      and\n      swap1\n      dup4\n      iszero\n      iszero\n      mul\n      or\n      swap1\n      sstore\n      pop\n        /* \"node_modules/@openzeppelin/contracts/token/ERC721/ERC721.sol\":17812:17820  operator */\n      dup2\n        /* \"node_modules/@openzeppelin/contracts/token/ERC721/ERC721.sol\":17790:17831  ApprovalForAll(owner, operator, approved) */\n      0xffffffffffffffffffffffffffffffffffffffff\n      and\n        /* \"node_modules/@openzeppelin/contracts/token/ERC721/ERC721.sol\":17805:17810  owner */\n      dup4\n        /* \"node_modules/@openzeppelin/contracts/token/ERC721/ERC721.sol\":17790:17831  ApprovalForAll(owner, operator, approved) */\n      0xffffffffffffffffffffffffffffffffffffffff\n      and\n      0x17307eab39ab6107e8899845ad3d59bd9653f200f220920489ca2b5937696c31\n        /* \"node_modules/@openzeppelin/contracts/token/ERC721/ERC721.sol\":17822:17830  approved */\n      dup4\n        /* \"node_modules/@openzeppelin/contracts/token/ERC721/ERC721.sol\":17790:17831  ApprovalForAll(owner, operator, approved) */\n      mload(0x40)\n      tag_182\n      swap2\n      swap1\n      tag_26\n      jump\t// in\n    tag_182:\n      mload(0x40)\n      dup1\n      swap2\n      sub\n      swap1\n      log3\n        /* \"node_modules/@openzeppelin/contracts/token/ERC721/ERC721.sol\":17526:17866  function _setApprovalForAll(address owner, address operator, bool approved) internal virtual {... */\n      pop\n      pop\n      pop\n      jump\t// out\n        /* \"node_modules/@openzeppelin/contracts/token/ERC721/ERC721.sol\":18881:19663  function _checkOnERC721Received(address from, address to, uint256 tokenId, bytes memory data) private {... */\n    tag_146:\n        /* \"node_modules/@openzeppelin/contracts/token/ERC721/ERC721.sol\":19014:19015  0 */\n      0x00\n        /* \"node_modules/@openzeppelin/contracts/token/ERC721/ERC721.sol\":18997:18999  to */\n      dup4\n        /* \"node_modules/@openzeppelin/contracts/token/ERC721/ERC721.sol\":18997:19011  to.code.length */\n      0xffffffffffffffffffffffffffffffffffffffff\n      and\n      extcodesize\n        /* \"node_modules/@openzeppelin/contracts/token/ERC721/ERC721.sol\":18997:19015  to.code.length > 0 */\n      gt\n        /* \"node_modules/@openzeppelin/contracts/token/ERC721/ERC721.sol\":18993:19657  if (to.code.length > 0) {... */\n      iszero\n      tag_184\n      jumpi\n        /* \"node_modules/@openzeppelin/contracts/token/ERC721/ERC721.sol\":19051:19053  to */\n      dup3\n        /* \"node_modules/@openzeppelin/contracts/token/ERC721/ERC721.sol\":19035:19071  IERC721Receiver(to).onERC721Received */\n      0xffffffffffffffffffffffffffffffffffffffff\n      and\n      0x150b7a02\n        /* \"node_modules/@openzeppelin/contracts/token/ERC721/ERC721.sol\":19072:19084  _msgSender() */\n      tag_185\n        /* \"node_modules/@openzeppelin/contracts/token/ERC721/ERC721.sol\":19072:19082  _msgSender */\n      tag_106\n        /* \"node_modules/@openzeppelin/contracts/token/ERC721/ERC721.sol\":19072:19084  _msgSender() */\n      jump\t// in\n    tag_185:\n        /* \"node_modules/@openzeppelin/contracts/token/ERC721/ERC721.sol\":19086:19090  from */\n      dup7\n        /* \"node_modules/@openzeppelin/contracts/token/ERC721/ERC721.sol\":19092:19099  tokenId */\n      dup6\n        /* \"node_modules/@openzeppelin/contracts/token/ERC721/ERC721.sol\":19101:19105  data */\n      dup6\n        /* \"node_modules/@openzeppelin/contracts/token/ERC721/ERC721.sol\":19035:19106  IERC721Receiver(to).onERC721Received(_msgSender(), from, tokenId, data) */\n      mload(0x40)\n      dup6\n      0xffffffff\n      and\n      0xe0\n      shl\n      dup2\n      mstore\n      0x04\n      add\n      tag_186\n      swap5\n      swap4\n      swap3\n      swap2\n      swap1\n      tag_187\n      jump\t// in\n    tag_186:\n      0x20\n      mload(0x40)\n      dup1\n      dup4\n      sub\n      dup2\n      0x00\n      dup8\n      gas\n      call\n      swap3\n      pop\n      pop\n      pop\n      dup1\n      iszero\n      tag_188\n      jumpi\n      pop\n      mload(0x40)\n      returndatasize\n      not(0x1f)\n      0x1f\n      dup3\n      add\n      and\n      dup3\n      add\n      dup1\n      0x40\n      mstore\n      pop\n      dup2\n      add\n      swap1\n      tag_189\n      swap2\n      swap1\n      tag_190\n      jump\t// in\n    tag_189:\n      0x01\n    tag_188:\n        /* \"node_modules/@openzeppelin/contracts/token/ERC721/ERC721.sol\":19031:19647  try IERC721Receiver(to).onERC721Received(_msgSender(), from, tokenId, data) returns (bytes4 retval) {... */\n      tag_191\n      jumpi\n      returndatasize\n      dup1\n      0x00\n      dup2\n      eq\n      tag_196\n      jumpi\n      mload(0x40)\n      swap2\n      pop\n      and(add(returndatasize, 0x3f), not(0x1f))\n      dup3\n      add\n      0x40\n      mstore\n      returndatasize\n      dup3\n      mstore\n      returndatasize\n      0x00\n      0x20\n      dup5\n      add\n      returndatacopy\n      jump(tag_195)\n    tag_196:\n      0x60\n      swap2\n      pop\n    tag_195:\n      pop\n        /* \"node_modules/@openzeppelin/contracts/token/ERC721/ERC721.sol\":19361:19362  0 */\n      0x00\n        /* \"node_modules/@openzeppelin/contracts/token/ERC721/ERC721.sol\":19344:19350  reason */\n      dup2\n        /* \"node_modules/@openzeppelin/contracts/token/ERC721/ERC721.sol\":19344:19357  reason.length */\n      mload\n        /* \"node_modules/@openzeppelin/contracts/token/ERC721/ERC721.sol\":19344:19362  reason.length == 0 */\n      sub\n        /* \"node_modules/@openzeppelin/contracts/token/ERC721/ERC721.sol\":19340:19633  if (reason.length == 0) {... */\n      tag_197\n      jumpi\n        /* \"node_modules/@openzeppelin/contracts/token/ERC721/ERC721.sol\":19415:19417  to */\n      dup4\n        /* \"node_modules/@openzeppelin/contracts/token/ERC721/ERC721.sol\":19393:19418  ERC721InvalidReceiver(to) */\n      mload(0x40)\n      0x64a0ae9200000000000000000000000000000000000000000000000000000000\n      dup2\n      mstore\n      0x04\n      add\n      tag_198\n      swap2\n      swap1\n      tag_36\n      jump\t// in\n    tag_198:\n      mload(0x40)\n      dup1\n      swap2\n      sub\n      swap1\n      revert\n        /* \"node_modules/@openzeppelin/contracts/token/ERC721/ERC721.sol\":19340:19633  if (reason.length == 0) {... */\n    tag_197:\n        /* \"node_modules/@openzeppelin/contracts/token/ERC721/ERC721.sol\":19585:19591  reason */\n      dup1\n        /* \"node_modules/@openzeppelin/contracts/token/ERC721/ERC721.sol\":19579:19592  mload(reason) */\n      mload\n        /* \"node_modules/@openzeppelin/contracts/token/ERC721/ERC721.sol\":19570:19576  reason */\n      dup2\n        /* \"node_modules/@openzeppelin/contracts/token/ERC721/ERC721.sol\":19566:19568  32 */\n      0x20\n        /* \"node_modules/@openzeppelin/contracts/token/ERC721/ERC721.sol\":19562:19577  add(32, reason) */\n      add\n        /* \"node_modules/@openzeppelin/contracts/token/ERC721/ERC721.sol\":19555:19593  revert(add(32, reason), mload(reason)) */\n      revert\n        /* \"node_modules/@openzeppelin/contracts/token/ERC721/ERC721.sol\":19031:19647  try IERC721Receiver(to).onERC721Received(_msgSender(), from, tokenId, data) returns (bytes4 retval) {... */\n    tag_191:\n        /* \"node_modules/@openzeppelin/contracts/token/ERC721/ERC721.sol\":19163:19204  IERC721Receiver.onERC721Received.selector */\n      shl(0xe0, 0x150b7a02)\n        /* \"node_modules/@openzeppelin/contracts/token/ERC721/ERC721.sol\":19153:19204  retval != IERC721Receiver.onERC721Received.selector */\n      not(0xffffffffffffffffffffffffffffffffffffffffffffffffffffffff)\n      and\n        /* \"node_modules/@openzeppelin/contracts/token/ERC721/ERC721.sol\":19153:19159  retval */\n      dup2\n        /* \"node_modules/@openzeppelin/contracts/token/ERC721/ERC721.sol\":19153:19204  retval != IERC721Receiver.onERC721Received.selector */\n      not(0xffffffffffffffffffffffffffffffffffffffffffffffffffffffff)\n      and\n      eq\n        /* \"node_modules/@openzeppelin/contracts/token/ERC721/ERC721.sol\":19149:19279  if (retval != IERC721Receiver.onERC721Received.selector) {... */\n      tag_201\n      jumpi\n        /* \"node_modules/@openzeppelin/contracts/token/ERC721/ERC721.sol\":19257:19259  to */\n      dup4\n        /* \"node_modules/@openzeppelin/contracts/token/ERC721/ERC721.sol\":19235:19260  ERC721InvalidReceiver(to) */\n      mload(0x40)\n      0x64a0ae9200000000000000000000000000000000000000000000000000000000\n      dup2\n      mstore\n      0x04\n      add\n      tag_202\n      swap2\n      swap1\n      tag_36\n      jump\t// in\n    tag_202:\n      mload(0x40)\n      dup1\n      swap2\n      sub\n      swap1\n      revert\n        /* \"node_modules/@openzeppelin/contracts/token/ERC721/ERC721.sol\":19149:19279  if (retval != IERC721Receiver.onERC721Received.selector) {... */\n    tag_201:\n        /* \"node_modules/@openzeppelin/contracts/token/ERC721/ERC721.sol\":19107:19293  returns (bytes4 retval) {... */\n      pop\n        /* \"node_modules/@openzeppelin/contracts/token/ERC721/ERC721.sol\":18993:19657  if (to.code.length > 0) {... */\n    tag_184:\n        /* \"node_modules/@openzeppelin/contracts/token/ERC721/ERC721.sol\":18881:19663  function _checkOnERC721Received(address from, address to, uint256 tokenId, bytes memory data) private {... */\n      pop\n      pop\n      pop\n      pop\n      jump\t// out\n        /* \"node_modules/@openzeppelin/contracts/token/ERC721/ERC721.sol\":7642:7757  function _ownerOf(uint256 tokenId) internal view virtual returns (address) {... */\n    tag_157:\n        /* \"node_modules/@openzeppelin/contracts/token/ERC721/ERC721.sol\":7708:7715  address */\n      0x00\n        /* \"node_modules/@openzeppelin/contracts/token/ERC721/ERC721.sol\":7734:7741  _owners */\n      0x02\n        /* \"node_modules/@openzeppelin/contracts/token/ERC721/ERC721.sol\":7734:7750  _owners[tokenId] */\n      0x00\n        /* \"node_modules/@openzeppelin/contracts/token/ERC721/ERC721.sol\":7742:7749  tokenId */\n      dup4\n        /* \"node_modules/@openzeppelin/contracts/token/ERC721/ERC721.sol\":7734:7750  _owners[tokenId] */\n      dup2\n      mstore\n      0x20\n      add\n      swap1\n      dup2\n      mstore\n      0x20\n      add\n      0x00\n      keccak256\n      0x00\n      swap1\n      sload\n      swap1\n      0x0100\n      exp\n      swap1\n      div\n      0xffffffffffffffffffffffffffffffffffffffff\n      and\n        /* \"node_modules/@openzeppelin/contracts/token/ERC721/ERC721.sol\":7727:7750  return _owners[tokenId] */\n      swap1\n      pop\n        /* \"node_modules/@openzeppelin/contracts/token/ERC721/ERC721.sol\":7642:7757  function _ownerOf(uint256 tokenId) internal view virtual returns (address) {... */\n      swap2\n      swap1\n      pop\n      jump\t// out\n        /* \"node_modules/@openzeppelin/contracts/token/ERC721/ERC721.sol\":16655:17317  function _approve(address to, uint256 tokenId, address auth, bool emitEvent) internal virtual {... */\n    tag_164:\n        /* \"node_modules/@openzeppelin/contracts/token/ERC721/ERC721.sol\":16815:16824  emitEvent */\n      dup1\n        /* \"node_modules/@openzeppelin/contracts/token/ERC721/ERC721.sol\":16815:16846  emitEvent || auth != address(0) */\n      dup1\n      tag_205\n      jumpi\n      pop\n        /* \"node_modules/@openzeppelin/contracts/token/ERC721/ERC721.sol\":16844:16845  0 */\n      0x00\n        /* \"node_modules/@openzeppelin/contracts/token/ERC721/ERC721.sol\":16828:16846  auth != address(0) */\n      0xffffffffffffffffffffffffffffffffffffffff\n      and\n        /* \"node_modules/@openzeppelin/contracts/token/ERC721/ERC721.sol\":16828:16832  auth */\n      dup3\n        /* \"node_modules/@openzeppelin/contracts/token/ERC721/ERC721.sol\":16828:16846  auth != address(0) */\n      0xffffffffffffffffffffffffffffffffffffffff\n      and\n      eq\n      iszero\n        /* \"node_modules/@openzeppelin/contracts/token/ERC721/ERC721.sol\":16815:16846  emitEvent || auth != address(0) */\n    tag_205:\n        /* \"node_modules/@openzeppelin/contracts/token/ERC721/ERC721.sol\":16811:17271  if (emitEvent || auth != address(0)) {... */\n      iszero\n      tag_206\n      jumpi\n        /* \"node_modules/@openzeppelin/contracts/token/ERC721/ERC721.sol\":16862:16875  address owner */\n      0x00\n        /* \"node_modules/@openzeppelin/contracts/token/ERC721/ERC721.sol\":16878:16900  _requireOwned(tokenId) */\n      tag_207\n        /* \"node_modules/@openzeppelin/contracts/token/ERC721/ERC721.sol\":16892:16899  tokenId */\n      dup5\n        /* \"node_modules/@openzeppelin/contracts/token/ERC721/ERC721.sol\":16878:16891  _requireOwned */\n      tag_100\n        /* \"node_modules/@openzeppelin/contracts/token/ERC721/ERC721.sol\":16878:16900  _requireOwned(tokenId) */\n      jump\t// in\n    tag_207:\n        /* \"node_modules/@openzeppelin/contracts/token/ERC721/ERC721.sol\":16862:16900  address owner = _requireOwned(tokenId) */\n      swap1\n      pop\n        /* \"node_modules/@openzeppelin/contracts/token/ERC721/ERC721.sol\":17044:17045  0 */\n      0x00\n        /* \"node_modules/@openzeppelin/contracts/token/ERC721/ERC721.sol\":17028:17046  auth != address(0) */\n      0xffffffffffffffffffffffffffffffffffffffff\n      and\n        /* \"node_modules/@openzeppelin/contracts/token/ERC721/ERC721.sol\":17028:17032  auth */\n      dup4\n        /* \"node_modules/@openzeppelin/contracts/token/ERC721/ERC721.sol\":17028:17046  auth != address(0) */\n      0xffffffffffffffffffffffffffffffffffffffff\n      and\n      eq\n      iszero\n        /* \"node_modules/@openzeppelin/contracts/token/ERC721/ERC721.sol\":17028:17063  auth != address(0) && owner != auth */\n      dup1\n      iszero\n      tag_208\n      jumpi\n      pop\n        /* \"node_modules/@openzeppelin/contracts/token/ERC721/ERC721.sol\":17059:17063  auth */\n      dup3\n        /* \"node_modules/@openzeppelin/contracts/token/ERC721/ERC721.sol\":17050:17063  owner != auth */\n      0xffffffffffffffffffffffffffffffffffffffff\n      and\n        /* \"node_modules/@openzeppelin/contracts/token/ERC721/ERC721.sol\":17050:17055  owner */\n      dup2\n        /* \"node_modules/@openzeppelin/contracts/token/ERC721/ERC721.sol\":17050:17063  owner != auth */\n      0xffffffffffffffffffffffffffffffffffffffff\n      and\n      eq\n      iszero\n        /* \"node_modules/@openzeppelin/contracts/token/ERC721/ERC721.sol\":17028:17063  auth != address(0) && owner != auth */\n    tag_208:\n        /* \"node_modules/@openzeppelin/contracts/token/ERC721/ERC721.sol\":17028:17097  auth != address(0) && owner != auth && !isApprovedForAll(owner, auth) */\n      dup1\n      iszero\n      tag_209\n      jumpi\n      pop\n        /* \"node_modules/@openzeppelin/contracts/token/ERC721/ERC721.sol\":17068:17097  isApprovedForAll(owner, auth) */\n      tag_210\n        /* \"node_modules/@openzeppelin/contracts/token/ERC721/ERC721.sol\":17085:17090  owner */\n      dup2\n        /* \"node_modules/@openzeppelin/contracts/token/ERC721/ERC721.sol\":17092:17096  auth */\n      dup5\n        /* \"node_modules/@openzeppelin/contracts/token/ERC721/ERC721.sol\":17068:17084  isApprovedForAll */\n      tag_84\n        /* \"node_modules/@openzeppelin/contracts/token/ERC721/ERC721.sol\":17068:17097  isApprovedForAll(owner, auth) */\n      jump\t// in\n    tag_210:\n        /* \"node_modules/@openzeppelin/contracts/token/ERC721/ERC721.sol\":17067:17097  !isApprovedForAll(owner, auth) */\n      iszero\n        /* \"node_modules/@openzeppelin/contracts/token/ERC721/ERC721.sol\":17028:17097  auth != address(0) && owner != auth && !isApprovedForAll(owner, auth) */\n    tag_209:\n        /* \"node_modules/@openzeppelin/contracts/token/ERC721/ERC721.sol\":17024:17166  if (auth != address(0) && owner != auth && !isApprovedForAll(owner, auth)) {... */\n      iszero\n      tag_211\n      jumpi\n        /* \"node_modules/@openzeppelin/contracts/token/ERC721/ERC721.sol\":17146:17150  auth */\n      dup3\n        /* \"node_modules/@openzeppelin/contracts/token/ERC721/ERC721.sol\":17124:17151  ERC721InvalidApprover(auth) */\n      mload(0x40)\n      0xa9fbf51f00000000000000000000000000000000000000000000000000000000\n      dup2\n      mstore\n      0x04\n      add\n      tag_212\n      swap2\n      swap1\n      tag_36\n      jump\t// in\n    tag_212:\n      mload(0x40)\n      dup1\n      swap2\n      sub\n      swap1\n      revert\n        /* \"node_modules/@openzeppelin/contracts/token/ERC721/ERC721.sol\":17024:17166  if (auth != address(0) && owner != auth && !isApprovedForAll(owner, auth)) {... */\n    tag_211:\n        /* \"node_modules/@openzeppelin/contracts/token/ERC721/ERC721.sol\":17184:17193  emitEvent */\n      dup2\n        /* \"node_modules/@openzeppelin/contracts/token/ERC721/ERC721.sol\":17180:17261  if (emitEvent) {... */\n      iszero\n      tag_213\n      jumpi\n        /* \"node_modules/@openzeppelin/contracts/token/ERC721/ERC721.sol\":17238:17245  tokenId */\n      dup4\n        /* \"node_modules/@openzeppelin/contracts/token/ERC721/ERC721.sol\":17234:17236  to */\n      dup6\n        /* \"node_modules/@openzeppelin/contracts/token/ERC721/ERC721.sol\":17218:17246  Approval(owner, to, tokenId) */\n      0xffffffffffffffffffffffffffffffffffffffff\n      and\n        /* \"node_modules/@openzeppelin/contracts/token/ERC721/ERC721.sol\":17227:17232  owner */\n      dup3\n        /* \"node_modules/@openzeppelin/contracts/token/ERC721/ERC721.sol\":17218:17246  Approval(owner, to, tokenId) */\n      0xffffffffffffffffffffffffffffffffffffffff\n      and\n      0x8c5be1e5ebec7d5bd14f71427d1e84f3dd0314c0f7b2291e5b200ac8c7c3b925\n      mload(0x40)\n      mload(0x40)\n      dup1\n      swap2\n      sub\n      swap1\n      log4\n        /* \"node_modules/@openzeppelin/contracts/token/ERC721/ERC721.sol\":17180:17261  if (emitEvent) {... */\n    tag_213:\n        /* \"node_modules/@openzeppelin/contracts/token/ERC721/ERC721.sol\":16848:17271  {... */\n      pop\n        /* \"node_modules/@openzeppelin/contracts/token/ERC721/ERC721.sol\":16811:17271  if (emitEvent || auth != address(0)) {... */\n    tag_206:\n        /* \"node_modules/@openzeppelin/contracts/token/ERC721/ERC721.sol\":17308:17310  to */\n      dup4\n        /* \"node_modules/@openzeppelin/contracts/token/ERC721/ERC721.sol\":17281:17296  _tokenApprovals */\n      0x04\n        /* \"node_modules/@openzeppelin/contracts/token/ERC721/ERC721.sol\":17281:17305  _tokenApprovals[tokenId] */\n      0x00\n        /* \"node_modules/@openzeppelin/contracts/token/ERC721/ERC721.sol\":17297:17304  tokenId */\n      dup6\n        /* \"node_modules/@openzeppelin/contracts/token/ERC721/ERC721.sol\":17281:17305  _tokenApprovals[tokenId] */\n      dup2\n      mstore\n      0x20\n      add\n      swap1\n      dup2\n      mstore\n      0x20\n      add\n      0x00\n      keccak256\n      0x00\n        /* \"node_modules/@openzeppelin/contracts/token/ERC721/ERC721.sol\":17281:17310  _tokenApprovals[tokenId] = to */\n      0x0100\n      exp\n      dup2\n      sload\n      dup2\n      0xffffffffffffffffffffffffffffffffffffffff\n      mul\n      not\n      and\n      swap1\n      dup4\n      0xffffffffffffffffffffffffffffffffffffffff\n      and\n      mul\n      or\n      swap1\n      sstore\n      pop\n        /* \"node_modules/@openzeppelin/contracts/token/ERC721/ERC721.sol\":16655:17317  function _approve(address to, uint256 tokenId, address auth, bool emitEvent) internal virtual {... */\n      pop\n      pop\n      pop\n      pop\n      jump\t// out\n        /* \"node_modules/@openzeppelin/contracts/token/ERC721/ERC721.sol\":9017:9385  function _checkAuthorized(address owner, address spender, uint256 tokenId) internal view virtual {... */\n    tag_175:\n        /* \"node_modules/@openzeppelin/contracts/token/ERC721/ERC721.sol\":9129:9167  _isAuthorized(owner, spender, tokenId) */\n      tag_215\n        /* \"node_modules/@openzeppelin/contracts/token/ERC721/ERC721.sol\":9143:9148  owner */\n      dup4\n        /* \"node_modules/@openzeppelin/contracts/token/ERC721/ERC721.sol\":9150:9157  spender */\n      dup4\n        /* \"node_modules/@openzeppelin/contracts/token/ERC721/ERC721.sol\":9159:9166  tokenId */\n      dup4\n        /* \"node_modules/@openzeppelin/contracts/token/ERC721/ERC721.sol\":9129:9142  _isAuthorized */\n      tag_216\n        /* \"node_modules/@openzeppelin/contracts/token/ERC721/ERC721.sol\":9129:9167  _isAuthorized(owner, spender, tokenId) */\n      jump\t// in\n    tag_215:\n        /* \"node_modules/@openzeppelin/contracts/token/ERC721/ERC721.sol\":9124:9379  if (!_isAuthorized(owner, spender, tokenId)) {... */\n      tag_217\n      jumpi\n        /* \"node_modules/@openzeppelin/contracts/token/ERC721/ERC721.sol\":9204:9205  0 */\n      0x00\n        /* \"node_modules/@openzeppelin/contracts/token/ERC721/ERC721.sol\":9187:9206  owner == address(0) */\n      0xffffffffffffffffffffffffffffffffffffffff\n      and\n        /* \"node_modules/@openzeppelin/contracts/token/ERC721/ERC721.sol\":9187:9192  owner */\n      dup4\n        /* \"node_modules/@openzeppelin/contracts/token/ERC721/ERC721.sol\":9187:9206  owner == address(0) */\n      0xffffffffffffffffffffffffffffffffffffffff\n      and\n      sub\n        /* \"node_modules/@openzeppelin/contracts/token/ERC721/ERC721.sol\":9183:9369  if (owner == address(0)) {... */\n      tag_218\n      jumpi\n        /* \"node_modules/@openzeppelin/contracts/token/ERC721/ERC721.sol\":9256:9263  tokenId */\n      dup1\n        /* \"node_modules/@openzeppelin/contracts/token/ERC721/ERC721.sol\":9233:9264  ERC721NonexistentToken(tokenId) */\n      mload(0x40)\n      0x7e27328900000000000000000000000000000000000000000000000000000000\n      dup2\n      mstore\n      0x04\n      add\n      tag_219\n      swap2\n      swap1\n      tag_65\n      jump\t// in\n    tag_219:\n      mload(0x40)\n      dup1\n      swap2\n      sub\n      swap1\n      revert\n        /* \"node_modules/@openzeppelin/contracts/token/ERC721/ERC721.sol\":9183:9369  if (owner == address(0)) {... */\n    tag_218:\n        /* \"node_modules/@openzeppelin/contracts/token/ERC721/ERC721.sol\":9337:9344  spender */\n      dup2\n        /* \"node_modules/@openzeppelin/contracts/token/ERC721/ERC721.sol\":9346:9353  tokenId */\n      dup2\n        /* \"node_modules/@openzeppelin/contracts/token/ERC721/ERC721.sol\":9310:9354  ERC721InsufficientApproval(spender, tokenId) */\n      mload(0x40)\n      0x177e802f00000000000000000000000000000000000000000000000000000000\n      dup2\n      mstore\n      0x04\n      add\n      tag_221\n      swap3\n      swap2\n      swap1\n      tag_222\n      jump\t// in\n    tag_221:\n      mload(0x40)\n      dup1\n      swap2\n      sub\n      swap1\n      revert\n        /* \"node_modules/@openzeppelin/contracts/token/ERC721/ERC721.sol\":9124:9379  if (!_isAuthorized(owner, spender, tokenId)) {... */\n    tag_217:\n        /* \"node_modules/@openzeppelin/contracts/token/ERC721/ERC721.sol\":9017:9385  function _checkAuthorized(address owner, address spender, uint256 tokenId) internal view virtual {... */\n      pop\n      pop\n      pop\n      jump\t// out\n        /* \"node_modules/@openzeppelin/contracts/token/ERC721/ERC721.sol\":8311:8583  function _isAuthorized(address owner, address spender, uint256 tokenId) internal view virtual returns (bool) {... */\n    tag_216:\n        /* \"node_modules/@openzeppelin/contracts/token/ERC721/ERC721.sol\":8414:8418  bool */\n      0x00\n        /* \"node_modules/@openzeppelin/contracts/token/ERC721/ERC721.sol\":8468:8469  0 */\n      dup1\n        /* \"node_modules/@openzeppelin/contracts/token/ERC721/ERC721.sol\":8449:8470  spender != address(0) */\n      0xffffffffffffffffffffffffffffffffffffffff\n      and\n        /* \"node_modules/@openzeppelin/contracts/token/ERC721/ERC721.sol\":8449:8456  spender */\n      dup4\n        /* \"node_modules/@openzeppelin/contracts/token/ERC721/ERC721.sol\":8449:8470  spender != address(0) */\n      0xffffffffffffffffffffffffffffffffffffffff\n      and\n      eq\n      iszero\n        /* \"node_modules/@openzeppelin/contracts/token/ERC721/ERC721.sol\":8449:8576  spender != address(0) &&... */\n      dup1\n      iszero\n      tag_224\n      jumpi\n      pop\n        /* \"node_modules/@openzeppelin/contracts/token/ERC721/ERC721.sol\":8496:8503  spender */\n      dup3\n        /* \"node_modules/@openzeppelin/contracts/token/ERC721/ERC721.sol\":8487:8503  owner == spender */\n      0xffffffffffffffffffffffffffffffffffffffff\n      and\n        /* \"node_modules/@openzeppelin/contracts/token/ERC721/ERC721.sol\":8487:8492  owner */\n      dup5\n        /* \"node_modules/@openzeppelin/contracts/token/ERC721/ERC721.sol\":8487:8503  owner == spender */\n      0xffffffffffffffffffffffffffffffffffffffff\n      and\n      eq\n        /* \"node_modules/@openzeppelin/contracts/token/ERC721/ERC721.sol\":8487:8539  owner == spender || isApprovedForAll(owner, spender) */\n      dup1\n      tag_225\n      jumpi\n      pop\n        /* \"node_modules/@openzeppelin/contracts/token/ERC721/ERC721.sol\":8507:8539  isApprovedForAll(owner, spender) */\n      tag_226\n        /* \"node_modules/@openzeppelin/contracts/token/ERC721/ERC721.sol\":8524:8529  owner */\n      dup5\n        /* \"node_modules/@openzeppelin/contracts/token/ERC721/ERC721.sol\":8531:8538  spender */\n      dup5\n        /* \"node_modules/@openzeppelin/contracts/token/ERC721/ERC721.sol\":8507:8523  isApprovedForAll */\n      tag_84\n        /* \"node_modules/@openzeppelin/contracts/token/ERC721/ERC721.sol\":8507:8539  isApprovedForAll(owner, spender) */\n      jump\t// in\n    tag_226:\n        /* \"node_modules/@openzeppelin/contracts/token/ERC721/ERC721.sol\":8487:8539  owner == spender || isApprovedForAll(owner, spender) */\n    tag_225:\n        /* \"node_modules/@openzeppelin/contracts/token/ERC721/ERC721.sol\":8487:8575  owner == spender || isApprovedForAll(owner, spender) || _getApproved(tokenId) == spender */\n      dup1\n      tag_227\n      jumpi\n      pop\n        /* \"node_modules/@openzeppelin/contracts/token/ERC721/ERC721.sol\":8568:8575  spender */\n      dup3\n        /* \"node_modules/@openzeppelin/contracts/token/ERC721/ERC721.sol\":8543:8575  _getApproved(tokenId) == spender */\n      0xffffffffffffffffffffffffffffffffffffffff\n      and\n        /* \"node_modules/@openzeppelin/contracts/token/ERC721/ERC721.sol\":8543:8564  _getApproved(tokenId) */\n      tag_228\n        /* \"node_modules/@openzeppelin/contracts/token/ERC721/ERC721.sol\":8556:8563  tokenId */\n      dup4\n        /* \"node_modules/@openzeppelin/contracts/token/ERC721/ERC721.sol\":8543:8555  _getApproved */\n      tag_102\n        /* \"node_modules/@openzeppelin/contracts/token/ERC721/ERC721.sol\":8543:8564  _getApproved(tokenId) */\n      jump\t// in\n    tag_228:\n        /* \"node_modules/@openzeppelin/contracts/token/ERC721/ERC721.sol\":8543:8575  _getApproved(tokenId) == spender */\n      0xffffffffffffffffffffffffffffffffffffffff\n      and\n      eq\n        /* \"node_modules/@openzeppelin/contracts/token/ERC721/ERC721.sol\":8487:8575  owner == spender || isApprovedForAll(owner, spender) || _getApproved(tokenId) == spender */\n    tag_227:\n        /* \"node_modules/@openzeppelin/contracts/token/ERC721/ERC721.sol\":8449:8576  spender != address(0) &&... */\n    tag_224:\n        /* \"node_modules/@openzeppelin/contracts/token/ERC721/ERC721.sol\":8430:8576  return... */\n      swap1\n      pop\n        /* \"node_modules/@openzeppelin/contracts/token/ERC721/ERC721.sol\":8311:8583  function _isAuthorized(address owner, address spender, uint256 tokenId) internal view virtual returns (bool) {... */\n      swap4\n      swap3\n      pop\n      pop\n      pop\n      jump\t// out\n        /* \"#utility.yul\":7:82   */\n    tag_229:\n        /* \"#utility.yul\":40:46   */\n      0x00\n        /* \"#utility.yul\":73:75   */\n      0x40\n        /* \"#utility.yul\":67:76   */\n      mload\n        /* \"#utility.yul\":57:76   */\n      swap1\n      pop\n        /* \"#utility.yul\":7:82   */\n      swap1\n      jump\t// out\n        /* \"#utility.yul\":88:205   */\n    tag_230:\n        /* \"#utility.yul\":197:198   */\n      0x00\n        /* \"#utility.yul\":194:195   */\n      dup1\n        /* \"#utility.yul\":187:199   */\n      revert\n        /* \"#utility.yul\":211:328   */\n    tag_231:\n        /* \"#utility.yul\":320:321   */\n      0x00\n        /* \"#utility.yul\":317:318   */\n      dup1\n        /* \"#utility.yul\":310:322   */\n      revert\n        /* \"#utility.yul\":334:483   */\n    tag_232:\n        /* \"#utility.yul\":370:377   */\n      0x00\n        /* \"#utility.yul\":410:476   */\n      0xffffffff00000000000000000000000000000000000000000000000000000000\n        /* \"#utility.yul\":403:408   */\n      dup3\n        /* \"#utility.yul\":399:477   */\n      and\n        /* \"#utility.yul\":388:477   */\n      swap1\n      pop\n        /* \"#utility.yul\":334:483   */\n      swap2\n      swap1\n      pop\n      jump\t// out\n        /* \"#utility.yul\":489:609   */\n    tag_233:\n        /* \"#utility.yul\":561:584   */\n      tag_292\n        /* \"#utility.yul\":578:583   */\n      dup2\n        /* \"#utility.yul\":561:584   */\n      tag_232\n      jump\t// in\n    tag_292:\n        /* \"#utility.yul\":554:559   */\n      dup2\n        /* \"#utility.yul\":551:585   */\n      eq\n        /* \"#utility.yul\":541:603   */\n      tag_293\n      jumpi\n        /* \"#utility.yul\":599:600   */\n      0x00\n        /* \"#utility.yul\":596:597   */\n      dup1\n        /* \"#utility.yul\":589:601   */\n      revert\n        /* \"#utility.yul\":541:603   */\n    tag_293:\n        /* \"#utility.yul\":489:609   */\n      pop\n      jump\t// out\n        /* \"#utility.yul\":615:752   */\n    tag_234:\n        /* \"#utility.yul\":660:665   */\n      0x00\n        /* \"#utility.yul\":698:704   */\n      dup2\n        /* \"#utility.yul\":685:705   */\n      calldataload\n        /* \"#utility.yul\":676:705   */\n      swap1\n      pop\n        /* \"#utility.yul\":714:746   */\n      tag_295\n        /* \"#utility.yul\":740:745   */\n      dup2\n        /* \"#utility.yul\":714:746   */\n      tag_233\n      jump\t// in\n    tag_295:\n        /* \"#utility.yul\":615:752   */\n      swap3\n      swap2\n      pop\n      pop\n      jump\t// out\n        /* \"#utility.yul\":758:1085   */\n    tag_23:\n        /* \"#utility.yul\":816:822   */\n      0x00\n        /* \"#utility.yul\":865:867   */\n      0x20\n        /* \"#utility.yul\":853:862   */\n      dup3\n        /* \"#utility.yul\":844:851   */\n      dup5\n        /* \"#utility.yul\":840:863   */\n      sub\n        /* \"#utility.yul\":836:868   */\n      slt\n        /* \"#utility.yul\":833:952   */\n      iszero\n      tag_297\n      jumpi\n        /* \"#utility.yul\":871:950   */\n      tag_298\n      tag_230\n      jump\t// in\n    tag_298:\n        /* \"#utility.yul\":833:952   */\n    tag_297:\n        /* \"#utility.yul\":991:992   */\n      0x00\n        /* \"#utility.yul\":1016:1068   */\n      tag_299\n        /* \"#utility.yul\":1060:1067   */\n      dup5\n        /* \"#utility.yul\":1051:1057   */\n      dup3\n        /* \"#utility.yul\":1040:1049   */\n      dup6\n        /* \"#utility.yul\":1036:1058   */\n      add\n        /* \"#utility.yul\":1016:1068   */\n      tag_234\n      jump\t// in\n    tag_299:\n        /* \"#utility.yul\":1006:1068   */\n      swap2\n      pop\n        /* \"#utility.yul\":962:1078   */\n      pop\n        /* \"#utility.yul\":758:1085   */\n      swap3\n      swap2\n      pop\n      pop\n      jump\t// out\n        /* \"#utility.yul\":1091:1181   */\n    tag_235:\n        /* \"#utility.yul\":1125:1132   */\n      0x00\n        /* \"#utility.yul\":1168:1173   */\n      dup2\n        /* \"#utility.yul\":1161:1174   */\n      iszero\n        /* \"#utility.yul\":1154:1175   */\n      iszero\n        /* \"#utility.yul\":1143:1175   */\n      swap1\n      pop\n        /* \"#utility.yul\":1091:1181   */\n      swap2\n      swap1\n      pop\n      jump\t// out\n        /* \"#utility.yul\":1187:1296   */\n    tag_236:\n        /* \"#utility.yul\":1268:1289   */\n      tag_302\n        /* \"#utility.yul\":1283:1288   */\n      dup2\n        /* \"#utility.yul\":1268:1289   */\n      tag_235\n      jump\t// in\n    tag_302:\n        /* \"#utility.yul\":1263:1266   */\n      dup3\n        /* \"#utility.yul\":1256:1290   */\n      mstore\n        /* \"#utility.yul\":1187:1296   */\n      pop\n      pop\n      jump\t// out\n        /* \"#utility.yul\":1302:1512   */\n    tag_26:\n        /* \"#utility.yul\":1389:1393   */\n      0x00\n        /* \"#utility.yul\":1427:1429   */\n      0x20\n        /* \"#utility.yul\":1416:1425   */\n      dup3\n        /* \"#utility.yul\":1412:1430   */\n      add\n        /* \"#utility.yul\":1404:1430   */\n      swap1\n      pop\n        /* \"#utility.yul\":1440:1505   */\n      tag_304\n        /* \"#utility.yul\":1502:1503   */\n      0x00\n        /* \"#utility.yul\":1491:1500   */\n      dup4\n        /* \"#utility.yul\":1487:1504   */\n      add\n        /* \"#utility.yul\":1478:1484   */\n      dup5\n        /* \"#utility.yul\":1440:1505   */\n      tag_236\n      jump\t// in\n    tag_304:\n        /* \"#utility.yul\":1302:1512   */\n      swap3\n      swap2\n      pop\n      pop\n      jump\t// out\n        /* \"#utility.yul\":1518:1617   */\n    tag_237:\n        /* \"#utility.yul\":1570:1576   */\n      0x00\n        /* \"#utility.yul\":1604:1609   */\n      dup2\n        /* \"#utility.yul\":1598:1610   */\n      mload\n        /* \"#utility.yul\":1588:1610   */\n      swap1\n      pop\n        /* \"#utility.yul\":1518:1617   */\n      swap2\n      swap1\n      pop\n      jump\t// out\n        /* \"#utility.yul\":1623:1792   */\n    tag_238:\n        /* \"#utility.yul\":1707:1718   */\n      0x00\n        /* \"#utility.yul\":1741:1747   */\n      dup3\n        /* \"#utility.yul\":1736:1739   */\n      dup3\n        /* \"#utility.yul\":1729:1748   */\n      mstore\n        /* \"#utility.yul\":1781:1785   */\n      0x20\n        /* \"#utility.yul\":1776:1779   */\n      dup3\n        /* \"#utility.yul\":1772:1786   */\n      add\n        /* \"#utility.yul\":1757:1786   */\n      swap1\n      pop\n        /* \"#utility.yul\":1623:1792   */\n      swap3\n      swap2\n      pop\n      pop\n      jump\t// out\n        /* \"#utility.yul\":1798:2044   */\n    tag_239:\n        /* \"#utility.yul\":1879:1880   */\n      0x00\n        /* \"#utility.yul\":1889:2002   */\n    tag_308:\n        /* \"#utility.yul\":1903:1909   */\n      dup4\n        /* \"#utility.yul\":1900:1901   */\n      dup2\n        /* \"#utility.yul\":1897:1910   */\n      lt\n        /* \"#utility.yul\":1889:2002   */\n      iszero\n      tag_310\n      jumpi\n        /* \"#utility.yul\":1988:1989   */\n      dup1\n        /* \"#utility.yul\":1983:1986   */\n      dup3\n        /* \"#utility.yul\":1979:1990   */\n      add\n        /* \"#utility.yul\":1973:1991   */\n      mload\n        /* \"#utility.yul\":1969:1970   */\n      dup2\n        /* \"#utility.yul\":1964:1967   */\n      dup5\n        /* \"#utility.yul\":1960:1971   */\n      add\n        /* \"#utility.yul\":1953:1992   */\n      mstore\n        /* \"#utility.yul\":1925:1927   */\n      0x20\n        /* \"#utility.yul\":1922:1923   */\n      dup2\n        /* \"#utility.yul\":1918:1928   */\n      add\n        /* \"#utility.yul\":1913:1928   */\n      swap1\n      pop\n        /* \"#utility.yul\":1889:2002   */\n      jump(tag_308)\n    tag_310:\n        /* \"#utility.yul\":2036:2037   */\n      0x00\n        /* \"#utility.yul\":2027:2033   */\n      dup5\n        /* \"#utility.yul\":2022:2025   */\n      dup5\n        /* \"#utility.yul\":2018:2034   */\n      add\n        /* \"#utility.yul\":2011:2038   */\n      mstore\n        /* \"#utility.yul\":1860:2044   */\n      pop\n        /* \"#utility.yul\":1798:2044   */\n      pop\n      pop\n      pop\n      jump\t// out\n        /* \"#utility.yul\":2050:2152   */\n    tag_240:\n        /* \"#utility.yul\":2091:2097   */\n      0x00\n        /* \"#utility.yul\":2142:2144   */\n      0x1f\n        /* \"#utility.yul\":2138:2145   */\n      not\n        /* \"#utility.yul\":2133:2135   */\n      0x1f\n        /* \"#utility.yul\":2126:2131   */\n      dup4\n        /* \"#utility.yul\":2122:2136   */\n      add\n        /* \"#utility.yul\":2118:2146   */\n      and\n        /* \"#utility.yul\":2108:2146   */\n      swap1\n      pop\n        /* \"#utility.yul\":2050:2152   */\n      swap2\n      swap1\n      pop\n      jump\t// out\n        /* \"#utility.yul\":2158:2535   */\n    tag_241:\n        /* \"#utility.yul\":2246:2249   */\n      0x00\n        /* \"#utility.yul\":2274:2313   */\n      tag_313\n        /* \"#utility.yul\":2307:2312   */\n      dup3\n        /* \"#utility.yul\":2274:2313   */\n      tag_237\n      jump\t// in\n    tag_313:\n        /* \"#utility.yul\":2329:2400   */\n      tag_314\n        /* \"#utility.yul\":2393:2399   */\n      dup2\n        /* \"#utility.yul\":2388:2391   */\n      dup6\n        /* \"#utility.yul\":2329:2400   */\n      tag_238\n      jump\t// in\n    tag_314:\n        /* \"#utility.yul\":2322:2400   */\n      swap4\n      pop\n        /* \"#utility.yul\":2409:2474   */\n      tag_315\n        /* \"#utility.yul\":2467:2473   */\n      dup2\n        /* \"#utility.yul\":2462:2465   */\n      dup6\n        /* \"#utility.yul\":2455:2459   */\n      0x20\n        /* \"#utility.yul\":2448:2453   */\n      dup7\n        /* \"#utility.yul\":2444:2460   */\n      add\n        /* \"#utility.yul\":2409:2474   */\n      tag_239\n      jump\t// in\n    tag_315:\n        /* \"#utility.yul\":2499:2528   */\n      tag_316\n        /* \"#utility.yul\":2521:2527   */\n      dup2\n        /* \"#utility.yul\":2499:2528   */\n      tag_240\n      jump\t// in\n    tag_316:\n        /* \"#utility.yul\":2494:2497   */\n      dup5\n        /* \"#utility.yul\":2490:2529   */\n      add\n        /* \"#utility.yul\":2483:2529   */\n      swap2\n      pop\n        /* \"#utility.yul\":2250:2535   */\n      pop\n        /* \"#utility.yul\":2158:2535   */\n      swap3\n      swap2\n      pop\n      pop\n      jump\t// out\n        /* \"#utility.yul\":2541:2854   */\n    tag_30:\n        /* \"#utility.yul\":2654:2658   */\n      0x00\n        /* \"#utility.yul\":2692:2694   */\n      0x20\n        /* \"#utility.yul\":2681:2690   */\n      dup3\n        /* \"#utility.yul\":2677:2695   */\n      add\n        /* \"#utility.yul\":2669:2695   */\n      swap1\n      pop\n        /* \"#utility.yul\":2741:2750   */\n      dup2\n        /* \"#utility.yul\":2735:2739   */\n      dup2\n        /* \"#utility.yul\":2731:2751   */\n      sub\n        /* \"#utility.yul\":2727:2728   */\n      0x00\n        /* \"#utility.yul\":2716:2725   */\n      dup4\n        /* \"#utility.yul\":2712:2729   */\n      add\n        /* \"#utility.yul\":2705:2752   */\n      mstore\n        /* \"#utility.yul\":2769:2847   */\n      tag_318\n        /* \"#utility.yul\":2842:2846   */\n      dup2\n        /* \"#utility.yul\":2833:2839   */\n      dup5\n        /* \"#utility.yul\":2769:2847   */\n      tag_241\n      jump\t// in\n    tag_318:\n        /* \"#utility.yul\":2761:2847   */\n      swap1\n      pop\n        /* \"#utility.yul\":2541:2854   */\n      swap3\n      swap2\n      pop\n      pop\n      jump\t// out\n        /* \"#utility.yul\":2860:2937   */\n    tag_242:\n        /* \"#utility.yul\":2897:2904   */\n      0x00\n        /* \"#utility.yul\":2926:2931   */\n      dup2\n        /* \"#utility.yul\":2915:2931   */\n      swap1\n      pop\n        /* \"#utility.yul\":2860:2937   */\n      swap2\n      swap1\n      pop\n      jump\t// out\n        /* \"#utility.yul\":2943:3065   */\n    tag_243:\n        /* \"#utility.yul\":3016:3040   */\n      tag_321\n        /* \"#utility.yul\":3034:3039   */\n      dup2\n        /* \"#utility.yul\":3016:3040   */\n      tag_242\n      jump\t// in\n    tag_321:\n        /* \"#utility.yul\":3009:3014   */\n      dup2\n        /* \"#utility.yul\":3006:3041   */\n      eq\n        /* \"#utility.yul\":2996:3059   */\n      tag_322\n      jumpi\n        /* \"#utility.yul\":3055:3056   */\n      0x00\n        /* \"#utility.yul\":3052:3053   */\n      dup1\n        /* \"#utility.yul\":3045:3057   */\n      revert\n        /* \"#utility.yul\":2996:3059   */\n    tag_322:\n        /* \"#utility.yul\":2943:3065   */\n      pop\n      jump\t// out\n        /* \"#utility.yul\":3071:3210   */\n    tag_244:\n        /* \"#utility.yul\":3117:3122   */\n      0x00\n        /* \"#utility.yul\":3155:3161   */\n      dup2\n        /* \"#utility.yul\":3142:3162   */\n      calldataload\n        /* \"#utility.yul\":3133:3162   */\n      swap1\n      pop\n        /* \"#utility.yul\":3171:3204   */\n      tag_324\n        /* \"#utility.yul\":3198:3203   */\n      dup2\n        /* \"#utility.yul\":3171:3204   */\n      tag_243\n      jump\t// in\n    tag_324:\n        /* \"#utility.yul\":3071:3210   */\n      swap3\n      swap2\n      pop\n      pop\n      jump\t// out\n        /* \"#utility.yul\":3216:3545   */\n    tag_33:\n        /* \"#utility.yul\":3275:3281   */\n      0x00\n        /* \"#utility.yul\":3324:3326   */\n      0x20\n        /* \"#utility.yul\":3312:3321   */\n      dup3\n        /* \"#utility.yul\":3303:3310   */\n      dup5\n        /* \"#utility.yul\":3299:3322   */\n      sub\n        /* \"#utility.yul\":3295:3327   */\n      slt\n        /* \"#utility.yul\":3292:3411   */\n      iszero\n      tag_326\n      jumpi\n        /* \"#utility.yul\":3330:3409   */\n      tag_327\n      tag_230\n      jump\t// in\n    tag_327:\n        /* \"#utility.yul\":3292:3411   */\n    tag_326:\n        /* \"#utility.yul\":3450:3451   */\n      0x00\n        /* \"#utility.yul\":3475:3528   */\n      tag_328\n        /* \"#utility.yul\":3520:3527   */\n      dup5\n        /* \"#utility.yul\":3511:3517   */\n      dup3\n        /* \"#utility.yul\":3500:3509   */\n      dup6\n        /* \"#utility.yul\":3496:3518   */\n      add\n        /* \"#utility.yul\":3475:3528   */\n      tag_244\n      jump\t// in\n    tag_328:\n        /* \"#utility.yul\":3465:3528   */\n      swap2\n      pop\n        /* \"#utility.yul\":3421:3538   */\n      pop\n        /* \"#utility.yul\":3216:3545   */\n      swap3\n      swap2\n      pop\n      pop\n      jump\t// out\n        /* \"#utility.yul\":3551:3677   */\n    tag_245:\n        /* \"#utility.yul\":3588:3595   */\n      0x00\n        /* \"#utility.yul\":3628:3670   */\n      0xffffffffffffffffffffffffffffffffffffffff\n        /* \"#utility.yul\":3621:3626   */\n      dup3\n        /* \"#utility.yul\":3617:3671   */\n      and\n        /* \"#utility.yul\":3606:3671   */\n      swap1\n      pop\n        /* \"#utility.yul\":3551:3677   */\n      swap2\n      swap1\n      pop\n      jump\t// out\n        /* \"#utility.yul\":3683:3779   */\n    tag_246:\n        /* \"#utility.yul\":3720:3727   */\n      0x00\n        /* \"#utility.yul\":3749:3773   */\n      tag_331\n        /* \"#utility.yul\":3767:3772   */\n      dup3\n        /* \"#utility.yul\":3749:3773   */\n      tag_245\n      jump\t// in\n    tag_331:\n        /* \"#utility.yul\":3738:3773   */\n      swap1\n      pop\n        /* \"#utility.yul\":3683:3779   */\n      swap2\n      swap1\n      pop\n      jump\t// out\n        /* \"#utility.yul\":3785:3903   */\n    tag_247:\n        /* \"#utility.yul\":3872:3896   */\n      tag_333\n        /* \"#utility.yul\":3890:3895   */\n      dup2\n        /* \"#utility.yul\":3872:3896   */\n      tag_246\n      jump\t// in\n    tag_333:\n        /* \"#utility.yul\":3867:3870   */\n      dup3\n        /* \"#utility.yul\":3860:3897   */\n      mstore\n        /* \"#utility.yul\":3785:3903   */\n      pop\n      pop\n      jump\t// out\n        /* \"#utility.yul\":3909:4131   */\n    tag_36:\n        /* \"#utility.yul\":4002:4006   */\n      0x00\n        /* \"#utility.yul\":4040:4042   */\n      0x20\n        /* \"#utility.yul\":4029:4038   */\n      dup3\n        /* \"#utility.yul\":4025:4043   */\n      add\n        /* \"#utility.yul\":4017:4043   */\n      swap1\n      pop\n        /* \"#utility.yul\":4053:4124   */\n      tag_335\n        /* \"#utility.yul\":4121:4122   */\n      0x00\n        /* \"#utility.yul\":4110:4119   */\n      dup4\n        /* \"#utility.yul\":4106:4123   */\n      add\n        /* \"#utility.yul\":4097:4103   */\n      dup5\n        /* \"#utility.yul\":4053:4124   */\n      tag_247\n      jump\t// in\n    tag_335:\n        /* \"#utility.yul\":3909:4131   */\n      swap3\n      swap2\n      pop\n      pop\n      jump\t// out\n        /* \"#utility.yul\":4137:4259   */\n    tag_248:\n        /* \"#utility.yul\":4210:4234   */\n      tag_337\n        /* \"#utility.yul\":4228:4233   */\n      dup2\n        /* \"#utility.yul\":4210:4234   */\n      tag_246\n      jump\t// in\n    tag_337:\n        /* \"#utility.yul\":4203:4208   */\n      dup2\n        /* \"#utility.yul\":4200:4235   */\n      eq\n        /* \"#utility.yul\":4190:4253   */\n      tag_338\n      jumpi\n        /* \"#utility.yul\":4249:4250   */\n      0x00\n        /* \"#utility.yul\":4246:4247   */\n      dup1\n        /* \"#utility.yul\":4239:4251   */\n      revert\n        /* \"#utility.yul\":4190:4253   */\n    tag_338:\n        /* \"#utility.yul\":4137:4259   */\n      pop\n      jump\t// out\n        /* \"#utility.yul\":4265:4404   */\n    tag_249:\n        /* \"#utility.yul\":4311:4316   */\n      0x00\n        /* \"#utility.yul\":4349:4355   */\n      dup2\n        /* \"#utility.yul\":4336:4356   */\n      calldataload\n        /* \"#utility.yul\":4327:4356   */\n      swap1\n      pop\n        /* \"#utility.yul\":4365:4398   */\n      tag_340\n        /* \"#utility.yul\":4392:4397   */\n      dup2\n        /* \"#utility.yul\":4365:4398   */\n      tag_248\n      jump\t// in\n    tag_340:\n        /* \"#utility.yul\":4265:4404   */\n      swap3\n      swap2\n      pop\n      pop\n      jump\t// out\n        /* \"#utility.yul\":4410:4884   */\n    tag_39:\n        /* \"#utility.yul\":4478:4484   */\n      0x00\n        /* \"#utility.yul\":4486:4492   */\n      dup1\n        /* \"#utility.yul\":4535:4537   */\n      0x40\n        /* \"#utility.yul\":4523:4532   */\n      dup4\n        /* \"#utility.yul\":4514:4521   */\n      dup6\n        /* \"#utility.yul\":4510:4533   */\n      sub\n        /* \"#utility.yul\":4506:4538   */\n      slt\n        /* \"#utility.yul\":4503:4622   */\n      iszero\n      tag_342\n      jumpi\n        /* \"#utility.yul\":4541:4620   */\n      tag_343\n      tag_230\n      jump\t// in\n    tag_343:\n        /* \"#utility.yul\":4503:4622   */\n    tag_342:\n        /* \"#utility.yul\":4661:4662   */\n      0x00\n        /* \"#utility.yul\":4686:4739   */\n      tag_344\n        /* \"#utility.yul\":4731:4738   */\n      dup6\n        /* \"#utility.yul\":4722:4728   */\n      dup3\n        /* \"#utility.yul\":4711:4720   */\n      dup7\n        /* \"#utility.yul\":4707:4729   */\n      add\n        /* \"#utility.yul\":4686:4739   */\n      tag_249\n      jump\t// in\n    tag_344:\n        /* \"#utility.yul\":4676:4739   */\n      swap3\n      pop\n        /* \"#utility.yul\":4632:4749   */\n      pop\n        /* \"#utility.yul\":4788:4790   */\n      0x20\n        /* \"#utility.yul\":4814:4867   */\n      tag_345\n        /* \"#utility.yul\":4859:4866   */\n      dup6\n        /* \"#utility.yul\":4850:4856   */\n      dup3\n        /* \"#utility.yul\":4839:4848   */\n      dup7\n        /* \"#utility.yul\":4835:4857   */\n      add\n        /* \"#utility.yul\":4814:4867   */\n      tag_244\n      jump\t// in\n    tag_345:\n        /* \"#utility.yul\":4804:4867   */\n      swap2\n      pop\n        /* \"#utility.yul\":4759:4877   */\n      pop\n        /* \"#utility.yul\":4410:4884   */\n      swap3\n      pop\n      swap3\n      swap1\n      pop\n      jump\t// out\n        /* \"#utility.yul\":4890:5007   */\n    tag_250:\n        /* \"#utility.yul\":4999:5000   */\n      0x00\n        /* \"#utility.yul\":4996:4997   */\n      dup1\n        /* \"#utility.yul\":4989:5001   */\n      revert\n        /* \"#utility.yul\":5013:5130   */\n    tag_251:\n        /* \"#utility.yul\":5122:5123   */\n      0x00\n        /* \"#utility.yul\":5119:5120   */\n      dup1\n        /* \"#utility.yul\":5112:5124   */\n      revert\n        /* \"#utility.yul\":5136:5316   */\n    tag_252:\n        /* \"#utility.yul\":5184:5261   */\n      0x4e487b7100000000000000000000000000000000000000000000000000000000\n        /* \"#utility.yul\":5181:5182   */\n      0x00\n        /* \"#utility.yul\":5174:5262   */\n      mstore\n        /* \"#utility.yul\":5281:5285   */\n      0x41\n        /* \"#utility.yul\":5278:5279   */\n      0x04\n        /* \"#utility.yul\":5271:5286   */\n      mstore\n        /* \"#utility.yul\":5305:5309   */\n      0x24\n        /* \"#utility.yul\":5302:5303   */\n      0x00\n        /* \"#utility.yul\":5295:5310   */\n      revert\n        /* \"#utility.yul\":5322:5603   */\n    tag_253:\n        /* \"#utility.yul\":5405:5432   */\n      tag_350\n        /* \"#utility.yul\":5427:5431   */\n      dup3\n        /* \"#utility.yul\":5405:5432   */\n      tag_240\n      jump\t// in\n    tag_350:\n        /* \"#utility.yul\":5397:5403   */\n      dup2\n        /* \"#utility.yul\":5393:5433   */\n      add\n        /* \"#utility.yul\":5535:5541   */\n      dup2\n        /* \"#utility.yul\":5523:5533   */\n      dup2\n        /* \"#utility.yul\":5520:5542   */\n      lt\n        /* \"#utility.yul\":5499:5517   */\n      0xffffffffffffffff\n        /* \"#utility.yul\":5487:5497   */\n      dup3\n        /* \"#utility.yul\":5484:5518   */\n      gt\n        /* \"#utility.yul\":5481:5543   */\n      or\n        /* \"#utility.yul\":5478:5566   */\n      iszero\n      tag_351\n      jumpi\n        /* \"#utility.yul\":5546:5564   */\n      tag_352\n      tag_252\n      jump\t// in\n    tag_352:\n        /* \"#utility.yul\":5478:5566   */\n    tag_351:\n        /* \"#utility.yul\":5586:5596   */\n      dup1\n        /* \"#utility.yul\":5582:5584   */\n      0x40\n        /* \"#utility.yul\":5575:5597   */\n      mstore\n        /* \"#utility.yul\":5365:5603   */\n      pop\n        /* \"#utility.yul\":5322:5603   */\n      pop\n      pop\n      jump\t// out\n        /* \"#utility.yul\":5609:5738   */\n    tag_254:\n        /* \"#utility.yul\":5643:5649   */\n      0x00\n        /* \"#utility.yul\":5670:5690   */\n      tag_354\n      tag_229\n      jump\t// in\n    tag_354:\n        /* \"#utility.yul\":5660:5690   */\n      swap1\n      pop\n        /* \"#utility.yul\":5699:5732   */\n      tag_355\n        /* \"#utility.yul\":5727:5731   */\n      dup3\n        /* \"#utility.yul\":5719:5725   */\n      dup3\n        /* \"#utility.yul\":5699:5732   */\n      tag_253\n      jump\t// in\n    tag_355:\n        /* \"#utility.yul\":5609:5738   */\n      swap2\n      swap1\n      pop\n      jump\t// out\n        /* \"#utility.yul\":5744:6052   */\n    tag_255:\n        /* \"#utility.yul\":5806:5810   */\n      0x00\n        /* \"#utility.yul\":5896:5914   */\n      0xffffffffffffffff\n        /* \"#utility.yul\":5888:5894   */\n      dup3\n        /* \"#utility.yul\":5885:5915   */\n      gt\n        /* \"#utility.yul\":5882:5938   */\n      iszero\n      tag_357\n      jumpi\n        /* \"#utility.yul\":5918:5936   */\n      tag_358\n      tag_252\n      jump\t// in\n    tag_358:\n        /* \"#utility.yul\":5882:5938   */\n    tag_357:\n        /* \"#utility.yul\":5956:5985   */\n      tag_359\n        /* \"#utility.yul\":5978:5984   */\n      dup3\n        /* \"#utility.yul\":5956:5985   */\n      tag_240\n      jump\t// in\n    tag_359:\n        /* \"#utility.yul\":5948:5985   */\n      swap1\n      pop\n        /* \"#utility.yul\":6040:6044   */\n      0x20\n        /* \"#utility.yul\":6034:6038   */\n      dup2\n        /* \"#utility.yul\":6030:6045   */\n      add\n        /* \"#utility.yul\":6022:6045   */\n      swap1\n      pop\n        /* \"#utility.yul\":5744:6052   */\n      swap2\n      swap1\n      pop\n      jump\t// out\n        /* \"#utility.yul\":6058:6204   */\n    tag_256:\n        /* \"#utility.yul\":6155:6161   */\n      dup3\n        /* \"#utility.yul\":6150:6153   */\n      dup2\n        /* \"#utility.yul\":6145:6148   */\n      dup4\n        /* \"#utility.yul\":6132:6162   */\n      calldatacopy\n        /* \"#utility.yul\":6196:6197   */\n      0x00\n        /* \"#utility.yul\":6187:6193   */\n      dup4\n        /* \"#utility.yul\":6182:6185   */\n      dup4\n        /* \"#utility.yul\":6178:6194   */\n      add\n        /* \"#utility.yul\":6171:6198   */\n      mstore\n        /* \"#utility.yul\":6058:6204   */\n      pop\n      pop\n      pop\n      jump\t// out\n        /* \"#utility.yul\":6210:6635   */\n    tag_257:\n        /* \"#utility.yul\":6288:6293   */\n      0x00\n        /* \"#utility.yul\":6313:6379   */\n      tag_362\n        /* \"#utility.yul\":6329:6378   */\n      tag_363\n        /* \"#utility.yul\":6371:6377   */\n      dup5\n        /* \"#utility.yul\":6329:6378   */\n      tag_255\n      jump\t// in\n    tag_363:\n        /* \"#utility.yul\":6313:6379   */\n      tag_254\n      jump\t// in\n    tag_362:\n        /* \"#utility.yul\":6304:6379   */\n      swap1\n      pop\n        /* \"#utility.yul\":6402:6408   */\n      dup3\n        /* \"#utility.yul\":6395:6400   */\n      dup2\n        /* \"#utility.yul\":6388:6409   */\n      mstore\n        /* \"#utility.yul\":6440:6444   */\n      0x20\n        /* \"#utility.yul\":6433:6438   */\n      dup2\n        /* \"#utility.yul\":6429:6445   */\n      add\n        /* \"#utility.yul\":6478:6481   */\n      dup5\n        /* \"#utility.yul\":6469:6475   */\n      dup5\n        /* \"#utility.yul\":6464:6467   */\n      dup5\n        /* \"#utility.yul\":6460:6476   */\n      add\n        /* \"#utility.yul\":6457:6482   */\n      gt\n        /* \"#utility.yul\":6454:6566   */\n      iszero\n      tag_364\n      jumpi\n        /* \"#utility.yul\":6485:6564   */\n      tag_365\n      tag_251\n      jump\t// in\n    tag_365:\n        /* \"#utility.yul\":6454:6566   */\n    tag_364:\n        /* \"#utility.yul\":6575:6629   */\n      tag_366\n        /* \"#utility.yul\":6622:6628   */\n      dup5\n        /* \"#utility.yul\":6617:6620   */\n      dup3\n        /* \"#utility.yul\":6612:6615   */\n      dup6\n        /* \"#utility.yul\":6575:6629   */\n      tag_256\n      jump\t// in\n    tag_366:\n        /* \"#utility.yul\":6294:6635   */\n      pop\n        /* \"#utility.yul\":6210:6635   */\n      swap4\n      swap3\n      pop\n      pop\n      pop\n      jump\t// out\n        /* \"#utility.yul\":6655:6995   */\n    tag_258:\n        /* \"#utility.yul\":6711:6716   */\n      0x00\n        /* \"#utility.yul\":6760:6763   */\n      dup3\n        /* \"#utility.yul\":6753:6757   */\n      0x1f\n        /* \"#utility.yul\":6745:6751   */\n      dup4\n        /* \"#utility.yul\":6741:6758   */\n      add\n        /* \"#utility.yul\":6737:6764   */\n      slt\n        /* \"#utility.yul\":6727:6849   */\n      tag_368\n      jumpi\n        /* \"#utility.yul\":6768:6847   */\n      tag_369\n      tag_250\n      jump\t// in\n    tag_369:\n        /* \"#utility.yul\":6727:6849   */\n    tag_368:\n        /* \"#utility.yul\":6885:6891   */\n      dup2\n        /* \"#utility.yul\":6872:6892   */\n      calldataload\n        /* \"#utility.yul\":6910:6989   */\n      tag_370\n        /* \"#utility.yul\":6985:6988   */\n      dup5\n        /* \"#utility.yul\":6977:6983   */\n      dup3\n        /* \"#utility.yul\":6970:6974   */\n      0x20\n        /* \"#utility.yul\":6962:6968   */\n      dup7\n        /* \"#utility.yul\":6958:6975   */\n      add\n        /* \"#utility.yul\":6910:6989   */\n      tag_257\n      jump\t// in\n    tag_370:\n        /* \"#utility.yul\":6901:6989   */\n      swap2\n      pop\n        /* \"#utility.yul\":6717:6995   */\n      pop\n        /* \"#utility.yul\":6655:6995   */\n      swap3\n      swap2\n      pop\n      pop\n      jump\t// out\n        /* \"#utility.yul\":7001:7510   */\n    tag_43:\n        /* \"#utility.yul\":7070:7076   */\n      0x00\n        /* \"#utility.yul\":7119:7121   */\n      0x20\n        /* \"#utility.yul\":7107:7116   */\n      dup3\n        /* \"#utility.yul\":7098:7105   */\n      dup5\n        /* \"#utility.yul\":7094:7117   */\n      sub\n        /* \"#utility.yul\":7090:7122   */\n      slt\n        /* \"#utility.yul\":7087:7206   */\n      iszero\n      tag_372\n      jumpi\n        /* \"#utility.yul\":7125:7204   */\n      tag_373\n      tag_230\n      jump\t// in\n    tag_373:\n        /* \"#utility.yul\":7087:7206   */\n    tag_372:\n        /* \"#utility.yul\":7273:7274   */\n      0x00\n        /* \"#utility.yul\":7262:7271   */\n      dup3\n        /* \"#utility.yul\":7258:7275   */\n      add\n        /* \"#utility.yul\":7245:7276   */\n      calldataload\n        /* \"#utility.yul\":7303:7321   */\n      0xffffffffffffffff\n        /* \"#utility.yul\":7295:7301   */\n      dup2\n        /* \"#utility.yul\":7292:7322   */\n      gt\n        /* \"#utility.yul\":7289:7406   */\n      iszero\n      tag_374\n      jumpi\n        /* \"#utility.yul\":7325:7404   */\n      tag_375\n      tag_231\n      jump\t// in\n    tag_375:\n        /* \"#utility.yul\":7289:7406   */\n    tag_374:\n        /* \"#utility.yul\":7430:7493   */\n      tag_376\n        /* \"#utility.yul\":7485:7492   */\n      dup5\n        /* \"#utility.yul\":7476:7482   */\n      dup3\n        /* \"#utility.yul\":7465:7474   */\n      dup6\n        /* \"#utility.yul\":7461:7483   */\n      add\n        /* \"#utility.yul\":7430:7493   */\n      tag_258\n      jump\t// in\n    tag_376:\n        /* \"#utility.yul\":7420:7493   */\n      swap2\n      pop\n        /* \"#utility.yul\":7216:7503   */\n      pop\n        /* \"#utility.yul\":7001:7510   */\n      swap3\n      swap2\n      pop\n      pop\n      jump\t// out\n        /* \"#utility.yul\":7516:8135   */\n    tag_47:\n        /* \"#utility.yul\":7593:7599   */\n      0x00\n        /* \"#utility.yul\":7601:7607   */\n      dup1\n        /* \"#utility.yul\":7609:7615   */\n      0x00\n        /* \"#utility.yul\":7658:7660   */\n      0x60\n        /* \"#utility.yul\":7646:7655   */\n      dup5\n        /* \"#utility.yul\":7637:7644   */\n      dup7\n        /* \"#utility.yul\":7633:7656   */\n      sub\n        /* \"#utility.yul\":7629:7661   */\n      slt\n        /* \"#utility.yul\":7626:7745   */\n      iszero\n      tag_378\n      jumpi\n        /* \"#utility.yul\":7664:7743   */\n      tag_379\n      tag_230\n      jump\t// in\n    tag_379:\n        /* \"#utility.yul\":7626:7745   */\n    tag_378:\n        /* \"#utility.yul\":7784:7785   */\n      0x00\n        /* \"#utility.yul\":7809:7862   */\n      tag_380\n        /* \"#utility.yul\":7854:7861   */\n      dup7\n        /* \"#utility.yul\":7845:7851   */\n      dup3\n        /* \"#utility.yul\":7834:7843   */\n      dup8\n        /* \"#utility.yul\":7830:7852   */\n      add\n        /* \"#utility.yul\":7809:7862   */\n      tag_249\n      jump\t// in\n    tag_380:\n        /* \"#utility.yul\":7799:7862   */\n      swap4\n      pop\n        /* \"#utility.yul\":7755:7872   */\n      pop\n        /* \"#utility.yul\":7911:7913   */\n      0x20\n        /* \"#utility.yul\":7937:7990   */\n      tag_381\n        /* \"#utility.yul\":7982:7989   */\n      dup7\n        /* \"#utility.yul\":7973:7979   */\n      dup3\n        /* \"#utility.yul\":7962:7971   */\n      dup8\n        /* \"#utility.yul\":7958:7980   */\n      add\n        /* \"#utility.yul\":7937:7990   */\n      tag_249\n      jump\t// in\n    tag_381:\n        /* \"#utility.yul\":7927:7990   */\n      swap3\n      pop\n        /* \"#utility.yul\":7882:8000   */\n      pop\n        /* \"#utility.yul\":8039:8041   */\n      0x40\n        /* \"#utility.yul\":8065:8118   */\n      tag_382\n        /* \"#utility.yul\":8110:8117   */\n      dup7\n        /* \"#utility.yul\":8101:8107   */\n      dup3\n        /* \"#utility.yul\":8090:8099   */\n      dup8\n        /* \"#utility.yul\":8086:8108   */\n      add\n        /* \"#utility.yul\":8065:8118   */\n      tag_244\n      jump\t// in\n    tag_382:\n        /* \"#utility.yul\":8055:8118   */\n      swap2\n      pop\n        /* \"#utility.yul\":8010:8128   */\n      pop\n        /* \"#utility.yul\":7516:8135   */\n      swap3\n      pop\n      swap3\n      pop\n      swap3\n      jump\t// out\n        /* \"#utility.yul\":8141:8257   */\n    tag_259:\n        /* \"#utility.yul\":8211:8232   */\n      tag_384\n        /* \"#utility.yul\":8226:8231   */\n      dup2\n        /* \"#utility.yul\":8211:8232   */\n      tag_235\n      jump\t// in\n    tag_384:\n        /* \"#utility.yul\":8204:8209   */\n      dup2\n        /* \"#utility.yul\":8201:8233   */\n      eq\n        /* \"#utility.yul\":8191:8251   */\n      tag_385\n      jumpi\n        /* \"#utility.yul\":8247:8248   */\n      0x00\n        /* \"#utility.yul\":8244:8245   */\n      dup1\n        /* \"#utility.yul\":8237:8249   */\n      revert\n        /* \"#utility.yul\":8191:8251   */\n    tag_385:\n        /* \"#utility.yul\":8141:8257   */\n      pop\n      jump\t// out\n        /* \"#utility.yul\":8263:8396   */\n    tag_260:\n        /* \"#utility.yul\":8306:8311   */\n      0x00\n        /* \"#utility.yul\":8344:8350   */\n      dup2\n        /* \"#utility.yul\":8331:8351   */\n      calldataload\n        /* \"#utility.yul\":8322:8351   */\n      swap1\n      pop\n        /* \"#utility.yul\":8360:8390   */\n      tag_387\n        /* \"#utility.yul\":8384:8389   */\n      dup2\n        /* \"#utility.yul\":8360:8390   */\n      tag_259\n      jump\t// in\n    tag_387:\n        /* \"#utility.yul\":8263:8396   */\n      swap3\n      swap2\n      pop\n      pop\n      jump\t// out\n        /* \"#utility.yul\":8402:9015   */\n    tag_51:\n        /* \"#utility.yul\":8476:8482   */\n      0x00\n        /* \"#utility.yul\":8484:8490   */\n      dup1\n        /* \"#utility.yul\":8492:8498   */\n      0x00\n        /* \"#utility.yul\":8541:8543   */\n      0x60\n        /* \"#utility.yul\":8529:8538   */\n      dup5\n        /* \"#utility.yul\":8520:8527   */\n      dup7\n        /* \"#utility.yul\":8516:8539   */\n      sub\n        /* \"#utility.yul\":8512:8544   */\n      slt\n        /* \"#utility.yul\":8509:8628   */\n      iszero\n      tag_389\n      jumpi\n        /* \"#utility.yul\":8547:8626   */\n      tag_390\n      tag_230\n      jump\t// in\n    tag_390:\n        /* \"#utility.yul\":8509:8628   */\n    tag_389:\n        /* \"#utility.yul\":8667:8668   */\n      0x00\n        /* \"#utility.yul\":8692:8745   */\n      tag_391\n        /* \"#utility.yul\":8737:8744   */\n      dup7\n        /* \"#utility.yul\":8728:8734   */\n      dup3\n        /* \"#utility.yul\":8717:8726   */\n      dup8\n        /* \"#utility.yul\":8713:8735   */\n      add\n        /* \"#utility.yul\":8692:8745   */\n      tag_249\n      jump\t// in\n    tag_391:\n        /* \"#utility.yul\":8682:8745   */\n      swap4\n      pop\n        /* \"#utility.yul\":8638:8755   */\n      pop\n        /* \"#utility.yul\":8794:8796   */\n      0x20\n        /* \"#utility.yul\":8820:8873   */\n      tag_392\n        /* \"#utility.yul\":8865:8872   */\n      dup7\n        /* \"#utility.yul\":8856:8862   */\n      dup3\n        /* \"#utility.yul\":8845:8854   */\n      dup8\n        /* \"#utility.yul\":8841:8863   */\n      add\n        /* \"#utility.yul\":8820:8873   */\n      tag_249\n      jump\t// in\n    tag_392:\n        /* \"#utility.yul\":8810:8873   */\n      swap3\n      pop\n        /* \"#utility.yul\":8765:8883   */\n      pop\n        /* \"#utility.yul\":8922:8924   */\n      0x40\n        /* \"#utility.yul\":8948:8998   */\n      tag_393\n        /* \"#utility.yul\":8990:8997   */\n      dup7\n        /* \"#utility.yul\":8981:8987   */\n      dup3\n        /* \"#utility.yul\":8970:8979   */\n      dup8\n        /* \"#utility.yul\":8966:8988   */\n      add\n        /* \"#utility.yul\":8948:8998   */\n      tag_260\n      jump\t// in\n    tag_393:\n        /* \"#utility.yul\":8938:8998   */\n      swap2\n      pop\n        /* \"#utility.yul\":8893:9008   */\n      pop\n        /* \"#utility.yul\":8402:9015   */\n      swap3\n      pop\n      swap3\n      pop\n      swap3\n      jump\t// out\n        /* \"#utility.yul\":9021:9350   */\n    tag_62:\n        /* \"#utility.yul\":9080:9086   */\n      0x00\n        /* \"#utility.yul\":9129:9131   */\n      0x20\n        /* \"#utility.yul\":9117:9126   */\n      dup3\n        /* \"#utility.yul\":9108:9115   */\n      dup5\n        /* \"#utility.yul\":9104:9127   */\n      sub\n        /* \"#utility.yul\":9100:9132   */\n      slt\n        /* \"#utility.yul\":9097:9216   */\n      iszero\n      tag_395\n      jumpi\n        /* \"#utility.yul\":9135:9214   */\n      tag_396\n      tag_230\n      jump\t// in\n    tag_396:\n        /* \"#utility.yul\":9097:9216   */\n    tag_395:\n        /* \"#utility.yul\":9255:9256   */\n      0x00\n        /* \"#utility.yul\":9280:9333   */\n      tag_397\n        /* \"#utility.yul\":9325:9332   */\n      dup5\n        /* \"#utility.yul\":9316:9322   */\n      dup3\n        /* \"#utility.yul\":9305:9314   */\n      dup6\n        /* \"#utility.yul\":9301:9323   */\n      add\n        /* \"#utility.yul\":9280:9333   */\n      tag_249\n      jump\t// in\n    tag_397:\n        /* \"#utility.yul\":9270:9333   */\n      swap2\n      pop\n        /* \"#utility.yul\":9226:9343   */\n      pop\n        /* \"#utility.yul\":9021:9350   */\n      swap3\n      swap2\n      pop\n      pop\n      jump\t// out\n        /* \"#utility.yul\":9356:9474   */\n    tag_261:\n        /* \"#utility.yul\":9443:9467   */\n      tag_399\n        /* \"#utility.yul\":9461:9466   */\n      dup2\n        /* \"#utility.yul\":9443:9467   */\n      tag_242\n      jump\t// in\n    tag_399:\n        /* \"#utility.yul\":9438:9441   */\n      dup3\n        /* \"#utility.yul\":9431:9468   */\n      mstore\n        /* \"#utility.yul\":9356:9474   */\n      pop\n      pop\n      jump\t// out\n        /* \"#utility.yul\":9480:9702   */\n    tag_65:\n        /* \"#utility.yul\":9573:9577   */\n      0x00\n        /* \"#utility.yul\":9611:9613   */\n      0x20\n        /* \"#utility.yul\":9600:9609   */\n      dup3\n        /* \"#utility.yul\":9596:9614   */\n      add\n        /* \"#utility.yul\":9588:9614   */\n      swap1\n      pop\n        /* \"#utility.yul\":9624:9695   */\n      tag_401\n        /* \"#utility.yul\":9692:9693   */\n      0x00\n        /* \"#utility.yul\":9681:9690   */\n      dup4\n        /* \"#utility.yul\":9677:9694   */\n      add\n        /* \"#utility.yul\":9668:9674   */\n      dup5\n        /* \"#utility.yul\":9624:9695   */\n      tag_261\n      jump\t// in\n    tag_401:\n        /* \"#utility.yul\":9480:9702   */\n      swap3\n      swap2\n      pop\n      pop\n      jump\t// out\n        /* \"#utility.yul\":9708:10176   */\n    tag_71:\n        /* \"#utility.yul\":9773:9779   */\n      0x00\n        /* \"#utility.yul\":9781:9787   */\n      dup1\n        /* \"#utility.yul\":9830:9832   */\n      0x40\n        /* \"#utility.yul\":9818:9827   */\n      dup4\n        /* \"#utility.yul\":9809:9816   */\n      dup6\n        /* \"#utility.yul\":9805:9828   */\n      sub\n        /* \"#utility.yul\":9801:9833   */\n      slt\n        /* \"#utility.yul\":9798:9917   */\n      iszero\n      tag_403\n      jumpi\n        /* \"#utility.yul\":9836:9915   */\n      tag_404\n      tag_230\n      jump\t// in\n    tag_404:\n        /* \"#utility.yul\":9798:9917   */\n    tag_403:\n        /* \"#utility.yul\":9956:9957   */\n      0x00\n        /* \"#utility.yul\":9981:10034   */\n      tag_405\n        /* \"#utility.yul\":10026:10033   */\n      dup6\n        /* \"#utility.yul\":10017:10023   */\n      dup3\n        /* \"#utility.yul\":10006:10015   */\n      dup7\n        /* \"#utility.yul\":10002:10024   */\n      add\n        /* \"#utility.yul\":9981:10034   */\n      tag_249\n      jump\t// in\n    tag_405:\n        /* \"#utility.yul\":9971:10034   */\n      swap3\n      pop\n        /* \"#utility.yul\":9927:10044   */\n      pop\n        /* \"#utility.yul\":10083:10085   */\n      0x20\n        /* \"#utility.yul\":10109:10159   */\n      tag_406\n        /* \"#utility.yul\":10151:10158   */\n      dup6\n        /* \"#utility.yul\":10142:10148   */\n      dup3\n        /* \"#utility.yul\":10131:10140   */\n      dup7\n        /* \"#utility.yul\":10127:10149   */\n      add\n        /* \"#utility.yul\":10109:10159   */\n      tag_260\n      jump\t// in\n    tag_406:\n        /* \"#utility.yul\":10099:10159   */\n      swap2\n      pop\n        /* \"#utility.yul\":10054:10169   */\n      pop\n        /* \"#utility.yul\":9708:10176   */\n      swap3\n      pop\n      swap3\n      swap1\n      pop\n      jump\t// out\n        /* \"#utility.yul\":10182:10489   */\n    tag_262:\n        /* \"#utility.yul\":10243:10247   */\n      0x00\n        /* \"#utility.yul\":10333:10351   */\n      0xffffffffffffffff\n        /* \"#utility.yul\":10325:10331   */\n      dup3\n        /* \"#utility.yul\":10322:10352   */\n      gt\n        /* \"#utility.yul\":10319:10375   */\n      iszero\n      tag_408\n      jumpi\n        /* \"#utility.yul\":10355:10373   */\n      tag_409\n      tag_252\n      jump\t// in\n    tag_409:\n        /* \"#utility.yul\":10319:10375   */\n    tag_408:\n        /* \"#utility.yul\":10393:10422   */\n      tag_410\n        /* \"#utility.yul\":10415:10421   */\n      dup3\n        /* \"#utility.yul\":10393:10422   */\n      tag_240\n      jump\t// in\n    tag_410:\n        /* \"#utility.yul\":10385:10422   */\n      swap1\n      pop\n        /* \"#utility.yul\":10477:10481   */\n      0x20\n        /* \"#utility.yul\":10471:10475   */\n      dup2\n        /* \"#utility.yul\":10467:10482   */\n      add\n        /* \"#utility.yul\":10459:10482   */\n      swap1\n      pop\n        /* \"#utility.yul\":10182:10489   */\n      swap2\n      swap1\n      pop\n      jump\t// out\n        /* \"#utility.yul\":10495:10918   */\n    tag_263:\n        /* \"#utility.yul\":10572:10577   */\n      0x00\n        /* \"#utility.yul\":10597:10662   */\n      tag_412\n        /* \"#utility.yul\":10613:10661   */\n      tag_413\n        /* \"#utility.yul\":10654:10660   */\n      dup5\n        /* \"#utility.yul\":10613:10661   */\n      tag_262\n      jump\t// in\n    tag_413:\n        /* \"#utility.yul\":10597:10662   */\n      tag_254\n      jump\t// in\n    tag_412:\n        /* \"#utility.yul\":10588:10662   */\n      swap1\n      pop\n        /* \"#utility.yul\":10685:10691   */\n      dup3\n        /* \"#utility.yul\":10678:10683   */\n      dup2\n        /* \"#utility.yul\":10671:10692   */\n      mstore\n        /* \"#utility.yul\":10723:10727   */\n      0x20\n        /* \"#utility.yul\":10716:10721   */\n      dup2\n        /* \"#utility.yul\":10712:10728   */\n      add\n        /* \"#utility.yul\":10761:10764   */\n      dup5\n        /* \"#utility.yul\":10752:10758   */\n      dup5\n        /* \"#utility.yul\":10747:10750   */\n      dup5\n        /* \"#utility.yul\":10743:10759   */\n      add\n        /* \"#utility.yul\":10740:10765   */\n      gt\n        /* \"#utility.yul\":10737:10849   */\n      iszero\n      tag_414\n      jumpi\n        /* \"#utility.yul\":10768:10847   */\n      tag_415\n      tag_251\n      jump\t// in\n    tag_415:\n        /* \"#utility.yul\":10737:10849   */\n    tag_414:\n        /* \"#utility.yul\":10858:10912   */\n      tag_416\n        /* \"#utility.yul\":10905:10911   */\n      dup5\n        /* \"#utility.yul\":10900:10903   */\n      dup3\n        /* \"#utility.yul\":10895:10898   */\n      dup6\n        /* \"#utility.yul\":10858:10912   */\n      tag_256\n      jump\t// in\n    tag_416:\n        /* \"#utility.yul\":10578:10918   */\n      pop\n        /* \"#utility.yul\":10495:10918   */\n      swap4\n      swap3\n      pop\n      pop\n      pop\n      jump\t// out\n        /* \"#utility.yul\":10937:11275   */\n    tag_264:\n        /* \"#utility.yul\":10992:10997   */\n      0x00\n        /* \"#utility.yul\":11041:11044   */\n      dup3\n        /* \"#utility.yul\":11034:11038   */\n      0x1f\n        /* \"#utility.yul\":11026:11032   */\n      dup4\n        /* \"#utility.yul\":11022:11039   */\n      add\n        /* \"#utility.yul\":11018:11045   */\n      slt\n        /* \"#utility.yul\":11008:11130   */\n      tag_418\n      jumpi\n        /* \"#utility.yul\":11049:11128   */\n      tag_419\n      tag_250\n      jump\t// in\n    tag_419:\n        /* \"#utility.yul\":11008:11130   */\n    tag_418:\n        /* \"#utility.yul\":11166:11172   */\n      dup2\n        /* \"#utility.yul\":11153:11173   */\n      calldataload\n        /* \"#utility.yul\":11191:11269   */\n      tag_420\n        /* \"#utility.yul\":11265:11268   */\n      dup5\n        /* \"#utility.yul\":11257:11263   */\n      dup3\n        /* \"#utility.yul\":11250:11254   */\n      0x20\n        /* \"#utility.yul\":11242:11248   */\n      dup7\n        /* \"#utility.yul\":11238:11255   */\n      add\n        /* \"#utility.yul\":11191:11269   */\n      tag_263\n      jump\t// in\n    tag_420:\n        /* \"#utility.yul\":11182:11269   */\n      swap2\n      pop\n        /* \"#utility.yul\":10998:11275   */\n      pop\n        /* \"#utility.yul\":10937:11275   */\n      swap3\n      swap2\n      pop\n      pop\n      jump\t// out\n        /* \"#utility.yul\":11281:12224   */\n    tag_75:\n        /* \"#utility.yul\":11376:11382   */\n      0x00\n        /* \"#utility.yul\":11384:11390   */\n      dup1\n        /* \"#utility.yul\":11392:11398   */\n      0x00\n        /* \"#utility.yul\":11400:11406   */\n      dup1\n        /* \"#utility.yul\":11449:11452   */\n      0x80\n        /* \"#utility.yul\":11437:11446   */\n      dup6\n        /* \"#utility.yul\":11428:11435   */\n      dup8\n        /* \"#utility.yul\":11424:11447   */\n      sub\n        /* \"#utility.yul\":11420:11453   */\n      slt\n        /* \"#utility.yul\":11417:11537   */\n      iszero\n      tag_422\n      jumpi\n        /* \"#utility.yul\":11456:11535   */\n      tag_423\n      tag_230\n      jump\t// in\n    tag_423:\n        /* \"#utility.yul\":11417:11537   */\n    tag_422:\n        /* \"#utility.yul\":11576:11577   */\n      0x00\n        /* \"#utility.yul\":11601:11654   */\n      tag_424\n        /* \"#utility.yul\":11646:11653   */\n      dup8\n        /* \"#utility.yul\":11637:11643   */\n      dup3\n        /* \"#utility.yul\":11626:11635   */\n      dup9\n        /* \"#utility.yul\":11622:11644   */\n      add\n        /* \"#utility.yul\":11601:11654   */\n      tag_249\n      jump\t// in\n    tag_424:\n        /* \"#utility.yul\":11591:11654   */\n      swap5\n      pop\n        /* \"#utility.yul\":11547:11664   */\n      pop\n        /* \"#utility.yul\":11703:11705   */\n      0x20\n        /* \"#utility.yul\":11729:11782   */\n      tag_425\n        /* \"#utility.yul\":11774:11781   */\n      dup8\n        /* \"#utility.yul\":11765:11771   */\n      dup3\n        /* \"#utility.yul\":11754:11763   */\n      dup9\n        /* \"#utility.yul\":11750:11772   */\n      add\n        /* \"#utility.yul\":11729:11782   */\n      tag_249\n      jump\t// in\n    tag_425:\n        /* \"#utility.yul\":11719:11782   */\n      swap4\n      pop\n        /* \"#utility.yul\":11674:11792   */\n      pop\n        /* \"#utility.yul\":11831:11833   */\n      0x40\n        /* \"#utility.yul\":11857:11910   */\n      tag_426\n        /* \"#utility.yul\":11902:11909   */\n      dup8\n        /* \"#utility.yul\":11893:11899   */\n      dup3\n        /* \"#utility.yul\":11882:11891   */\n      dup9\n        /* \"#utility.yul\":11878:11900   */\n      add\n        /* \"#utility.yul\":11857:11910   */\n      tag_244\n      jump\t// in\n    tag_426:\n        /* \"#utility.yul\":11847:11910   */\n      swap3\n      pop\n        /* \"#utility.yul\":11802:11920   */\n      pop\n        /* \"#utility.yul\":11987:11989   */\n      0x60\n        /* \"#utility.yul\":11976:11985   */\n      dup6\n        /* \"#utility.yul\":11972:11990   */\n      add\n        /* \"#utility.yul\":11959:11991   */\n      calldataload\n        /* \"#utility.yul\":12018:12036   */\n      0xffffffffffffffff\n        /* \"#utility.yul\":12010:12016   */\n      dup2\n        /* \"#utility.yul\":12007:12037   */\n      gt\n        /* \"#utility.yul\":12004:12121   */\n      iszero\n      tag_427\n      jumpi\n        /* \"#utility.yul\":12040:12119   */\n      tag_428\n      tag_231\n      jump\t// in\n    tag_428:\n        /* \"#utility.yul\":12004:12121   */\n    tag_427:\n        /* \"#utility.yul\":12145:12207   */\n      tag_429\n        /* \"#utility.yul\":12199:12206   */\n      dup8\n        /* \"#utility.yul\":12190:12196   */\n      dup3\n        /* \"#utility.yul\":12179:12188   */\n      dup9\n        /* \"#utility.yul\":12175:12197   */\n      add\n        /* \"#utility.yul\":12145:12207   */\n      tag_264\n      jump\t// in\n    tag_429:\n        /* \"#utility.yul\":12135:12207   */\n      swap2\n      pop\n        /* \"#utility.yul\":11930:12217   */\n      pop\n        /* \"#utility.yul\":11281:12224   */\n      swap3\n      swap6\n      swap2\n      swap5\n      pop\n      swap3\n      pop\n      jump\t// out\n        /* \"#utility.yul\":12230:12704   */\n    tag_83:\n        /* \"#utility.yul\":12298:12304   */\n      0x00\n        /* \"#utility.yul\":12306:12312   */\n      dup1\n        /* \"#utility.yul\":12355:12357   */\n      0x40\n        /* \"#utility.yul\":12343:12352   */\n      dup4\n        /* \"#utility.yul\":12334:12341   */\n      dup6\n        /* \"#utility.yul\":12330:12353   */\n      sub\n        /* \"#utility.yul\":12326:12358   */\n      slt\n        /* \"#utility.yul\":12323:12442   */\n      iszero\n      tag_431\n      jumpi\n        /* \"#utility.yul\":12361:12440   */\n      tag_432\n      tag_230\n      jump\t// in\n    tag_432:\n        /* \"#utility.yul\":12323:12442   */\n    tag_431:\n        /* \"#utility.yul\":12481:12482   */\n      0x00\n        /* \"#utility.yul\":12506:12559   */\n      tag_433\n        /* \"#utility.yul\":12551:12558   */\n      dup6\n        /* \"#utility.yul\":12542:12548   */\n      dup3\n        /* \"#utility.yul\":12531:12540   */\n      dup7\n        /* \"#utility.yul\":12527:12549   */\n      add\n        /* \"#utility.yul\":12506:12559   */\n      tag_249\n      jump\t// in\n    tag_433:\n        /* \"#utility.yul\":12496:12559   */\n      swap3\n      pop\n        /* \"#utility.yul\":12452:12569   */\n      pop\n        /* \"#utility.yul\":12608:12610   */\n      0x20\n        /* \"#utility.yul\":12634:12687   */\n      tag_434\n        /* \"#utility.yul\":12679:12686   */\n      dup6\n        /* \"#utility.yul\":12670:12676   */\n      dup3\n        /* \"#utility.yul\":12659:12668   */\n      dup7\n        /* \"#utility.yul\":12655:12677   */\n      add\n        /* \"#utility.yul\":12634:12687   */\n      tag_249\n      jump\t// in\n    tag_434:\n        /* \"#utility.yul\":12624:12687   */\n      swap2\n      pop\n        /* \"#utility.yul\":12579:12697   */\n      pop\n        /* \"#utility.yul\":12230:12704   */\n      swap3\n      pop\n      swap3\n      swap1\n      pop\n      jump\t// out\n        /* \"#utility.yul\":12710:12890   */\n    tag_265:\n        /* \"#utility.yul\":12758:12835   */\n      0x4e487b7100000000000000000000000000000000000000000000000000000000\n        /* \"#utility.yul\":12755:12756   */\n      0x00\n        /* \"#utility.yul\":12748:12836   */\n      mstore\n        /* \"#utility.yul\":12855:12859   */\n      0x22\n        /* \"#utility.yul\":12852:12853   */\n      0x04\n        /* \"#utility.yul\":12845:12860   */\n      mstore\n        /* \"#utility.yul\":12879:12883   */\n      0x24\n        /* \"#utility.yul\":12876:12877   */\n      0x00\n        /* \"#utility.yul\":12869:12884   */\n      revert\n        /* \"#utility.yul\":12896:13216   */\n    tag_93:\n        /* \"#utility.yul\":12940:12946   */\n      0x00\n        /* \"#utility.yul\":12977:12978   */\n      0x02\n        /* \"#utility.yul\":12971:12975   */\n      dup3\n        /* \"#utility.yul\":12967:12979   */\n      div\n        /* \"#utility.yul\":12957:12979   */\n      swap1\n      pop\n        /* \"#utility.yul\":13024:13025   */\n      0x01\n        /* \"#utility.yul\":13018:13022   */\n      dup3\n        /* \"#utility.yul\":13014:13026   */\n      and\n        /* \"#utility.yul\":13045:13063   */\n      dup1\n        /* \"#utility.yul\":13035:13116   */\n      tag_437\n      jumpi\n        /* \"#utility.yul\":13101:13105   */\n      0x7f\n        /* \"#utility.yul\":13093:13099   */\n      dup3\n        /* \"#utility.yul\":13089:13106   */\n      and\n        /* \"#utility.yul\":13079:13106   */\n      swap2\n      pop\n        /* \"#utility.yul\":13035:13116   */\n    tag_437:\n        /* \"#utility.yul\":13163:13165   */\n      0x20\n        /* \"#utility.yul\":13155:13161   */\n      dup3\n        /* \"#utility.yul\":13152:13166   */\n      lt\n        /* \"#utility.yul\":13132:13150   */\n      dup2\n        /* \"#utility.yul\":13129:13167   */\n      sub\n        /* \"#utility.yul\":13126:13210   */\n      tag_438\n      jumpi\n        /* \"#utility.yul\":13182:13200   */\n      tag_439\n      tag_265\n      jump\t// in\n    tag_439:\n        /* \"#utility.yul\":13126:13210   */\n    tag_438:\n        /* \"#utility.yul\":12947:13216   */\n      pop\n        /* \"#utility.yul\":12896:13216   */\n      swap2\n      swap1\n      pop\n      jump\t// out\n        /* \"#utility.yul\":13222:13363   */\n    tag_266:\n        /* \"#utility.yul\":13271:13275   */\n      0x00\n        /* \"#utility.yul\":13294:13297   */\n      dup2\n        /* \"#utility.yul\":13286:13297   */\n      swap1\n      pop\n        /* \"#utility.yul\":13317:13320   */\n      dup2\n        /* \"#utility.yul\":13314:13315   */\n      0x00\n        /* \"#utility.yul\":13307:13321   */\n      mstore\n        /* \"#utility.yul\":13351:13355   */\n      0x20\n        /* \"#utility.yul\":13348:13349   */\n      0x00\n        /* \"#utility.yul\":13338:13356   */\n      keccak256\n        /* \"#utility.yul\":13330:13356   */\n      swap1\n      pop\n        /* \"#utility.yul\":13222:13363   */\n      swap2\n      swap1\n      pop\n      jump\t// out\n        /* \"#utility.yul\":13369:13462   */\n    tag_267:\n        /* \"#utility.yul\":13406:13412   */\n      0x00\n        /* \"#utility.yul\":13453:13455   */\n      0x20\n        /* \"#utility.yul\":13448:13450   */\n      0x1f\n        /* \"#utility.yul\":13441:13446   */\n      dup4\n        /* \"#utility.yul\":13437:13451   */\n      add\n        /* \"#utility.yul\":13433:13456   */\n      div\n        /* \"#utility.yul\":13423:13456   */\n      swap1\n      pop\n        /* \"#utility.yul\":13369:13462   */\n      swap2\n      swap1\n      pop\n      jump\t// out\n        /* \"#utility.yul\":13468:13575   */\n    tag_268:\n        /* \"#utility.yul\":13512:13520   */\n      0x00\n        /* \"#utility.yul\":13562:13567   */\n      dup3\n        /* \"#utility.yul\":13556:13560   */\n      dup3\n        /* \"#utility.yul\":13552:13568   */\n      shl\n        /* \"#utility.yul\":13531:13568   */\n      swap1\n      pop\n        /* \"#utility.yul\":13468:13575   */\n      swap3\n      swap2\n      pop\n      pop\n      jump\t// out\n        /* \"#utility.yul\":13581:13974   */\n    tag_269:\n        /* \"#utility.yul\":13650:13656   */\n      0x00\n        /* \"#utility.yul\":13700:13701   */\n      0x08\n        /* \"#utility.yul\":13688:13698   */\n      dup4\n        /* \"#utility.yul\":13684:13702   */\n      mul\n        /* \"#utility.yul\":13723:13820   */\n      tag_444\n        /* \"#utility.yul\":13753:13819   */\n      0xffffffffffffffffffffffffffffffffffffffffffffffffffffffffffffffff\n        /* \"#utility.yul\":13742:13751   */\n      dup3\n        /* \"#utility.yul\":13723:13820   */\n      tag_268\n      jump\t// in\n    tag_444:\n        /* \"#utility.yul\":13841:13880   */\n      tag_445\n        /* \"#utility.yul\":13871:13879   */\n      dup7\n        /* \"#utility.yul\":13860:13869   */\n      dup4\n        /* \"#utility.yul\":13841:13880   */\n      tag_268\n      jump\t// in\n    tag_445:\n        /* \"#utility.yul\":13829:13880   */\n      swap6\n      pop\n        /* \"#utility.yul\":13913:13917   */\n      dup1\n        /* \"#utility.yul\":13909:13918   */\n      not\n        /* \"#utility.yul\":13902:13907   */\n      dup5\n        /* \"#utility.yul\":13898:13919   */\n      and\n        /* \"#utility.yul\":13889:13919   */\n      swap4\n      pop\n        /* \"#utility.yul\":13962:13966   */\n      dup1\n        /* \"#utility.yul\":13952:13960   */\n      dup7\n        /* \"#utility.yul\":13948:13967   */\n      and\n        /* \"#utility.yul\":13941:13946   */\n      dup5\n        /* \"#utility.yul\":13938:13968   */\n      or\n        /* \"#utility.yul\":13928:13968   */\n      swap3\n      pop\n        /* \"#utility.yul\":13657:13974   */\n      pop\n      pop\n        /* \"#utility.yul\":13581:13974   */\n      swap4\n      swap3\n      pop\n      pop\n      pop\n      jump\t// out\n        /* \"#utility.yul\":13980:14040   */\n    tag_270:\n        /* \"#utility.yul\":14008:14011   */\n      0x00\n        /* \"#utility.yul\":14029:14034   */\n      dup2\n        /* \"#utility.yul\":14022:14034   */\n      swap1\n      pop\n        /* \"#utility.yul\":13980:14040   */\n      swap2\n      swap1\n      pop\n      jump\t// out\n        /* \"#utility.yul\":14046:14188   */\n    tag_271:\n        /* \"#utility.yul\":14096:14105   */\n      0x00\n        /* \"#utility.yul\":14129:14182   */\n      tag_448\n        /* \"#utility.yul\":14147:14181   */\n      tag_449\n        /* \"#utility.yul\":14156:14180   */\n      tag_450\n        /* \"#utility.yul\":14174:14179   */\n      dup5\n        /* \"#utility.yul\":14156:14180   */\n      tag_242\n      jump\t// in\n    tag_450:\n        /* \"#utility.yul\":14147:14181   */\n      tag_270\n      jump\t// in\n    tag_449:\n        /* \"#utility.yul\":14129:14182   */\n      tag_242\n      jump\t// in\n    tag_448:\n        /* \"#utility.yul\":14116:14182   */\n      swap1\n      pop\n        /* \"#utility.yul\":14046:14188   */\n      swap2\n      swap1\n      pop\n      jump\t// out\n        /* \"#utility.yul\":14194:14269   */\n    tag_272:\n        /* \"#utility.yul\":14237:14240   */\n      0x00\n        /* \"#utility.yul\":14258:14263   */\n      dup2\n        /* \"#utility.yul\":14251:14263   */\n      swap1\n      pop\n        /* \"#utility.yul\":14194:14269   */\n      swap2\n      swap1\n      pop\n      jump\t// out\n        /* \"#utility.yul\":14275:14544   */\n    tag_273:\n        /* \"#utility.yul\":14385:14424   */\n      tag_453\n        /* \"#utility.yul\":14416:14423   */\n      dup4\n        /* \"#utility.yul\":14385:14424   */\n      tag_271\n      jump\t// in\n    tag_453:\n        /* \"#utility.yul\":14446:14537   */\n      tag_454\n        /* \"#utility.yul\":14495:14536   */\n      tag_455\n        /* \"#utility.yul\":14519:14535   */\n      dup3\n        /* \"#utility.yul\":14495:14536   */\n      tag_272\n      jump\t// in\n    tag_455:\n        /* \"#utility.yul\":14487:14493   */\n      dup5\n        /* \"#utility.yul\":14480:14484   */\n      dup5\n        /* \"#utility.yul\":14474:14485   */\n      sload\n        /* \"#utility.yul\":14446:14537   */\n      tag_269\n      jump\t// in\n    tag_454:\n        /* \"#utility.yul\":14440:14444   */\n      dup3\n        /* \"#utility.yul\":14433:14538   */\n      sstore\n        /* \"#utility.yul\":14351:14544   */\n      pop\n        /* \"#utility.yul\":14275:14544   */\n      pop\n      pop\n      pop\n      jump\t// out\n        /* \"#utility.yul\":14550:14623   */\n    tag_274:\n        /* \"#utility.yul\":14595:14598   */\n      0x00\n        /* \"#utility.yul\":14550:14623   */\n      swap1\n      jump\t// out\n        /* \"#utility.yul\":14629:14818   */\n    tag_275:\n        /* \"#utility.yul\":14706:14738   */\n      tag_458\n      tag_274\n      jump\t// in\n    tag_458:\n        /* \"#utility.yul\":14747:14812   */\n      tag_459\n        /* \"#utility.yul\":14805:14811   */\n      dup2\n        /* \"#utility.yul\":14797:14803   */\n      dup5\n        /* \"#utility.yul\":14791:14795   */\n      dup5\n        /* \"#utility.yul\":14747:14812   */\n      tag_273\n      jump\t// in\n    tag_459:\n        /* \"#utility.yul\":14682:14818   */\n      pop\n        /* \"#utility.yul\":14629:14818   */\n      pop\n      pop\n      jump\t// out\n        /* \"#utility.yul\":14824:15010   */\n    tag_276:\n        /* \"#utility.yul\":14884:15004   */\n    tag_461:\n        /* \"#utility.yul\":14901:14904   */\n      dup2\n        /* \"#utility.yul\":14894:14899   */\n      dup2\n        /* \"#utility.yul\":14891:14905   */\n      lt\n        /* \"#utility.yul\":14884:15004   */\n      iszero\n      tag_463\n      jumpi\n        /* \"#utility.yul\":14955:14994   */\n      tag_464\n        /* \"#utility.yul\":14992:14993   */\n      0x00\n        /* \"#utility.yul\":14985:14990   */\n      dup3\n        /* \"#utility.yul\":14955:14994   */\n      tag_275\n      jump\t// in\n    tag_464:\n        /* \"#utility.yul\":14928:14929   */\n      0x01\n        /* \"#utility.yul\":14921:14926   */\n      dup2\n        /* \"#utility.yul\":14917:14930   */\n      add\n        /* \"#utility.yul\":14908:14930   */\n      swap1\n      pop\n        /* \"#utility.yul\":14884:15004   */\n      jump(tag_461)\n    tag_463:\n        /* \"#utility.yul\":14824:15010   */\n      pop\n      pop\n      jump\t// out\n        /* \"#utility.yul\":15016:15559   */\n    tag_277:\n        /* \"#utility.yul\":15117:15119   */\n      0x1f\n        /* \"#utility.yul\":15112:15115   */\n      dup3\n        /* \"#utility.yul\":15109:15120   */\n      gt\n        /* \"#utility.yul\":15106:15552   */\n      iszero\n      tag_466\n      jumpi\n        /* \"#utility.yul\":15151:15189   */\n      tag_467\n        /* \"#utility.yul\":15183:15188   */\n      dup2\n        /* \"#utility.yul\":15151:15189   */\n      tag_266\n      jump\t// in\n    tag_467:\n        /* \"#utility.yul\":15235:15264   */\n      tag_468\n        /* \"#utility.yul\":15253:15263   */\n      dup5\n        /* \"#utility.yul\":15235:15264   */\n      tag_267\n      jump\t// in\n    tag_468:\n        /* \"#utility.yul\":15225:15233   */\n      dup2\n        /* \"#utility.yul\":15221:15265   */\n      add\n        /* \"#utility.yul\":15418:15420   */\n      0x20\n        /* \"#utility.yul\":15406:15416   */\n      dup6\n        /* \"#utility.yul\":15403:15421   */\n      lt\n        /* \"#utility.yul\":15400:15449   */\n      iszero\n      tag_469\n      jumpi\n        /* \"#utility.yul\":15439:15447   */\n      dup2\n        /* \"#utility.yul\":15424:15447   */\n      swap1\n      pop\n        /* \"#utility.yul\":15400:15449   */\n    tag_469:\n        /* \"#utility.yul\":15462:15542   */\n      tag_470\n        /* \"#utility.yul\":15518:15540   */\n      tag_471\n        /* \"#utility.yul\":15536:15539   */\n      dup6\n        /* \"#utility.yul\":15518:15540   */\n      tag_267\n      jump\t// in\n    tag_471:\n        /* \"#utility.yul\":15508:15516   */\n      dup4\n        /* \"#utility.yul\":15504:15541   */\n      add\n        /* \"#utility.yul\":15491:15502   */\n      dup3\n        /* \"#utility.yul\":15462:15542   */\n      tag_276\n      jump\t// in\n    tag_470:\n        /* \"#utility.yul\":15121:15552   */\n      pop\n      pop\n        /* \"#utility.yul\":15106:15552   */\n    tag_466:\n        /* \"#utility.yul\":15016:15559   */\n      pop\n      pop\n      pop\n      jump\t// out\n        /* \"#utility.yul\":15565:15682   */\n    tag_278:\n        /* \"#utility.yul\":15619:15627   */\n      0x00\n        /* \"#utility.yul\":15669:15674   */\n      dup3\n        /* \"#utility.yul\":15663:15667   */\n      dup3\n        /* \"#utility.yul\":15659:15675   */\n      shr\n        /* \"#utility.yul\":15638:15675   */\n      swap1\n      pop\n        /* \"#utility.yul\":15565:15682   */\n      swap3\n      swap2\n      pop\n      pop\n      jump\t// out\n        /* \"#utility.yul\":15688:15857   */\n    tag_279:\n        /* \"#utility.yul\":15732:15738   */\n      0x00\n        /* \"#utility.yul\":15765:15816   */\n      tag_474\n        /* \"#utility.yul\":15813:15814   */\n      0x00\n        /* \"#utility.yul\":15809:15815   */\n      not\n        /* \"#utility.yul\":15801:15806   */\n      dup5\n        /* \"#utility.yul\":15798:15799   */\n      0x08\n        /* \"#utility.yul\":15794:15807   */\n      mul\n        /* \"#utility.yul\":15765:15816   */\n      tag_278\n      jump\t// in\n    tag_474:\n        /* \"#utility.yul\":15761:15817   */\n      not\n        /* \"#utility.yul\":15846:15850   */\n      dup1\n        /* \"#utility.yul\":15840:15844   */\n      dup4\n        /* \"#utility.yul\":15836:15851   */\n      and\n        /* \"#utility.yul\":15826:15851   */\n      swap2\n      pop\n        /* \"#utility.yul\":15739:15857   */\n      pop\n        /* \"#utility.yul\":15688:15857   */\n      swap3\n      swap2\n      pop\n      pop\n      jump\t// out\n        /* \"#utility.yul\":15862:16157   */\n    tag_280:\n        /* \"#utility.yul\":15938:15942   */\n      0x00\n        /* \"#utility.yul\":16084:16113   */\n      tag_476\n        /* \"#utility.yul\":16109:16112   */\n      dup4\n        /* \"#utility.yul\":16103:16107   */\n      dup4\n        /* \"#utility.yul\":16084:16113   */\n      tag_279\n      jump\t// in\n    tag_476:\n        /* \"#utility.yul\":16076:16113   */\n      swap2\n      pop\n        /* \"#utility.yul\":16146:16149   */\n      dup3\n        /* \"#utility.yul\":16143:16144   */\n      0x02\n        /* \"#utility.yul\":16139:16150   */\n      mul\n        /* \"#utility.yul\":16133:16137   */\n      dup3\n        /* \"#utility.yul\":16130:16151   */\n      or\n        /* \"#utility.yul\":16122:16151   */\n      swap1\n      pop\n        /* \"#utility.yul\":15862:16157   */\n      swap3\n      swap2\n      pop\n      pop\n      jump\t// out\n        /* \"#utility.yul\":16162:17557   */\n    tag_110:\n        /* \"#utility.yul\":16279:16316   */\n      tag_478\n        /* \"#utility.yul\":16312:16315   */\n      dup3\n        /* \"#utility.yul\":16279:16316   */\n      tag_237\n      jump\t// in\n    tag_478:\n        /* \"#utility.yul\":16381:16399   */\n      0xffffffffffffffff\n        /* \"#utility.yul\":16373:16379   */\n      dup2\n        /* \"#utility.yul\":16370:16400   */\n      gt\n        /* \"#utility.yul\":16367:16423   */\n      iszero\n      tag_479\n      jumpi\n        /* \"#utility.yul\":16403:16421   */\n      tag_480\n      tag_252\n      jump\t// in\n    tag_480:\n        /* \"#utility.yul\":16367:16423   */\n    tag_479:\n        /* \"#utility.yul\":16447:16485   */\n      tag_481\n        /* \"#utility.yul\":16479:16483   */\n      dup3\n        /* \"#utility.yul\":16473:16484   */\n      sload\n        /* \"#utility.yul\":16447:16485   */\n      tag_93\n      jump\t// in\n    tag_481:\n        /* \"#utility.yul\":16532:16599   */\n      tag_482\n        /* \"#utility.yul\":16592:16598   */\n      dup3\n        /* \"#utility.yul\":16584:16590   */\n      dup3\n        /* \"#utility.yul\":16578:16582   */\n      dup6\n        /* \"#utility.yul\":16532:16599   */\n      tag_277\n      jump\t// in\n    tag_482:\n        /* \"#utility.yul\":16626:16627   */\n      0x00\n        /* \"#utility.yul\":16650:16654   */\n      0x20\n        /* \"#utility.yul\":16637:16654   */\n      swap1\n      pop\n        /* \"#utility.yul\":16682:16684   */\n      0x1f\n        /* \"#utility.yul\":16674:16680   */\n      dup4\n        /* \"#utility.yul\":16671:16685   */\n      gt\n        /* \"#utility.yul\":16699:16700   */\n      0x01\n        /* \"#utility.yul\":16694:17312   */\n      dup2\n      eq\n      tag_484\n      jumpi\n        /* \"#utility.yul\":17356:17357   */\n      0x00\n        /* \"#utility.yul\":17373:17379   */\n      dup5\n        /* \"#utility.yul\":17370:17447   */\n      iszero\n      tag_485\n      jumpi\n        /* \"#utility.yul\":17422:17431   */\n      dup3\n        /* \"#utility.yul\":17417:17420   */\n      dup8\n        /* \"#utility.yul\":17413:17432   */\n      add\n        /* \"#utility.yul\":17407:17433   */\n      mload\n        /* \"#utility.yul\":17398:17433   */\n      swap1\n      pop\n        /* \"#utility.yul\":17370:17447   */\n    tag_485:\n        /* \"#utility.yul\":17473:17540   */\n      tag_486\n        /* \"#utility.yul\":17533:17539   */\n      dup6\n        /* \"#utility.yul\":17526:17531   */\n      dup3\n        /* \"#utility.yul\":17473:17540   */\n      tag_280\n      jump\t// in\n    tag_486:\n        /* \"#utility.yul\":17467:17471   */\n      dup7\n        /* \"#utility.yul\":17460:17541   */\n      sstore\n        /* \"#utility.yul\":17329:17551   */\n      pop\n        /* \"#utility.yul\":16664:17551   */\n      jump(tag_483)\n        /* \"#utility.yul\":16694:17312   */\n    tag_484:\n        /* \"#utility.yul\":16746:16750   */\n      0x1f\n        /* \"#utility.yul\":16742:16751   */\n      not\n        /* \"#utility.yul\":16734:16740   */\n      dup5\n        /* \"#utility.yul\":16730:16752   */\n      and\n        /* \"#utility.yul\":16780:16817   */\n      tag_487\n        /* \"#utility.yul\":16812:16816   */\n      dup7\n        /* \"#utility.yul\":16780:16817   */\n      tag_266\n      jump\t// in\n    tag_487:\n        /* \"#utility.yul\":16839:16840   */\n      0x00\n        /* \"#utility.yul\":16853:17061   */\n    tag_488:\n        /* \"#utility.yul\":16867:16874   */\n      dup3\n        /* \"#utility.yul\":16864:16865   */\n      dup2\n        /* \"#utility.yul\":16861:16875   */\n      lt\n        /* \"#utility.yul\":16853:17061   */\n      iszero\n      tag_490\n      jumpi\n        /* \"#utility.yul\":16946:16955   */\n      dup5\n        /* \"#utility.yul\":16941:16944   */\n      dup10\n        /* \"#utility.yul\":16937:16956   */\n      add\n        /* \"#utility.yul\":16931:16957   */\n      mload\n        /* \"#utility.yul\":16923:16929   */\n      dup3\n        /* \"#utility.yul\":16916:16958   */\n      sstore\n        /* \"#utility.yul\":16997:16998   */\n      0x01\n        /* \"#utility.yul\":16989:16995   */\n      dup3\n        /* \"#utility.yul\":16985:16999   */\n      add\n        /* \"#utility.yul\":16975:16999   */\n      swap2\n      pop\n        /* \"#utility.yul\":17044:17046   */\n      0x20\n        /* \"#utility.yul\":17033:17042   */\n      dup6\n        /* \"#utility.yul\":17029:17047   */\n      add\n        /* \"#utility.yul\":17016:17047   */\n      swap5\n      pop\n        /* \"#utility.yul\":16890:16894   */\n      0x20\n        /* \"#utility.yul\":16887:16888   */\n      dup2\n        /* \"#utility.yul\":16883:16895   */\n      add\n        /* \"#utility.yul\":16878:16895   */\n      swap1\n      pop\n        /* \"#utility.yul\":16853:17061   */\n      jump(tag_488)\n    tag_490:\n        /* \"#utility.yul\":17089:17095   */\n      dup7\n        /* \"#utility.yul\":17080:17087   */\n      dup4\n        /* \"#utility.yul\":17077:17096   */\n      lt\n        /* \"#utility.yul\":17074:17253   */\n      iszero\n      tag_491\n      jumpi\n        /* \"#utility.yul\":17147:17156   */\n      dup5\n        /* \"#utility.yul\":17142:17145   */\n      dup10\n        /* \"#utility.yul\":17138:17157   */\n      add\n        /* \"#utility.yul\":17132:17158   */\n      mload\n        /* \"#utility.yul\":17190:17238   */\n      tag_492\n        /* \"#utility.yul\":17232:17236   */\n      0x1f\n        /* \"#utility.yul\":17224:17230   */\n      dup10\n        /* \"#utility.yul\":17220:17237   */\n      and\n        /* \"#utility.yul\":17209:17218   */\n      dup3\n        /* \"#utility.yul\":17190:17238   */\n      tag_279\n      jump\t// in\n    tag_492:\n        /* \"#utility.yul\":17182:17188   */\n      dup4\n        /* \"#utility.yul\":17175:17239   */\n      sstore\n        /* \"#utility.yul\":17097:17253   */\n      pop\n        /* \"#utility.yul\":17074:17253   */\n    tag_491:\n        /* \"#utility.yul\":17299:17300   */\n      0x01\n        /* \"#utility.yul\":17295:17296   */\n      0x02\n        /* \"#utility.yul\":17287:17293   */\n      dup9\n        /* \"#utility.yul\":17283:17297   */\n      mul\n        /* \"#utility.yul\":17279:17301   */\n      add\n        /* \"#utility.yul\":17273:17277   */\n      dup9\n        /* \"#utility.yul\":17266:17302   */\n      sstore\n        /* \"#utility.yul\":16701:17312   */\n      pop\n      pop\n      pop\n        /* \"#utility.yul\":16664:17551   */\n    tag_483:\n      pop\n        /* \"#utility.yul\":16254:17557   */\n      pop\n      pop\n      pop\n        /* \"#utility.yul\":16162:17557   */\n      pop\n      pop\n      jump\t// out\n        /* \"#utility.yul\":17563:17743   */\n    tag_281:\n        /* \"#utility.yul\":17611:17688   */\n      0x4e487b7100000000000000000000000000000000000000000000000000000000\n        /* \"#utility.yul\":17608:17609   */\n      0x00\n        /* \"#utility.yul\":17601:17689   */\n      mstore\n        /* \"#utility.yul\":17708:17712   */\n      0x11\n        /* \"#utility.yul\":17705:17706   */\n      0x04\n        /* \"#utility.yul\":17698:17713   */\n      mstore\n        /* \"#utility.yul\":17732:17736   */\n      0x24\n        /* \"#utility.yul\":17729:17730   */\n      0x00\n        /* \"#utility.yul\":17722:17737   */\n      revert\n        /* \"#utility.yul\":17749:17940   */\n    tag_114:\n        /* \"#utility.yul\":17789:17792   */\n      0x00\n        /* \"#utility.yul\":17808:17828   */\n      tag_495\n        /* \"#utility.yul\":17826:17827   */\n      dup3\n        /* \"#utility.yul\":17808:17828   */\n      tag_242\n      jump\t// in\n    tag_495:\n        /* \"#utility.yul\":17803:17828   */\n      swap2\n      pop\n        /* \"#utility.yul\":17842:17862   */\n      tag_496\n        /* \"#utility.yul\":17860:17861   */\n      dup4\n        /* \"#utility.yul\":17842:17862   */\n      tag_242\n      jump\t// in\n    tag_496:\n        /* \"#utility.yul\":17837:17862   */\n      swap3\n      pop\n        /* \"#utility.yul\":17885:17886   */\n      dup3\n        /* \"#utility.yul\":17882:17883   */\n      dup3\n        /* \"#utility.yul\":17878:17887   */\n      add\n        /* \"#utility.yul\":17871:17887   */\n      swap1\n      pop\n        /* \"#utility.yul\":17906:17909   */\n      dup1\n        /* \"#utility.yul\":17903:17904   */\n      dup3\n        /* \"#utility.yul\":17900:17910   */\n      gt\n        /* \"#utility.yul\":17897:17933   */\n      iszero\n      tag_497\n      jumpi\n        /* \"#utility.yul\":17913:17931   */\n      tag_498\n      tag_281\n      jump\t// in\n    tag_498:\n        /* \"#utility.yul\":17897:17933   */\n    tag_497:\n        /* \"#utility.yul\":17749:17940   */\n      swap3\n      swap2\n      pop\n      pop\n      jump\t// out\n        /* \"#utility.yul\":17946:18388   */\n    tag_123:\n        /* \"#utility.yul\":18095:18099   */\n      0x00\n        /* \"#utility.yul\":18133:18135   */\n      0x60\n        /* \"#utility.yul\":18122:18131   */\n      dup3\n        /* \"#utility.yul\":18118:18136   */\n      add\n        /* \"#utility.yul\":18110:18136   */\n      swap1\n      pop\n        /* \"#utility.yul\":18146:18217   */\n      tag_500\n        /* \"#utility.yul\":18214:18215   */\n      0x00\n        /* \"#utility.yul\":18203:18212   */\n      dup4\n        /* \"#utility.yul\":18199:18216   */\n      add\n        /* \"#utility.yul\":18190:18196   */\n      dup7\n        /* \"#utility.yul\":18146:18217   */\n      tag_247\n      jump\t// in\n    tag_500:\n        /* \"#utility.yul\":18227:18299   */\n      tag_501\n        /* \"#utility.yul\":18295:18297   */\n      0x20\n        /* \"#utility.yul\":18284:18293   */\n      dup4\n        /* \"#utility.yul\":18280:18298   */\n      add\n        /* \"#utility.yul\":18271:18277   */\n      dup6\n        /* \"#utility.yul\":18227:18299   */\n      tag_261\n      jump\t// in\n    tag_501:\n        /* \"#utility.yul\":18309:18381   */\n      tag_502\n        /* \"#utility.yul\":18377:18379   */\n      0x40\n        /* \"#utility.yul\":18366:18375   */\n      dup4\n        /* \"#utility.yul\":18362:18380   */\n      add\n        /* \"#utility.yul\":18353:18359   */\n      dup5\n        /* \"#utility.yul\":18309:18381   */\n      tag_247\n      jump\t// in\n    tag_502:\n        /* \"#utility.yul\":17946:18388   */\n      swap5\n      swap4\n      pop\n      pop\n      pop\n      pop\n      jump\t// out\n        /* \"#utility.yul\":18394:18492   */\n    tag_282:\n        /* \"#utility.yul\":18445:18451   */\n      0x00\n        /* \"#utility.yul\":18479:18484   */\n      dup2\n        /* \"#utility.yul\":18473:18485   */\n      mload\n        /* \"#utility.yul\":18463:18485   */\n      swap1\n      pop\n        /* \"#utility.yul\":18394:18492   */\n      swap2\n      swap1\n      pop\n      jump\t// out\n        /* \"#utility.yul\":18498:18666   */\n    tag_283:\n        /* \"#utility.yul\":18581:18592   */\n      0x00\n        /* \"#utility.yul\":18615:18621   */\n      dup3\n        /* \"#utility.yul\":18610:18613   */\n      dup3\n        /* \"#utility.yul\":18603:18622   */\n      mstore\n        /* \"#utility.yul\":18655:18659   */\n      0x20\n        /* \"#utility.yul\":18650:18653   */\n      dup3\n        /* \"#utility.yul\":18646:18660   */\n      add\n        /* \"#utility.yul\":18631:18660   */\n      swap1\n      pop\n        /* \"#utility.yul\":18498:18666   */\n      swap3\n      swap2\n      pop\n      pop\n      jump\t// out\n        /* \"#utility.yul\":18672:19045   */\n    tag_284:\n        /* \"#utility.yul\":18758:18761   */\n      0x00\n        /* \"#utility.yul\":18786:18824   */\n      tag_506\n        /* \"#utility.yul\":18818:18823   */\n      dup3\n        /* \"#utility.yul\":18786:18824   */\n      tag_282\n      jump\t// in\n    tag_506:\n        /* \"#utility.yul\":18840:18910   */\n      tag_507\n        /* \"#utility.yul\":18903:18909   */\n      dup2\n        /* \"#utility.yul\":18898:18901   */\n      dup6\n        /* \"#utility.yul\":18840:18910   */\n      tag_283\n      jump\t// in\n    tag_507:\n        /* \"#utility.yul\":18833:18910   */\n      swap4\n      pop\n        /* \"#utility.yul\":18919:18984   */\n      tag_508\n        /* \"#utility.yul\":18977:18983   */\n      dup2\n        /* \"#utility.yul\":18972:18975   */\n      dup6\n        /* \"#utility.yul\":18965:18969   */\n      0x20\n        /* \"#utility.yul\":18958:18963   */\n      dup7\n        /* \"#utility.yul\":18954:18970   */\n      add\n        /* \"#utility.yul\":18919:18984   */\n      tag_239\n      jump\t// in\n    tag_508:\n        /* \"#utility.yul\":19009:19038   */\n      tag_509\n        /* \"#utility.yul\":19031:19037   */\n      dup2\n        /* \"#utility.yul\":19009:19038   */\n      tag_240\n      jump\t// in\n    tag_509:\n        /* \"#utility.yul\":19004:19007   */\n      dup5\n        /* \"#utility.yul\":19000:19039   */\n      add\n        /* \"#utility.yul\":18993:19039   */\n      swap2\n      pop\n        /* \"#utility.yul\":18762:19045   */\n      pop\n        /* \"#utility.yul\":18672:19045   */\n      swap3\n      swap2\n      pop\n      pop\n      jump\t// out\n        /* \"#utility.yul\":19051:19691   */\n    tag_187:\n        /* \"#utility.yul\":19246:19250   */\n      0x00\n        /* \"#utility.yul\":19284:19287   */\n      0x80\n        /* \"#utility.yul\":19273:19282   */\n      dup3\n        /* \"#utility.yul\":19269:19288   */\n      add\n        /* \"#utility.yul\":19261:19288   */\n      swap1\n      pop\n        /* \"#utility.yul\":19298:19369   */\n      tag_511\n        /* \"#utility.yul\":19366:19367   */\n      0x00\n        /* \"#utility.yul\":19355:19364   */\n      dup4\n        /* \"#utility.yul\":19351:19368   */\n      add\n        /* \"#utility.yul\":19342:19348   */\n      dup8\n        /* \"#utility.yul\":19298:19369   */\n      tag_247\n      jump\t// in\n    tag_511:\n        /* \"#utility.yul\":19379:19451   */\n      tag_512\n        /* \"#utility.yul\":19447:19449   */\n      0x20\n        /* \"#utility.yul\":19436:19445   */\n      dup4\n        /* \"#utility.yul\":19432:19450   */\n      add\n        /* \"#utility.yul\":19423:19429   */\n      dup7\n        /* \"#utility.yul\":19379:19451   */\n      tag_247\n      jump\t// in\n    tag_512:\n        /* \"#utility.yul\":19461:19533   */\n      tag_513\n        /* \"#utility.yul\":19529:19531   */\n      0x40\n        /* \"#utility.yul\":19518:19527   */\n      dup4\n        /* \"#utility.yul\":19514:19532   */\n      add\n        /* \"#utility.yul\":19505:19511   */\n      dup6\n        /* \"#utility.yul\":19461:19533   */\n      tag_261\n      jump\t// in\n    tag_513:\n        /* \"#utility.yul\":19580:19589   */\n      dup2\n        /* \"#utility.yul\":19574:19578   */\n      dup2\n        /* \"#utility.yul\":19570:19590   */\n      sub\n        /* \"#utility.yul\":19565:19567   */\n      0x60\n        /* \"#utility.yul\":19554:19563   */\n      dup4\n        /* \"#utility.yul\":19550:19568   */\n      add\n        /* \"#utility.yul\":19543:19591   */\n      mstore\n        /* \"#utility.yul\":19608:19684   */\n      tag_514\n        /* \"#utility.yul\":19679:19683   */\n      dup2\n        /* \"#utility.yul\":19670:19676   */\n      dup5\n        /* \"#utility.yul\":19608:19684   */\n      tag_284\n      jump\t// in\n    tag_514:\n        /* \"#utility.yul\":19600:19684   */\n      swap1\n      pop\n        /* \"#utility.yul\":19051:19691   */\n      swap6\n      swap5\n      pop\n      pop\n      pop\n      pop\n      pop\n      jump\t// out\n        /* \"#utility.yul\":19697:19838   */\n    tag_285:\n        /* \"#utility.yul\":19753:19758   */\n      0x00\n        /* \"#utility.yul\":19784:19790   */\n      dup2\n        /* \"#utility.yul\":19778:19791   */\n      mload\n        /* \"#utility.yul\":19769:19791   */\n      swap1\n      pop\n        /* \"#utility.yul\":19800:19832   */\n      tag_516\n        /* \"#utility.yul\":19826:19831   */\n      dup2\n        /* \"#utility.yul\":19800:19832   */\n      tag_233\n      jump\t// in\n    tag_516:\n        /* \"#utility.yul\":19697:19838   */\n      swap3\n      swap2\n      pop\n      pop\n      jump\t// out\n        /* \"#utility.yul\":19844:20193   */\n    tag_190:\n        /* \"#utility.yul\":19913:19919   */\n      0x00\n        /* \"#utility.yul\":19962:19964   */\n      0x20\n        /* \"#utility.yul\":19950:19959   */\n      dup3\n        /* \"#utility.yul\":19941:19948   */\n      dup5\n        /* \"#utility.yul\":19937:19960   */\n      sub\n        /* \"#utility.yul\":19933:19965   */\n      slt\n        /* \"#utility.yul\":19930:20049   */\n      iszero\n      tag_518\n      jumpi\n        /* \"#utility.yul\":19968:20047   */\n      tag_519\n      tag_230\n      jump\t// in\n    tag_519:\n        /* \"#utility.yul\":19930:20049   */\n    tag_518:\n        /* \"#utility.yul\":20088:20089   */\n      0x00\n        /* \"#utility.yul\":20113:20176   */\n      tag_520\n        /* \"#utility.yul\":20168:20175   */\n      dup5\n        /* \"#utility.yul\":20159:20165   */\n      dup3\n        /* \"#utility.yul\":20148:20157   */\n      dup6\n        /* \"#utility.yul\":20144:20166   */\n      add\n        /* \"#utility.yul\":20113:20176   */\n      tag_285\n      jump\t// in\n    tag_520:\n        /* \"#utility.yul\":20103:20176   */\n      swap2\n      pop\n        /* \"#utility.yul\":20059:20186   */\n      pop\n        /* \"#utility.yul\":19844:20193   */\n      swap3\n      swap2\n      pop\n      pop\n      jump\t// out\n        /* \"#utility.yul\":20199:20531   */\n    tag_222:\n        /* \"#utility.yul\":20320:20324   */\n      0x00\n        /* \"#utility.yul\":20358:20360   */\n      0x40\n        /* \"#utility.yul\":20347:20356   */\n      dup3\n        /* \"#utility.yul\":20343:20361   */\n      add\n        /* \"#utility.yul\":20335:20361   */\n      swap1\n      pop\n        /* \"#utility.yul\":20371:20442   */\n      tag_522\n        /* \"#utility.yul\":20439:20440   */\n      0x00\n        /* \"#utility.yul\":20428:20437   */\n      dup4\n        /* \"#utility.yul\":20424:20441   */\n      add\n        /* \"#utility.yul\":20415:20421   */\n      dup6\n        /* \"#utility.yul\":20371:20442   */\n      tag_247\n      jump\t// in\n    tag_522:\n        /* \"#utility.yul\":20452:20524   */\n      tag_523\n        /* \"#utility.yul\":20520:20522   */\n      0x20\n        /* \"#utility.yul\":20509:20518   */\n      dup4\n        /* \"#utility.yul\":20505:20523   */\n      add\n        /* \"#utility.yul\":20496:20502   */\n      dup5\n        /* \"#utility.yul\":20452:20524   */\n      tag_261\n      jump\t// in\n    tag_523:\n        /* \"#utility.yul\":20199:20531   */\n      swap4\n      swap3\n      pop\n      pop\n      pop\n      jump\t// out\n\n    auxdata: 0xa2646970667358221220f2809ad4a89cf5458835f2db19c7c8c0b98dbae512a9dba7c5e28356e99d8f8764736f6c63430008140033\n}\n",
				"bytecode": {
					"linkReferences": {},
					"object": "60806040525f60075534801562000014575f80fd5b50604051620024a3380380620024a383398181016040528101906200003a9190620001ee565b8181815f90816200004c9190620004a8565b5080600190816200005e9190620004a8565b50505050506200058c565b5f604051905090565b5f80fd5b5f80fd5b5f80fd5b5f80fd5b5f601f19601f8301169050919050565b7f4e487b71000000000000000000000000000000000000000000000000000000005f52604160045260245ffd5b620000ca8262000082565b810181811067ffffffffffffffff82111715620000ec57620000eb62000092565b5b80604052505050565b5f6200010062000069565b90506200010e8282620000bf565b919050565b5f67ffffffffffffffff82111562000130576200012f62000092565b5b6200013b8262000082565b9050602081019050919050565b5f5b83811015620001675780820151818401526020810190506200014a565b5f8484015250505050565b5f62000188620001828462000113565b620000f5565b905082815260208101848484011115620001a757620001a66200007e565b5b620001b484828562000148565b509392505050565b5f82601f830112620001d357620001d26200007a565b5b8151620001e584826020860162000172565b91505092915050565b5f806040838503121562000207576200020662000072565b5b5f83015167ffffffffffffffff81111562000227576200022662000076565b5b6200023585828601620001bc565b925050602083015167ffffffffffffffff81111562000259576200025862000076565b5b6200026785828601620001bc565b9150509250929050565b5f81519050919050565b7f4e487b71000000000000000000000000000000000000000000000000000000005f52602260045260245ffd5b5f6002820490506001821680620002c057607f821691505b602082108103620002d657620002d56200027b565b5b50919050565b5f819050815f5260205f209050919050565b5f6020601f8301049050919050565b5f82821b905092915050565b5f600883026200033a7fffffffffffffffffffffffffffffffffffffffffffffffffffffffffffffffff82620002fd565b620003468683620002fd565b95508019841693508086168417925050509392505050565b5f819050919050565b5f819050919050565b5f620003906200038a62000384846200035e565b62000367565b6200035e565b9050919050565b5f819050919050565b620003ab8362000370565b620003c3620003ba8262000397565b84845462000309565b825550505050565b5f90565b620003d9620003cb565b620003e6818484620003a0565b505050565b5b818110156200040d57620004015f82620003cf565b600181019050620003ec565b5050565b601f8211156200045c576200042681620002dc565b6200043184620002ee565b8101602085101562000441578190505b620004596200045085620002ee565b830182620003eb565b50505b505050565b5f82821c905092915050565b5f6200047e5f198460080262000461565b1980831691505092915050565b5f6200049883836200046d565b9150826002028217905092915050565b620004b38262000271565b67ffffffffffffffff811115620004cf57620004ce62000092565b5b620004db8254620002a8565b620004e882828562000411565b5f60209050601f8311600181146200051e575f841562000509578287015190505b6200051585826200048b565b86555062000584565b601f1984166200052e86620002dc565b5f5b82811015620005575784890151825560018201915060208501945060208101905062000530565b8683101562000577578489015162000573601f8916826200046d565b8355505b6001600288020188555050505b505050505050565b611f09806200059a5f395ff3fe608060405234801561000f575f80fd5b50600436106100f3575f3560e01c806342842e0e11610095578063a22cb46511610064578063a22cb4651461027f578063b88d4fde1461029b578063c87b56dd146102b7578063e985e9c5146102e7576100f3565b806342842e0e146101e55780636352211e1461020157806370a082311461023157806395d89b4114610261576100f3565b8063095ea7b3116100d1578063095ea7b3146101755780630bdc90081461019157806323b872dd146101ad57806329d6724e146101c9576100f3565b806301ffc9a7146100f757806306fdde0314610127578063081812fc14610145575b5f80fd5b610111600480360381019061010c9190611423565b610317565b60405161011e9190611468565b60405180910390f35b61012f6103f8565b60405161013c919061150b565b60405180910390f35b61015f600480360381019061015a919061155e565b610487565b60405161016c91906115c8565b60405180910390f35b61018f600480360381019061018a919061160b565b6104a2565b005b6101ab60048036038101906101a69190611775565b6104b8565b005b6101c760048036038101906101c291906117bc565b610501565b005b6101e360048036038101906101de9190611836565b610600565b005b6101ff60048036038101906101fa91906117bc565b610610565b005b61021b6004803603810190610216919061155e565b61062f565b60405161022891906115c8565b60405180910390f35b61024b60048036038101906102469190611886565b610640565b60405161025891906118c0565b60405180910390f35b6102696106f6565b604051610276919061150b565b60405180910390f35b610299600480360381019061029491906118d9565b610786565b005b6102b560048036038101906102b091906119b5565b61079c565b005b6102d160048036038101906102cc919061155e565b6107b9565b6040516102de919061150b565b60405180910390f35b61030160048036038101906102fc9190611a35565b61085a565b60405161030e9190611468565b60405180910390f35b5f7f80ac58cd000000000000000000000000000000000000000000000000000000007bffffffffffffffffffffffffffffffffffffffffffffffffffffffff1916827bffffffffffffffffffffffffffffffffffffffffffffffffffffffff191614806103e157507f5b5e139f000000000000000000000000000000000000000000000000000000007bffffffffffffffffffffffffffffffffffffffffffffffffffffffff1916827bffffffffffffffffffffffffffffffffffffffffffffffffffffffff1916145b806103f157506103f0826108e8565b5b9050919050565b60605f805461040690611aa0565b80601f016020809104026020016040519081016040528092919081815260200182805461043290611aa0565b801561047d5780601f106104545761010080835404028352916020019161047d565b820191905f5260205f20905b81548152906001019060200180831161046057829003601f168201915b5050505050905090565b5f61049182610951565b5061049b826109d7565b9050919050565b6104b482826104af610a10565b610a17565b5050565b8060065f60075481526020019081526020015f2090816104d89190611c6d565b506104e533600754610a29565b600160075f8282546104f79190611d69565b9250508190555050565b5f73ffffffffffffffffffffffffffffffffffffffff168273ffffffffffffffffffffffffffffffffffffffff1603610571575f6040517f64a0ae9200000000000000000000000000000000000000000000000000000000815260040161056891906115c8565b60405180910390fd5b5f610584838361057f610a10565b610b1c565b90508373ffffffffffffffffffffffffffffffffffffffff168173ffffffffffffffffffffffffffffffffffffffff16146105fa578382826040517f64283d7b0000000000000000000000000000000000000000000000000000000081526004016105f193929190611d9c565b60405180910390fd5b50505050565b61060b838383610d27565b505050565b61062a83838360405180602001604052805f81525061079c565b505050565b5f61063982610951565b9050919050565b5f8073ffffffffffffffffffffffffffffffffffffffff168273ffffffffffffffffffffffffffffffffffffffff16036106b1575f6040517f89c62b640000000000000000000000000000000000000000000000000000000081526004016106a891906115c8565b60405180910390fd5b60035f8373ffffffffffffffffffffffffffffffffffffffff1673ffffffffffffffffffffffffffffffffffffffff1681526020019081526020015f20549050919050565b60606001805461070590611aa0565b80601f016020809104026020016040519081016040528092919081815260200182805461073190611aa0565b801561077c5780601f106107535761010080835404028352916020019161077c565b820191905f5260205f20905b81548152906001019060200180831161075f57829003601f168201915b5050505050905090565b610798610791610a10565b8383610d27565b5050565b6107a7848484610501565b6107b384848484610e90565b50505050565b606060065f8381526020019081526020015f2080546107d790611aa0565b80601f016020809104026020016040519081016040528092919081815260200182805461080390611aa0565b801561084e5780601f106108255761010080835404028352916020019161084e565b820191905f5260205f20905b81548152906001019060200180831161083157829003601f168201915b50505050509050919050565b5f60055f8473ffffffffffffffffffffffffffffffffffffffff1673ffffffffffffffffffffffffffffffffffffffff1681526020019081526020015f205f8373ffffffffffffffffffffffffffffffffffffffff1673ffffffffffffffffffffffffffffffffffffffff1681526020019081526020015f205f9054906101000a900460ff16905092915050565b5f7f01ffc9a7000000000000000000000000000000000000000000000000000000007bffffffffffffffffffffffffffffffffffffffffffffffffffffffff1916827bffffffffffffffffffffffffffffffffffffffffffffffffffffffff1916149050919050565b5f8061095c83611042565b90505f73ffffffffffffffffffffffffffffffffffffffff168173ffffffffffffffffffffffffffffffffffffffff16036109ce57826040517f7e2732890000000000000000000000000000000000000000000000000000000081526004016109c591906118c0565b60405180910390fd5b80915050919050565b5f60045f8381526020019081526020015f205f9054906101000a900473ffffffffffffffffffffffffffffffffffffffff169050919050565b5f33905090565b610a24838383600161107b565b505050565b5f73ffffffffffffffffffffffffffffffffffffffff168273ffffffffffffffffffffffffffffffffffffffff1603610a99575f6040517f64a0ae92000000000000000000000000000000000000000000000000000000008152600401610a9091906115c8565b60405180910390fd5b5f610aa583835f610b1c565b90505f73ffffffffffffffffffffffffffffffffffffffff168173ffffffffffffffffffffffffffffffffffffffff1614610b17575f6040517f73c6ac6e000000000000000000000000000000000000000000000000000000008152600401610b0e91906115c8565b60405180910390fd5b505050565b5f80610b2784611042565b90505f73ffffffffffffffffffffffffffffffffffffffff168373ffffffffffffffffffffffffffffffffffffffff1614610b6857610b6781848661123a565b5b5f73ffffffffffffffffffffffffffffffffffffffff168173ffffffffffffffffffffffffffffffffffffffff1614610bf357610ba75f855f8061107b565b600160035f8373ffffffffffffffffffffffffffffffffffffffff1673ffffffffffffffffffffffffffffffffffffffff1681526020019081526020015f205f82825403925050819055505b5f73ffffffffffffffffffffffffffffffffffffffff168573ffffffffffffffffffffffffffffffffffffffff1614610c7257600160035f8773ffffffffffffffffffffffffffffffffffffffff1673ffffffffffffffffffffffffffffffffffffffff1681526020019081526020015f205f82825401925050819055505b8460025f8681526020019081526020015f205f6101000a81548173ffffffffffffffffffffffffffffffffffffffff021916908373ffffffffffffffffffffffffffffffffffffffff160217905550838573ffffffffffffffffffffffffffffffffffffffff168273ffffffffffffffffffffffffffffffffffffffff167fddf252ad1be2c89b69c2b068fc378daa952ba7f163c4a11628f55a4df523b3ef60405160405180910390a4809150509392505050565b5f73ffffffffffffffffffffffffffffffffffffffff168273ffffffffffffffffffffffffffffffffffffffff1603610d9757816040517f5b08ba18000000000000000000000000000000000000000000000000000000008152600401610d8e91906115c8565b60405180910390fd5b8060055f8573ffffffffffffffffffffffffffffffffffffffff1673ffffffffffffffffffffffffffffffffffffffff1681526020019081526020015f205f8473ffffffffffffffffffffffffffffffffffffffff1673ffffffffffffffffffffffffffffffffffffffff1681526020019081526020015f205f6101000a81548160ff0219169083151502179055508173ffffffffffffffffffffffffffffffffffffffff168373ffffffffffffffffffffffffffffffffffffffff167f17307eab39ab6107e8899845ad3d59bd9653f200f220920489ca2b5937696c3183604051610e839190611468565b60405180910390a3505050565b5f8373ffffffffffffffffffffffffffffffffffffffff163b111561103c578273ffffffffffffffffffffffffffffffffffffffff1663150b7a02610ed3610a10565b8685856040518563ffffffff1660e01b8152600401610ef59493929190611e23565b6020604051808303815f875af1925050508015610f3057506040513d601f19601f82011682018060405250810190610f2d9190611e81565b60015b610fb1573d805f8114610f5e576040519150601f19603f3d011682016040523d82523d5f602084013e610f63565b606091505b505f815103610fa957836040517f64a0ae92000000000000000000000000000000000000000000000000000000008152600401610fa091906115c8565b60405180910390fd5b805181602001fd5b63150b7a0260e01b7bffffffffffffffffffffffffffffffffffffffffffffffffffffffff1916817bffffffffffffffffffffffffffffffffffffffffffffffffffffffff19161461103a57836040517f64a0ae9200000000000000000000000000000000000000000000000000000000815260040161103191906115c8565b60405180910390fd5b505b50505050565b5f60025f8381526020019081526020015f205f9054906101000a900473ffffffffffffffffffffffffffffffffffffffff169050919050565b80806110b357505f73ffffffffffffffffffffffffffffffffffffffff168273ffffffffffffffffffffffffffffffffffffffff1614155b156111e5575f6110c284610951565b90505f73ffffffffffffffffffffffffffffffffffffffff168373ffffffffffffffffffffffffffffffffffffffff161415801561112c57508273ffffffffffffffffffffffffffffffffffffffff168173ffffffffffffffffffffffffffffffffffffffff1614155b801561113f575061113d818461085a565b155b1561118157826040517fa9fbf51f00000000000000000000000000000000000000000000000000000000815260040161117891906115c8565b60405180910390fd5b81156111e357838573ffffffffffffffffffffffffffffffffffffffff168273ffffffffffffffffffffffffffffffffffffffff167f8c5be1e5ebec7d5bd14f71427d1e84f3dd0314c0f7b2291e5b200ac8c7c3b92560405160405180910390a45b505b8360045f8581526020019081526020015f205f6101000a81548173ffffffffffffffffffffffffffffffffffffffff021916908373ffffffffffffffffffffffffffffffffffffffff16021790555050505050565b6112458383836112fd565b6112f8575f73ffffffffffffffffffffffffffffffffffffffff168373ffffffffffffffffffffffffffffffffffffffff16036112b957806040517f7e2732890000000000000000000000000000000000000000000000000000000081526004016112b091906118c0565b60405180910390fd5b81816040517f177e802f0000000000000000000000000000000000000000000000000000000081526004016112ef929190611eac565b60405180910390fd5b505050565b5f8073ffffffffffffffffffffffffffffffffffffffff168373ffffffffffffffffffffffffffffffffffffffff16141580156113b457508273ffffffffffffffffffffffffffffffffffffffff168473ffffffffffffffffffffffffffffffffffffffff1614806113755750611374848461085a565b5b806113b357508273ffffffffffffffffffffffffffffffffffffffff1661139b836109d7565b73ffffffffffffffffffffffffffffffffffffffff16145b5b90509392505050565b5f604051905090565b5f80fd5b5f80fd5b5f7fffffffff0000000000000000000000000000000000000000000000000000000082169050919050565b611402816113ce565b811461140c575f80fd5b50565b5f8135905061141d816113f9565b92915050565b5f60208284031215611438576114376113c6565b5b5f6114458482850161140f565b91505092915050565b5f8115159050919050565b6114628161144e565b82525050565b5f60208201905061147b5f830184611459565b92915050565b5f81519050919050565b5f82825260208201905092915050565b5f5b838110156114b857808201518184015260208101905061149d565b5f8484015250505050565b5f601f19601f8301169050919050565b5f6114dd82611481565b6114e7818561148b565b93506114f781856020860161149b565b611500816114c3565b840191505092915050565b5f6020820190508181035f83015261152381846114d3565b905092915050565b5f819050919050565b61153d8161152b565b8114611547575f80fd5b50565b5f8135905061155881611534565b92915050565b5f60208284031215611573576115726113c6565b5b5f6115808482850161154a565b91505092915050565b5f73ffffffffffffffffffffffffffffffffffffffff82169050919050565b5f6115b282611589565b9050919050565b6115c2816115a8565b82525050565b5f6020820190506115db5f8301846115b9565b92915050565b6115ea816115a8565b81146115f4575f80fd5b50565b5f81359050611605816115e1565b92915050565b5f8060408385031215611621576116206113c6565b5b5f61162e858286016115f7565b925050602061163f8582860161154a565b9150509250929050565b5f80fd5b5f80fd5b7f4e487b71000000000000000000000000000000000000000000000000000000005f52604160045260245ffd5b611687826114c3565b810181811067ffffffffffffffff821117156116a6576116a5611651565b5b80604052505050565b5f6116b86113bd565b90506116c4828261167e565b919050565b5f67ffffffffffffffff8211156116e3576116e2611651565b5b6116ec826114c3565b9050602081019050919050565b828183375f83830152505050565b5f611719611714846116c9565b6116af565b9050828152602081018484840111156117355761173461164d565b5b6117408482856116f9565b509392505050565b5f82601f83011261175c5761175b611649565b5b813561176c848260208601611707565b91505092915050565b5f6020828403121561178a576117896113c6565b5b5f82013567ffffffffffffffff8111156117a7576117a66113ca565b5b6117b384828501611748565b91505092915050565b5f805f606084860312156117d3576117d26113c6565b5b5f6117e0868287016115f7565b93505060206117f1868287016115f7565b92505060406118028682870161154a565b9150509250925092565b6118158161144e565b811461181f575f80fd5b50565b5f813590506118308161180c565b92915050565b5f805f6060848603121561184d5761184c6113c6565b5b5f61185a868287016115f7565b935050602061186b868287016115f7565b925050604061187c86828701611822565b9150509250925092565b5f6020828403121561189b5761189a6113c6565b5b5f6118a8848285016115f7565b91505092915050565b6118ba8161152b565b82525050565b5f6020820190506118d35f8301846118b1565b92915050565b5f80604083850312156118ef576118ee6113c6565b5b5f6118fc858286016115f7565b925050602061190d85828601611822565b9150509250929050565b5f67ffffffffffffffff82111561193157611930611651565b5b61193a826114c3565b9050602081019050919050565b5f61195961195484611917565b6116af565b9050828152602081018484840111156119755761197461164d565b5b6119808482856116f9565b509392505050565b5f82601f83011261199c5761199b611649565b5b81356119ac848260208601611947565b91505092915050565b5f805f80608085870312156119cd576119cc6113c6565b5b5f6119da878288016115f7565b94505060206119eb878288016115f7565b93505060406119fc8782880161154a565b925050606085013567ffffffffffffffff811115611a1d57611a1c6113ca565b5b611a2987828801611988565b91505092959194509250565b5f8060408385031215611a4b57611a4a6113c6565b5b5f611a58858286016115f7565b9250506020611a69858286016115f7565b9150509250929050565b7f4e487b71000000000000000000000000000000000000000000000000000000005f52602260045260245ffd5b5f6002820490506001821680611ab757607f821691505b602082108103611aca57611ac9611a73565b5b50919050565b5f819050815f5260205f209050919050565b5f6020601f8301049050919050565b5f82821b905092915050565b5f60088302611b2c7fffffffffffffffffffffffffffffffffffffffffffffffffffffffffffffffff82611af1565b611b368683611af1565b95508019841693508086168417925050509392505050565b5f819050919050565b5f611b71611b6c611b678461152b565b611b4e565b61152b565b9050919050565b5f819050919050565b611b8a83611b57565b611b9e611b9682611b78565b848454611afd565b825550505050565b5f90565b611bb2611ba6565b611bbd818484611b81565b505050565b5b81811015611be057611bd55f82611baa565b600181019050611bc3565b5050565b601f821115611c2557611bf681611ad0565b611bff84611ae2565b81016020851015611c0e578190505b611c22611c1a85611ae2565b830182611bc2565b50505b505050565b5f82821c905092915050565b5f611c455f1984600802611c2a565b1980831691505092915050565b5f611c5d8383611c36565b9150826002028217905092915050565b611c7682611481565b67ffffffffffffffff811115611c8f57611c8e611651565b5b611c998254611aa0565b611ca4828285611be4565b5f60209050601f831160018114611cd5575f8415611cc3578287015190505b611ccd8582611c52565b865550611d34565b601f198416611ce386611ad0565b5f5b82811015611d0a57848901518255600182019150602085019450602081019050611ce5565b86831015611d275784890151611d23601f891682611c36565b8355505b6001600288020188555050505b505050505050565b7f4e487b71000000000000000000000000000000000000000000000000000000005f52601160045260245ffd5b5f611d738261152b565b9150611d7e8361152b565b9250828201905080821115611d9657611d95611d3c565b5b92915050565b5f606082019050611daf5f8301866115b9565b611dbc60208301856118b1565b611dc960408301846115b9565b949350505050565b5f81519050919050565b5f82825260208201905092915050565b5f611df582611dd1565b611dff8185611ddb565b9350611e0f81856020860161149b565b611e18816114c3565b840191505092915050565b5f608082019050611e365f8301876115b9565b611e4360208301866115b9565b611e5060408301856118b1565b8181036060830152611e628184611deb565b905095945050505050565b5f81519050611e7b816113f9565b92915050565b5f60208284031215611e9657611e956113c6565b5b5f611ea384828501611e6d565b91505092915050565b5f604082019050611ebf5f8301856115b9565b611ecc60208301846118b1565b939250505056fea2646970667358221220f2809ad4a89cf5458835f2db19c7c8c0b98dbae512a9dba7c5e28356e99d8f8764736f6c63430008140033",
					"opcodes": "PUSH1 0x80 PUSH1 0x40 MSTORE PUSH0 PUSH1 0x7 SSTORE CALLVALUE DUP1 ISZERO PUSH3 0x14 JUMPI PUSH0 DUP1 REVERT JUMPDEST POP PUSH1 0x40 MLOAD PUSH3 0x24A3 CODESIZE SUB DUP1 PUSH3 0x24A3 DUP4 CODECOPY DUP2 DUP2 ADD PUSH1 0x40 MSTORE DUP2 ADD SWAP1 PUSH3 0x3A SWAP2 SWAP1 PUSH3 0x1EE JUMP JUMPDEST DUP2 DUP2 DUP2 PUSH0 SWAP1 DUP2 PUSH3 0x4C SWAP2 SWAP1 PUSH3 0x4A8 JUMP JUMPDEST POP DUP1 PUSH1 0x1 SWAP1 DUP2 PUSH3 0x5E SWAP2 SWAP1 PUSH3 0x4A8 JUMP JUMPDEST POP POP POP POP POP PUSH3 0x58C JUMP JUMPDEST PUSH0 PUSH1 0x40 MLOAD SWAP1 POP SWAP1 JUMP JUMPDEST PUSH0 DUP1 REVERT JUMPDEST PUSH0 DUP1 REVERT JUMPDEST PUSH0 DUP1 REVERT JUMPDEST PUSH0 DUP1 REVERT JUMPDEST PUSH0 PUSH1 0x1F NOT PUSH1 0x1F DUP4 ADD AND SWAP1 POP SWAP2 SWAP1 POP JUMP JUMPDEST PUSH32 0x4E487B7100000000000000000000000000000000000000000000000000000000 PUSH0 MSTORE PUSH1 0x41 PUSH1 0x4 MSTORE PUSH1 0x24 PUSH0 REVERT JUMPDEST PUSH3 0xCA DUP3 PUSH3 0x82 JUMP JUMPDEST DUP2 ADD DUP2 DUP2 LT PUSH8 0xFFFFFFFFFFFFFFFF DUP3 GT OR ISZERO PUSH3 0xEC JUMPI PUSH3 0xEB PUSH3 0x92 JUMP JUMPDEST JUMPDEST DUP1 PUSH1 0x40 MSTORE POP POP POP JUMP JUMPDEST PUSH0 PUSH3 0x100 PUSH3 0x69 JUMP JUMPDEST SWAP1 POP PUSH3 0x10E DUP3 DUP3 PUSH3 0xBF JUMP JUMPDEST SWAP2 SWAP1 POP JUMP JUMPDEST PUSH0 PUSH8 0xFFFFFFFFFFFFFFFF DUP3 GT ISZERO PUSH3 0x130 JUMPI PUSH3 0x12F PUSH3 0x92 JUMP JUMPDEST JUMPDEST PUSH3 0x13B DUP3 PUSH3 0x82 JUMP JUMPDEST SWAP1 POP PUSH1 0x20 DUP2 ADD SWAP1 POP SWAP2 SWAP1 POP JUMP JUMPDEST PUSH0 JUMPDEST DUP4 DUP2 LT ISZERO PUSH3 0x167 JUMPI DUP1 DUP3 ADD MLOAD DUP2 DUP5 ADD MSTORE PUSH1 0x20 DUP2 ADD SWAP1 POP PUSH3 0x14A JUMP JUMPDEST PUSH0 DUP5 DUP5 ADD MSTORE POP POP POP POP JUMP JUMPDEST PUSH0 PUSH3 0x188 PUSH3 0x182 DUP5 PUSH3 0x113 JUMP JUMPDEST PUSH3 0xF5 JUMP JUMPDEST SWAP1 POP DUP3 DUP2 MSTORE PUSH1 0x20 DUP2 ADD DUP5 DUP5 DUP5 ADD GT ISZERO PUSH3 0x1A7 JUMPI PUSH3 0x1A6 PUSH3 0x7E JUMP JUMPDEST JUMPDEST PUSH3 0x1B4 DUP5 DUP3 DUP6 PUSH3 0x148 JUMP JUMPDEST POP SWAP4 SWAP3 POP POP POP JUMP JUMPDEST PUSH0 DUP3 PUSH1 0x1F DUP4 ADD SLT PUSH3 0x1D3 JUMPI PUSH3 0x1D2 PUSH3 0x7A JUMP JUMPDEST JUMPDEST DUP2 MLOAD PUSH3 0x1E5 DUP5 DUP3 PUSH1 0x20 DUP7 ADD PUSH3 0x172 JUMP JUMPDEST SWAP2 POP POP SWAP3 SWAP2 POP POP JUMP JUMPDEST PUSH0 DUP1 PUSH1 0x40 DUP4 DUP6 SUB SLT ISZERO PUSH3 0x207 JUMPI PUSH3 0x206 PUSH3 0x72 JUMP JUMPDEST JUMPDEST PUSH0 DUP4 ADD MLOAD PUSH8 0xFFFFFFFFFFFFFFFF DUP2 GT ISZERO PUSH3 0x227 JUMPI PUSH3 0x226 PUSH3 0x76 JUMP JUMPDEST JUMPDEST PUSH3 0x235 DUP6 DUP3 DUP7 ADD PUSH3 0x1BC JUMP JUMPDEST SWAP3 POP POP PUSH1 0x20 DUP4 ADD MLOAD PUSH8 0xFFFFFFFFFFFFFFFF DUP2 GT ISZERO PUSH3 0x259 JUMPI PUSH3 0x258 PUSH3 0x76 JUMP JUMPDEST JUMPDEST PUSH3 0x267 DUP6 DUP3 DUP7 ADD PUSH3 0x1BC JUMP JUMPDEST SWAP2 POP POP SWAP3 POP SWAP3 SWAP1 POP JUMP JUMPDEST PUSH0 DUP2 MLOAD SWAP1 POP SWAP2 SWAP1 POP JUMP JUMPDEST PUSH32 0x4E487B7100000000000000000000000000000000000000000000000000000000 PUSH0 MSTORE PUSH1 0x22 PUSH1 0x4 MSTORE PUSH1 0x24 PUSH0 REVERT JUMPDEST PUSH0 PUSH1 0x2 DUP3 DIV SWAP1 POP PUSH1 0x1 DUP3 AND DUP1 PUSH3 0x2C0 JUMPI PUSH1 0x7F DUP3 AND SWAP2 POP JUMPDEST PUSH1 0x20 DUP3 LT DUP2 SUB PUSH3 0x2D6 JUMPI PUSH3 0x2D5 PUSH3 0x27B JUMP JUMPDEST JUMPDEST POP SWAP2 SWAP1 POP JUMP JUMPDEST PUSH0 DUP2 SWAP1 POP DUP2 PUSH0 MSTORE PUSH1 0x20 PUSH0 KECCAK256 SWAP1 POP SWAP2 SWAP1 POP JUMP JUMPDEST PUSH0 PUSH1 0x20 PUSH1 0x1F DUP4 ADD DIV SWAP1 POP SWAP2 SWAP1 POP JUMP JUMPDEST PUSH0 DUP3 DUP3 SHL SWAP1 POP SWAP3 SWAP2 POP POP JUMP JUMPDEST PUSH0 PUSH1 0x8 DUP4 MUL PUSH3 0x33A PUSH32 0xFFFFFFFFFFFFFFFFFFFFFFFFFFFFFFFFFFFFFFFFFFFFFFFFFFFFFFFFFFFFFFFF DUP3 PUSH3 0x2FD JUMP JUMPDEST PUSH3 0x346 DUP7 DUP4 PUSH3 0x2FD JUMP JUMPDEST SWAP6 POP DUP1 NOT DUP5 AND SWAP4 POP DUP1 DUP7 AND DUP5 OR SWAP3 POP POP POP SWAP4 SWAP3 POP POP POP JUMP JUMPDEST PUSH0 DUP2 SWAP1 POP SWAP2 SWAP1 POP JUMP JUMPDEST PUSH0 DUP2 SWAP1 POP SWAP2 SWAP1 POP JUMP JUMPDEST PUSH0 PUSH3 0x390 PUSH3 0x38A PUSH3 0x384 DUP5 PUSH3 0x35E JUMP JUMPDEST PUSH3 0x367 JUMP JUMPDEST PUSH3 0x35E JUMP JUMPDEST SWAP1 POP SWAP2 SWAP1 POP JUMP JUMPDEST PUSH0 DUP2 SWAP1 POP SWAP2 SWAP1 POP JUMP JUMPDEST PUSH3 0x3AB DUP4 PUSH3 0x370 JUMP JUMPDEST PUSH3 0x3C3 PUSH3 0x3BA DUP3 PUSH3 0x397 JUMP JUMPDEST DUP5 DUP5 SLOAD PUSH3 0x309 JUMP JUMPDEST DUP3 SSTORE POP POP POP POP JUMP JUMPDEST PUSH0 SWAP1 JUMP JUMPDEST PUSH3 0x3D9 PUSH3 0x3CB JUMP JUMPDEST PUSH3 0x3E6 DUP2 DUP5 DUP5 PUSH3 0x3A0 JUMP JUMPDEST POP POP POP JUMP JUMPDEST JUMPDEST DUP2 DUP2 LT ISZERO PUSH3 0x40D JUMPI PUSH3 0x401 PUSH0 DUP3 PUSH3 0x3CF JUMP JUMPDEST PUSH1 0x1 DUP2 ADD SWAP1 POP PUSH3 0x3EC JUMP JUMPDEST POP POP JUMP JUMPDEST PUSH1 0x1F DUP3 GT ISZERO PUSH3 0x45C JUMPI PUSH3 0x426 DUP2 PUSH3 0x2DC JUMP JUMPDEST PUSH3 0x431 DUP5 PUSH3 0x2EE JUMP JUMPDEST DUP2 ADD PUSH1 0x20 DUP6 LT ISZERO PUSH3 0x441 JUMPI DUP2 SWAP1 POP JUMPDEST PUSH3 0x459 PUSH3 0x450 DUP6 PUSH3 0x2EE JUMP JUMPDEST DUP4 ADD DUP3 PUSH3 0x3EB JUMP JUMPDEST POP POP JUMPDEST POP POP POP JUMP JUMPDEST PUSH0 DUP3 DUP3 SHR SWAP1 POP SWAP3 SWAP2 POP POP JUMP JUMPDEST PUSH0 PUSH3 0x47E PUSH0 NOT DUP5 PUSH1 0x8 MUL PUSH3 0x461 JUMP JUMPDEST NOT DUP1 DUP4 AND SWAP2 POP POP SWAP3 SWAP2 POP POP JUMP JUMPDEST PUSH0 PUSH3 0x498 DUP4 DUP4 PUSH3 0x46D JUMP JUMPDEST SWAP2 POP DUP3 PUSH1 0x2 MUL DUP3 OR SWAP1 POP SWAP3 SWAP2 POP POP JUMP JUMPDEST PUSH3 0x4B3 DUP3 PUSH3 0x271 JUMP JUMPDEST PUSH8 0xFFFFFFFFFFFFFFFF DUP2 GT ISZERO PUSH3 0x4CF JUMPI PUSH3 0x4CE PUSH3 0x92 JUMP JUMPDEST JUMPDEST PUSH3 0x4DB DUP3 SLOAD PUSH3 0x2A8 JUMP JUMPDEST PUSH3 0x4E8 DUP3 DUP3 DUP6 PUSH3 0x411 JUMP JUMPDEST PUSH0 PUSH1 0x20 SWAP1 POP PUSH1 0x1F DUP4 GT PUSH1 0x1 DUP2 EQ PUSH3 0x51E JUMPI PUSH0 DUP5 ISZERO PUSH3 0x509 JUMPI DUP3 DUP8 ADD MLOAD SWAP1 POP JUMPDEST PUSH3 0x515 DUP6 DUP3 PUSH3 0x48B JUMP JUMPDEST DUP7 SSTORE POP PUSH3 0x584 JUMP JUMPDEST PUSH1 0x1F NOT DUP5 AND PUSH3 0x52E DUP7 PUSH3 0x2DC JUMP JUMPDEST PUSH0 JUMPDEST DUP3 DUP2 LT ISZERO PUSH3 0x557 JUMPI DUP5 DUP10 ADD MLOAD DUP3 SSTORE PUSH1 0x1 DUP3 ADD SWAP2 POP PUSH1 0x20 DUP6 ADD SWAP5 POP PUSH1 0x20 DUP2 ADD SWAP1 POP PUSH3 0x530 JUMP JUMPDEST DUP7 DUP4 LT ISZERO PUSH3 0x577 JUMPI DUP5 DUP10 ADD MLOAD PUSH3 0x573 PUSH1 0x1F DUP10 AND DUP3 PUSH3 0x46D JUMP JUMPDEST DUP4 SSTORE POP JUMPDEST PUSH1 0x1 PUSH1 0x2 DUP9 MUL ADD DUP9 SSTORE POP POP POP JUMPDEST POP POP POP POP POP POP JUMP JUMPDEST PUSH2 0x1F09 DUP1 PUSH3 0x59A PUSH0 CODECOPY PUSH0 RETURN INVALID PUSH1 0x80 PUSH1 0x40 MSTORE CALLVALUE DUP1 ISZERO PUSH2 0xF JUMPI PUSH0 DUP1 REVERT JUMPDEST POP PUSH1 0x4 CALLDATASIZE LT PUSH2 0xF3 JUMPI PUSH0 CALLDATALOAD PUSH1 0xE0 SHR DUP1 PUSH4 0x42842E0E GT PUSH2 0x95 JUMPI DUP1 PUSH4 0xA22CB465 GT PUSH2 0x64 JUMPI DUP1 PUSH4 0xA22CB465 EQ PUSH2 0x27F JUMPI DUP1 PUSH4 0xB88D4FDE EQ PUSH2 0x29B JUMPI DUP1 PUSH4 0xC87B56DD EQ PUSH2 0x2B7 JUMPI DUP1 PUSH4 0xE985E9C5 EQ PUSH2 0x2E7 JUMPI PUSH2 0xF3 JUMP JUMPDEST DUP1 PUSH4 0x42842E0E EQ PUSH2 0x1E5 JUMPI DUP1 PUSH4 0x6352211E EQ PUSH2 0x201 JUMPI DUP1 PUSH4 0x70A08231 EQ PUSH2 0x231 JUMPI DUP1 PUSH4 0x95D89B41 EQ PUSH2 0x261 JUMPI PUSH2 0xF3 JUMP JUMPDEST DUP1 PUSH4 0x95EA7B3 GT PUSH2 0xD1 JUMPI DUP1 PUSH4 0x95EA7B3 EQ PUSH2 0x175 JUMPI DUP1 PUSH4 0xBDC9008 EQ PUSH2 0x191 JUMPI DUP1 PUSH4 0x23B872DD EQ PUSH2 0x1AD JUMPI DUP1 PUSH4 0x29D6724E EQ PUSH2 0x1C9 JUMPI PUSH2 0xF3 JUMP JUMPDEST DUP1 PUSH4 0x1FFC9A7 EQ PUSH2 0xF7 JUMPI DUP1 PUSH4 0x6FDDE03 EQ PUSH2 0x127 JUMPI DUP1 PUSH4 0x81812FC EQ PUSH2 0x145 JUMPI JUMPDEST PUSH0 DUP1 REVERT JUMPDEST PUSH2 0x111 PUSH1 0x4 DUP1 CALLDATASIZE SUB DUP2 ADD SWAP1 PUSH2 0x10C SWAP2 SWAP1 PUSH2 0x1423 JUMP JUMPDEST PUSH2 0x317 JUMP JUMPDEST PUSH1 0x40 MLOAD PUSH2 0x11E SWAP2 SWAP1 PUSH2 0x1468 JUMP JUMPDEST PUSH1 0x40 MLOAD DUP1 SWAP2 SUB SWAP1 RETURN JUMPDEST PUSH2 0x12F PUSH2 0x3F8 JUMP JUMPDEST PUSH1 0x40 MLOAD PUSH2 0x13C SWAP2 SWAP1 PUSH2 0x150B JUMP JUMPDEST PUSH1 0x40 MLOAD DUP1 SWAP2 SUB SWAP1 RETURN JUMPDEST PUSH2 0x15F PUSH1 0x4 DUP1 CALLDATASIZE SUB DUP2 ADD SWAP1 PUSH2 0x15A SWAP2 SWAP1 PUSH2 0x155E JUMP JUMPDEST PUSH2 0x487 JUMP JUMPDEST PUSH1 0x40 MLOAD PUSH2 0x16C SWAP2 SWAP1 PUSH2 0x15C8 JUMP JUMPDEST PUSH1 0x40 MLOAD DUP1 SWAP2 SUB SWAP1 RETURN JUMPDEST PUSH2 0x18F PUSH1 0x4 DUP1 CALLDATASIZE SUB DUP2 ADD SWAP1 PUSH2 0x18A SWAP2 SWAP1 PUSH2 0x160B JUMP JUMPDEST PUSH2 0x4A2 JUMP JUMPDEST STOP JUMPDEST PUSH2 0x1AB PUSH1 0x4 DUP1 CALLDATASIZE SUB DUP2 ADD SWAP1 PUSH2 0x1A6 SWAP2 SWAP1 PUSH2 0x1775 JUMP JUMPDEST PUSH2 0x4B8 JUMP JUMPDEST STOP JUMPDEST PUSH2 0x1C7 PUSH1 0x4 DUP1 CALLDATASIZE SUB DUP2 ADD SWAP1 PUSH2 0x1C2 SWAP2 SWAP1 PUSH2 0x17BC JUMP JUMPDEST PUSH2 0x501 JUMP JUMPDEST STOP JUMPDEST PUSH2 0x1E3 PUSH1 0x4 DUP1 CALLDATASIZE SUB DUP2 ADD SWAP1 PUSH2 0x1DE SWAP2 SWAP1 PUSH2 0x1836 JUMP JUMPDEST PUSH2 0x600 JUMP JUMPDEST STOP JUMPDEST PUSH2 0x1FF PUSH1 0x4 DUP1 CALLDATASIZE SUB DUP2 ADD SWAP1 PUSH2 0x1FA SWAP2 SWAP1 PUSH2 0x17BC JUMP JUMPDEST PUSH2 0x610 JUMP JUMPDEST STOP JUMPDEST PUSH2 0x21B PUSH1 0x4 DUP1 CALLDATASIZE SUB DUP2 ADD SWAP1 PUSH2 0x216 SWAP2 SWAP1 PUSH2 0x155E JUMP JUMPDEST PUSH2 0x62F JUMP JUMPDEST PUSH1 0x40 MLOAD PUSH2 0x228 SWAP2 SWAP1 PUSH2 0x15C8 JUMP JUMPDEST PUSH1 0x40 MLOAD DUP1 SWAP2 SUB SWAP1 RETURN JUMPDEST PUSH2 0x24B PUSH1 0x4 DUP1 CALLDATASIZE SUB DUP2 ADD SWAP1 PUSH2 0x246 SWAP2 SWAP1 PUSH2 0x1886 JUMP JUMPDEST PUSH2 0x640 JUMP JUMPDEST PUSH1 0x40 MLOAD PUSH2 0x258 SWAP2 SWAP1 PUSH2 0x18C0 JUMP JUMPDEST PUSH1 0x40 MLOAD DUP1 SWAP2 SUB SWAP1 RETURN JUMPDEST PUSH2 0x269 PUSH2 0x6F6 JUMP JUMPDEST PUSH1 0x40 MLOAD PUSH2 0x276 SWAP2 SWAP1 PUSH2 0x150B JUMP JUMPDEST PUSH1 0x40 MLOAD DUP1 SWAP2 SUB SWAP1 RETURN JUMPDEST PUSH2 0x299 PUSH1 0x4 DUP1 CALLDATASIZE SUB DUP2 ADD SWAP1 PUSH2 0x294 SWAP2 SWAP1 PUSH2 0x18D9 JUMP JUMPDEST PUSH2 0x786 JUMP JUMPDEST STOP JUMPDEST PUSH2 0x2B5 PUSH1 0x4 DUP1 CALLDATASIZE SUB DUP2 ADD SWAP1 PUSH2 0x2B0 SWAP2 SWAP1 PUSH2 0x19B5 JUMP JUMPDEST PUSH2 0x79C JUMP JUMPDEST STOP JUMPDEST PUSH2 0x2D1 PUSH1 0x4 DUP1 CALLDATASIZE SUB DUP2 ADD SWAP1 PUSH2 0x2CC SWAP2 SWAP1 PUSH2 0x155E JUMP JUMPDEST PUSH2 0x7B9 JUMP JUMPDEST PUSH1 0x40 MLOAD PUSH2 0x2DE SWAP2 SWAP1 PUSH2 0x150B JUMP JUMPDEST PUSH1 0x40 MLOAD DUP1 SWAP2 SUB SWAP1 RETURN JUMPDEST PUSH2 0x301 PUSH1 0x4 DUP1 CALLDATASIZE SUB DUP2 ADD SWAP1 PUSH2 0x2FC SWAP2 SWAP1 PUSH2 0x1A35 JUMP JUMPDEST PUSH2 0x85A JUMP JUMPDEST PUSH1 0x40 MLOAD PUSH2 0x30E SWAP2 SWAP1 PUSH2 0x1468 JUMP JUMPDEST PUSH1 0x40 MLOAD DUP1 SWAP2 SUB SWAP1 RETURN JUMPDEST PUSH0 PUSH32 0x80AC58CD00000000000000000000000000000000000000000000000000000000 PUSH28 0xFFFFFFFFFFFFFFFFFFFFFFFFFFFFFFFFFFFFFFFFFFFFFFFFFFFFFFFF NOT AND DUP3 PUSH28 0xFFFFFFFFFFFFFFFFFFFFFFFFFFFFFFFFFFFFFFFFFFFFFFFFFFFFFFFF NOT AND EQ DUP1 PUSH2 0x3E1 JUMPI POP PUSH32 0x5B5E139F00000000000000000000000000000000000000000000000000000000 PUSH28 0xFFFFFFFFFFFFFFFFFFFFFFFFFFFFFFFFFFFFFFFFFFFFFFFFFFFFFFFF NOT AND DUP3 PUSH28 0xFFFFFFFFFFFFFFFFFFFFFFFFFFFFFFFFFFFFFFFFFFFFFFFFFFFFFFFF NOT AND EQ JUMPDEST DUP1 PUSH2 0x3F1 JUMPI POP PUSH2 0x3F0 DUP3 PUSH2 0x8E8 JUMP JUMPDEST JUMPDEST SWAP1 POP SWAP2 SWAP1 POP JUMP JUMPDEST PUSH1 0x60 PUSH0 DUP1 SLOAD PUSH2 0x406 SWAP1 PUSH2 0x1AA0 JUMP JUMPDEST DUP1 PUSH1 0x1F ADD PUSH1 0x20 DUP1 SWAP2 DIV MUL PUSH1 0x20 ADD PUSH1 0x40 MLOAD SWAP1 DUP2 ADD PUSH1 0x40 MSTORE DUP1 SWAP3 SWAP2 SWAP1 DUP2 DUP2 MSTORE PUSH1 0x20 ADD DUP3 DUP1 SLOAD PUSH2 0x432 SWAP1 PUSH2 0x1AA0 JUMP JUMPDEST DUP1 ISZERO PUSH2 0x47D JUMPI DUP1 PUSH1 0x1F LT PUSH2 0x454 JUMPI PUSH2 0x100 DUP1 DUP4 SLOAD DIV MUL DUP4 MSTORE SWAP2 PUSH1 0x20 ADD SWAP2 PUSH2 0x47D JUMP JUMPDEST DUP3 ADD SWAP2 SWAP1 PUSH0 MSTORE PUSH1 0x20 PUSH0 KECCAK256 SWAP1 JUMPDEST DUP2 SLOAD DUP2 MSTORE SWAP1 PUSH1 0x1 ADD SWAP1 PUSH1 0x20 ADD DUP1 DUP4 GT PUSH2 0x460 JUMPI DUP3 SWAP1 SUB PUSH1 0x1F AND DUP3 ADD SWAP2 JUMPDEST POP POP POP POP POP SWAP1 POP SWAP1 JUMP JUMPDEST PUSH0 PUSH2 0x491 DUP3 PUSH2 0x951 JUMP JUMPDEST POP PUSH2 0x49B DUP3 PUSH2 0x9D7 JUMP JUMPDEST SWAP1 POP SWAP2 SWAP1 POP JUMP JUMPDEST PUSH2 0x4B4 DUP3 DUP3 PUSH2 0x4AF PUSH2 0xA10 JUMP JUMPDEST PUSH2 0xA17 JUMP JUMPDEST POP POP JUMP JUMPDEST DUP1 PUSH1 0x6 PUSH0 PUSH1 0x7 SLOAD DUP2 MSTORE PUSH1 0x20 ADD SWAP1 DUP2 MSTORE PUSH1 0x20 ADD PUSH0 KECCAK256 SWAP1 DUP2 PUSH2 0x4D8 SWAP2 SWAP1 PUSH2 0x1C6D JUMP JUMPDEST POP PUSH2 0x4E5 CALLER PUSH1 0x7 SLOAD PUSH2 0xA29 JUMP JUMPDEST PUSH1 0x1 PUSH1 0x7 PUSH0 DUP3 DUP3 SLOAD PUSH2 0x4F7 SWAP2 SWAP1 PUSH2 0x1D69 JUMP JUMPDEST SWAP3 POP POP DUP2 SWAP1 SSTORE POP POP JUMP JUMPDEST PUSH0 PUSH20 0xFFFFFFFFFFFFFFFFFFFFFFFFFFFFFFFFFFFFFFFF AND DUP3 PUSH20 0xFFFFFFFFFFFFFFFFFFFFFFFFFFFFFFFFFFFFFFFF AND SUB PUSH2 0x571 JUMPI PUSH0 PUSH1 0x40 MLOAD PUSH32 0x64A0AE9200000000000000000000000000000000000000000000000000000000 DUP2 MSTORE PUSH1 0x4 ADD PUSH2 0x568 SWAP2 SWAP1 PUSH2 0x15C8 JUMP JUMPDEST PUSH1 0x40 MLOAD DUP1 SWAP2 SUB SWAP1 REVERT JUMPDEST PUSH0 PUSH2 0x584 DUP4 DUP4 PUSH2 0x57F PUSH2 0xA10 JUMP JUMPDEST PUSH2 0xB1C JUMP JUMPDEST SWAP1 POP DUP4 PUSH20 0xFFFFFFFFFFFFFFFFFFFFFFFFFFFFFFFFFFFFFFFF AND DUP2 PUSH20 0xFFFFFFFFFFFFFFFFFFFFFFFFFFFFFFFFFFFFFFFF AND EQ PUSH2 0x5FA JUMPI DUP4 DUP3 DUP3 PUSH1 0x40 MLOAD PUSH32 0x64283D7B00000000000000000000000000000000000000000000000000000000 DUP2 MSTORE PUSH1 0x4 ADD PUSH2 0x5F1 SWAP4 SWAP3 SWAP2 SWAP1 PUSH2 0x1D9C JUMP JUMPDEST PUSH1 0x40 MLOAD DUP1 SWAP2 SUB SWAP1 REVERT JUMPDEST POP POP POP POP JUMP JUMPDEST PUSH2 0x60B DUP4 DUP4 DUP4 PUSH2 0xD27 JUMP JUMPDEST POP POP POP JUMP JUMPDEST PUSH2 0x62A DUP4 DUP4 DUP4 PUSH1 0x40 MLOAD DUP1 PUSH1 0x20 ADD PUSH1 0x40 MSTORE DUP1 PUSH0 DUP2 MSTORE POP PUSH2 0x79C JUMP JUMPDEST POP POP POP JUMP JUMPDEST PUSH0 PUSH2 0x639 DUP3 PUSH2 0x951 JUMP JUMPDEST SWAP1 POP SWAP2 SWAP1 POP JUMP JUMPDEST PUSH0 DUP1 PUSH20 0xFFFFFFFFFFFFFFFFFFFFFFFFFFFFFFFFFFFFFFFF AND DUP3 PUSH20 0xFFFFFFFFFFFFFFFFFFFFFFFFFFFFFFFFFFFFFFFF AND SUB PUSH2 0x6B1 JUMPI PUSH0 PUSH1 0x40 MLOAD PUSH32 0x89C62B6400000000000000000000000000000000000000000000000000000000 DUP2 MSTORE PUSH1 0x4 ADD PUSH2 0x6A8 SWAP2 SWAP1 PUSH2 0x15C8 JUMP JUMPDEST PUSH1 0x40 MLOAD DUP1 SWAP2 SUB SWAP1 REVERT JUMPDEST PUSH1 0x3 PUSH0 DUP4 PUSH20 0xFFFFFFFFFFFFFFFFFFFFFFFFFFFFFFFFFFFFFFFF AND PUSH20 0xFFFFFFFFFFFFFFFFFFFFFFFFFFFFFFFFFFFFFFFF AND DUP2 MSTORE PUSH1 0x20 ADD SWAP1 DUP2 MSTORE PUSH1 0x20 ADD PUSH0 KECCAK256 SLOAD SWAP1 POP SWAP2 SWAP1 POP JUMP JUMPDEST PUSH1 0x60 PUSH1 0x1 DUP1 SLOAD PUSH2 0x705 SWAP1 PUSH2 0x1AA0 JUMP JUMPDEST DUP1 PUSH1 0x1F ADD PUSH1 0x20 DUP1 SWAP2 DIV MUL PUSH1 0x20 ADD PUSH1 0x40 MLOAD SWAP1 DUP2 ADD PUSH1 0x40 MSTORE DUP1 SWAP3 SWAP2 SWAP1 DUP2 DUP2 MSTORE PUSH1 0x20 ADD DUP3 DUP1 SLOAD PUSH2 0x731 SWAP1 PUSH2 0x1AA0 JUMP JUMPDEST DUP1 ISZERO PUSH2 0x77C JUMPI DUP1 PUSH1 0x1F LT PUSH2 0x753 JUMPI PUSH2 0x100 DUP1 DUP4 SLOAD DIV MUL DUP4 MSTORE SWAP2 PUSH1 0x20 ADD SWAP2 PUSH2 0x77C JUMP JUMPDEST DUP3 ADD SWAP2 SWAP1 PUSH0 MSTORE PUSH1 0x20 PUSH0 KECCAK256 SWAP1 JUMPDEST DUP2 SLOAD DUP2 MSTORE SWAP1 PUSH1 0x1 ADD SWAP1 PUSH1 0x20 ADD DUP1 DUP4 GT PUSH2 0x75F JUMPI DUP3 SWAP1 SUB PUSH1 0x1F AND DUP3 ADD SWAP2 JUMPDEST POP POP POP POP POP SWAP1 POP SWAP1 JUMP JUMPDEST PUSH2 0x798 PUSH2 0x791 PUSH2 0xA10 JUMP JUMPDEST DUP4 DUP4 PUSH2 0xD27 JUMP JUMPDEST POP POP JUMP JUMPDEST PUSH2 0x7A7 DUP5 DUP5 DUP5 PUSH2 0x501 JUMP JUMPDEST PUSH2 0x7B3 DUP5 DUP5 DUP5 DUP5 PUSH2 0xE90 JUMP JUMPDEST POP POP POP POP JUMP JUMPDEST PUSH1 0x60 PUSH1 0x6 PUSH0 DUP4 DUP2 MSTORE PUSH1 0x20 ADD SWAP1 DUP2 MSTORE PUSH1 0x20 ADD PUSH0 KECCAK256 DUP1 SLOAD PUSH2 0x7D7 SWAP1 PUSH2 0x1AA0 JUMP JUMPDEST DUP1 PUSH1 0x1F ADD PUSH1 0x20 DUP1 SWAP2 DIV MUL PUSH1 0x20 ADD PUSH1 0x40 MLOAD SWAP1 DUP2 ADD PUSH1 0x40 MSTORE DUP1 SWAP3 SWAP2 SWAP1 DUP2 DUP2 MSTORE PUSH1 0x20 ADD DUP3 DUP1 SLOAD PUSH2 0x803 SWAP1 PUSH2 0x1AA0 JUMP JUMPDEST DUP1 ISZERO PUSH2 0x84E JUMPI DUP1 PUSH1 0x1F LT PUSH2 0x825 JUMPI PUSH2 0x100 DUP1 DUP4 SLOAD DIV MUL DUP4 MSTORE SWAP2 PUSH1 0x20 ADD SWAP2 PUSH2 0x84E JUMP JUMPDEST DUP3 ADD SWAP2 SWAP1 PUSH0 MSTORE PUSH1 0x20 PUSH0 KECCAK256 SWAP1 JUMPDEST DUP2 SLOAD DUP2 MSTORE SWAP1 PUSH1 0x1 ADD SWAP1 PUSH1 0x20 ADD DUP1 DUP4 GT PUSH2 0x831 JUMPI DUP3 SWAP1 SUB PUSH1 0x1F AND DUP3 ADD SWAP2 JUMPDEST POP POP POP POP POP SWAP1 POP SWAP2 SWAP1 POP JUMP JUMPDEST PUSH0 PUSH1 0x5 PUSH0 DUP5 PUSH20 0xFFFFFFFFFFFFFFFFFFFFFFFFFFFFFFFFFFFFFFFF AND PUSH20 0xFFFFFFFFFFFFFFFFFFFFFFFFFFFFFFFFFFFFFFFF AND DUP2 MSTORE PUSH1 0x20 ADD SWAP1 DUP2 MSTORE PUSH1 0x20 ADD PUSH0 KECCAK256 PUSH0 DUP4 PUSH20 0xFFFFFFFFFFFFFFFFFFFFFFFFFFFFFFFFFFFFFFFF AND PUSH20 0xFFFFFFFFFFFFFFFFFFFFFFFFFFFFFFFFFFFFFFFF AND DUP2 MSTORE PUSH1 0x20 ADD SWAP1 DUP2 MSTORE PUSH1 0x20 ADD PUSH0 KECCAK256 PUSH0 SWAP1 SLOAD SWAP1 PUSH2 0x100 EXP SWAP1 DIV PUSH1 0xFF AND SWAP1 POP SWAP3 SWAP2 POP POP JUMP JUMPDEST PUSH0 PUSH32 0x1FFC9A700000000000000000000000000000000000000000000000000000000 PUSH28 0xFFFFFFFFFFFFFFFFFFFFFFFFFFFFFFFFFFFFFFFFFFFFFFFFFFFFFFFF NOT AND DUP3 PUSH28 0xFFFFFFFFFFFFFFFFFFFFFFFFFFFFFFFFFFFFFFFFFFFFFFFFFFFFFFFF NOT AND EQ SWAP1 POP SWAP2 SWAP1 POP JUMP JUMPDEST PUSH0 DUP1 PUSH2 0x95C DUP4 PUSH2 0x1042 JUMP JUMPDEST SWAP1 POP PUSH0 PUSH20 0xFFFFFFFFFFFFFFFFFFFFFFFFFFFFFFFFFFFFFFFF AND DUP2 PUSH20 0xFFFFFFFFFFFFFFFFFFFFFFFFFFFFFFFFFFFFFFFF AND SUB PUSH2 0x9CE JUMPI DUP3 PUSH1 0x40 MLOAD PUSH32 0x7E27328900000000000000000000000000000000000000000000000000000000 DUP2 MSTORE PUSH1 0x4 ADD PUSH2 0x9C5 SWAP2 SWAP1 PUSH2 0x18C0 JUMP JUMPDEST PUSH1 0x40 MLOAD DUP1 SWAP2 SUB SWAP1 REVERT JUMPDEST DUP1 SWAP2 POP POP SWAP2 SWAP1 POP JUMP JUMPDEST PUSH0 PUSH1 0x4 PUSH0 DUP4 DUP2 MSTORE PUSH1 0x20 ADD SWAP1 DUP2 MSTORE PUSH1 0x20 ADD PUSH0 KECCAK256 PUSH0 SWAP1 SLOAD SWAP1 PUSH2 0x100 EXP SWAP1 DIV PUSH20 0xFFFFFFFFFFFFFFFFFFFFFFFFFFFFFFFFFFFFFFFF AND SWAP1 POP SWAP2 SWAP1 POP JUMP JUMPDEST PUSH0 CALLER SWAP1 POP SWAP1 JUMP JUMPDEST PUSH2 0xA24 DUP4 DUP4 DUP4 PUSH1 0x1 PUSH2 0x107B JUMP JUMPDEST POP POP POP JUMP JUMPDEST PUSH0 PUSH20 0xFFFFFFFFFFFFFFFFFFFFFFFFFFFFFFFFFFFFFFFF AND DUP3 PUSH20 0xFFFFFFFFFFFFFFFFFFFFFFFFFFFFFFFFFFFFFFFF AND SUB PUSH2 0xA99 JUMPI PUSH0 PUSH1 0x40 MLOAD PUSH32 0x64A0AE9200000000000000000000000000000000000000000000000000000000 DUP2 MSTORE PUSH1 0x4 ADD PUSH2 0xA90 SWAP2 SWAP1 PUSH2 0x15C8 JUMP JUMPDEST PUSH1 0x40 MLOAD DUP1 SWAP2 SUB SWAP1 REVERT JUMPDEST PUSH0 PUSH2 0xAA5 DUP4 DUP4 PUSH0 PUSH2 0xB1C JUMP JUMPDEST SWAP1 POP PUSH0 PUSH20 0xFFFFFFFFFFFFFFFFFFFFFFFFFFFFFFFFFFFFFFFF AND DUP2 PUSH20 0xFFFFFFFFFFFFFFFFFFFFFFFFFFFFFFFFFFFFFFFF AND EQ PUSH2 0xB17 JUMPI PUSH0 PUSH1 0x40 MLOAD PUSH32 0x73C6AC6E00000000000000000000000000000000000000000000000000000000 DUP2 MSTORE PUSH1 0x4 ADD PUSH2 0xB0E SWAP2 SWAP1 PUSH2 0x15C8 JUMP JUMPDEST PUSH1 0x40 MLOAD DUP1 SWAP2 SUB SWAP1 REVERT JUMPDEST POP POP POP JUMP JUMPDEST PUSH0 DUP1 PUSH2 0xB27 DUP5 PUSH2 0x1042 JUMP JUMPDEST SWAP1 POP PUSH0 PUSH20 0xFFFFFFFFFFFFFFFFFFFFFFFFFFFFFFFFFFFFFFFF AND DUP4 PUSH20 0xFFFFFFFFFFFFFFFFFFFFFFFFFFFFFFFFFFFFFFFF AND EQ PUSH2 0xB68 JUMPI PUSH2 0xB67 DUP2 DUP5 DUP7 PUSH2 0x123A JUMP JUMPDEST JUMPDEST PUSH0 PUSH20 0xFFFFFFFFFFFFFFFFFFFFFFFFFFFFFFFFFFFFFFFF AND DUP2 PUSH20 0xFFFFFFFFFFFFFFFFFFFFFFFFFFFFFFFFFFFFFFFF AND EQ PUSH2 0xBF3 JUMPI PUSH2 0xBA7 PUSH0 DUP6 PUSH0 DUP1 PUSH2 0x107B JUMP JUMPDEST PUSH1 0x1 PUSH1 0x3 PUSH0 DUP4 PUSH20 0xFFFFFFFFFFFFFFFFFFFFFFFFFFFFFFFFFFFFFFFF AND PUSH20 0xFFFFFFFFFFFFFFFFFFFFFFFFFFFFFFFFFFFFFFFF AND DUP2 MSTORE PUSH1 0x20 ADD SWAP1 DUP2 MSTORE PUSH1 0x20 ADD PUSH0 KECCAK256 PUSH0 DUP3 DUP3 SLOAD SUB SWAP3 POP POP DUP2 SWAP1 SSTORE POP JUMPDEST PUSH0 PUSH20 0xFFFFFFFFFFFFFFFFFFFFFFFFFFFFFFFFFFFFFFFF AND DUP6 PUSH20 0xFFFFFFFFFFFFFFFFFFFFFFFFFFFFFFFFFFFFFFFF AND EQ PUSH2 0xC72 JUMPI PUSH1 0x1 PUSH1 0x3 PUSH0 DUP8 PUSH20 0xFFFFFFFFFFFFFFFFFFFFFFFFFFFFFFFFFFFFFFFF AND PUSH20 0xFFFFFFFFFFFFFFFFFFFFFFFFFFFFFFFFFFFFFFFF AND DUP2 MSTORE PUSH1 0x20 ADD SWAP1 DUP2 MSTORE PUSH1 0x20 ADD PUSH0 KECCAK256 PUSH0 DUP3 DUP3 SLOAD ADD SWAP3 POP POP DUP2 SWAP1 SSTORE POP JUMPDEST DUP5 PUSH1 0x2 PUSH0 DUP7 DUP2 MSTORE PUSH1 0x20 ADD SWAP1 DUP2 MSTORE PUSH1 0x20 ADD PUSH0 KECCAK256 PUSH0 PUSH2 0x100 EXP DUP2 SLOAD DUP2 PUSH20 0xFFFFFFFFFFFFFFFFFFFFFFFFFFFFFFFFFFFFFFFF MUL NOT AND SWAP1 DUP4 PUSH20 0xFFFFFFFFFFFFFFFFFFFFFFFFFFFFFFFFFFFFFFFF AND MUL OR SWAP1 SSTORE POP DUP4 DUP6 PUSH20 0xFFFFFFFFFFFFFFFFFFFFFFFFFFFFFFFFFFFFFFFF AND DUP3 PUSH20 0xFFFFFFFFFFFFFFFFFFFFFFFFFFFFFFFFFFFFFFFF AND PUSH32 0xDDF252AD1BE2C89B69C2B068FC378DAA952BA7F163C4A11628F55A4DF523B3EF PUSH1 0x40 MLOAD PUSH1 0x40 MLOAD DUP1 SWAP2 SUB SWAP1 LOG4 DUP1 SWAP2 POP POP SWAP4 SWAP3 POP POP POP JUMP JUMPDEST PUSH0 PUSH20 0xFFFFFFFFFFFFFFFFFFFFFFFFFFFFFFFFFFFFFFFF AND DUP3 PUSH20 0xFFFFFFFFFFFFFFFFFFFFFFFFFFFFFFFFFFFFFFFF AND SUB PUSH2 0xD97 JUMPI DUP2 PUSH1 0x40 MLOAD PUSH32 0x5B08BA1800000000000000000000000000000000000000000000000000000000 DUP2 MSTORE PUSH1 0x4 ADD PUSH2 0xD8E SWAP2 SWAP1 PUSH2 0x15C8 JUMP JUMPDEST PUSH1 0x40 MLOAD DUP1 SWAP2 SUB SWAP1 REVERT JUMPDEST DUP1 PUSH1 0x5 PUSH0 DUP6 PUSH20 0xFFFFFFFFFFFFFFFFFFFFFFFFFFFFFFFFFFFFFFFF AND PUSH20 0xFFFFFFFFFFFFFFFFFFFFFFFFFFFFFFFFFFFFFFFF AND DUP2 MSTORE PUSH1 0x20 ADD SWAP1 DUP2 MSTORE PUSH1 0x20 ADD PUSH0 KECCAK256 PUSH0 DUP5 PUSH20 0xFFFFFFFFFFFFFFFFFFFFFFFFFFFFFFFFFFFFFFFF AND PUSH20 0xFFFFFFFFFFFFFFFFFFFFFFFFFFFFFFFFFFFFFFFF AND DUP2 MSTORE PUSH1 0x20 ADD SWAP1 DUP2 MSTORE PUSH1 0x20 ADD PUSH0 KECCAK256 PUSH0 PUSH2 0x100 EXP DUP2 SLOAD DUP2 PUSH1 0xFF MUL NOT AND SWAP1 DUP4 ISZERO ISZERO MUL OR SWAP1 SSTORE POP DUP2 PUSH20 0xFFFFFFFFFFFFFFFFFFFFFFFFFFFFFFFFFFFFFFFF AND DUP4 PUSH20 0xFFFFFFFFFFFFFFFFFFFFFFFFFFFFFFFFFFFFFFFF AND PUSH32 0x17307EAB39AB6107E8899845AD3D59BD9653F200F220920489CA2B5937696C31 DUP4 PUSH1 0x40 MLOAD PUSH2 0xE83 SWAP2 SWAP1 PUSH2 0x1468 JUMP JUMPDEST PUSH1 0x40 MLOAD DUP1 SWAP2 SUB SWAP1 LOG3 POP POP POP JUMP JUMPDEST PUSH0 DUP4 PUSH20 0xFFFFFFFFFFFFFFFFFFFFFFFFFFFFFFFFFFFFFFFF AND EXTCODESIZE GT ISZERO PUSH2 0x103C JUMPI DUP3 PUSH20 0xFFFFFFFFFFFFFFFFFFFFFFFFFFFFFFFFFFFFFFFF AND PUSH4 0x150B7A02 PUSH2 0xED3 PUSH2 0xA10 JUMP JUMPDEST DUP7 DUP6 DUP6 PUSH1 0x40 MLOAD DUP6 PUSH4 0xFFFFFFFF AND PUSH1 0xE0 SHL DUP2 MSTORE PUSH1 0x4 ADD PUSH2 0xEF5 SWAP5 SWAP4 SWAP3 SWAP2 SWAP1 PUSH2 0x1E23 JUMP JUMPDEST PUSH1 0x20 PUSH1 0x40 MLOAD DUP1 DUP4 SUB DUP2 PUSH0 DUP8 GAS CALL SWAP3 POP POP POP DUP1 ISZERO PUSH2 0xF30 JUMPI POP PUSH1 0x40 MLOAD RETURNDATASIZE PUSH1 0x1F NOT PUSH1 0x1F DUP3 ADD AND DUP3 ADD DUP1 PUSH1 0x40 MSTORE POP DUP2 ADD SWAP1 PUSH2 0xF2D SWAP2 SWAP1 PUSH2 0x1E81 JUMP JUMPDEST PUSH1 0x1 JUMPDEST PUSH2 0xFB1 JUMPI RETURNDATASIZE DUP1 PUSH0 DUP2 EQ PUSH2 0xF5E JUMPI PUSH1 0x40 MLOAD SWAP2 POP PUSH1 0x1F NOT PUSH1 0x3F RETURNDATASIZE ADD AND DUP3 ADD PUSH1 0x40 MSTORE RETURNDATASIZE DUP3 MSTORE RETURNDATASIZE PUSH0 PUSH1 0x20 DUP5 ADD RETURNDATACOPY PUSH2 0xF63 JUMP JUMPDEST PUSH1 0x60 SWAP2 POP JUMPDEST POP PUSH0 DUP2 MLOAD SUB PUSH2 0xFA9 JUMPI DUP4 PUSH1 0x40 MLOAD PUSH32 0x64A0AE9200000000000000000000000000000000000000000000000000000000 DUP2 MSTORE PUSH1 0x4 ADD PUSH2 0xFA0 SWAP2 SWAP1 PUSH2 0x15C8 JUMP JUMPDEST PUSH1 0x40 MLOAD DUP1 SWAP2 SUB SWAP1 REVERT JUMPDEST DUP1 MLOAD DUP2 PUSH1 0x20 ADD REVERT JUMPDEST PUSH4 0x150B7A02 PUSH1 0xE0 SHL PUSH28 0xFFFFFFFFFFFFFFFFFFFFFFFFFFFFFFFFFFFFFFFFFFFFFFFFFFFFFFFF NOT AND DUP2 PUSH28 0xFFFFFFFFFFFFFFFFFFFFFFFFFFFFFFFFFFFFFFFFFFFFFFFFFFFFFFFF NOT AND EQ PUSH2 0x103A JUMPI DUP4 PUSH1 0x40 MLOAD PUSH32 0x64A0AE9200000000000000000000000000000000000000000000000000000000 DUP2 MSTORE PUSH1 0x4 ADD PUSH2 0x1031 SWAP2 SWAP1 PUSH2 0x15C8 JUMP JUMPDEST PUSH1 0x40 MLOAD DUP1 SWAP2 SUB SWAP1 REVERT JUMPDEST POP JUMPDEST POP POP POP POP JUMP JUMPDEST PUSH0 PUSH1 0x2 PUSH0 DUP4 DUP2 MSTORE PUSH1 0x20 ADD SWAP1 DUP2 MSTORE PUSH1 0x20 ADD PUSH0 KECCAK256 PUSH0 SWAP1 SLOAD SWAP1 PUSH2 0x100 EXP SWAP1 DIV PUSH20 0xFFFFFFFFFFFFFFFFFFFFFFFFFFFFFFFFFFFFFFFF AND SWAP1 POP SWAP2 SWAP1 POP JUMP JUMPDEST DUP1 DUP1 PUSH2 0x10B3 JUMPI POP PUSH0 PUSH20 0xFFFFFFFFFFFFFFFFFFFFFFFFFFFFFFFFFFFFFFFF AND DUP3 PUSH20 0xFFFFFFFFFFFFFFFFFFFFFFFFFFFFFFFFFFFFFFFF AND EQ ISZERO JUMPDEST ISZERO PUSH2 0x11E5 JUMPI PUSH0 PUSH2 0x10C2 DUP5 PUSH2 0x951 JUMP JUMPDEST SWAP1 POP PUSH0 PUSH20 0xFFFFFFFFFFFFFFFFFFFFFFFFFFFFFFFFFFFFFFFF AND DUP4 PUSH20 0xFFFFFFFFFFFFFFFFFFFFFFFFFFFFFFFFFFFFFFFF AND EQ ISZERO DUP1 ISZERO PUSH2 0x112C JUMPI POP DUP3 PUSH20 0xFFFFFFFFFFFFFFFFFFFFFFFFFFFFFFFFFFFFFFFF AND DUP2 PUSH20 0xFFFFFFFFFFFFFFFFFFFFFFFFFFFFFFFFFFFFFFFF AND EQ ISZERO JUMPDEST DUP1 ISZERO PUSH2 0x113F JUMPI POP PUSH2 0x113D DUP2 DUP5 PUSH2 0x85A JUMP JUMPDEST ISZERO JUMPDEST ISZERO PUSH2 0x1181 JUMPI DUP3 PUSH1 0x40 MLOAD PUSH32 0xA9FBF51F00000000000000000000000000000000000000000000000000000000 DUP2 MSTORE PUSH1 0x4 ADD PUSH2 0x1178 SWAP2 SWAP1 PUSH2 0x15C8 JUMP JUMPDEST PUSH1 0x40 MLOAD DUP1 SWAP2 SUB SWAP1 REVERT JUMPDEST DUP2 ISZERO PUSH2 0x11E3 JUMPI DUP4 DUP6 PUSH20 0xFFFFFFFFFFFFFFFFFFFFFFFFFFFFFFFFFFFFFFFF AND DUP3 PUSH20 0xFFFFFFFFFFFFFFFFFFFFFFFFFFFFFFFFFFFFFFFF AND PUSH32 0x8C5BE1E5EBEC7D5BD14F71427D1E84F3DD0314C0F7B2291E5B200AC8C7C3B925 PUSH1 0x40 MLOAD PUSH1 0x40 MLOAD DUP1 SWAP2 SUB SWAP1 LOG4 JUMPDEST POP JUMPDEST DUP4 PUSH1 0x4 PUSH0 DUP6 DUP2 MSTORE PUSH1 0x20 ADD SWAP1 DUP2 MSTORE PUSH1 0x20 ADD PUSH0 KECCAK256 PUSH0 PUSH2 0x100 EXP DUP2 SLOAD DUP2 PUSH20 0xFFFFFFFFFFFFFFFFFFFFFFFFFFFFFFFFFFFFFFFF MUL NOT AND SWAP1 DUP4 PUSH20 0xFFFFFFFFFFFFFFFFFFFFFFFFFFFFFFFFFFFFFFFF AND MUL OR SWAP1 SSTORE POP POP POP POP POP JUMP JUMPDEST PUSH2 0x1245 DUP4 DUP4 DUP4 PUSH2 0x12FD JUMP JUMPDEST PUSH2 0x12F8 JUMPI PUSH0 PUSH20 0xFFFFFFFFFFFFFFFFFFFFFFFFFFFFFFFFFFFFFFFF AND DUP4 PUSH20 0xFFFFFFFFFFFFFFFFFFFFFFFFFFFFFFFFFFFFFFFF AND SUB PUSH2 0x12B9 JUMPI DUP1 PUSH1 0x40 MLOAD PUSH32 0x7E27328900000000000000000000000000000000000000000000000000000000 DUP2 MSTORE PUSH1 0x4 ADD PUSH2 0x12B0 SWAP2 SWAP1 PUSH2 0x18C0 JUMP JUMPDEST PUSH1 0x40 MLOAD DUP1 SWAP2 SUB SWAP1 REVERT JUMPDEST DUP2 DUP2 PUSH1 0x40 MLOAD PUSH32 0x177E802F00000000000000000000000000000000000000000000000000000000 DUP2 MSTORE PUSH1 0x4 ADD PUSH2 0x12EF SWAP3 SWAP2 SWAP1 PUSH2 0x1EAC JUMP JUMPDEST PUSH1 0x40 MLOAD DUP1 SWAP2 SUB SWAP1 REVERT JUMPDEST POP POP POP JUMP JUMPDEST PUSH0 DUP1 PUSH20 0xFFFFFFFFFFFFFFFFFFFFFFFFFFFFFFFFFFFFFFFF AND DUP4 PUSH20 0xFFFFFFFFFFFFFFFFFFFFFFFFFFFFFFFFFFFFFFFF AND EQ ISZERO DUP1 ISZERO PUSH2 0x13B4 JUMPI POP DUP3 PUSH20 0xFFFFFFFFFFFFFFFFFFFFFFFFFFFFFFFFFFFFFFFF AND DUP5 PUSH20 0xFFFFFFFFFFFFFFFFFFFFFFFFFFFFFFFFFFFFFFFF AND EQ DUP1 PUSH2 0x1375 JUMPI POP PUSH2 0x1374 DUP5 DUP5 PUSH2 0x85A JUMP JUMPDEST JUMPDEST DUP1 PUSH2 0x13B3 JUMPI POP DUP3 PUSH20 0xFFFFFFFFFFFFFFFFFFFFFFFFFFFFFFFFFFFFFFFF AND PUSH2 0x139B DUP4 PUSH2 0x9D7 JUMP JUMPDEST PUSH20 0xFFFFFFFFFFFFFFFFFFFFFFFFFFFFFFFFFFFFFFFF AND EQ JUMPDEST JUMPDEST SWAP1 POP SWAP4 SWAP3 POP POP POP JUMP JUMPDEST PUSH0 PUSH1 0x40 MLOAD SWAP1 POP SWAP1 JUMP JUMPDEST PUSH0 DUP1 REVERT JUMPDEST PUSH0 DUP1 REVERT JUMPDEST PUSH0 PUSH32 0xFFFFFFFF00000000000000000000000000000000000000000000000000000000 DUP3 AND SWAP1 POP SWAP2 SWAP1 POP JUMP JUMPDEST PUSH2 0x1402 DUP2 PUSH2 0x13CE JUMP JUMPDEST DUP2 EQ PUSH2 0x140C JUMPI PUSH0 DUP1 REVERT JUMPDEST POP JUMP JUMPDEST PUSH0 DUP2 CALLDATALOAD SWAP1 POP PUSH2 0x141D DUP2 PUSH2 0x13F9 JUMP JUMPDEST SWAP3 SWAP2 POP POP JUMP JUMPDEST PUSH0 PUSH1 0x20 DUP3 DUP5 SUB SLT ISZERO PUSH2 0x1438 JUMPI PUSH2 0x1437 PUSH2 0x13C6 JUMP JUMPDEST JUMPDEST PUSH0 PUSH2 0x1445 DUP5 DUP3 DUP6 ADD PUSH2 0x140F JUMP JUMPDEST SWAP2 POP POP SWAP3 SWAP2 POP POP JUMP JUMPDEST PUSH0 DUP2 ISZERO ISZERO SWAP1 POP SWAP2 SWAP1 POP JUMP JUMPDEST PUSH2 0x1462 DUP2 PUSH2 0x144E JUMP JUMPDEST DUP3 MSTORE POP POP JUMP JUMPDEST PUSH0 PUSH1 0x20 DUP3 ADD SWAP1 POP PUSH2 0x147B PUSH0 DUP4 ADD DUP5 PUSH2 0x1459 JUMP JUMPDEST SWAP3 SWAP2 POP POP JUMP JUMPDEST PUSH0 DUP2 MLOAD SWAP1 POP SWAP2 SWAP1 POP JUMP JUMPDEST PUSH0 DUP3 DUP3 MSTORE PUSH1 0x20 DUP3 ADD SWAP1 POP SWAP3 SWAP2 POP POP JUMP JUMPDEST PUSH0 JUMPDEST DUP4 DUP2 LT ISZERO PUSH2 0x14B8 JUMPI DUP1 DUP3 ADD MLOAD DUP2 DUP5 ADD MSTORE PUSH1 0x20 DUP2 ADD SWAP1 POP PUSH2 0x149D JUMP JUMPDEST PUSH0 DUP5 DUP5 ADD MSTORE POP POP POP POP JUMP JUMPDEST PUSH0 PUSH1 0x1F NOT PUSH1 0x1F DUP4 ADD AND SWAP1 POP SWAP2 SWAP1 POP JUMP JUMPDEST PUSH0 PUSH2 0x14DD DUP3 PUSH2 0x1481 JUMP JUMPDEST PUSH2 0x14E7 DUP2 DUP6 PUSH2 0x148B JUMP JUMPDEST SWAP4 POP PUSH2 0x14F7 DUP2 DUP6 PUSH1 0x20 DUP7 ADD PUSH2 0x149B JUMP JUMPDEST PUSH2 0x1500 DUP2 PUSH2 0x14C3 JUMP JUMPDEST DUP5 ADD SWAP2 POP POP SWAP3 SWAP2 POP POP JUMP JUMPDEST PUSH0 PUSH1 0x20 DUP3 ADD SWAP1 POP DUP2 DUP2 SUB PUSH0 DUP4 ADD MSTORE PUSH2 0x1523 DUP2 DUP5 PUSH2 0x14D3 JUMP JUMPDEST SWAP1 POP SWAP3 SWAP2 POP POP JUMP JUMPDEST PUSH0 DUP2 SWAP1 POP SWAP2 SWAP1 POP JUMP JUMPDEST PUSH2 0x153D DUP2 PUSH2 0x152B JUMP JUMPDEST DUP2 EQ PUSH2 0x1547 JUMPI PUSH0 DUP1 REVERT JUMPDEST POP JUMP JUMPDEST PUSH0 DUP2 CALLDATALOAD SWAP1 POP PUSH2 0x1558 DUP2 PUSH2 0x1534 JUMP JUMPDEST SWAP3 SWAP2 POP POP JUMP JUMPDEST PUSH0 PUSH1 0x20 DUP3 DUP5 SUB SLT ISZERO PUSH2 0x1573 JUMPI PUSH2 0x1572 PUSH2 0x13C6 JUMP JUMPDEST JUMPDEST PUSH0 PUSH2 0x1580 DUP5 DUP3 DUP6 ADD PUSH2 0x154A JUMP JUMPDEST SWAP2 POP POP SWAP3 SWAP2 POP POP JUMP JUMPDEST PUSH0 PUSH20 0xFFFFFFFFFFFFFFFFFFFFFFFFFFFFFFFFFFFFFFFF DUP3 AND SWAP1 POP SWAP2 SWAP1 POP JUMP JUMPDEST PUSH0 PUSH2 0x15B2 DUP3 PUSH2 0x1589 JUMP JUMPDEST SWAP1 POP SWAP2 SWAP1 POP JUMP JUMPDEST PUSH2 0x15C2 DUP2 PUSH2 0x15A8 JUMP JUMPDEST DUP3 MSTORE POP POP JUMP JUMPDEST PUSH0 PUSH1 0x20 DUP3 ADD SWAP1 POP PUSH2 0x15DB PUSH0 DUP4 ADD DUP5 PUSH2 0x15B9 JUMP JUMPDEST SWAP3 SWAP2 POP POP JUMP JUMPDEST PUSH2 0x15EA DUP2 PUSH2 0x15A8 JUMP JUMPDEST DUP2 EQ PUSH2 0x15F4 JUMPI PUSH0 DUP1 REVERT JUMPDEST POP JUMP JUMPDEST PUSH0 DUP2 CALLDATALOAD SWAP1 POP PUSH2 0x1605 DUP2 PUSH2 0x15E1 JUMP JUMPDEST SWAP3 SWAP2 POP POP JUMP JUMPDEST PUSH0 DUP1 PUSH1 0x40 DUP4 DUP6 SUB SLT ISZERO PUSH2 0x1621 JUMPI PUSH2 0x1620 PUSH2 0x13C6 JUMP JUMPDEST JUMPDEST PUSH0 PUSH2 0x162E DUP6 DUP3 DUP7 ADD PUSH2 0x15F7 JUMP JUMPDEST SWAP3 POP POP PUSH1 0x20 PUSH2 0x163F DUP6 DUP3 DUP7 ADD PUSH2 0x154A JUMP JUMPDEST SWAP2 POP POP SWAP3 POP SWAP3 SWAP1 POP JUMP JUMPDEST PUSH0 DUP1 REVERT JUMPDEST PUSH0 DUP1 REVERT JUMPDEST PUSH32 0x4E487B7100000000000000000000000000000000000000000000000000000000 PUSH0 MSTORE PUSH1 0x41 PUSH1 0x4 MSTORE PUSH1 0x24 PUSH0 REVERT JUMPDEST PUSH2 0x1687 DUP3 PUSH2 0x14C3 JUMP JUMPDEST DUP2 ADD DUP2 DUP2 LT PUSH8 0xFFFFFFFFFFFFFFFF DUP3 GT OR ISZERO PUSH2 0x16A6 JUMPI PUSH2 0x16A5 PUSH2 0x1651 JUMP JUMPDEST JUMPDEST DUP1 PUSH1 0x40 MSTORE POP POP POP JUMP JUMPDEST PUSH0 PUSH2 0x16B8 PUSH2 0x13BD JUMP JUMPDEST SWAP1 POP PUSH2 0x16C4 DUP3 DUP3 PUSH2 0x167E JUMP JUMPDEST SWAP2 SWAP1 POP JUMP JUMPDEST PUSH0 PUSH8 0xFFFFFFFFFFFFFFFF DUP3 GT ISZERO PUSH2 0x16E3 JUMPI PUSH2 0x16E2 PUSH2 0x1651 JUMP JUMPDEST JUMPDEST PUSH2 0x16EC DUP3 PUSH2 0x14C3 JUMP JUMPDEST SWAP1 POP PUSH1 0x20 DUP2 ADD SWAP1 POP SWAP2 SWAP1 POP JUMP JUMPDEST DUP3 DUP2 DUP4 CALLDATACOPY PUSH0 DUP4 DUP4 ADD MSTORE POP POP POP JUMP JUMPDEST PUSH0 PUSH2 0x1719 PUSH2 0x1714 DUP5 PUSH2 0x16C9 JUMP JUMPDEST PUSH2 0x16AF JUMP JUMPDEST SWAP1 POP DUP3 DUP2 MSTORE PUSH1 0x20 DUP2 ADD DUP5 DUP5 DUP5 ADD GT ISZERO PUSH2 0x1735 JUMPI PUSH2 0x1734 PUSH2 0x164D JUMP JUMPDEST JUMPDEST PUSH2 0x1740 DUP5 DUP3 DUP6 PUSH2 0x16F9 JUMP JUMPDEST POP SWAP4 SWAP3 POP POP POP JUMP JUMPDEST PUSH0 DUP3 PUSH1 0x1F DUP4 ADD SLT PUSH2 0x175C JUMPI PUSH2 0x175B PUSH2 0x1649 JUMP JUMPDEST JUMPDEST DUP2 CALLDATALOAD PUSH2 0x176C DUP5 DUP3 PUSH1 0x20 DUP7 ADD PUSH2 0x1707 JUMP JUMPDEST SWAP2 POP POP SWAP3 SWAP2 POP POP JUMP JUMPDEST PUSH0 PUSH1 0x20 DUP3 DUP5 SUB SLT ISZERO PUSH2 0x178A JUMPI PUSH2 0x1789 PUSH2 0x13C6 JUMP JUMPDEST JUMPDEST PUSH0 DUP3 ADD CALLDATALOAD PUSH8 0xFFFFFFFFFFFFFFFF DUP2 GT ISZERO PUSH2 0x17A7 JUMPI PUSH2 0x17A6 PUSH2 0x13CA JUMP JUMPDEST JUMPDEST PUSH2 0x17B3 DUP5 DUP3 DUP6 ADD PUSH2 0x1748 JUMP JUMPDEST SWAP2 POP POP SWAP3 SWAP2 POP POP JUMP JUMPDEST PUSH0 DUP1 PUSH0 PUSH1 0x60 DUP5 DUP7 SUB SLT ISZERO PUSH2 0x17D3 JUMPI PUSH2 0x17D2 PUSH2 0x13C6 JUMP JUMPDEST JUMPDEST PUSH0 PUSH2 0x17E0 DUP7 DUP3 DUP8 ADD PUSH2 0x15F7 JUMP JUMPDEST SWAP4 POP POP PUSH1 0x20 PUSH2 0x17F1 DUP7 DUP3 DUP8 ADD PUSH2 0x15F7 JUMP JUMPDEST SWAP3 POP POP PUSH1 0x40 PUSH2 0x1802 DUP7 DUP3 DUP8 ADD PUSH2 0x154A JUMP JUMPDEST SWAP2 POP POP SWAP3 POP SWAP3 POP SWAP3 JUMP JUMPDEST PUSH2 0x1815 DUP2 PUSH2 0x144E JUMP JUMPDEST DUP2 EQ PUSH2 0x181F JUMPI PUSH0 DUP1 REVERT JUMPDEST POP JUMP JUMPDEST PUSH0 DUP2 CALLDATALOAD SWAP1 POP PUSH2 0x1830 DUP2 PUSH2 0x180C JUMP JUMPDEST SWAP3 SWAP2 POP POP JUMP JUMPDEST PUSH0 DUP1 PUSH0 PUSH1 0x60 DUP5 DUP7 SUB SLT ISZERO PUSH2 0x184D JUMPI PUSH2 0x184C PUSH2 0x13C6 JUMP JUMPDEST JUMPDEST PUSH0 PUSH2 0x185A DUP7 DUP3 DUP8 ADD PUSH2 0x15F7 JUMP JUMPDEST SWAP4 POP POP PUSH1 0x20 PUSH2 0x186B DUP7 DUP3 DUP8 ADD PUSH2 0x15F7 JUMP JUMPDEST SWAP3 POP POP PUSH1 0x40 PUSH2 0x187C DUP7 DUP3 DUP8 ADD PUSH2 0x1822 JUMP JUMPDEST SWAP2 POP POP SWAP3 POP SWAP3 POP SWAP3 JUMP JUMPDEST PUSH0 PUSH1 0x20 DUP3 DUP5 SUB SLT ISZERO PUSH2 0x189B JUMPI PUSH2 0x189A PUSH2 0x13C6 JUMP JUMPDEST JUMPDEST PUSH0 PUSH2 0x18A8 DUP5 DUP3 DUP6 ADD PUSH2 0x15F7 JUMP JUMPDEST SWAP2 POP POP SWAP3 SWAP2 POP POP JUMP JUMPDEST PUSH2 0x18BA DUP2 PUSH2 0x152B JUMP JUMPDEST DUP3 MSTORE POP POP JUMP JUMPDEST PUSH0 PUSH1 0x20 DUP3 ADD SWAP1 POP PUSH2 0x18D3 PUSH0 DUP4 ADD DUP5 PUSH2 0x18B1 JUMP JUMPDEST SWAP3 SWAP2 POP POP JUMP JUMPDEST PUSH0 DUP1 PUSH1 0x40 DUP4 DUP6 SUB SLT ISZERO PUSH2 0x18EF JUMPI PUSH2 0x18EE PUSH2 0x13C6 JUMP JUMPDEST JUMPDEST PUSH0 PUSH2 0x18FC DUP6 DUP3 DUP7 ADD PUSH2 0x15F7 JUMP JUMPDEST SWAP3 POP POP PUSH1 0x20 PUSH2 0x190D DUP6 DUP3 DUP7 ADD PUSH2 0x1822 JUMP JUMPDEST SWAP2 POP POP SWAP3 POP SWAP3 SWAP1 POP JUMP JUMPDEST PUSH0 PUSH8 0xFFFFFFFFFFFFFFFF DUP3 GT ISZERO PUSH2 0x1931 JUMPI PUSH2 0x1930 PUSH2 0x1651 JUMP JUMPDEST JUMPDEST PUSH2 0x193A DUP3 PUSH2 0x14C3 JUMP JUMPDEST SWAP1 POP PUSH1 0x20 DUP2 ADD SWAP1 POP SWAP2 SWAP1 POP JUMP JUMPDEST PUSH0 PUSH2 0x1959 PUSH2 0x1954 DUP5 PUSH2 0x1917 JUMP JUMPDEST PUSH2 0x16AF JUMP JUMPDEST SWAP1 POP DUP3 DUP2 MSTORE PUSH1 0x20 DUP2 ADD DUP5 DUP5 DUP5 ADD GT ISZERO PUSH2 0x1975 JUMPI PUSH2 0x1974 PUSH2 0x164D JUMP JUMPDEST JUMPDEST PUSH2 0x1980 DUP5 DUP3 DUP6 PUSH2 0x16F9 JUMP JUMPDEST POP SWAP4 SWAP3 POP POP POP JUMP JUMPDEST PUSH0 DUP3 PUSH1 0x1F DUP4 ADD SLT PUSH2 0x199C JUMPI PUSH2 0x199B PUSH2 0x1649 JUMP JUMPDEST JUMPDEST DUP2 CALLDATALOAD PUSH2 0x19AC DUP5 DUP3 PUSH1 0x20 DUP7 ADD PUSH2 0x1947 JUMP JUMPDEST SWAP2 POP POP SWAP3 SWAP2 POP POP JUMP JUMPDEST PUSH0 DUP1 PUSH0 DUP1 PUSH1 0x80 DUP6 DUP8 SUB SLT ISZERO PUSH2 0x19CD JUMPI PUSH2 0x19CC PUSH2 0x13C6 JUMP JUMPDEST JUMPDEST PUSH0 PUSH2 0x19DA DUP8 DUP3 DUP9 ADD PUSH2 0x15F7 JUMP JUMPDEST SWAP5 POP POP PUSH1 0x20 PUSH2 0x19EB DUP8 DUP3 DUP9 ADD PUSH2 0x15F7 JUMP JUMPDEST SWAP4 POP POP PUSH1 0x40 PUSH2 0x19FC DUP8 DUP3 DUP9 ADD PUSH2 0x154A JUMP JUMPDEST SWAP3 POP POP PUSH1 0x60 DUP6 ADD CALLDATALOAD PUSH8 0xFFFFFFFFFFFFFFFF DUP2 GT ISZERO PUSH2 0x1A1D JUMPI PUSH2 0x1A1C PUSH2 0x13CA JUMP JUMPDEST JUMPDEST PUSH2 0x1A29 DUP8 DUP3 DUP9 ADD PUSH2 0x1988 JUMP JUMPDEST SWAP2 POP POP SWAP3 SWAP6 SWAP2 SWAP5 POP SWAP3 POP JUMP JUMPDEST PUSH0 DUP1 PUSH1 0x40 DUP4 DUP6 SUB SLT ISZERO PUSH2 0x1A4B JUMPI PUSH2 0x1A4A PUSH2 0x13C6 JUMP JUMPDEST JUMPDEST PUSH0 PUSH2 0x1A58 DUP6 DUP3 DUP7 ADD PUSH2 0x15F7 JUMP JUMPDEST SWAP3 POP POP PUSH1 0x20 PUSH2 0x1A69 DUP6 DUP3 DUP7 ADD PUSH2 0x15F7 JUMP JUMPDEST SWAP2 POP POP SWAP3 POP SWAP3 SWAP1 POP JUMP JUMPDEST PUSH32 0x4E487B7100000000000000000000000000000000000000000000000000000000 PUSH0 MSTORE PUSH1 0x22 PUSH1 0x4 MSTORE PUSH1 0x24 PUSH0 REVERT JUMPDEST PUSH0 PUSH1 0x2 DUP3 DIV SWAP1 POP PUSH1 0x1 DUP3 AND DUP1 PUSH2 0x1AB7 JUMPI PUSH1 0x7F DUP3 AND SWAP2 POP JUMPDEST PUSH1 0x20 DUP3 LT DUP2 SUB PUSH2 0x1ACA JUMPI PUSH2 0x1AC9 PUSH2 0x1A73 JUMP JUMPDEST JUMPDEST POP SWAP2 SWAP1 POP JUMP JUMPDEST PUSH0 DUP2 SWAP1 POP DUP2 PUSH0 MSTORE PUSH1 0x20 PUSH0 KECCAK256 SWAP1 POP SWAP2 SWAP1 POP JUMP JUMPDEST PUSH0 PUSH1 0x20 PUSH1 0x1F DUP4 ADD DIV SWAP1 POP SWAP2 SWAP1 POP JUMP JUMPDEST PUSH0 DUP3 DUP3 SHL SWAP1 POP SWAP3 SWAP2 POP POP JUMP JUMPDEST PUSH0 PUSH1 0x8 DUP4 MUL PUSH2 0x1B2C PUSH32 0xFFFFFFFFFFFFFFFFFFFFFFFFFFFFFFFFFFFFFFFFFFFFFFFFFFFFFFFFFFFFFFFF DUP3 PUSH2 0x1AF1 JUMP JUMPDEST PUSH2 0x1B36 DUP7 DUP4 PUSH2 0x1AF1 JUMP JUMPDEST SWAP6 POP DUP1 NOT DUP5 AND SWAP4 POP DUP1 DUP7 AND DUP5 OR SWAP3 POP POP POP SWAP4 SWAP3 POP POP POP JUMP JUMPDEST PUSH0 DUP2 SWAP1 POP SWAP2 SWAP1 POP JUMP JUMPDEST PUSH0 PUSH2 0x1B71 PUSH2 0x1B6C PUSH2 0x1B67 DUP5 PUSH2 0x152B JUMP JUMPDEST PUSH2 0x1B4E JUMP JUMPDEST PUSH2 0x152B JUMP JUMPDEST SWAP1 POP SWAP2 SWAP1 POP JUMP JUMPDEST PUSH0 DUP2 SWAP1 POP SWAP2 SWAP1 POP JUMP JUMPDEST PUSH2 0x1B8A DUP4 PUSH2 0x1B57 JUMP JUMPDEST PUSH2 0x1B9E PUSH2 0x1B96 DUP3 PUSH2 0x1B78 JUMP JUMPDEST DUP5 DUP5 SLOAD PUSH2 0x1AFD JUMP JUMPDEST DUP3 SSTORE POP POP POP POP JUMP JUMPDEST PUSH0 SWAP1 JUMP JUMPDEST PUSH2 0x1BB2 PUSH2 0x1BA6 JUMP JUMPDEST PUSH2 0x1BBD DUP2 DUP5 DUP5 PUSH2 0x1B81 JUMP JUMPDEST POP POP POP JUMP JUMPDEST JUMPDEST DUP2 DUP2 LT ISZERO PUSH2 0x1BE0 JUMPI PUSH2 0x1BD5 PUSH0 DUP3 PUSH2 0x1BAA JUMP JUMPDEST PUSH1 0x1 DUP2 ADD SWAP1 POP PUSH2 0x1BC3 JUMP JUMPDEST POP POP JUMP JUMPDEST PUSH1 0x1F DUP3 GT ISZERO PUSH2 0x1C25 JUMPI PUSH2 0x1BF6 DUP2 PUSH2 0x1AD0 JUMP JUMPDEST PUSH2 0x1BFF DUP5 PUSH2 0x1AE2 JUMP JUMPDEST DUP2 ADD PUSH1 0x20 DUP6 LT ISZERO PUSH2 0x1C0E JUMPI DUP2 SWAP1 POP JUMPDEST PUSH2 0x1C22 PUSH2 0x1C1A DUP6 PUSH2 0x1AE2 JUMP JUMPDEST DUP4 ADD DUP3 PUSH2 0x1BC2 JUMP JUMPDEST POP POP JUMPDEST POP POP POP JUMP JUMPDEST PUSH0 DUP3 DUP3 SHR SWAP1 POP SWAP3 SWAP2 POP POP JUMP JUMPDEST PUSH0 PUSH2 0x1C45 PUSH0 NOT DUP5 PUSH1 0x8 MUL PUSH2 0x1C2A JUMP JUMPDEST NOT DUP1 DUP4 AND SWAP2 POP POP SWAP3 SWAP2 POP POP JUMP JUMPDEST PUSH0 PUSH2 0x1C5D DUP4 DUP4 PUSH2 0x1C36 JUMP JUMPDEST SWAP2 POP DUP3 PUSH1 0x2 MUL DUP3 OR SWAP1 POP SWAP3 SWAP2 POP POP JUMP JUMPDEST PUSH2 0x1C76 DUP3 PUSH2 0x1481 JUMP JUMPDEST PUSH8 0xFFFFFFFFFFFFFFFF DUP2 GT ISZERO PUSH2 0x1C8F JUMPI PUSH2 0x1C8E PUSH2 0x1651 JUMP JUMPDEST JUMPDEST PUSH2 0x1C99 DUP3 SLOAD PUSH2 0x1AA0 JUMP JUMPDEST PUSH2 0x1CA4 DUP3 DUP3 DUP6 PUSH2 0x1BE4 JUMP JUMPDEST PUSH0 PUSH1 0x20 SWAP1 POP PUSH1 0x1F DUP4 GT PUSH1 0x1 DUP2 EQ PUSH2 0x1CD5 JUMPI PUSH0 DUP5 ISZERO PUSH2 0x1CC3 JUMPI DUP3 DUP8 ADD MLOAD SWAP1 POP JUMPDEST PUSH2 0x1CCD DUP6 DUP3 PUSH2 0x1C52 JUMP JUMPDEST DUP7 SSTORE POP PUSH2 0x1D34 JUMP JUMPDEST PUSH1 0x1F NOT DUP5 AND PUSH2 0x1CE3 DUP7 PUSH2 0x1AD0 JUMP JUMPDEST PUSH0 JUMPDEST DUP3 DUP2 LT ISZERO PUSH2 0x1D0A JUMPI DUP5 DUP10 ADD MLOAD DUP3 SSTORE PUSH1 0x1 DUP3 ADD SWAP2 POP PUSH1 0x20 DUP6 ADD SWAP5 POP PUSH1 0x20 DUP2 ADD SWAP1 POP PUSH2 0x1CE5 JUMP JUMPDEST DUP7 DUP4 LT ISZERO PUSH2 0x1D27 JUMPI DUP5 DUP10 ADD MLOAD PUSH2 0x1D23 PUSH1 0x1F DUP10 AND DUP3 PUSH2 0x1C36 JUMP JUMPDEST DUP4 SSTORE POP JUMPDEST PUSH1 0x1 PUSH1 0x2 DUP9 MUL ADD DUP9 SSTORE POP POP POP JUMPDEST POP POP POP POP POP POP JUMP JUMPDEST PUSH32 0x4E487B7100000000000000000000000000000000000000000000000000000000 PUSH0 MSTORE PUSH1 0x11 PUSH1 0x4 MSTORE PUSH1 0x24 PUSH0 REVERT JUMPDEST PUSH0 PUSH2 0x1D73 DUP3 PUSH2 0x152B JUMP JUMPDEST SWAP2 POP PUSH2 0x1D7E DUP4 PUSH2 0x152B JUMP JUMPDEST SWAP3 POP DUP3 DUP3 ADD SWAP1 POP DUP1 DUP3 GT ISZERO PUSH2 0x1D96 JUMPI PUSH2 0x1D95 PUSH2 0x1D3C JUMP JUMPDEST JUMPDEST SWAP3 SWAP2 POP POP JUMP JUMPDEST PUSH0 PUSH1 0x60 DUP3 ADD SWAP1 POP PUSH2 0x1DAF PUSH0 DUP4 ADD DUP7 PUSH2 0x15B9 JUMP JUMPDEST PUSH2 0x1DBC PUSH1 0x20 DUP4 ADD DUP6 PUSH2 0x18B1 JUMP JUMPDEST PUSH2 0x1DC9 PUSH1 0x40 DUP4 ADD DUP5 PUSH2 0x15B9 JUMP JUMPDEST SWAP5 SWAP4 POP POP POP POP JUMP JUMPDEST PUSH0 DUP2 MLOAD SWAP1 POP SWAP2 SWAP1 POP JUMP JUMPDEST PUSH0 DUP3 DUP3 MSTORE PUSH1 0x20 DUP3 ADD SWAP1 POP SWAP3 SWAP2 POP POP JUMP JUMPDEST PUSH0 PUSH2 0x1DF5 DUP3 PUSH2 0x1DD1 JUMP JUMPDEST PUSH2 0x1DFF DUP2 DUP6 PUSH2 0x1DDB JUMP JUMPDEST SWAP4 POP PUSH2 0x1E0F DUP2 DUP6 PUSH1 0x20 DUP7 ADD PUSH2 0x149B JUMP JUMPDEST PUSH2 0x1E18 DUP2 PUSH2 0x14C3 JUMP JUMPDEST DUP5 ADD SWAP2 POP POP SWAP3 SWAP2 POP POP JUMP JUMPDEST PUSH0 PUSH1 0x80 DUP3 ADD SWAP1 POP PUSH2 0x1E36 PUSH0 DUP4 ADD DUP8 PUSH2 0x15B9 JUMP JUMPDEST PUSH2 0x1E43 PUSH1 0x20 DUP4 ADD DUP7 PUSH2 0x15B9 JUMP JUMPDEST PUSH2 0x1E50 PUSH1 0x40 DUP4 ADD DUP6 PUSH2 0x18B1 JUMP JUMPDEST DUP2 DUP2 SUB PUSH1 0x60 DUP4 ADD MSTORE PUSH2 0x1E62 DUP2 DUP5 PUSH2 0x1DEB JUMP JUMPDEST SWAP1 POP SWAP6 SWAP5 POP POP POP POP POP JUMP JUMPDEST PUSH0 DUP2 MLOAD SWAP1 POP PUSH2 0x1E7B DUP2 PUSH2 0x13F9 JUMP JUMPDEST SWAP3 SWAP2 POP POP JUMP JUMPDEST PUSH0 PUSH1 0x20 DUP3 DUP5 SUB SLT ISZERO PUSH2 0x1E96 JUMPI PUSH2 0x1E95 PUSH2 0x13C6 JUMP JUMPDEST JUMPDEST PUSH0 PUSH2 0x1EA3 DUP5 DUP3 DUP6 ADD PUSH2 0x1E6D JUMP JUMPDEST SWAP2 POP POP SWAP3 SWAP2 POP POP JUMP JUMPDEST PUSH0 PUSH1 0x40 DUP3 ADD SWAP1 POP PUSH2 0x1EBF PUSH0 DUP4 ADD DUP6 PUSH2 0x15B9 JUMP JUMPDEST PUSH2 0x1ECC PUSH1 0x20 DUP4 ADD DUP5 PUSH2 0x18B1 JUMP JUMPDEST SWAP4 SWAP3 POP POP POP JUMP INVALID LOG2 PUSH5 0x6970667358 0x22 SLT KECCAK256 CALLCODE DUP1 SWAP11 0xD4 0xA8 SWAP13 CREATE2 GASLIMIT DUP9 CALLDATALOAD CALLCODE 0xDB NOT 0xC7 0xC8 0xC0 0xB9 DUP14 0xBA 0xE5 SLT 0xA9 0xDB 0xA7 0xC5 0xE2 DUP4 JUMP 0xE9 SWAP14 DUP16 DUP8 PUSH5 0x736F6C6343 STOP ADDMOD EQ STOP CALLER "
				},
				"gasEstimates": {
					"creation": {
						"codeDepositCost": "1589000",
						"executionCost": "infinite",
						"totalCost": "infinite"
					},
					"external": {
						"approve(address,uint256)": "infinite",
						"balanceOf(address)": "infinite",
						"getApproved(uint256)": "infinite",
						"isApprovedForAll(address,address)": "infinite",
						"minting(string)": "infinite",
						"name()": "infinite",
						"ownerOf(uint256)": "infinite",
						"safeTransferFrom(address,address,uint256)": "infinite",
						"safeTransferFrom(address,address,uint256,bytes)": "infinite",
						"setAppAll(address,address,bool)": "infinite",
						"setApprovalForAll(address,bool)": "infinite",
						"supportsInterface(bytes4)": "787",
						"symbol()": "infinite",
						"tokenURI(uint256)": "infinite",
						"transferFrom(address,address,uint256)": "infinite"
					},
					"internal": {
						"_baseURI()": "infinite"
					}
				},
				"methodIdentifiers": {
					"approve(address,uint256)": "095ea7b3",
					"balanceOf(address)": "70a08231",
					"getApproved(uint256)": "081812fc",
					"isApprovedForAll(address,address)": "e985e9c5",
					"minting(string)": "0bdc9008",
					"name()": "06fdde03",
					"ownerOf(uint256)": "6352211e",
					"safeTransferFrom(address,address,uint256)": "42842e0e",
					"safeTransferFrom(address,address,uint256,bytes)": "b88d4fde",
					"setAppAll(address,address,bool)": "29d6724e",
					"setApprovalForAll(address,bool)": "a22cb465",
					"supportsInterface(bytes4)": "01ffc9a7",
					"symbol()": "95d89b41",
					"tokenURI(uint256)": "c87b56dd",
					"transferFrom(address,address,uint256)": "23b872dd"
				}
			},
			"storageLayout": {
				"storage": [
					{
						"astId": 254,
						"contract": "myNFT.sol:MyNFT",
						"label": "_name",
						"offset": 0,
						"slot": "0",
						"type": "t_string_storage"
					},
					{
						"astId": 256,
						"contract": "myNFT.sol:MyNFT",
						"label": "_symbol",
						"offset": 0,
						"slot": "1",
						"type": "t_string_storage"
					},
					{
						"astId": 260,
						"contract": "myNFT.sol:MyNFT",
						"label": "_owners",
						"offset": 0,
						"slot": "2",
						"type": "t_mapping(t_uint256,t_address)"
					},
					{
						"astId": 264,
						"contract": "myNFT.sol:MyNFT",
						"label": "_balances",
						"offset": 0,
						"slot": "3",
						"type": "t_mapping(t_address,t_uint256)"
					},
					{
						"astId": 268,
						"contract": "myNFT.sol:MyNFT",
						"label": "_tokenApprovals",
						"offset": 0,
						"slot": "4",
						"type": "t_mapping(t_uint256,t_address)"
					},
					{
						"astId": 274,
						"contract": "myNFT.sol:MyNFT",
						"label": "_operatorApprovals",
						"offset": 0,
						"slot": "5",
						"type": "t_mapping(t_address,t_mapping(t_address,t_bool))"
					},
					{
						"astId": 20,
						"contract": "myNFT.sol:MyNFT",
						"label": "_tokenURIs",
						"offset": 0,
						"slot": "6",
						"type": "t_mapping(t_uint256,t_string_storage)"
					},
					{
						"astId": 23,
						"contract": "myNFT.sol:MyNFT",
						"label": "totalSupply",
						"offset": 0,
						"slot": "7",
						"type": "t_uint256"
					}
				],
				"types": {
					"t_address": {
						"encoding": "inplace",
						"label": "address",
						"numberOfBytes": "20"
					},
					"t_bool": {
						"encoding": "inplace",
						"label": "bool",
						"numberOfBytes": "1"
					},
					"t_mapping(t_address,t_bool)": {
						"encoding": "mapping",
						"key": "t_address",
						"label": "mapping(address => bool)",
						"numberOfBytes": "32",
						"value": "t_bool"
					},
					"t_mapping(t_address,t_mapping(t_address,t_bool))": {
						"encoding": "mapping",
						"key": "t_address",
						"label": "mapping(address => mapping(address => bool))",
						"numberOfBytes": "32",
						"value": "t_mapping(t_address,t_bool)"
					},
					"t_mapping(t_address,t_uint256)": {
						"encoding": "mapping",
						"key": "t_address",
						"label": "mapping(address => uint256)",
						"numberOfBytes": "32",
						"value": "t_uint256"
					},
					"t_mapping(t_uint256,t_address)": {
						"encoding": "mapping",
						"key": "t_uint256",
						"label": "mapping(uint256 => address)",
						"numberOfBytes": "32",
						"value": "t_address"
					},
					"t_mapping(t_uint256,t_string_storage)": {
						"encoding": "mapping",
						"key": "t_uint256",
						"label": "mapping(uint256 => string)",
						"numberOfBytes": "32",
						"value": "t_string_storage"
					},
					"t_string_storage": {
						"encoding": "bytes",
						"label": "string",
						"numberOfBytes": "32"
					},
					"t_uint256": {
						"encoding": "inplace",
						"label": "uint256",
						"numberOfBytes": "32"
					}
				}
			},
			"userdoc": {
				"kind": "user",
				"methods": {},
				"version": 1
			}
		}
	}
}