{
	"contracts/saleNFT.sol": {
		"SaleNFT": {
			"abi": [
				{
					"inputs": [
						{
							"internalType": "address",
							"name": "_nftCA",
							"type": "address"
						}
					],
					"stateMutability": "nonpayable",
					"type": "constructor"
				},
				{
					"inputs": [],
					"name": "_nft",
					"outputs": [
						{
							"internalType": "contract MyNFT",
							"name": "",
							"type": "address"
						}
					],
					"stateMutability": "view",
					"type": "function"
				},
				{
					"inputs": [
						{
							"internalType": "string",
							"name": "url",
							"type": "string"
						}
					],
					"name": "_saleNFTmint",
					"outputs": [],
					"stateMutability": "nonpayable",
					"type": "function"
				},
				{
					"inputs": [],
					"name": "salesNFT",
					"outputs": [
						{
							"internalType": "bool",
							"name": "",
							"type": "bool"
						}
					],
					"stateMutability": "view",
					"type": "function"
				},
				{
					"inputs": [],
					"name": "setApprovalForAll",
					"outputs": [],
					"stateMutability": "nonpayable",
					"type": "function"
				}
			],
			"devdoc": {
				"kind": "dev",
				"methods": {},
				"version": 1
			},
			"evm": {
				"assembly": "    /* \"contracts/saleNFT.sol\":86:1823  contract SaleNFT {... */\n  mstore(0x40, 0x80)\n    /* \"contracts/saleNFT.sol\":384:501  constructor(address _nftCA){... */\n  callvalue\n  dup1\n  iszero\n  tag_1\n  jumpi\n  0x00\n  dup1\n  revert\ntag_1:\n  pop\n  mload(0x40)\n  sub(codesize, bytecodeSize)\n  dup1\n  bytecodeSize\n  dup4\n  codecopy\n  dup2\n  dup2\n  add\n  0x40\n  mstore\n  dup2\n  add\n  swap1\n  tag_2\n  swap2\n  swap1\n  tag_3\n  jump\t// in\ntag_2:\n    /* \"contracts/saleNFT.sol\":435:441  _nftCA */\n  dup1\n    /* \"contracts/saleNFT.sol\":422:426  _nft */\n  0x00\n  dup1\n    /* \"contracts/saleNFT.sol\":422:442  _nft = MyNFT(_nftCA) */\n  0x0100\n  exp\n  dup2\n  sload\n  dup2\n  0xffffffffffffffffffffffffffffffffffffffff\n  mul\n  not\n  and\n  swap1\n  dup4\n  0xffffffffffffffffffffffffffffffffffffffff\n  and\n  mul\n  or\n  swap1\n  sstore\n  pop\n    /* \"contracts/saleNFT.sol\":384:501  constructor(address _nftCA){... */\n  pop\n    /* \"contracts/saleNFT.sol\":86:1823  contract SaleNFT {... */\n  jump(tag_6)\n    /* \"#utility.yul\":88:205   */\ntag_8:\n    /* \"#utility.yul\":197:198   */\n  0x00\n    /* \"#utility.yul\":194:195   */\n  dup1\n    /* \"#utility.yul\":187:199   */\n  revert\n    /* \"#utility.yul\":334:460   */\ntag_10:\n    /* \"#utility.yul\":371:378   */\n  0x00\n    /* \"#utility.yul\":411:453   */\n  0xffffffffffffffffffffffffffffffffffffffff\n    /* \"#utility.yul\":404:409   */\n  dup3\n    /* \"#utility.yul\":400:454   */\n  and\n    /* \"#utility.yul\":389:454   */\n  swap1\n  pop\n    /* \"#utility.yul\":334:460   */\n  swap2\n  swap1\n  pop\n  jump\t// out\n    /* \"#utility.yul\":466:562   */\ntag_11:\n    /* \"#utility.yul\":503:510   */\n  0x00\n    /* \"#utility.yul\":532:556   */\n  tag_20\n    /* \"#utility.yul\":550:555   */\n  dup3\n    /* \"#utility.yul\":532:556   */\n  tag_10\n  jump\t// in\ntag_20:\n    /* \"#utility.yul\":521:556   */\n  swap1\n  pop\n    /* \"#utility.yul\":466:562   */\n  swap2\n  swap1\n  pop\n  jump\t// out\n    /* \"#utility.yul\":568:690   */\ntag_12:\n    /* \"#utility.yul\":641:665   */\n  tag_22\n    /* \"#utility.yul\":659:664   */\n  dup2\n    /* \"#utility.yul\":641:665   */\n  tag_11\n  jump\t// in\ntag_22:\n    /* \"#utility.yul\":634:639   */\n  dup2\n    /* \"#utility.yul\":631:666   */\n  eq\n    /* \"#utility.yul\":621:684   */\n  tag_23\n  jumpi\n    /* \"#utility.yul\":680:681   */\n  0x00\n    /* \"#utility.yul\":677:678   */\n  dup1\n    /* \"#utility.yul\":670:682   */\n  revert\n    /* \"#utility.yul\":621:684   */\ntag_23:\n    /* \"#utility.yul\":568:690   */\n  pop\n  jump\t// out\n    /* \"#utility.yul\":696:839   */\ntag_13:\n    /* \"#utility.yul\":753:758   */\n  0x00\n    /* \"#utility.yul\":784:790   */\n  dup2\n    /* \"#utility.yul\":778:791   */\n  mload\n    /* \"#utility.yul\":769:791   */\n  swap1\n  pop\n    /* \"#utility.yul\":800:833   */\n  tag_25\n    /* \"#utility.yul\":827:832   */\n  dup2\n    /* \"#utility.yul\":800:833   */\n  tag_12\n  jump\t// in\ntag_25:\n    /* \"#utility.yul\":696:839   */\n  swap3\n  swap2\n  pop\n  pop\n  jump\t// out\n    /* \"#utility.yul\":845:1196   */\ntag_3:\n    /* \"#utility.yul\":915:921   */\n  0x00\n    /* \"#utility.yul\":964:966   */\n  0x20\n    /* \"#utility.yul\":952:961   */\n  dup3\n    /* \"#utility.yul\":943:950   */\n  dup5\n    /* \"#utility.yul\":939:962   */\n  sub\n    /* \"#utility.yul\":935:967   */\n  slt\n    /* \"#utility.yul\":932:1051   */\n  iszero\n  tag_27\n  jumpi\n    /* \"#utility.yul\":970:1049   */\n  tag_28\n  tag_8\n  jump\t// in\ntag_28:\n    /* \"#utility.yul\":932:1051   */\ntag_27:\n    /* \"#utility.yul\":1090:1091   */\n  0x00\n    /* \"#utility.yul\":1115:1179   */\n  tag_29\n    /* \"#utility.yul\":1171:1178   */\n  dup5\n    /* \"#utility.yul\":1162:1168   */\n  dup3\n    /* \"#utility.yul\":1151:1160   */\n  dup6\n    /* \"#utility.yul\":1147:1169   */\n  add\n    /* \"#utility.yul\":1115:1179   */\n  tag_13\n  jump\t// in\ntag_29:\n    /* \"#utility.yul\":1105:1179   */\n  swap2\n  pop\n    /* \"#utility.yul\":1061:1189   */\n  pop\n    /* \"#utility.yul\":845:1196   */\n  swap3\n  swap2\n  pop\n  pop\n  jump\t// out\n    /* \"contracts/saleNFT.sol\":86:1823  contract SaleNFT {... */\ntag_6:\n  dataSize(sub_0)\n  dup1\n  dataOffset(sub_0)\n  0x00\n  codecopy\n  0x00\n  return\nstop\n\nsub_0: assembly {\n        /* \"contracts/saleNFT.sol\":86:1823  contract SaleNFT {... */\n      mstore(0x40, 0x80)\n      callvalue\n      dup1\n      iszero\n      tag_1\n      jumpi\n      0x00\n      dup1\n      revert\n    tag_1:\n      pop\n      jumpi(tag_2, lt(calldatasize, 0x04))\n      shr(0xe0, calldataload(0x00))\n      dup1\n      0x6aa5e376\n      eq\n      tag_3\n      jumpi\n      dup1\n      0x98300e18\n      eq\n      tag_4\n      jumpi\n      dup1\n      0xa15db9d0\n      eq\n      tag_5\n      jumpi\n      dup1\n      0xcc9562a5\n      eq\n      tag_6\n      jumpi\n    tag_2:\n      0x00\n      dup1\n      revert\n        /* \"contracts/saleNFT.sol\":1248:1369  function salesNFT() public view returns (bool) {... */\n    tag_3:\n      tag_7\n      tag_8\n      jump\t// in\n    tag_7:\n      mload(0x40)\n      tag_9\n      swap2\n      swap1\n      tag_10\n      jump\t// in\n    tag_9:\n      mload(0x40)\n      dup1\n      swap2\n      sub\n      swap1\n      return\n        /* \"contracts/saleNFT.sol\":294:311  MyNFT public _nft */\n    tag_4:\n      tag_11\n      tag_12\n      jump\t// in\n    tag_11:\n      mload(0x40)\n      tag_13\n      swap2\n      swap1\n      tag_14\n      jump\t// in\n    tag_13:\n      mload(0x40)\n      dup1\n      swap2\n      sub\n      swap1\n      return\n        /* \"contracts/saleNFT.sol\":509:654  function _saleNFTmint(string memory url) public {... */\n    tag_5:\n      tag_15\n      0x04\n      dup1\n      calldatasize\n      sub\n      dup2\n      add\n      swap1\n      tag_16\n      swap2\n      swap1\n      tag_17\n      jump\t// in\n    tag_16:\n      tag_18\n      jump\t// in\n    tag_15:\n      stop\n        /* \"contracts/saleNFT.sol\":835:1055  function setApprovalForAll() public {... */\n    tag_6:\n      tag_19\n      tag_20\n      jump\t// in\n    tag_19:\n      stop\n        /* \"contracts/saleNFT.sol\":1248:1369  function salesNFT() public view returns (bool) {... */\n    tag_8:\n        /* \"contracts/saleNFT.sol\":1289:1293  bool */\n      0x00\n        /* \"contracts/saleNFT.sol\":1313:1317  _nft */\n      dup1\n      0x00\n      swap1\n      sload\n      swap1\n      0x0100\n      exp\n      swap1\n      div\n      0xffffffffffffffffffffffffffffffffffffffff\n      and\n        /* \"contracts/saleNFT.sol\":1313:1334  _nft.isApprovedForAll */\n      0xffffffffffffffffffffffffffffffffffffffff\n      and\n      0xe985e9c5\n        /* \"contracts/saleNFT.sol\":1335:1345  msg.sender */\n      caller\n        /* \"contracts/saleNFT.sol\":1355:1359  this */\n      address\n        /* \"contracts/saleNFT.sol\":1313:1361  _nft.isApprovedForAll(msg.sender, address(this)) */\n      mload(0x40)\n      dup4\n      0xffffffff\n      and\n      0xe0\n      shl\n      dup2\n      mstore\n      0x04\n      add\n      tag_22\n      swap3\n      swap2\n      swap1\n      tag_23\n      jump\t// in\n    tag_22:\n      0x20\n      mload(0x40)\n      dup1\n      dup4\n      sub\n      dup2\n      dup7\n      gas\n      staticcall\n      iszero\n      dup1\n      iszero\n      tag_25\n      jumpi\n      returndatasize\n      0x00\n      dup1\n      returndatacopy\n      revert(0x00, returndatasize)\n    tag_25:\n      pop\n      pop\n      pop\n      pop\n      mload(0x40)\n      returndatasize\n      not(0x1f)\n      0x1f\n      dup3\n      add\n      and\n      dup3\n      add\n      dup1\n      0x40\n      mstore\n      pop\n      dup2\n      add\n      swap1\n      tag_26\n      swap2\n      swap1\n      tag_27\n      jump\t// in\n    tag_26:\n        /* \"contracts/saleNFT.sol\":1306:1361  return _nft.isApprovedForAll(msg.sender, address(this)) */\n      swap1\n      pop\n        /* \"contracts/saleNFT.sol\":1248:1369  function salesNFT() public view returns (bool) {... */\n      swap1\n      jump\t// out\n        /* \"contracts/saleNFT.sol\":294:311  MyNFT public _nft */\n    tag_12:\n      0x00\n      dup1\n      sload\n      swap1\n      0x0100\n      exp\n      swap1\n      div\n      0xffffffffffffffffffffffffffffffffffffffff\n      and\n      dup2\n      jump\t// out\n        /* \"contracts/saleNFT.sol\":509:654  function _saleNFTmint(string memory url) public {... */\n    tag_18:\n        /* \"contracts/saleNFT.sol\":629:633  _nft */\n      0x00\n      dup1\n      sload\n      swap1\n      0x0100\n      exp\n      swap1\n      div\n      0xffffffffffffffffffffffffffffffffffffffff\n      and\n        /* \"contracts/saleNFT.sol\":629:641  _nft.minting */\n      0xffffffffffffffffffffffffffffffffffffffff\n      and\n      0x0bdc9008\n        /* \"contracts/saleNFT.sol\":642:645  url */\n      dup3\n        /* \"contracts/saleNFT.sol\":629:646  _nft.minting(url) */\n      mload(0x40)\n      dup3\n      0xffffffff\n      and\n      0xe0\n      shl\n      dup2\n      mstore\n      0x04\n      add\n      tag_29\n      swap2\n      swap1\n      tag_30\n      jump\t// in\n    tag_29:\n      0x00\n      mload(0x40)\n      dup1\n      dup4\n      sub\n      dup2\n      0x00\n      dup8\n      dup1\n      extcodesize\n      iszero\n      dup1\n      iszero\n      tag_31\n      jumpi\n      0x00\n      dup1\n      revert\n    tag_31:\n      pop\n      gas\n      call\n      iszero\n      dup1\n      iszero\n      tag_33\n      jumpi\n      returndatasize\n      0x00\n      dup1\n      returndatacopy\n      revert(0x00, returndatasize)\n    tag_33:\n      pop\n      pop\n      pop\n      pop\n        /* \"contracts/saleNFT.sol\":509:654  function _saleNFTmint(string memory url) public {... */\n      pop\n      jump\t// out\n        /* \"contracts/saleNFT.sol\":835:1055  function setApprovalForAll() public {... */\n    tag_20:\n        /* \"contracts/saleNFT.sol\":1000:1004  _nft */\n      0x00\n      dup1\n      sload\n      swap1\n      0x0100\n      exp\n      swap1\n      div\n      0xffffffffffffffffffffffffffffffffffffffff\n      and\n        /* \"contracts/saleNFT.sol\":1000:1014  _nft.setAppAll */\n      0xffffffffffffffffffffffffffffffffffffffff\n      and\n      0x29d6724e\n        /* \"contracts/saleNFT.sol\":1015:1025  msg.sender */\n      caller\n        /* \"contracts/saleNFT.sol\":1035:1039  this */\n      address\n        /* \"contracts/saleNFT.sol\":1042:1046  true */\n      0x01\n        /* \"contracts/saleNFT.sol\":1000:1047  _nft.setAppAll(msg.sender, address(this), true) */\n      mload(0x40)\n      dup5\n      0xffffffff\n      and\n      0xe0\n      shl\n      dup2\n      mstore\n      0x04\n      add\n      tag_35\n      swap4\n      swap3\n      swap2\n      swap1\n      tag_36\n      jump\t// in\n    tag_35:\n      0x00\n      mload(0x40)\n      dup1\n      dup4\n      sub\n      dup2\n      0x00\n      dup8\n      dup1\n      extcodesize\n      iszero\n      dup1\n      iszero\n      tag_37\n      jumpi\n      0x00\n      dup1\n      revert\n    tag_37:\n      pop\n      gas\n      call\n      iszero\n      dup1\n      iszero\n      tag_39\n      jumpi\n      returndatasize\n      0x00\n      dup1\n      returndatacopy\n      revert(0x00, returndatasize)\n    tag_39:\n      pop\n      pop\n      pop\n      pop\n        /* \"contracts/saleNFT.sol\":835:1055  function setApprovalForAll() public {... */\n      jump\t// out\n        /* \"#utility.yul\":7:97   */\n    tag_40:\n        /* \"#utility.yul\":41:48   */\n      0x00\n        /* \"#utility.yul\":84:89   */\n      dup2\n        /* \"#utility.yul\":77:90   */\n      iszero\n        /* \"#utility.yul\":70:91   */\n      iszero\n        /* \"#utility.yul\":59:91   */\n      swap1\n      pop\n        /* \"#utility.yul\":7:97   */\n      swap2\n      swap1\n      pop\n      jump\t// out\n        /* \"#utility.yul\":103:212   */\n    tag_41:\n        /* \"#utility.yul\":184:205   */\n      tag_72\n        /* \"#utility.yul\":199:204   */\n      dup2\n        /* \"#utility.yul\":184:205   */\n      tag_40\n      jump\t// in\n    tag_72:\n        /* \"#utility.yul\":179:182   */\n      dup3\n        /* \"#utility.yul\":172:206   */\n      mstore\n        /* \"#utility.yul\":103:212   */\n      pop\n      pop\n      jump\t// out\n        /* \"#utility.yul\":218:428   */\n    tag_10:\n        /* \"#utility.yul\":305:309   */\n      0x00\n        /* \"#utility.yul\":343:345   */\n      0x20\n        /* \"#utility.yul\":332:341   */\n      dup3\n        /* \"#utility.yul\":328:346   */\n      add\n        /* \"#utility.yul\":320:346   */\n      swap1\n      pop\n        /* \"#utility.yul\":356:421   */\n      tag_74\n        /* \"#utility.yul\":418:419   */\n      0x00\n        /* \"#utility.yul\":407:416   */\n      dup4\n        /* \"#utility.yul\":403:420   */\n      add\n        /* \"#utility.yul\":394:400   */\n      dup5\n        /* \"#utility.yul\":356:421   */\n      tag_41\n      jump\t// in\n    tag_74:\n        /* \"#utility.yul\":218:428   */\n      swap3\n      swap2\n      pop\n      pop\n      jump\t// out\n        /* \"#utility.yul\":434:560   */\n    tag_42:\n        /* \"#utility.yul\":471:478   */\n      0x00\n        /* \"#utility.yul\":511:553   */\n      0xffffffffffffffffffffffffffffffffffffffff\n        /* \"#utility.yul\":504:509   */\n      dup3\n        /* \"#utility.yul\":500:554   */\n      and\n        /* \"#utility.yul\":489:554   */\n      swap1\n      pop\n        /* \"#utility.yul\":434:560   */\n      swap2\n      swap1\n      pop\n      jump\t// out\n        /* \"#utility.yul\":566:626   */\n    tag_43:\n        /* \"#utility.yul\":594:597   */\n      0x00\n        /* \"#utility.yul\":615:620   */\n      dup2\n        /* \"#utility.yul\":608:620   */\n      swap1\n      pop\n        /* \"#utility.yul\":566:626   */\n      swap2\n      swap1\n      pop\n      jump\t// out\n        /* \"#utility.yul\":632:774   */\n    tag_44:\n        /* \"#utility.yul\":682:691   */\n      0x00\n        /* \"#utility.yul\":715:768   */\n      tag_78\n        /* \"#utility.yul\":733:767   */\n      tag_79\n        /* \"#utility.yul\":742:766   */\n      tag_80\n        /* \"#utility.yul\":760:765   */\n      dup5\n        /* \"#utility.yul\":742:766   */\n      tag_42\n      jump\t// in\n    tag_80:\n        /* \"#utility.yul\":733:767   */\n      tag_43\n      jump\t// in\n    tag_79:\n        /* \"#utility.yul\":715:768   */\n      tag_42\n      jump\t// in\n    tag_78:\n        /* \"#utility.yul\":702:768   */\n      swap1\n      pop\n        /* \"#utility.yul\":632:774   */\n      swap2\n      swap1\n      pop\n      jump\t// out\n        /* \"#utility.yul\":780:906   */\n    tag_45:\n        /* \"#utility.yul\":830:839   */\n      0x00\n        /* \"#utility.yul\":863:900   */\n      tag_82\n        /* \"#utility.yul\":894:899   */\n      dup3\n        /* \"#utility.yul\":863:900   */\n      tag_44\n      jump\t// in\n    tag_82:\n        /* \"#utility.yul\":850:900   */\n      swap1\n      pop\n        /* \"#utility.yul\":780:906   */\n      swap2\n      swap1\n      pop\n      jump\t// out\n        /* \"#utility.yul\":912:1051   */\n    tag_46:\n        /* \"#utility.yul\":975:984   */\n      0x00\n        /* \"#utility.yul\":1008:1045   */\n      tag_84\n        /* \"#utility.yul\":1039:1044   */\n      dup3\n        /* \"#utility.yul\":1008:1045   */\n      tag_45\n      jump\t// in\n    tag_84:\n        /* \"#utility.yul\":995:1045   */\n      swap1\n      pop\n        /* \"#utility.yul\":912:1051   */\n      swap2\n      swap1\n      pop\n      jump\t// out\n        /* \"#utility.yul\":1057:1214   */\n    tag_47:\n        /* \"#utility.yul\":1157:1207   */\n      tag_86\n        /* \"#utility.yul\":1201:1206   */\n      dup2\n        /* \"#utility.yul\":1157:1207   */\n      tag_46\n      jump\t// in\n    tag_86:\n        /* \"#utility.yul\":1152:1155   */\n      dup3\n        /* \"#utility.yul\":1145:1208   */\n      mstore\n        /* \"#utility.yul\":1057:1214   */\n      pop\n      pop\n      jump\t// out\n        /* \"#utility.yul\":1220:1468   */\n    tag_14:\n        /* \"#utility.yul\":1326:1330   */\n      0x00\n        /* \"#utility.yul\":1364:1366   */\n      0x20\n        /* \"#utility.yul\":1353:1362   */\n      dup3\n        /* \"#utility.yul\":1349:1367   */\n      add\n        /* \"#utility.yul\":1341:1367   */\n      swap1\n      pop\n        /* \"#utility.yul\":1377:1461   */\n      tag_88\n        /* \"#utility.yul\":1458:1459   */\n      0x00\n        /* \"#utility.yul\":1447:1456   */\n      dup4\n        /* \"#utility.yul\":1443:1460   */\n      add\n        /* \"#utility.yul\":1434:1440   */\n      dup5\n        /* \"#utility.yul\":1377:1461   */\n      tag_47\n      jump\t// in\n    tag_88:\n        /* \"#utility.yul\":1220:1468   */\n      swap3\n      swap2\n      pop\n      pop\n      jump\t// out\n        /* \"#utility.yul\":1474:1549   */\n    tag_48:\n        /* \"#utility.yul\":1507:1513   */\n      0x00\n        /* \"#utility.yul\":1540:1542   */\n      0x40\n        /* \"#utility.yul\":1534:1543   */\n      mload\n        /* \"#utility.yul\":1524:1543   */\n      swap1\n      pop\n        /* \"#utility.yul\":1474:1549   */\n      swap1\n      jump\t// out\n        /* \"#utility.yul\":1555:1672   */\n    tag_49:\n        /* \"#utility.yul\":1664:1665   */\n      0x00\n        /* \"#utility.yul\":1661:1662   */\n      dup1\n        /* \"#utility.yul\":1654:1666   */\n      revert\n        /* \"#utility.yul\":1678:1795   */\n    tag_50:\n        /* \"#utility.yul\":1787:1788   */\n      0x00\n        /* \"#utility.yul\":1784:1785   */\n      dup1\n        /* \"#utility.yul\":1777:1789   */\n      revert\n        /* \"#utility.yul\":1801:1918   */\n    tag_51:\n        /* \"#utility.yul\":1910:1911   */\n      0x00\n        /* \"#utility.yul\":1907:1908   */\n      dup1\n        /* \"#utility.yul\":1900:1912   */\n      revert\n        /* \"#utility.yul\":1924:2041   */\n    tag_52:\n        /* \"#utility.yul\":2033:2034   */\n      0x00\n        /* \"#utility.yul\":2030:2031   */\n      dup1\n        /* \"#utility.yul\":2023:2035   */\n      revert\n        /* \"#utility.yul\":2047:2149   */\n    tag_53:\n        /* \"#utility.yul\":2088:2094   */\n      0x00\n        /* \"#utility.yul\":2139:2141   */\n      0x1f\n        /* \"#utility.yul\":2135:2142   */\n      not\n        /* \"#utility.yul\":2130:2132   */\n      0x1f\n        /* \"#utility.yul\":2123:2128   */\n      dup4\n        /* \"#utility.yul\":2119:2133   */\n      add\n        /* \"#utility.yul\":2115:2143   */\n      and\n        /* \"#utility.yul\":2105:2143   */\n      swap1\n      pop\n        /* \"#utility.yul\":2047:2149   */\n      swap2\n      swap1\n      pop\n      jump\t// out\n        /* \"#utility.yul\":2155:2335   */\n    tag_54:\n        /* \"#utility.yul\":2203:2280   */\n      0x4e487b7100000000000000000000000000000000000000000000000000000000\n        /* \"#utility.yul\":2200:2201   */\n      0x00\n        /* \"#utility.yul\":2193:2281   */\n      mstore\n        /* \"#utility.yul\":2300:2304   */\n      0x41\n        /* \"#utility.yul\":2297:2298   */\n      0x04\n        /* \"#utility.yul\":2290:2305   */\n      mstore\n        /* \"#utility.yul\":2324:2328   */\n      0x24\n        /* \"#utility.yul\":2321:2322   */\n      0x00\n        /* \"#utility.yul\":2314:2329   */\n      revert\n        /* \"#utility.yul\":2341:2622   */\n    tag_55:\n        /* \"#utility.yul\":2424:2451   */\n      tag_97\n        /* \"#utility.yul\":2446:2450   */\n      dup3\n        /* \"#utility.yul\":2424:2451   */\n      tag_53\n      jump\t// in\n    tag_97:\n        /* \"#utility.yul\":2416:2422   */\n      dup2\n        /* \"#utility.yul\":2412:2452   */\n      add\n        /* \"#utility.yul\":2554:2560   */\n      dup2\n        /* \"#utility.yul\":2542:2552   */\n      dup2\n        /* \"#utility.yul\":2539:2561   */\n      lt\n        /* \"#utility.yul\":2518:2536   */\n      0xffffffffffffffff\n        /* \"#utility.yul\":2506:2516   */\n      dup3\n        /* \"#utility.yul\":2503:2537   */\n      gt\n        /* \"#utility.yul\":2500:2562   */\n      or\n        /* \"#utility.yul\":2497:2585   */\n      iszero\n      tag_98\n      jumpi\n        /* \"#utility.yul\":2565:2583   */\n      tag_99\n      tag_54\n      jump\t// in\n    tag_99:\n        /* \"#utility.yul\":2497:2585   */\n    tag_98:\n        /* \"#utility.yul\":2605:2615   */\n      dup1\n        /* \"#utility.yul\":2601:2603   */\n      0x40\n        /* \"#utility.yul\":2594:2616   */\n      mstore\n        /* \"#utility.yul\":2384:2622   */\n      pop\n        /* \"#utility.yul\":2341:2622   */\n      pop\n      pop\n      jump\t// out\n        /* \"#utility.yul\":2628:2757   */\n    tag_56:\n        /* \"#utility.yul\":2662:2668   */\n      0x00\n        /* \"#utility.yul\":2689:2709   */\n      tag_101\n      tag_48\n      jump\t// in\n    tag_101:\n        /* \"#utility.yul\":2679:2709   */\n      swap1\n      pop\n        /* \"#utility.yul\":2718:2751   */\n      tag_102\n        /* \"#utility.yul\":2746:2750   */\n      dup3\n        /* \"#utility.yul\":2738:2744   */\n      dup3\n        /* \"#utility.yul\":2718:2751   */\n      tag_55\n      jump\t// in\n    tag_102:\n        /* \"#utility.yul\":2628:2757   */\n      swap2\n      swap1\n      pop\n      jump\t// out\n        /* \"#utility.yul\":2763:3071   */\n    tag_57:\n        /* \"#utility.yul\":2825:2829   */\n      0x00\n        /* \"#utility.yul\":2915:2933   */\n      0xffffffffffffffff\n        /* \"#utility.yul\":2907:2913   */\n      dup3\n        /* \"#utility.yul\":2904:2934   */\n      gt\n        /* \"#utility.yul\":2901:2957   */\n      iszero\n      tag_104\n      jumpi\n        /* \"#utility.yul\":2937:2955   */\n      tag_105\n      tag_54\n      jump\t// in\n    tag_105:\n        /* \"#utility.yul\":2901:2957   */\n    tag_104:\n        /* \"#utility.yul\":2975:3004   */\n      tag_106\n        /* \"#utility.yul\":2997:3003   */\n      dup3\n        /* \"#utility.yul\":2975:3004   */\n      tag_53\n      jump\t// in\n    tag_106:\n        /* \"#utility.yul\":2967:3004   */\n      swap1\n      pop\n        /* \"#utility.yul\":3059:3063   */\n      0x20\n        /* \"#utility.yul\":3053:3057   */\n      dup2\n        /* \"#utility.yul\":3049:3064   */\n      add\n        /* \"#utility.yul\":3041:3064   */\n      swap1\n      pop\n        /* \"#utility.yul\":2763:3071   */\n      swap2\n      swap1\n      pop\n      jump\t// out\n        /* \"#utility.yul\":3077:3223   */\n    tag_58:\n        /* \"#utility.yul\":3174:3180   */\n      dup3\n        /* \"#utility.yul\":3169:3172   */\n      dup2\n        /* \"#utility.yul\":3164:3167   */\n      dup4\n        /* \"#utility.yul\":3151:3181   */\n      calldatacopy\n        /* \"#utility.yul\":3215:3216   */\n      0x00\n        /* \"#utility.yul\":3206:3212   */\n      dup4\n        /* \"#utility.yul\":3201:3204   */\n      dup4\n        /* \"#utility.yul\":3197:3213   */\n      add\n        /* \"#utility.yul\":3190:3217   */\n      mstore\n        /* \"#utility.yul\":3077:3223   */\n      pop\n      pop\n      pop\n      jump\t// out\n        /* \"#utility.yul\":3229:3654   */\n    tag_59:\n        /* \"#utility.yul\":3307:3312   */\n      0x00\n        /* \"#utility.yul\":3332:3398   */\n      tag_109\n        /* \"#utility.yul\":3348:3397   */\n      tag_110\n        /* \"#utility.yul\":3390:3396   */\n      dup5\n        /* \"#utility.yul\":3348:3397   */\n      tag_57\n      jump\t// in\n    tag_110:\n        /* \"#utility.yul\":3332:3398   */\n      tag_56\n      jump\t// in\n    tag_109:\n        /* \"#utility.yul\":3323:3398   */\n      swap1\n      pop\n        /* \"#utility.yul\":3421:3427   */\n      dup3\n        /* \"#utility.yul\":3414:3419   */\n      dup2\n        /* \"#utility.yul\":3407:3428   */\n      mstore\n        /* \"#utility.yul\":3459:3463   */\n      0x20\n        /* \"#utility.yul\":3452:3457   */\n      dup2\n        /* \"#utility.yul\":3448:3464   */\n      add\n        /* \"#utility.yul\":3497:3500   */\n      dup5\n        /* \"#utility.yul\":3488:3494   */\n      dup5\n        /* \"#utility.yul\":3483:3486   */\n      dup5\n        /* \"#utility.yul\":3479:3495   */\n      add\n        /* \"#utility.yul\":3476:3501   */\n      gt\n        /* \"#utility.yul\":3473:3585   */\n      iszero\n      tag_111\n      jumpi\n        /* \"#utility.yul\":3504:3583   */\n      tag_112\n      tag_52\n      jump\t// in\n    tag_112:\n        /* \"#utility.yul\":3473:3585   */\n    tag_111:\n        /* \"#utility.yul\":3594:3648   */\n      tag_113\n        /* \"#utility.yul\":3641:3647   */\n      dup5\n        /* \"#utility.yul\":3636:3639   */\n      dup3\n        /* \"#utility.yul\":3631:3634   */\n      dup6\n        /* \"#utility.yul\":3594:3648   */\n      tag_58\n      jump\t// in\n    tag_113:\n        /* \"#utility.yul\":3313:3654   */\n      pop\n        /* \"#utility.yul\":3229:3654   */\n      swap4\n      swap3\n      pop\n      pop\n      pop\n      jump\t// out\n        /* \"#utility.yul\":3674:4014   */\n    tag_60:\n        /* \"#utility.yul\":3730:3735   */\n      0x00\n        /* \"#utility.yul\":3779:3782   */\n      dup3\n        /* \"#utility.yul\":3772:3776   */\n      0x1f\n        /* \"#utility.yul\":3764:3770   */\n      dup4\n        /* \"#utility.yul\":3760:3777   */\n      add\n        /* \"#utility.yul\":3756:3783   */\n      slt\n        /* \"#utility.yul\":3746:3868   */\n      tag_115\n      jumpi\n        /* \"#utility.yul\":3787:3866   */\n      tag_116\n      tag_51\n      jump\t// in\n    tag_116:\n        /* \"#utility.yul\":3746:3868   */\n    tag_115:\n        /* \"#utility.yul\":3904:3910   */\n      dup2\n        /* \"#utility.yul\":3891:3911   */\n      calldataload\n        /* \"#utility.yul\":3929:4008   */\n      tag_117\n        /* \"#utility.yul\":4004:4007   */\n      dup5\n        /* \"#utility.yul\":3996:4002   */\n      dup3\n        /* \"#utility.yul\":3989:3993   */\n      0x20\n        /* \"#utility.yul\":3981:3987   */\n      dup7\n        /* \"#utility.yul\":3977:3994   */\n      add\n        /* \"#utility.yul\":3929:4008   */\n      tag_59\n      jump\t// in\n    tag_117:\n        /* \"#utility.yul\":3920:4008   */\n      swap2\n      pop\n        /* \"#utility.yul\":3736:4014   */\n      pop\n        /* \"#utility.yul\":3674:4014   */\n      swap3\n      swap2\n      pop\n      pop\n      jump\t// out\n        /* \"#utility.yul\":4020:4529   */\n    tag_17:\n        /* \"#utility.yul\":4089:4095   */\n      0x00\n        /* \"#utility.yul\":4138:4140   */\n      0x20\n        /* \"#utility.yul\":4126:4135   */\n      dup3\n        /* \"#utility.yul\":4117:4124   */\n      dup5\n        /* \"#utility.yul\":4113:4136   */\n      sub\n        /* \"#utility.yul\":4109:4141   */\n      slt\n        /* \"#utility.yul\":4106:4225   */\n      iszero\n      tag_119\n      jumpi\n        /* \"#utility.yul\":4144:4223   */\n      tag_120\n      tag_49\n      jump\t// in\n    tag_120:\n        /* \"#utility.yul\":4106:4225   */\n    tag_119:\n        /* \"#utility.yul\":4292:4293   */\n      0x00\n        /* \"#utility.yul\":4281:4290   */\n      dup3\n        /* \"#utility.yul\":4277:4294   */\n      add\n        /* \"#utility.yul\":4264:4295   */\n      calldataload\n        /* \"#utility.yul\":4322:4340   */\n      0xffffffffffffffff\n        /* \"#utility.yul\":4314:4320   */\n      dup2\n        /* \"#utility.yul\":4311:4341   */\n      gt\n        /* \"#utility.yul\":4308:4425   */\n      iszero\n      tag_121\n      jumpi\n        /* \"#utility.yul\":4344:4423   */\n      tag_122\n      tag_50\n      jump\t// in\n    tag_122:\n        /* \"#utility.yul\":4308:4425   */\n    tag_121:\n        /* \"#utility.yul\":4449:4512   */\n      tag_123\n        /* \"#utility.yul\":4504:4511   */\n      dup5\n        /* \"#utility.yul\":4495:4501   */\n      dup3\n        /* \"#utility.yul\":4484:4493   */\n      dup6\n        /* \"#utility.yul\":4480:4502   */\n      add\n        /* \"#utility.yul\":4449:4512   */\n      tag_60\n      jump\t// in\n    tag_123:\n        /* \"#utility.yul\":4439:4512   */\n      swap2\n      pop\n        /* \"#utility.yul\":4235:4522   */\n      pop\n        /* \"#utility.yul\":4020:4529   */\n      swap3\n      swap2\n      pop\n      pop\n      jump\t// out\n        /* \"#utility.yul\":4535:4631   */\n    tag_61:\n        /* \"#utility.yul\":4572:4579   */\n      0x00\n        /* \"#utility.yul\":4601:4625   */\n      tag_125\n        /* \"#utility.yul\":4619:4624   */\n      dup3\n        /* \"#utility.yul\":4601:4625   */\n      tag_42\n      jump\t// in\n    tag_125:\n        /* \"#utility.yul\":4590:4625   */\n      swap1\n      pop\n        /* \"#utility.yul\":4535:4631   */\n      swap2\n      swap1\n      pop\n      jump\t// out\n        /* \"#utility.yul\":4637:4755   */\n    tag_62:\n        /* \"#utility.yul\":4724:4748   */\n      tag_127\n        /* \"#utility.yul\":4742:4747   */\n      dup2\n        /* \"#utility.yul\":4724:4748   */\n      tag_61\n      jump\t// in\n    tag_127:\n        /* \"#utility.yul\":4719:4722   */\n      dup3\n        /* \"#utility.yul\":4712:4749   */\n      mstore\n        /* \"#utility.yul\":4637:4755   */\n      pop\n      pop\n      jump\t// out\n        /* \"#utility.yul\":4761:5093   */\n    tag_23:\n        /* \"#utility.yul\":4882:4886   */\n      0x00\n        /* \"#utility.yul\":4920:4922   */\n      0x40\n        /* \"#utility.yul\":4909:4918   */\n      dup3\n        /* \"#utility.yul\":4905:4923   */\n      add\n        /* \"#utility.yul\":4897:4923   */\n      swap1\n      pop\n        /* \"#utility.yul\":4933:5004   */\n      tag_129\n        /* \"#utility.yul\":5001:5002   */\n      0x00\n        /* \"#utility.yul\":4990:4999   */\n      dup4\n        /* \"#utility.yul\":4986:5003   */\n      add\n        /* \"#utility.yul\":4977:4983   */\n      dup6\n        /* \"#utility.yul\":4933:5004   */\n      tag_62\n      jump\t// in\n    tag_129:\n        /* \"#utility.yul\":5014:5086   */\n      tag_130\n        /* \"#utility.yul\":5082:5084   */\n      0x20\n        /* \"#utility.yul\":5071:5080   */\n      dup4\n        /* \"#utility.yul\":5067:5085   */\n      add\n        /* \"#utility.yul\":5058:5064   */\n      dup5\n        /* \"#utility.yul\":5014:5086   */\n      tag_62\n      jump\t// in\n    tag_130:\n        /* \"#utility.yul\":4761:5093   */\n      swap4\n      swap3\n      pop\n      pop\n      pop\n      jump\t// out\n        /* \"#utility.yul\":5099:5215   */\n    tag_63:\n        /* \"#utility.yul\":5169:5190   */\n      tag_132\n        /* \"#utility.yul\":5184:5189   */\n      dup2\n        /* \"#utility.yul\":5169:5190   */\n      tag_40\n      jump\t// in\n    tag_132:\n        /* \"#utility.yul\":5162:5167   */\n      dup2\n        /* \"#utility.yul\":5159:5191   */\n      eq\n        /* \"#utility.yul\":5149:5209   */\n      tag_133\n      jumpi\n        /* \"#utility.yul\":5205:5206   */\n      0x00\n        /* \"#utility.yul\":5202:5203   */\n      dup1\n        /* \"#utility.yul\":5195:5207   */\n      revert\n        /* \"#utility.yul\":5149:5209   */\n    tag_133:\n        /* \"#utility.yul\":5099:5215   */\n      pop\n      jump\t// out\n        /* \"#utility.yul\":5221:5358   */\n    tag_64:\n        /* \"#utility.yul\":5275:5280   */\n      0x00\n        /* \"#utility.yul\":5306:5312   */\n      dup2\n        /* \"#utility.yul\":5300:5313   */\n      mload\n        /* \"#utility.yul\":5291:5313   */\n      swap1\n      pop\n        /* \"#utility.yul\":5322:5352   */\n      tag_135\n        /* \"#utility.yul\":5346:5351   */\n      dup2\n        /* \"#utility.yul\":5322:5352   */\n      tag_63\n      jump\t// in\n    tag_135:\n        /* \"#utility.yul\":5221:5358   */\n      swap3\n      swap2\n      pop\n      pop\n      jump\t// out\n        /* \"#utility.yul\":5364:5709   */\n    tag_27:\n        /* \"#utility.yul\":5431:5437   */\n      0x00\n        /* \"#utility.yul\":5480:5482   */\n      0x20\n        /* \"#utility.yul\":5468:5477   */\n      dup3\n        /* \"#utility.yul\":5459:5466   */\n      dup5\n        /* \"#utility.yul\":5455:5478   */\n      sub\n        /* \"#utility.yul\":5451:5483   */\n      slt\n        /* \"#utility.yul\":5448:5567   */\n      iszero\n      tag_137\n      jumpi\n        /* \"#utility.yul\":5486:5565   */\n      tag_138\n      tag_49\n      jump\t// in\n    tag_138:\n        /* \"#utility.yul\":5448:5567   */\n    tag_137:\n        /* \"#utility.yul\":5606:5607   */\n      0x00\n        /* \"#utility.yul\":5631:5692   */\n      tag_139\n        /* \"#utility.yul\":5684:5691   */\n      dup5\n        /* \"#utility.yul\":5675:5681   */\n      dup3\n        /* \"#utility.yul\":5664:5673   */\n      dup6\n        /* \"#utility.yul\":5660:5682   */\n      add\n        /* \"#utility.yul\":5631:5692   */\n      tag_64\n      jump\t// in\n    tag_139:\n        /* \"#utility.yul\":5621:5692   */\n      swap2\n      pop\n        /* \"#utility.yul\":5577:5702   */\n      pop\n        /* \"#utility.yul\":5364:5709   */\n      swap3\n      swap2\n      pop\n      pop\n      jump\t// out\n        /* \"#utility.yul\":5715:5814   */\n    tag_65:\n        /* \"#utility.yul\":5767:5773   */\n      0x00\n        /* \"#utility.yul\":5801:5806   */\n      dup2\n        /* \"#utility.yul\":5795:5807   */\n      mload\n        /* \"#utility.yul\":5785:5807   */\n      swap1\n      pop\n        /* \"#utility.yul\":5715:5814   */\n      swap2\n      swap1\n      pop\n      jump\t// out\n        /* \"#utility.yul\":5820:5989   */\n    tag_66:\n        /* \"#utility.yul\":5904:5915   */\n      0x00\n        /* \"#utility.yul\":5938:5944   */\n      dup3\n        /* \"#utility.yul\":5933:5936   */\n      dup3\n        /* \"#utility.yul\":5926:5945   */\n      mstore\n        /* \"#utility.yul\":5978:5982   */\n      0x20\n        /* \"#utility.yul\":5973:5976   */\n      dup3\n        /* \"#utility.yul\":5969:5983   */\n      add\n        /* \"#utility.yul\":5954:5983   */\n      swap1\n      pop\n        /* \"#utility.yul\":5820:5989   */\n      swap3\n      swap2\n      pop\n      pop\n      jump\t// out\n        /* \"#utility.yul\":5995:6241   */\n    tag_67:\n        /* \"#utility.yul\":6076:6077   */\n      0x00\n        /* \"#utility.yul\":6086:6199   */\n    tag_143:\n        /* \"#utility.yul\":6100:6106   */\n      dup4\n        /* \"#utility.yul\":6097:6098   */\n      dup2\n        /* \"#utility.yul\":6094:6107   */\n      lt\n        /* \"#utility.yul\":6086:6199   */\n      iszero\n      tag_145\n      jumpi\n        /* \"#utility.yul\":6185:6186   */\n      dup1\n        /* \"#utility.yul\":6180:6183   */\n      dup3\n        /* \"#utility.yul\":6176:6187   */\n      add\n        /* \"#utility.yul\":6170:6188   */\n      mload\n        /* \"#utility.yul\":6166:6167   */\n      dup2\n        /* \"#utility.yul\":6161:6164   */\n      dup5\n        /* \"#utility.yul\":6157:6168   */\n      add\n        /* \"#utility.yul\":6150:6189   */\n      mstore\n        /* \"#utility.yul\":6122:6124   */\n      0x20\n        /* \"#utility.yul\":6119:6120   */\n      dup2\n        /* \"#utility.yul\":6115:6125   */\n      add\n        /* \"#utility.yul\":6110:6125   */\n      swap1\n      pop\n        /* \"#utility.yul\":6086:6199   */\n      jump(tag_143)\n    tag_145:\n        /* \"#utility.yul\":6233:6234   */\n      0x00\n        /* \"#utility.yul\":6224:6230   */\n      dup5\n        /* \"#utility.yul\":6219:6222   */\n      dup5\n        /* \"#utility.yul\":6215:6231   */\n      add\n        /* \"#utility.yul\":6208:6235   */\n      mstore\n        /* \"#utility.yul\":6057:6241   */\n      pop\n        /* \"#utility.yul\":5995:6241   */\n      pop\n      pop\n      pop\n      jump\t// out\n        /* \"#utility.yul\":6247:6624   */\n    tag_68:\n        /* \"#utility.yul\":6335:6338   */\n      0x00\n        /* \"#utility.yul\":6363:6402   */\n      tag_147\n        /* \"#utility.yul\":6396:6401   */\n      dup3\n        /* \"#utility.yul\":6363:6402   */\n      tag_65\n      jump\t// in\n    tag_147:\n        /* \"#utility.yul\":6418:6489   */\n      tag_148\n        /* \"#utility.yul\":6482:6488   */\n      dup2\n        /* \"#utility.yul\":6477:6480   */\n      dup6\n        /* \"#utility.yul\":6418:6489   */\n      tag_66\n      jump\t// in\n    tag_148:\n        /* \"#utility.yul\":6411:6489   */\n      swap4\n      pop\n        /* \"#utility.yul\":6498:6563   */\n      tag_149\n        /* \"#utility.yul\":6556:6562   */\n      dup2\n        /* \"#utility.yul\":6551:6554   */\n      dup6\n        /* \"#utility.yul\":6544:6548   */\n      0x20\n        /* \"#utility.yul\":6537:6542   */\n      dup7\n        /* \"#utility.yul\":6533:6549   */\n      add\n        /* \"#utility.yul\":6498:6563   */\n      tag_67\n      jump\t// in\n    tag_149:\n        /* \"#utility.yul\":6588:6617   */\n      tag_150\n        /* \"#utility.yul\":6610:6616   */\n      dup2\n        /* \"#utility.yul\":6588:6617   */\n      tag_53\n      jump\t// in\n    tag_150:\n        /* \"#utility.yul\":6583:6586   */\n      dup5\n        /* \"#utility.yul\":6579:6618   */\n      add\n        /* \"#utility.yul\":6572:6618   */\n      swap2\n      pop\n        /* \"#utility.yul\":6339:6624   */\n      pop\n        /* \"#utility.yul\":6247:6624   */\n      swap3\n      swap2\n      pop\n      pop\n      jump\t// out\n        /* \"#utility.yul\":6630:6943   */\n    tag_30:\n        /* \"#utility.yul\":6743:6747   */\n      0x00\n        /* \"#utility.yul\":6781:6783   */\n      0x20\n        /* \"#utility.yul\":6770:6779   */\n      dup3\n        /* \"#utility.yul\":6766:6784   */\n      add\n        /* \"#utility.yul\":6758:6784   */\n      swap1\n      pop\n        /* \"#utility.yul\":6830:6839   */\n      dup2\n        /* \"#utility.yul\":6824:6828   */\n      dup2\n        /* \"#utility.yul\":6820:6840   */\n      sub\n        /* \"#utility.yul\":6816:6817   */\n      0x00\n        /* \"#utility.yul\":6805:6814   */\n      dup4\n        /* \"#utility.yul\":6801:6818   */\n      add\n        /* \"#utility.yul\":6794:6841   */\n      mstore\n        /* \"#utility.yul\":6858:6936   */\n      tag_152\n        /* \"#utility.yul\":6931:6935   */\n      dup2\n        /* \"#utility.yul\":6922:6928   */\n      dup5\n        /* \"#utility.yul\":6858:6936   */\n      tag_68\n      jump\t// in\n    tag_152:\n        /* \"#utility.yul\":6850:6936   */\n      swap1\n      pop\n        /* \"#utility.yul\":6630:6943   */\n      swap3\n      swap2\n      pop\n      pop\n      jump\t// out\n        /* \"#utility.yul\":6949:7379   */\n    tag_36:\n        /* \"#utility.yul\":7092:7096   */\n      0x00\n        /* \"#utility.yul\":7130:7132   */\n      0x60\n        /* \"#utility.yul\":7119:7128   */\n      dup3\n        /* \"#utility.yul\":7115:7133   */\n      add\n        /* \"#utility.yul\":7107:7133   */\n      swap1\n      pop\n        /* \"#utility.yul\":7143:7214   */\n      tag_154\n        /* \"#utility.yul\":7211:7212   */\n      0x00\n        /* \"#utility.yul\":7200:7209   */\n      dup4\n        /* \"#utility.yul\":7196:7213   */\n      add\n        /* \"#utility.yul\":7187:7193   */\n      dup7\n        /* \"#utility.yul\":7143:7214   */\n      tag_62\n      jump\t// in\n    tag_154:\n        /* \"#utility.yul\":7224:7296   */\n      tag_155\n        /* \"#utility.yul\":7292:7294   */\n      0x20\n        /* \"#utility.yul\":7281:7290   */\n      dup4\n        /* \"#utility.yul\":7277:7295   */\n      add\n        /* \"#utility.yul\":7268:7274   */\n      dup6\n        /* \"#utility.yul\":7224:7296   */\n      tag_62\n      jump\t// in\n    tag_155:\n        /* \"#utility.yul\":7306:7372   */\n      tag_156\n        /* \"#utility.yul\":7368:7370   */\n      0x40\n        /* \"#utility.yul\":7357:7366   */\n      dup4\n        /* \"#utility.yul\":7353:7371   */\n      add\n        /* \"#utility.yul\":7344:7350   */\n      dup5\n        /* \"#utility.yul\":7306:7372   */\n      tag_41\n      jump\t// in\n    tag_156:\n        /* \"#utility.yul\":6949:7379   */\n      swap5\n      swap4\n      pop\n      pop\n      pop\n      pop\n      jump\t// out\n\n    auxdata: 0xa26469706673582212200372a5e4fdfe2a87cb8b92b3a72a216f3e8e4a6bd5596ecd6aef5fd55fc282b264736f6c63430008150033\n}\n",
				"bytecode": {
					"linkReferences": {},
					"object": "608060405234801561000f575f80fd5b5060405161078e38038061078e833981810160405281019061003191906100d4565b805f806101000a81548173ffffffffffffffffffffffffffffffffffffffff021916908373ffffffffffffffffffffffffffffffffffffffff160217905550506100ff565b5f80fd5b5f73ffffffffffffffffffffffffffffffffffffffff82169050919050565b5f6100a38261007a565b9050919050565b6100b381610099565b81146100bd575f80fd5b50565b5f815190506100ce816100aa565b92915050565b5f602082840312156100e9576100e8610076565b5b5f6100f6848285016100c0565b91505092915050565b6106828061010c5f395ff3fe608060405234801561000f575f80fd5b506004361061004a575f3560e01c80636aa5e3761461004e57806398300e181461006c578063a15db9d01461008a578063cc9562a5146100a6575b5f80fd5b6100566100b0565b60405161006391906102a1565b60405180910390f35b610074610150565b6040516100819190610334565b60405180910390f35b6100a4600480360381019061009f919061049a565b610173565b005b6100ae6101fb565b005b5f805f9054906101000a900473ffffffffffffffffffffffffffffffffffffffff1673ffffffffffffffffffffffffffffffffffffffff1663e985e9c533306040518363ffffffff1660e01b815260040161010c929190610501565b602060405180830381865afa158015610127573d5f803e3d5ffd5b505050506040513d601f19601f8201168201806040525081019061014b9190610552565b905090565b5f8054906101000a900473ffffffffffffffffffffffffffffffffffffffff1681565b5f8054906101000a900473ffffffffffffffffffffffffffffffffffffffff1673ffffffffffffffffffffffffffffffffffffffff16630bdc9008826040518263ffffffff1660e01b81526004016101cb91906105f7565b5f604051808303815f87803b1580156101e2575f80fd5b505af11580156101f4573d5f803e3d5ffd5b5050505050565b5f8054906101000a900473ffffffffffffffffffffffffffffffffffffffff1673ffffffffffffffffffffffffffffffffffffffff166329d6724e333060016040518463ffffffff1660e01b815260040161025893929190610617565b5f604051808303815f87803b15801561026f575f80fd5b505af1158015610281573d5f803e3d5ffd5b50505050565b5f8115159050919050565b61029b81610287565b82525050565b5f6020820190506102b45f830184610292565b92915050565b5f73ffffffffffffffffffffffffffffffffffffffff82169050919050565b5f819050919050565b5f6102fc6102f76102f2846102ba565b6102d9565b6102ba565b9050919050565b5f61030d826102e2565b9050919050565b5f61031e82610303565b9050919050565b61032e81610314565b82525050565b5f6020820190506103475f830184610325565b92915050565b5f604051905090565b5f80fd5b5f80fd5b5f80fd5b5f80fd5b5f601f19601f8301169050919050565b7f4e487b71000000000000000000000000000000000000000000000000000000005f52604160045260245ffd5b6103ac82610366565b810181811067ffffffffffffffff821117156103cb576103ca610376565b5b80604052505050565b5f6103dd61034d565b90506103e982826103a3565b919050565b5f67ffffffffffffffff82111561040857610407610376565b5b61041182610366565b9050602081019050919050565b828183375f83830152505050565b5f61043e610439846103ee565b6103d4565b90508281526020810184848401111561045a57610459610362565b5b61046584828561041e565b509392505050565b5f82601f8301126104815761048061035e565b5b813561049184826020860161042c565b91505092915050565b5f602082840312156104af576104ae610356565b5b5f82013567ffffffffffffffff8111156104cc576104cb61035a565b5b6104d88482850161046d565b91505092915050565b5f6104eb826102ba565b9050919050565b6104fb816104e1565b82525050565b5f6040820190506105145f8301856104f2565b61052160208301846104f2565b9392505050565b61053181610287565b811461053b575f80fd5b50565b5f8151905061054c81610528565b92915050565b5f6020828403121561056757610566610356565b5b5f6105748482850161053e565b91505092915050565b5f81519050919050565b5f82825260208201905092915050565b5f5b838110156105b4578082015181840152602081019050610599565b5f8484015250505050565b5f6105c98261057d565b6105d38185610587565b93506105e3818560208601610597565b6105ec81610366565b840191505092915050565b5f6020820190508181035f83015261060f81846105bf565b905092915050565b5f60608201905061062a5f8301866104f2565b61063760208301856104f2565b6106446040830184610292565b94935050505056fea26469706673582212200372a5e4fdfe2a87cb8b92b3a72a216f3e8e4a6bd5596ecd6aef5fd55fc282b264736f6c63430008150033",
					"opcodes": "PUSH1 0x80 PUSH1 0x40 MSTORE CALLVALUE DUP1 ISZERO PUSH2 0xF JUMPI PUSH0 DUP1 REVERT JUMPDEST POP PUSH1 0x40 MLOAD PUSH2 0x78E CODESIZE SUB DUP1 PUSH2 0x78E DUP4 CODECOPY DUP2 DUP2 ADD PUSH1 0x40 MSTORE DUP2 ADD SWAP1 PUSH2 0x31 SWAP2 SWAP1 PUSH2 0xD4 JUMP JUMPDEST DUP1 PUSH0 DUP1 PUSH2 0x100 EXP DUP2 SLOAD DUP2 PUSH20 0xFFFFFFFFFFFFFFFFFFFFFFFFFFFFFFFFFFFFFFFF MUL NOT AND SWAP1 DUP4 PUSH20 0xFFFFFFFFFFFFFFFFFFFFFFFFFFFFFFFFFFFFFFFF AND MUL OR SWAP1 SSTORE POP POP PUSH2 0xFF JUMP JUMPDEST PUSH0 DUP1 REVERT JUMPDEST PUSH0 PUSH20 0xFFFFFFFFFFFFFFFFFFFFFFFFFFFFFFFFFFFFFFFF DUP3 AND SWAP1 POP SWAP2 SWAP1 POP JUMP JUMPDEST PUSH0 PUSH2 0xA3 DUP3 PUSH2 0x7A JUMP JUMPDEST SWAP1 POP SWAP2 SWAP1 POP JUMP JUMPDEST PUSH2 0xB3 DUP2 PUSH2 0x99 JUMP JUMPDEST DUP2 EQ PUSH2 0xBD JUMPI PUSH0 DUP1 REVERT JUMPDEST POP JUMP JUMPDEST PUSH0 DUP2 MLOAD SWAP1 POP PUSH2 0xCE DUP2 PUSH2 0xAA JUMP JUMPDEST SWAP3 SWAP2 POP POP JUMP JUMPDEST PUSH0 PUSH1 0x20 DUP3 DUP5 SUB SLT ISZERO PUSH2 0xE9 JUMPI PUSH2 0xE8 PUSH2 0x76 JUMP JUMPDEST JUMPDEST PUSH0 PUSH2 0xF6 DUP5 DUP3 DUP6 ADD PUSH2 0xC0 JUMP JUMPDEST SWAP2 POP POP SWAP3 SWAP2 POP POP JUMP JUMPDEST PUSH2 0x682 DUP1 PUSH2 0x10C PUSH0 CODECOPY PUSH0 RETURN INVALID PUSH1 0x80 PUSH1 0x40 MSTORE CALLVALUE DUP1 ISZERO PUSH2 0xF JUMPI PUSH0 DUP1 REVERT JUMPDEST POP PUSH1 0x4 CALLDATASIZE LT PUSH2 0x4A JUMPI PUSH0 CALLDATALOAD PUSH1 0xE0 SHR DUP1 PUSH4 0x6AA5E376 EQ PUSH2 0x4E JUMPI DUP1 PUSH4 0x98300E18 EQ PUSH2 0x6C JUMPI DUP1 PUSH4 0xA15DB9D0 EQ PUSH2 0x8A JUMPI DUP1 PUSH4 0xCC9562A5 EQ PUSH2 0xA6 JUMPI JUMPDEST PUSH0 DUP1 REVERT JUMPDEST PUSH2 0x56 PUSH2 0xB0 JUMP JUMPDEST PUSH1 0x40 MLOAD PUSH2 0x63 SWAP2 SWAP1 PUSH2 0x2A1 JUMP JUMPDEST PUSH1 0x40 MLOAD DUP1 SWAP2 SUB SWAP1 RETURN JUMPDEST PUSH2 0x74 PUSH2 0x150 JUMP JUMPDEST PUSH1 0x40 MLOAD PUSH2 0x81 SWAP2 SWAP1 PUSH2 0x334 JUMP JUMPDEST PUSH1 0x40 MLOAD DUP1 SWAP2 SUB SWAP1 RETURN JUMPDEST PUSH2 0xA4 PUSH1 0x4 DUP1 CALLDATASIZE SUB DUP2 ADD SWAP1 PUSH2 0x9F SWAP2 SWAP1 PUSH2 0x49A JUMP JUMPDEST PUSH2 0x173 JUMP JUMPDEST STOP JUMPDEST PUSH2 0xAE PUSH2 0x1FB JUMP JUMPDEST STOP JUMPDEST PUSH0 DUP1 PUSH0 SWAP1 SLOAD SWAP1 PUSH2 0x100 EXP SWAP1 DIV PUSH20 0xFFFFFFFFFFFFFFFFFFFFFFFFFFFFFFFFFFFFFFFF AND PUSH20 0xFFFFFFFFFFFFFFFFFFFFFFFFFFFFFFFFFFFFFFFF AND PUSH4 0xE985E9C5 CALLER ADDRESS PUSH1 0x40 MLOAD DUP4 PUSH4 0xFFFFFFFF AND PUSH1 0xE0 SHL DUP2 MSTORE PUSH1 0x4 ADD PUSH2 0x10C SWAP3 SWAP2 SWAP1 PUSH2 0x501 JUMP JUMPDEST PUSH1 0x20 PUSH1 0x40 MLOAD DUP1 DUP4 SUB DUP2 DUP7 GAS STATICCALL ISZERO DUP1 ISZERO PUSH2 0x127 JUMPI RETURNDATASIZE PUSH0 DUP1 RETURNDATACOPY RETURNDATASIZE PUSH0 REVERT JUMPDEST POP POP POP POP PUSH1 0x40 MLOAD RETURNDATASIZE PUSH1 0x1F NOT PUSH1 0x1F DUP3 ADD AND DUP3 ADD DUP1 PUSH1 0x40 MSTORE POP DUP2 ADD SWAP1 PUSH2 0x14B SWAP2 SWAP1 PUSH2 0x552 JUMP JUMPDEST SWAP1 POP SWAP1 JUMP JUMPDEST PUSH0 DUP1 SLOAD SWAP1 PUSH2 0x100 EXP SWAP1 DIV PUSH20 0xFFFFFFFFFFFFFFFFFFFFFFFFFFFFFFFFFFFFFFFF AND DUP2 JUMP JUMPDEST PUSH0 DUP1 SLOAD SWAP1 PUSH2 0x100 EXP SWAP1 DIV PUSH20 0xFFFFFFFFFFFFFFFFFFFFFFFFFFFFFFFFFFFFFFFF AND PUSH20 0xFFFFFFFFFFFFFFFFFFFFFFFFFFFFFFFFFFFFFFFF AND PUSH4 0xBDC9008 DUP3 PUSH1 0x40 MLOAD DUP3 PUSH4 0xFFFFFFFF AND PUSH1 0xE0 SHL DUP2 MSTORE PUSH1 0x4 ADD PUSH2 0x1CB SWAP2 SWAP1 PUSH2 0x5F7 JUMP JUMPDEST PUSH0 PUSH1 0x40 MLOAD DUP1 DUP4 SUB DUP2 PUSH0 DUP8 DUP1 EXTCODESIZE ISZERO DUP1 ISZERO PUSH2 0x1E2 JUMPI PUSH0 DUP1 REVERT JUMPDEST POP GAS CALL ISZERO DUP1 ISZERO PUSH2 0x1F4 JUMPI RETURNDATASIZE PUSH0 DUP1 RETURNDATACOPY RETURNDATASIZE PUSH0 REVERT JUMPDEST POP POP POP POP POP JUMP JUMPDEST PUSH0 DUP1 SLOAD SWAP1 PUSH2 0x100 EXP SWAP1 DIV PUSH20 0xFFFFFFFFFFFFFFFFFFFFFFFFFFFFFFFFFFFFFFFF AND PUSH20 0xFFFFFFFFFFFFFFFFFFFFFFFFFFFFFFFFFFFFFFFF AND PUSH4 0x29D6724E CALLER ADDRESS PUSH1 0x1 PUSH1 0x40 MLOAD DUP5 PUSH4 0xFFFFFFFF AND PUSH1 0xE0 SHL DUP2 MSTORE PUSH1 0x4 ADD PUSH2 0x258 SWAP4 SWAP3 SWAP2 SWAP1 PUSH2 0x617 JUMP JUMPDEST PUSH0 PUSH1 0x40 MLOAD DUP1 DUP4 SUB DUP2 PUSH0 DUP8 DUP1 EXTCODESIZE ISZERO DUP1 ISZERO PUSH2 0x26F JUMPI PUSH0 DUP1 REVERT JUMPDEST POP GAS CALL ISZERO DUP1 ISZERO PUSH2 0x281 JUMPI RETURNDATASIZE PUSH0 DUP1 RETURNDATACOPY RETURNDATASIZE PUSH0 REVERT JUMPDEST POP POP POP POP JUMP JUMPDEST PUSH0 DUP2 ISZERO ISZERO SWAP1 POP SWAP2 SWAP1 POP JUMP JUMPDEST PUSH2 0x29B DUP2 PUSH2 0x287 JUMP JUMPDEST DUP3 MSTORE POP POP JUMP JUMPDEST PUSH0 PUSH1 0x20 DUP3 ADD SWAP1 POP PUSH2 0x2B4 PUSH0 DUP4 ADD DUP5 PUSH2 0x292 JUMP JUMPDEST SWAP3 SWAP2 POP POP JUMP JUMPDEST PUSH0 PUSH20 0xFFFFFFFFFFFFFFFFFFFFFFFFFFFFFFFFFFFFFFFF DUP3 AND SWAP1 POP SWAP2 SWAP1 POP JUMP JUMPDEST PUSH0 DUP2 SWAP1 POP SWAP2 SWAP1 POP JUMP JUMPDEST PUSH0 PUSH2 0x2FC PUSH2 0x2F7 PUSH2 0x2F2 DUP5 PUSH2 0x2BA JUMP JUMPDEST PUSH2 0x2D9 JUMP JUMPDEST PUSH2 0x2BA JUMP JUMPDEST SWAP1 POP SWAP2 SWAP1 POP JUMP JUMPDEST PUSH0 PUSH2 0x30D DUP3 PUSH2 0x2E2 JUMP JUMPDEST SWAP1 POP SWAP2 SWAP1 POP JUMP JUMPDEST PUSH0 PUSH2 0x31E DUP3 PUSH2 0x303 JUMP JUMPDEST SWAP1 POP SWAP2 SWAP1 POP JUMP JUMPDEST PUSH2 0x32E DUP2 PUSH2 0x314 JUMP JUMPDEST DUP3 MSTORE POP POP JUMP JUMPDEST PUSH0 PUSH1 0x20 DUP3 ADD SWAP1 POP PUSH2 0x347 PUSH0 DUP4 ADD DUP5 PUSH2 0x325 JUMP JUMPDEST SWAP3 SWAP2 POP POP JUMP JUMPDEST PUSH0 PUSH1 0x40 MLOAD SWAP1 POP SWAP1 JUMP JUMPDEST PUSH0 DUP1 REVERT JUMPDEST PUSH0 DUP1 REVERT JUMPDEST PUSH0 DUP1 REVERT JUMPDEST PUSH0 DUP1 REVERT JUMPDEST PUSH0 PUSH1 0x1F NOT PUSH1 0x1F DUP4 ADD AND SWAP1 POP SWAP2 SWAP1 POP JUMP JUMPDEST PUSH32 0x4E487B7100000000000000000000000000000000000000000000000000000000 PUSH0 MSTORE PUSH1 0x41 PUSH1 0x4 MSTORE PUSH1 0x24 PUSH0 REVERT JUMPDEST PUSH2 0x3AC DUP3 PUSH2 0x366 JUMP JUMPDEST DUP2 ADD DUP2 DUP2 LT PUSH8 0xFFFFFFFFFFFFFFFF DUP3 GT OR ISZERO PUSH2 0x3CB JUMPI PUSH2 0x3CA PUSH2 0x376 JUMP JUMPDEST JUMPDEST DUP1 PUSH1 0x40 MSTORE POP POP POP JUMP JUMPDEST PUSH0 PUSH2 0x3DD PUSH2 0x34D JUMP JUMPDEST SWAP1 POP PUSH2 0x3E9 DUP3 DUP3 PUSH2 0x3A3 JUMP JUMPDEST SWAP2 SWAP1 POP JUMP JUMPDEST PUSH0 PUSH8 0xFFFFFFFFFFFFFFFF DUP3 GT ISZERO PUSH2 0x408 JUMPI PUSH2 0x407 PUSH2 0x376 JUMP JUMPDEST JUMPDEST PUSH2 0x411 DUP3 PUSH2 0x366 JUMP JUMPDEST SWAP1 POP PUSH1 0x20 DUP2 ADD SWAP1 POP SWAP2 SWAP1 POP JUMP JUMPDEST DUP3 DUP2 DUP4 CALLDATACOPY PUSH0 DUP4 DUP4 ADD MSTORE POP POP POP JUMP JUMPDEST PUSH0 PUSH2 0x43E PUSH2 0x439 DUP5 PUSH2 0x3EE JUMP JUMPDEST PUSH2 0x3D4 JUMP JUMPDEST SWAP1 POP DUP3 DUP2 MSTORE PUSH1 0x20 DUP2 ADD DUP5 DUP5 DUP5 ADD GT ISZERO PUSH2 0x45A JUMPI PUSH2 0x459 PUSH2 0x362 JUMP JUMPDEST JUMPDEST PUSH2 0x465 DUP5 DUP3 DUP6 PUSH2 0x41E JUMP JUMPDEST POP SWAP4 SWAP3 POP POP POP JUMP JUMPDEST PUSH0 DUP3 PUSH1 0x1F DUP4 ADD SLT PUSH2 0x481 JUMPI PUSH2 0x480 PUSH2 0x35E JUMP JUMPDEST JUMPDEST DUP2 CALLDATALOAD PUSH2 0x491 DUP5 DUP3 PUSH1 0x20 DUP7 ADD PUSH2 0x42C JUMP JUMPDEST SWAP2 POP POP SWAP3 SWAP2 POP POP JUMP JUMPDEST PUSH0 PUSH1 0x20 DUP3 DUP5 SUB SLT ISZERO PUSH2 0x4AF JUMPI PUSH2 0x4AE PUSH2 0x356 JUMP JUMPDEST JUMPDEST PUSH0 DUP3 ADD CALLDATALOAD PUSH8 0xFFFFFFFFFFFFFFFF DUP2 GT ISZERO PUSH2 0x4CC JUMPI PUSH2 0x4CB PUSH2 0x35A JUMP JUMPDEST JUMPDEST PUSH2 0x4D8 DUP5 DUP3 DUP6 ADD PUSH2 0x46D JUMP JUMPDEST SWAP2 POP POP SWAP3 SWAP2 POP POP JUMP JUMPDEST PUSH0 PUSH2 0x4EB DUP3 PUSH2 0x2BA JUMP JUMPDEST SWAP1 POP SWAP2 SWAP1 POP JUMP JUMPDEST PUSH2 0x4FB DUP2 PUSH2 0x4E1 JUMP JUMPDEST DUP3 MSTORE POP POP JUMP JUMPDEST PUSH0 PUSH1 0x40 DUP3 ADD SWAP1 POP PUSH2 0x514 PUSH0 DUP4 ADD DUP6 PUSH2 0x4F2 JUMP JUMPDEST PUSH2 0x521 PUSH1 0x20 DUP4 ADD DUP5 PUSH2 0x4F2 JUMP JUMPDEST SWAP4 SWAP3 POP POP POP JUMP JUMPDEST PUSH2 0x531 DUP2 PUSH2 0x287 JUMP JUMPDEST DUP2 EQ PUSH2 0x53B JUMPI PUSH0 DUP1 REVERT JUMPDEST POP JUMP JUMPDEST PUSH0 DUP2 MLOAD SWAP1 POP PUSH2 0x54C DUP2 PUSH2 0x528 JUMP JUMPDEST SWAP3 SWAP2 POP POP JUMP JUMPDEST PUSH0 PUSH1 0x20 DUP3 DUP5 SUB SLT ISZERO PUSH2 0x567 JUMPI PUSH2 0x566 PUSH2 0x356 JUMP JUMPDEST JUMPDEST PUSH0 PUSH2 0x574 DUP5 DUP3 DUP6 ADD PUSH2 0x53E JUMP JUMPDEST SWAP2 POP POP SWAP3 SWAP2 POP POP JUMP JUMPDEST PUSH0 DUP2 MLOAD SWAP1 POP SWAP2 SWAP1 POP JUMP JUMPDEST PUSH0 DUP3 DUP3 MSTORE PUSH1 0x20 DUP3 ADD SWAP1 POP SWAP3 SWAP2 POP POP JUMP JUMPDEST PUSH0 JUMPDEST DUP4 DUP2 LT ISZERO PUSH2 0x5B4 JUMPI DUP1 DUP3 ADD MLOAD DUP2 DUP5 ADD MSTORE PUSH1 0x20 DUP2 ADD SWAP1 POP PUSH2 0x599 JUMP JUMPDEST PUSH0 DUP5 DUP5 ADD MSTORE POP POP POP POP JUMP JUMPDEST PUSH0 PUSH2 0x5C9 DUP3 PUSH2 0x57D JUMP JUMPDEST PUSH2 0x5D3 DUP2 DUP6 PUSH2 0x587 JUMP JUMPDEST SWAP4 POP PUSH2 0x5E3 DUP2 DUP6 PUSH1 0x20 DUP7 ADD PUSH2 0x597 JUMP JUMPDEST PUSH2 0x5EC DUP2 PUSH2 0x366 JUMP JUMPDEST DUP5 ADD SWAP2 POP POP SWAP3 SWAP2 POP POP JUMP JUMPDEST PUSH0 PUSH1 0x20 DUP3 ADD SWAP1 POP DUP2 DUP2 SUB PUSH0 DUP4 ADD MSTORE PUSH2 0x60F DUP2 DUP5 PUSH2 0x5BF JUMP JUMPDEST SWAP1 POP SWAP3 SWAP2 POP POP JUMP JUMPDEST PUSH0 PUSH1 0x60 DUP3 ADD SWAP1 POP PUSH2 0x62A PUSH0 DUP4 ADD DUP7 PUSH2 0x4F2 JUMP JUMPDEST PUSH2 0x637 PUSH1 0x20 DUP4 ADD DUP6 PUSH2 0x4F2 JUMP JUMPDEST PUSH2 0x644 PUSH1 0x40 DUP4 ADD DUP5 PUSH2 0x292 JUMP JUMPDEST SWAP5 SWAP4 POP POP POP POP JUMP INVALID LOG2 PUSH5 0x6970667358 0x22 SLT KECCAK256 SUB PUSH19 0xA5E4FDFE2A87CB8B92B3A72A216F3E8E4A6BD5 MSIZE PUSH15 0xCD6AEF5FD55FC282B264736F6C6343 STOP ADDMOD ISZERO STOP CALLER "
				},
				"gasEstimates": {
					"creation": {
						"codeDepositCost": "333200",
						"executionCost": "infinite",
						"totalCost": "infinite"
					},
					"external": {
						"_nft()": "infinite",
						"_saleNFTmint(string)": "infinite",
						"salesNFT()": "infinite",
						"setApprovalForAll()": "infinite"
					}
				},
				"methodIdentifiers": {
					"_nft()": "98300e18",
					"_saleNFTmint(string)": "a15db9d0",
					"salesNFT()": "6aa5e376",
					"setApprovalForAll()": "cc9562a5"
				}
			},
			"storageLayout": {
				"storage": [
					{
						"astId": 125,
						"contract": "contracts/saleNFT.sol:SaleNFT",
						"label": "_nft",
						"offset": 0,
						"slot": "0",
						"type": "t_contract(MyNFT)119"
					}
				],
				"types": {
					"t_contract(MyNFT)119": {
						"encoding": "inplace",
						"label": "contract MyNFT",
						"numberOfBytes": "20"
					}
				}
			},
			"userdoc": {
				"kind": "user",
				"methods": {},
				"version": 1
			}
		}
	}
}