{
  "contractName": "BaseBall",
  "abi": [
    {
      "inputs": [],
      "stateMutability": "nonpayable",
      "type": "constructor"
    },
    {
      "inputs": [
        {
          "internalType": "uint256",
          "name": "_value",
          "type": "uint256"
        }
      ],
      "name": "gameStart",
      "outputs": [],
      "stateMutability": "payable",
      "type": "function",
      "payable": true
    },
    {
      "inputs": [],
      "name": "getReward",
      "outputs": [
        {
          "internalType": "uint256",
          "name": "",
          "type": "uint256"
        }
      ],
      "stateMutability": "view",
      "type": "function",
      "constant": true
    },
    {
      "inputs": [],
      "name": "getProgress",
      "outputs": [
        {
          "internalType": "uint256",
          "name": "",
          "type": "uint256"
        }
      ],
      "stateMutability": "view",
      "type": "function",
      "constant": true
    },
    {
      "inputs": [],
      "name": "getTicketPrice",
      "outputs": [
        {
          "internalType": "uint256",
          "name": "",
          "type": "uint256"
        }
      ],
      "stateMutability": "view",
      "type": "function",
      "constant": true
    },
    {
      "inputs": [],
      "name": "getRandom",
      "outputs": [
        {
          "internalType": "uint256",
          "name": "",
          "type": "uint256"
        }
      ],
      "stateMutability": "view",
      "type": "function",
      "constant": true
    },
    {
      "inputs": [],
      "name": "getPlaying",
      "outputs": [
        {
          "internalType": "uint256",
          "name": "",
          "type": "uint256"
        }
      ],
      "stateMutability": "view",
      "type": "function",
      "constant": true
    },
    {
      "inputs": [],
      "name": "initGame",
      "outputs": [],
      "stateMutability": "payable",
      "type": "function",
      "payable": true
    }
  ],
  "bytecode": "0x6080604052674563918244f400006001553480156200001c575f80fd5b50335f806101000a81548173ffffffffffffffffffffffffffffffffffffffff021916908373ffffffffffffffffffffffffffffffffffffffff160217905550424441436040516020016200007594939291906200016b565b604051602081830303815290604052805190602001205f1c6002819055506064610384600254620000a79190620001ed565b620000b3919062000251565b6002819055506200028b565b5f819050919050565b5f819050919050565b620000e6620000e082620000bf565b620000c8565b82525050565b5f73ffffffffffffffffffffffffffffffffffffffff82169050919050565b5f6200011782620000ec565b9050919050565b5f8160601b9050919050565b5f62000136826200011e565b9050919050565b5f62000149826200012a565b9050919050565b620001656200015f826200010b565b6200013d565b82525050565b5f620001788287620000d1565b6020820191506200018a8286620000d1565b6020820191506200019c828562000150565b601482019150620001ae8284620000d1565b60208201915081905095945050505050565b7f4e487b71000000000000000000000000000000000000000000000000000000005f52601260045260245ffd5b5f620001f982620000bf565b91506200020683620000bf565b925082620002195762000218620001c0565b5b828206905092915050565b7f4e487b71000000000000000000000000000000000000000000000000000000005f52601160045260245ffd5b5f6200025d82620000bf565b91506200026a83620000bf565b925082820190508082111562000285576200028462000224565b5b92915050565b61084f80620002995f395ff3fe60806040526004361061006f575f3560e01c806387bb7ae01161004d57806387bb7ae0146100d1578063939c4456146100fb578063aacc5a1714610125578063b8a5368a1461014f5761006f565b806332eb2564146100735780633d18b9121461007d578063810ab154146100a7575b5f80fd5b61007b61016b565b005b348015610088575f80fd5b5061009161025e565b60405161009e9190610493565b60405180910390f35b3480156100b2575f80fd5b506100bb610267565b6040516100c89190610493565b60405180910390f35b3480156100dc575f80fd5b506100e56102c0565b6040516100f29190610493565b60405180910390f35b348015610106575f80fd5b5061010f6102c9565b60405161011c9190610493565b60405180910390f35b348015610130575f80fd5b506101396102d2565b6040516101469190610493565b60405180910390f35b610169600480360381019061016491906104da565b6102db565b005b5f8054906101000a900473ffffffffffffffffffffffffffffffffffffffff1673ffffffffffffffffffffffffffffffffffffffff166108fc4790811502906040515f60405180830381858888f193505050501580156101cd573d5f803e3d5ffd5b505f6003819055505f6004819055505f60055f6101000a81548160ff02191690836001811115610200576101ff610505565b5b02179055504244414360405160200161021c94939291906105c7565b604051602081830303815290604052805190602001205f1c600281905550606461038460025461024c9190610641565b610256919061069e565b600281905550565b5f600454905090565b5f805f90505f600181111561027f5761027e610505565b5b60055f9054906101000a900460ff1660018111156102a05761029f610505565b5b1415806102af57506005600354145b156102b957600190505b8091505090565b5f600154905090565b5f600354905090565b5f600254905090565b600560035410610320576040517f08c379a00000000000000000000000000000000000000000000000000000000081526004016103179061072b565b60405180910390fd5b6001543414610364576040517f08c379a000000000000000000000000000000000000000000000000000000000815260040161035b90610793565b60405180910390fd5b6064811015801561037657506103e881105b6103b5576040517f08c379a00000000000000000000000000000000000000000000000000000000081526004016103ac906107fb565b60405180910390fd5b600160035f8282546103c7919061069e565b92505081905550600254810361045f574760045411156103e5575f80fd5b3373ffffffffffffffffffffffffffffffffffffffff166108fc4790811502906040515f60405180830381858888f19350505050158015610428573d5f803e3d5ffd5b505f600481905550600160055f6101000a81548160ff0219169083600181111561045557610454610505565b5b0217905550610478565b3460045f828254610470919061069e565b925050819055505b50565b5f819050919050565b61048d8161047b565b82525050565b5f6020820190506104a65f830184610484565b92915050565b5f80fd5b6104b98161047b565b81146104c3575f80fd5b50565b5f813590506104d4816104b0565b92915050565b5f602082840312156104ef576104ee6104ac565b5b5f6104fc848285016104c6565b91505092915050565b7f4e487b71000000000000000000000000000000000000000000000000000000005f52602160045260245ffd5b5f819050919050565b61054c6105478261047b565b610532565b82525050565b5f73ffffffffffffffffffffffffffffffffffffffff82169050919050565b5f61057b82610552565b9050919050565b5f8160601b9050919050565b5f61059882610582565b9050919050565b5f6105a98261058e565b9050919050565b6105c16105bc82610571565b61059f565b82525050565b5f6105d2828761053b565b6020820191506105e2828661053b565b6020820191506105f282856105b0565b601482019150610602828461053b565b60208201915081905095945050505050565b7f4e487b71000000000000000000000000000000000000000000000000000000005f52601260045260245ffd5b5f61064b8261047b565b91506106568361047b565b92508261066657610665610614565b5b828206905092915050565b7f4e487b71000000000000000000000000000000000000000000000000000000005f52601160045260245ffd5b5f6106a88261047b565b91506106b38361047b565b92508282019050808211156106cb576106ca610671565b5b92915050565b5f82825260208201905092915050565b7f47616d654f7665720000000000000000000000000000000000000000000000005f82015250565b5f6107156008836106d1565b9150610720826106e1565b602082019050919050565b5f6020820190508181035f83015261074281610709565b9050919050565b7f7469636b657420616d6f756e74206572726f72000000000000000000000000005f82015250565b5f61077d6013836106d1565b915061078882610749565b602082019050919050565b5f6020820190508181035f8301526107aa81610771565b9050919050565b7f76616c7565206d757374206265207468726565206e756d6265720000000000005f82015250565b5f6107e5601a836106d1565b91506107f0826107b1565b602082019050919050565b5f6020820190508181035f830152610812816107d9565b905091905056fea2646970667358221220a08761950e6ff32183ae960d5d753f9aa4b68c117efbe4669cecbdaac408985864736f6c63430008150033",
  "immutableReferences": {},
  "source": "// SPDX-License-Identifier: MIT\n\npragma solidity ^0.8.13;\n\ncontract BaseBall {\n    //   \n    //  \n    //   3  \n    //     \n    //         CA .\n    // CA          \n    //        .\n    //         .\n\n    //  \n    address private owner;\n\n    // \n    //  constant      \n    uint256 private constant GAME_COUNT = 5;\n\n    // ticket     \n    uint256 private ticket = 5 ether;\n\n    //    \n    //   \n    // 3 \n    uint256 private random;\n\n    //  \n    uint256 private progress;\n\n    //   \n    uint256 private reward;\n\n    enum GameStatus {\n        Playing, // 0\n        GameOver // 1\n    }\n\n    //   0 -> \n    GameStatus gamestatus; //0\n\n    //  \n    //     \n    constructor() {\n        //      \n        owner = msg.sender;\n\n        // keccak256:       . SHA-3\n        // block\n        // abi.encodePacked:       .\n        random = uint256(\n            keccak256(\n                abi.encodePacked(\n                    block.timestamp,\n                    block.difficulty,\n                    block.coinbase,\n                    block.number\n                )\n            )\n        );\n        //   \n        //          .\n        random = (random % 900) + 100;\n        // 100~999 \n\n        //\n    }\n\n    function gameStart(uint256 _value) public payable {\n        require(progress < GAME_COUNT, \"GameOver\");\n        require(msg.value == ticket, \"ticket amount error\");\n\n        require(\n            (_value >= 100) && (_value < 1000),\n            \"value must be three number\"\n        );\n\n        progress += 1;\n        if (_value == random) {\n            //   \n            // CA    \n            require(reward <= address(this).balance);\n            payable(msg.sender).transfer(address(this).balance);\n            reward = 0;\n            // gamestatus   1 \n            // 1   \n            gamestatus = GameStatus.GameOver;\n        } else {\n            reward += msg.value;\n        }\n    }\n\n    function getReward() public view returns (uint256) {\n        //   \n        return reward;\n    }\n\n    function getProgress() public view returns (uint256) {\n        return progress;\n    }\n\n    //    \n    function getTicketPrice() public view returns (uint256) {\n        return ticket;\n    }\n\n    //  \n    //   \n    function getRandom() public view returns (uint256) {\n        return random;\n    }\n\n    //   \n    function getPlaying() public view returns (uint256) {\n        //     0\n        uint256 playing = 0;\n        if ((gamestatus != GameStatus.Playing) || (progress == GAME_COUNT)) {\n            playing = 1;\n        }\n        return playing;\n    }\n\n    function initGame() public payable {\n        payable(owner).transfer(address(this).balance);\n        progress = 0;\n        reward = 0;\n        gamestatus = GameStatus.Playing;\n        random = uint256(\n            keccak256(\n                abi.encodePacked(\n                    block.timestamp,\n                    block.difficulty,\n                    block.coinbase,\n                    block.number\n                )\n            )\n        );\n        //   \n        //          .\n        random = (random % 900) + 100;\n    }\n}\n",
  "sourcePath": "/Users/zerohoney/blockchain2/frontEnd/ts_lecture_react/contracts/BaseBall.sol",
  "compiler": {
    "name": "solc",
    "version": "0.8.21+commit.d9974bed.Emscripten.clang"
  },
  "schemaVersion": "3.4.16",
  "updatedAt": "2023-10-05T05:36:41.532Z",
  "networkType": "ethereum",
  "devdoc": {
    "kind": "dev",
    "methods": {},
    "version": 1
  },
  "userdoc": {
    "kind": "user",
    "methods": {},
    "version": 1
  }
}