{
  "contractName": "Counter",
  "abi": [
    {
      "inputs": [],
      "stateMutability": "nonpayable",
      "type": "constructor"
    },
    {
      "inputs": [],
      "name": "increment",
      "outputs": [],
      "stateMutability": "nonpayable",
      "type": "function"
    },
    {
      "inputs": [],
      "name": "decrement",
      "outputs": [],
      "stateMutability": "nonpayable",
      "type": "function"
    },
    {
      "inputs": [],
      "name": "getValue",
      "outputs": [
        {
          "internalType": "uint256",
          "name": "",
          "type": "uint256"
        }
      ],
      "stateMutability": "view",
      "type": "function",
      "constant": true
    }
  ],
  "bytecode": "0x608060405234801561000f575f80fd5b506101ab8061001d5f395ff3fe608060405234801561000f575f80fd5b506004361061003f575f3560e01c806320965255146100435780632baeceb714610061578063d09de08a1461006b575b5f80fd5b61004b610075565b60405161005891906100c9565b60405180910390f35b61006961007d565b005b610073610097565b005b5f8054905090565b60015f8082825461008e919061010f565b92505081905550565b60015f808282546100a89190610142565b92505081905550565b5f819050919050565b6100c3816100b1565b82525050565b5f6020820190506100dc5f8301846100ba565b92915050565b7f4e487b71000000000000000000000000000000000000000000000000000000005f52601160045260245ffd5b5f610119826100b1565b9150610124836100b1565b925082820390508181111561013c5761013b6100e2565b5b92915050565b5f61014c826100b1565b9150610157836100b1565b925082820190508082111561016f5761016e6100e2565b5b9291505056fea26469706673582212202771e1f71c84a29776efe605e2d9835c15c81c407c825556980c91975ae7b59864736f6c63430008150033",
  "immutableReferences": {},
  "source": "// SPDX-License-Identifier : MIT\npragma solidity ^0.8.13;\n\ncontract Counter {\n    uint256 private value; // 상태 변수 uint 정수. 부등호가 없는 정수. 상태변수\n\n    // 마이너스가 나올수 없음\n\n    constructor() {}\n\n    // function setValue(uint256 _value) public {\n    //     value = _value;\n    // }\n\n    // 누르면 1증가\n    function increment() public {\n        value += 1;\n    }\n\n    // 누르면 1감소\n    function decrement() public {\n        value -= 1;\n    }\n\n    // public 접근제한자\n\n    function getValue() public view returns (uint256) {\n        return value;\n    }\n    // view는 읽기전용이라는 의미\n}\n",
  "sourcePath": "/Users/zerohoney/blockchain2/frontEnd/ts_lecture_react/contracts/Counter.sol",
  "compiler": {
    "name": "solc",
    "version": "0.8.21+commit.d9974bed.Emscripten.clang"
  },
  "schemaVersion": "3.4.16",
  "updatedAt": "2023-10-04T05:32:19.912Z",
  "networkType": "ethereum",
  "devdoc": {
    "kind": "dev",
    "methods": {},
    "version": 1
  },
  "userdoc": {
    "kind": "user",
    "methods": {},
    "version": 1
  }
}