{
  "contractName": "Counter2",
  "abi": [
    {
      "inputs": [],
      "stateMutability": "nonpayable",
      "type": "constructor"
    },
    {
      "inputs": [],
      "name": "increment",
      "outputs": [],
      "stateMutability": "nonpayable",
      "type": "function"
    },
    {
      "inputs": [],
      "name": "decrement",
      "outputs": [],
      "stateMutability": "nonpayable",
      "type": "function"
    },
    {
      "inputs": [],
      "name": "getValue",
      "outputs": [
        {
          "internalType": "uint256",
          "name": "",
          "type": "uint256"
        }
      ],
      "stateMutability": "view",
      "type": "function",
      "constant": true
    }
  ],
  "bytecode": "0x608060405234801561000f575f80fd5b505f8081905550610266806100235f395ff3fe608060405234801561000f575f80fd5b506004361061003f575f3560e01c806320965255146100435780632baeceb714610061578063d09de08a1461006b575b5f80fd5b61004b610075565b604051610058919061010c565b60405180910390f35b61006961007d565b005b6100736100da565b005b5f8054905090565b5f8054036100c0576040517f08c379a00000000000000000000000000000000000000000000000000000000081526004016100b79061017f565b60405180910390fd5b60015f808282546100d191906101ca565b92505081905550565b60015f808282546100eb91906101fd565b92505081905550565b5f819050919050565b610106816100f4565b82525050565b5f60208201905061011f5f8301846100fd565b92915050565b5f82825260208201905092915050565b7f76616c75652030206572726f72000000000000000000000000000000000000005f82015250565b5f610169600d83610125565b915061017482610135565b602082019050919050565b5f6020820190508181035f8301526101968161015d565b9050919050565b7f4e487b71000000000000000000000000000000000000000000000000000000005f52601160045260245ffd5b5f6101d4826100f4565b91506101df836100f4565b92508282039050818111156101f7576101f661019d565b5b92915050565b5f610207826100f4565b9150610212836100f4565b925082820190508082111561022a5761022961019d565b5b9291505056fea2646970667358221220f9715331f75efc9ac09e09cdf6a90cdb400491b38b676665c47b67641518694664736f6c63430008150033",
  "immutableReferences": {},
  "source": "// SPDX-License-Identifier: MIT\n\npragma solidity ^0.8.13;\n\ncontract Counter2 {\n    uint256 value;\n\n    constructor() {\n        value = 0;\n    }\n\n    function increment() public {\n        value += 1;\n    }\n\n    function decrement() public {\n        require(value != 0, \"value 0 error\");\n        value -= 1;\n    }\n\n    function getValue() public view returns (uint256) {\n        return value;\n    }\n}\n",
  "sourcePath": "/Users/zerohoney/blockchain2/frontEnd/ts_lecture_react/contracts/Counter2.sol",
  "compiler": {
    "name": "solc",
    "version": "0.8.21+commit.d9974bed.Emscripten.clang"
  },
  "schemaVersion": "3.4.16",
  "updatedAt": "2023-10-10T02:40:01.092Z",
  "networkType": "ethereum",
  "devdoc": {
    "kind": "dev",
    "methods": {},
    "version": 1
  },
  "userdoc": {
    "kind": "user",
    "methods": {},
    "version": 1
  }
}