{
  "contractName": "ERC20",
  "abi": [
    {
      "inputs": [
        {
          "internalType": "string",
          "name": "_name",
          "type": "string"
        },
        {
          "internalType": "string",
          "name": "_symbol",
          "type": "string"
        },
        {
          "internalType": "uint256",
          "name": "_amount",
          "type": "uint256"
        }
      ],
      "stateMutability": "nonpayable",
      "type": "constructor"
    },
    {
      "anonymous": false,
      "inputs": [
        {
          "indexed": false,
          "internalType": "address",
          "name": "owner",
          "type": "address"
        },
        {
          "indexed": false,
          "internalType": "address",
          "name": "spender",
          "type": "address"
        },
        {
          "indexed": false,
          "internalType": "uint256",
          "name": "value",
          "type": "uint256"
        }
      ],
      "name": "Approval",
      "type": "event"
    },
    {
      "anonymous": false,
      "inputs": [
        {
          "indexed": false,
          "internalType": "address",
          "name": "from",
          "type": "address"
        },
        {
          "indexed": false,
          "internalType": "address",
          "name": "to",
          "type": "address"
        },
        {
          "indexed": false,
          "internalType": "uint256",
          "name": "value",
          "type": "uint256"
        }
      ],
      "name": "Transfer",
      "type": "event"
    },
    {
      "inputs": [
        {
          "internalType": "address",
          "name": "",
          "type": "address"
        },
        {
          "internalType": "address",
          "name": "",
          "type": "address"
        }
      ],
      "name": "allowance",
      "outputs": [
        {
          "internalType": "uint256",
          "name": "",
          "type": "uint256"
        }
      ],
      "stateMutability": "view",
      "type": "function"
    },
    {
      "inputs": [
        {
          "internalType": "address",
          "name": "",
          "type": "address"
        }
      ],
      "name": "balance",
      "outputs": [
        {
          "internalType": "uint256",
          "name": "",
          "type": "uint256"
        }
      ],
      "stateMutability": "view",
      "type": "function"
    },
    {
      "inputs": [],
      "name": "decimals",
      "outputs": [
        {
          "internalType": "uint8",
          "name": "",
          "type": "uint8"
        }
      ],
      "stateMutability": "view",
      "type": "function"
    },
    {
      "inputs": [],
      "name": "name",
      "outputs": [
        {
          "internalType": "string",
          "name": "",
          "type": "string"
        }
      ],
      "stateMutability": "view",
      "type": "function"
    },
    {
      "inputs": [],
      "name": "symbol",
      "outputs": [
        {
          "internalType": "string",
          "name": "",
          "type": "string"
        }
      ],
      "stateMutability": "view",
      "type": "function"
    },
    {
      "inputs": [],
      "name": "totalSupply",
      "outputs": [
        {
          "internalType": "uint256",
          "name": "",
          "type": "uint256"
        }
      ],
      "stateMutability": "view",
      "type": "function"
    },
    {
      "inputs": [
        {
          "internalType": "address",
          "name": "account",
          "type": "address"
        }
      ],
      "name": "balanceOf",
      "outputs": [
        {
          "internalType": "uint256",
          "name": "",
          "type": "uint256"
        }
      ],
      "stateMutability": "view",
      "type": "function"
    },
    {
      "inputs": [
        {
          "internalType": "address",
          "name": "to",
          "type": "address"
        },
        {
          "internalType": "uint256",
          "name": "amount",
          "type": "uint256"
        }
      ],
      "name": "transfer",
      "outputs": [
        {
          "internalType": "bool",
          "name": "",
          "type": "bool"
        }
      ],
      "stateMutability": "nonpayable",
      "type": "function"
    },
    {
      "inputs": [
        {
          "internalType": "address",
          "name": "spender",
          "type": "address"
        },
        {
          "internalType": "uint256",
          "name": "amount",
          "type": "uint256"
        }
      ],
      "name": "approve",
      "outputs": [
        {
          "internalType": "bool",
          "name": "",
          "type": "bool"
        }
      ],
      "stateMutability": "nonpayable",
      "type": "function"
    },
    {
      "inputs": [
        {
          "internalType": "address",
          "name": "spender",
          "type": "address"
        },
        {
          "internalType": "address",
          "name": "to",
          "type": "address"
        },
        {
          "internalType": "uint256",
          "name": "amount",
          "type": "uint256"
        }
      ],
      "name": "transferFrom",
      "outputs": [
        {
          "internalType": "bool",
          "name": "",
          "type": "bool"
        }
      ],
      "stateMutability": "nonpayable",
      "type": "function"
    },
    {
      "inputs": [
        {
          "internalType": "uint256",
          "name": "amount",
          "type": "uint256"
        }
      ],
      "name": "burn",
      "outputs": [],
      "stateMutability": "nonpayable",
      "type": "function"
    }
  ],
  "bytecode": "0x6080604052601260025f6101000a81548160ff021916908360ff1602179055503480156200002b575f80fd5b506040516200157138038062001571833981810160405281019062000051919062000329565b3360045f6101000a81548173ffffffffffffffffffffffffffffffffffffffff021916908373ffffffffffffffffffffffffffffffffffffffff160217905550825f9081620000a19190620005ee565b508160019081620000b39190620005ee565b50620000f160025f9054906101000a900460ff1660ff16600a620000d891906200084f565b82620000e591906200089f565b620000fa60201b60201c565b50505062000923565b8060055f3373ffffffffffffffffffffffffffffffffffffffff1673ffffffffffffffffffffffffffffffffffffffff1681526020019081526020015f205f828254620001489190620008e9565b925050819055508060035f828254620001629190620008e9565b9250508190555050565b5f604051905090565b5f80fd5b5f80fd5b5f80fd5b5f80fd5b5f601f19601f8301169050919050565b7f4e487b71000000000000000000000000000000000000000000000000000000005f52604160045260245ffd5b620001cd8262000185565b810181811067ffffffffffffffff82111715620001ef57620001ee62000195565b5b80604052505050565b5f620002036200016c565b9050620002118282620001c2565b919050565b5f67ffffffffffffffff82111562000233576200023262000195565b5b6200023e8262000185565b9050602081019050919050565b5f5b838110156200026a5780820151818401526020810190506200024d565b5f8484015250505050565b5f6200028b620002858462000216565b620001f8565b905082815260208101848484011115620002aa57620002a962000181565b5b620002b78482856200024b565b509392505050565b5f82601f830112620002d657620002d56200017d565b5b8151620002e884826020860162000275565b91505092915050565b5f819050919050565b6200030581620002f1565b811462000310575f80fd5b50565b5f815190506200032381620002fa565b92915050565b5f805f6060848603121562000343576200034262000175565b5b5f84015167ffffffffffffffff81111562000363576200036262000179565b5b6200037186828701620002bf565b935050602084015167ffffffffffffffff81111562000395576200039462000179565b5b620003a386828701620002bf565b9250506040620003b68682870162000313565b9150509250925092565b5f81519050919050565b7f4e487b71000000000000000000000000000000000000000000000000000000005f52602260045260245ffd5b5f60028204905060018216806200040f57607f821691505b602082108103620004255762000424620003ca565b5b50919050565b5f819050815f5260205f209050919050565b5f6020601f8301049050919050565b5f82821b905092915050565b5f60088302620004897fffffffffffffffffffffffffffffffffffffffffffffffffffffffffffffffff826200044c565b6200049586836200044c565b95508019841693508086168417925050509392505050565b5f819050919050565b5f620004d6620004d0620004ca84620002f1565b620004ad565b620002f1565b9050919050565b5f819050919050565b620004f183620004b6565b620005096200050082620004dd565b84845462000458565b825550505050565b5f90565b6200051f62000511565b6200052c818484620004e6565b505050565b5b818110156200055357620005475f8262000515565b60018101905062000532565b5050565b601f821115620005a2576200056c816200042b565b62000577846200043d565b8101602085101562000587578190505b6200059f62000596856200043d565b83018262000531565b50505b505050565b5f82821c905092915050565b5f620005c45f1984600802620005a7565b1980831691505092915050565b5f620005de8383620005b3565b9150826002028217905092915050565b620005f982620003c0565b67ffffffffffffffff81111562000615576200061462000195565b5b620006218254620003f7565b6200062e82828562000557565b5f60209050601f83116001811462000664575f84156200064f578287015190505b6200065b8582620005d1565b865550620006ca565b601f19841662000674866200042b565b5f5b828110156200069d5784890151825560018201915060208501945060208101905062000676565b86831015620006bd5784890151620006b9601f891682620005b3565b8355505b6001600288020188555050505b505050505050565b7f4e487b71000000000000000000000000000000000000000000000000000000005f52601160045260245ffd5b5f8160011c9050919050565b5f808291508390505b60018511156200075c57808604811115620007345762000733620006d2565b5b6001851615620007445780820291505b80810290506200075485620006ff565b945062000714565b94509492505050565b5f8262000776576001905062000848565b8162000785575f905062000848565b81600181146200079e5760028114620007a957620007df565b600191505062000848565b60ff841115620007be57620007bd620006d2565b5b8360020a915084821115620007d857620007d7620006d2565b5b5062000848565b5060208310610133831016604e8410600b8410161715620008195782820a905083811115620008135762000812620006d2565b5b62000848565b6200082884848460016200070b565b92509050818404811115620008425762000841620006d2565b5b81810290505b9392505050565b5f6200085b82620002f1565b91506200086883620002f1565b9250620008977fffffffffffffffffffffffffffffffffffffffffffffffffffffffffffffffff848462000765565b905092915050565b5f620008ab82620002f1565b9150620008b883620002f1565b9250828202620008c881620002f1565b91508282048414831517620008e257620008e1620006d2565b5b5092915050565b5f620008f582620002f1565b91506200090283620002f1565b92508282019050808211156200091d576200091c620006d2565b5b92915050565b610c4080620009315f395ff3fe608060405234801561000f575f80fd5b50600436106100a7575f3560e01c806342966c681161006f57806342966c681461016557806370a082311461018157806395d89b41146101b1578063a9059cbb146101cf578063dd62ed3e146101ff578063e3d670d71461022f576100a7565b806306fdde03146100ab578063095ea7b3146100c957806318160ddd146100f957806323b872dd14610117578063313ce56714610147575b5f80fd5b6100b361025f565b6040516100c09190610874565b60405180910390f35b6100e360048036038101906100de9190610925565b6102ea565b6040516100f0919061097d565b60405180910390f35b6101016103ad565b60405161010e91906109a5565b60405180910390f35b610131600480360381019061012c91906109be565b6103b3565b60405161013e919061097d565b60405180910390f35b61014f610577565b60405161015c9190610a29565b60405180910390f35b61017f600480360381019061017a9190610a42565b610589565b005b61019b60048036038101906101969190610a6d565b6105f7565b6040516101a891906109a5565b60405180910390f35b6101b961063d565b6040516101c69190610874565b60405180910390f35b6101e960048036038101906101e49190610925565b6106c9565b6040516101f6919061097d565b60405180910390f35b61021960048036038101906102149190610a98565b6107b5565b60405161022691906109a5565b60405180910390f35b61024960048036038101906102449190610a6d565b6107d5565b60405161025691906109a5565b60405180910390f35b5f805461026b90610b03565b80601f016020809104026020016040519081016040528092919081815260200182805461029790610b03565b80156102e25780601f106102b9576101008083540402835291602001916102e2565b820191905f5260205f20905b8154815290600101906020018083116102c557829003601f168201915b505050505081565b5f8160065f3373ffffffffffffffffffffffffffffffffffffffff1673ffffffffffffffffffffffffffffffffffffffff1681526020019081526020015f205f8573ffffffffffffffffffffffffffffffffffffffff1673ffffffffffffffffffffffffffffffffffffffff1681526020019081526020015f20819055507f8c5be1e5ebec7d5bd14f71427d1e84f3dd0314c0f7b2291e5b200ac8c7c3b92533848460405161039b93929190610b42565b60405180910390a16001905092915050565b60035481565b5f8160065f8673ffffffffffffffffffffffffffffffffffffffff1673ffffffffffffffffffffffffffffffffffffffff1681526020019081526020015f205f3373ffffffffffffffffffffffffffffffffffffffff1673ffffffffffffffffffffffffffffffffffffffff1681526020019081526020015f20541015610438575f80fd5b8160065f8673ffffffffffffffffffffffffffffffffffffffff1673ffffffffffffffffffffffffffffffffffffffff1681526020019081526020015f205f3373ffffffffffffffffffffffffffffffffffffffff1673ffffffffffffffffffffffffffffffffffffffff1681526020019081526020015f205f8282546104bf9190610ba4565b925050819055508160055f8673ffffffffffffffffffffffffffffffffffffffff1673ffffffffffffffffffffffffffffffffffffffff1681526020019081526020015f205f8282546105129190610ba4565b925050819055508160055f8573ffffffffffffffffffffffffffffffffffffffff1673ffffffffffffffffffffffffffffffffffffffff1681526020019081526020015f205f8282546105659190610bd7565b92505081905550600190509392505050565b60025f9054906101000a900460ff1681565b8060055f3373ffffffffffffffffffffffffffffffffffffffff1673ffffffffffffffffffffffffffffffffffffffff1681526020019081526020015f205f8282546105d59190610ba4565b925050819055508060035f8282546105ed9190610ba4565b9250508190555050565b5f60055f8373ffffffffffffffffffffffffffffffffffffffff1673ffffffffffffffffffffffffffffffffffffffff1681526020019081526020015f20549050919050565b6001805461064a90610b03565b80601f016020809104026020016040519081016040528092919081815260200182805461067690610b03565b80156106c15780601f10610698576101008083540402835291602001916106c1565b820191905f5260205f20905b8154815290600101906020018083116106a457829003601f168201915b505050505081565b5f8160055f3373ffffffffffffffffffffffffffffffffffffffff1673ffffffffffffffffffffffffffffffffffffffff1681526020019081526020015f205f8282546107169190610ba4565b925050819055508160055f8573ffffffffffffffffffffffffffffffffffffffff1673ffffffffffffffffffffffffffffffffffffffff1681526020019081526020015f205f8282546107699190610bd7565b925050819055507fddf252ad1be2c89b69c2b068fc378daa952ba7f163c4a11628f55a4df523b3ef3384846040516107a393929190610b42565b60405180910390a16001905092915050565b6006602052815f5260405f20602052805f5260405f205f91509150505481565b6005602052805f5260405f205f915090505481565b5f81519050919050565b5f82825260208201905092915050565b5f5b83811015610821578082015181840152602081019050610806565b5f8484015250505050565b5f601f19601f8301169050919050565b5f610846826107ea565b61085081856107f4565b9350610860818560208601610804565b6108698161082c565b840191505092915050565b5f6020820190508181035f83015261088c818461083c565b905092915050565b5f80fd5b5f73ffffffffffffffffffffffffffffffffffffffff82169050919050565b5f6108c182610898565b9050919050565b6108d1816108b7565b81146108db575f80fd5b50565b5f813590506108ec816108c8565b92915050565b5f819050919050565b610904816108f2565b811461090e575f80fd5b50565b5f8135905061091f816108fb565b92915050565b5f806040838503121561093b5761093a610894565b5b5f610948858286016108de565b925050602061095985828601610911565b9150509250929050565b5f8115159050919050565b61097781610963565b82525050565b5f6020820190506109905f83018461096e565b92915050565b61099f816108f2565b82525050565b5f6020820190506109b85f830184610996565b92915050565b5f805f606084860312156109d5576109d4610894565b5b5f6109e2868287016108de565b93505060206109f3868287016108de565b9250506040610a0486828701610911565b9150509250925092565b5f60ff82169050919050565b610a2381610a0e565b82525050565b5f602082019050610a3c5f830184610a1a565b92915050565b5f60208284031215610a5757610a56610894565b5b5f610a6484828501610911565b91505092915050565b5f60208284031215610a8257610a81610894565b5b5f610a8f848285016108de565b91505092915050565b5f8060408385031215610aae57610aad610894565b5b5f610abb858286016108de565b9250506020610acc858286016108de565b9150509250929050565b7f4e487b71000000000000000000000000000000000000000000000000000000005f52602260045260245ffd5b5f6002820490506001821680610b1a57607f821691505b602082108103610b2d57610b2c610ad6565b5b50919050565b610b3c816108b7565b82525050565b5f606082019050610b555f830186610b33565b610b626020830185610b33565b610b6f6040830184610996565b949350505050565b7f4e487b71000000000000000000000000000000000000000000000000000000005f52601160045260245ffd5b5f610bae826108f2565b9150610bb9836108f2565b9250828203905081811115610bd157610bd0610b77565b5b92915050565b5f610be1826108f2565b9150610bec836108f2565b9250828201905080821115610c0457610c03610b77565b5b9291505056fea26469706673582212209397825bddcd7f9da095015b4fde4ccf5c95e1b4fbf53febe3d8e4e4c2c4fa6064736f6c63430008150033",
  "immutableReferences": {},
  "source": "// SPDX-License-Identifier: MIT\n\npragma solidity ^0.8.19;\n\nimport \"./IERC20.sol\";\n\n// class     \n// implements \n\n// is   \ncontract ERC20 is IERC20 {\n    // ERC20  \n\n    //   \n    string public name;\n    //  (  ) ETH\n    string public symbol;\n\n    //       10\n    uint8 public decimals = 18;\n\n    //   \n    //     interface  virtual   \n    //   virtual \n    // override       \n    uint public override totalSupply;\n\n    //  ,        \n    address private owner;\n\n    //       \n    // memory     \n    // uint 256   .\n    //      memory  .\n    constructor(string memory _name, string memory _symbol, uint256 _amount) {\n        //     \n        //    \n        //     \n        owner = msg.sender;\n        name = _name;\n        symbol = _symbol;\n        //     \n        // _amount * (10 ** uint256(decimals))\n\n        //   \n        mint(_amount * (10 ** uint256(decimals)));\n    }\n\n    // balance        \n    mapping(address => uint) public balance;\n\n    //       \n    mapping(address => mapping(address => uint)) public override allowance;\n\n    //   \n    function balanceOf(address account) external view override returns (uint) {\n        return balance[account];\n    }\n\n    //     \n    function transfer(\n        address to,\n        uint amount\n    ) external override returns (bool) {\n        //    \n        balance[msg.sender] -= amount;\n        //    \n        balance[to] += amount;\n        // transfer     \n\n        // emit     \n        emit Transfer(msg.sender, to, amount);\n\n        //  true, false\n        return true;\n    }\n\n    //    \n    function approve(\n        address spender,\n        uint amount\n    ) external override returns (bool) {\n        //  \n        allowance[msg.sender][spender] = amount;\n        emit Approval(msg.sender, spender, amount);\n\n        return true;\n    }\n\n    //     3     \n    function transferFrom(\n        address spender,\n        address to,\n        uint amount\n    ) external override returns (bool) {\n        //         \n        require(allowance[spender][msg.sender] >= amount);\n        allowance[spender][msg.sender] -= amount;\n        balance[spender] -= amount;\n        balance[to] += amount;\n        return true;\n    }\n\n    //   \n    // internal    \n    function mint(uint amount) internal {\n        balance[msg.sender] += amount;\n        totalSupply += amount;\n    }\n\n    //    \n    //         .\n    function burn(uint amount) external {\n        balance[msg.sender] -= amount;\n        totalSupply -= amount;\n    }\n}\n",
  "sourcePath": "/Users/zerohoney/blockchain2/frontEnd/ts_lecture_react/contracts/ERC20.sol",
  "compiler": {
    "name": "solc",
    "version": "0.8.21+commit.d9974bed.Emscripten.clang"
  },
  "schemaVersion": "3.4.16",
  "updatedAt": "2023-10-10T07:13:11.790Z",
  "devdoc": {
    "kind": "dev",
    "methods": {},
    "version": 1
  },
  "userdoc": {
    "kind": "user",
    "methods": {},
    "version": 1
  }
}