{
	"data": {
		"bytecode": {
			"linkReferences": {},
			"object": "60806040526012600260006101000a81548160ff021916908360ff160217905550683635c9adc5dea0000060075560405180606001604052806040518060400160405280600781526020017f70696b616368750000000000000000000000000000000000000000000000000081525081526020016040518060400160405280600581526020017f6b6f62756b00000000000000000000000000000000000000000000000000000081525081526020016040518060400160405280600a81526020017f436861726d616e646572000000000000000000000000000000000000000000008152508152506008906003620000f992919062000395565b5060405180606001604052806040518060e0016040528060be8152602001620034eb60be913981526020016040518060800160405280604381526020016200346f604391398152602001604051806060016040528060398152602001620034b26039913981525060099060036200017292919062000395565b503480156200018057600080fd5b506040518060400160405280600881526020017f506f6b65746d6f6e0000000000000000000000000000000000000000000000008152506040518060400160405280600381526020017f504b54000000000000000000000000000000000000000000000000000000000081525061271033600460006101000a81548173ffffffffffffffffffffffffffffffffffffffff021916908373ffffffffffffffffffffffffffffffffffffffff1602179055508260009081620002429190620006fc565b50600180546200025290620004eb565b80601f01602080910402602001604051908101604052809291908181526020018280546200028090620004eb565b8015620002d15780601f10620002a557610100808354040283529160200191620002d1565b820191906000526020600020905b815481529060010190602001808311620002b357829003601f168201915b5050505050915062000316600260009054906101000a900460ff1660ff16600a620002fd919062000966565b826200030a9190620009b7565b6200031f60201b60201c565b50505062000a3d565b80600560003373ffffffffffffffffffffffffffffffffffffffff1673ffffffffffffffffffffffffffffffffffffffff168152602001908152602001600020600082825462000370919062000a02565b9250508190555080600360008282546200038b919062000a02565b9250508190555050565b828054828255906000526020600020908101928215620003e2579160200282015b82811115620003e1578251829081620003d09190620006fc565b5091602001919060010190620003b6565b5b509050620003f19190620003f5565b5090565b5b808211156200041957600081816200040f91906200041d565b50600101620003f6565b5090565b5080546200042b90620004eb565b6000825580601f106200043f575062000460565b601f0160209004906000526020600020908101906200045f919062000463565b5b50565b5b808211156200047e57600081600090555060010162000464565b5090565b600081519050919050565b7f4e487b7100000000000000000000000000000000000000000000000000000000600052604160045260246000fd5b7f4e487b7100000000000000000000000000000000000000000000000000000000600052602260045260246000fd5b600060028204905060018216806200050457607f821691505b6020821081036200051a5762000519620004bc565b5b50919050565b60008190508160005260206000209050919050565b60006020601f8301049050919050565b600082821b905092915050565b600060088302620005847fffffffffffffffffffffffffffffffffffffffffffffffffffffffffffffffff8262000545565b62000590868362000545565b95508019841693508086168417925050509392505050565b6000819050919050565b6000819050919050565b6000620005dd620005d7620005d184620005a8565b620005b2565b620005a8565b9050919050565b6000819050919050565b620005f983620005bc565b620006116200060882620005e4565b84845462000552565b825550505050565b600090565b6200062862000619565b62000635818484620005ee565b505050565b5b818110156200065d57620006516000826200061e565b6001810190506200063b565b5050565b601f821115620006ac57620006768162000520565b620006818462000535565b8101602085101562000691578190505b620006a9620006a08562000535565b8301826200063a565b50505b505050565b600082821c905092915050565b6000620006d160001984600802620006b1565b1980831691505092915050565b6000620006ec8383620006be565b9150826002028217905092915050565b620007078262000482565b67ffffffffffffffff8111156200072357620007226200048d565b5b6200072f8254620004eb565b6200073c82828562000661565b600060209050601f8311600181146200077457600084156200075f578287015190505b6200076b8582620006de565b865550620007db565b601f198416620007848662000520565b60005b82811015620007ae5784890151825560018201915060208501945060208101905062000787565b86831015620007ce5784890151620007ca601f891682620006be565b8355505b6001600288020188555050505b505050505050565b7f4e487b7100000000000000000000000000000000000000000000000000000000600052601160045260246000fd5b60008160011c9050919050565b6000808291508390505b60018511156200087157808604811115620008495762000848620007e3565b5b6001851615620008595780820291505b8081029050620008698562000812565b945062000829565b94509492505050565b6000826200088c57600190506200095f565b816200089c57600090506200095f565b8160018114620008b55760028114620008c057620008f6565b60019150506200095f565b60ff841115620008d557620008d4620007e3565b5b8360020a915084821115620008ef57620008ee620007e3565b5b506200095f565b5060208310610133831016604e8410600b8410161715620009305782820a9050838111156200092a5762000929620007e3565b5b6200095f565b6200093f84848460016200081f565b92509050818404811115620009595762000958620007e3565b5b81810290505b9392505050565b60006200097382620005a8565b91506200098083620005a8565b9250620009af7fffffffffffffffffffffffffffffffffffffffffffffffffffffffffffffffff84846200087a565b905092915050565b6000620009c482620005a8565b9150620009d183620005a8565b9250828202620009e181620005a8565b91508282048414831517620009fb57620009fa620007e3565b5b5092915050565b600062000a0f82620005a8565b915062000a1c83620005a8565b925082820190508082111562000a375762000a36620007e3565b5b92915050565b612a228062000a4d6000396000f3fe60806040526004361061010d5760003560e01c806370a082311161009557806395d89b411161006457806395d89b411461054b578063a9059cbb14610576578063d756ae70146105b3578063dd62ed3e146105bd578063e3d670d7146105fa576102c0565b806370a08231146104685780637ff9cd71146104a5578063860b951d146104d0578063929619391461050e576102c0565b806326255d8d116100dc57806326255d8d146103955780632eab183d146103ac578063313ce567146103d7578063365b98b21461040257806342966c681461043f576102c0565b806306fdde03146102c5578063095ea7b3146102f057806318160ddd1461032d57806323b872dd14610358576102c0565b366102c057600060c8346101219190611be1565b90508060056000600460009054906101000a900473ffffffffffffffffffffffffffffffffffffffff1673ffffffffffffffffffffffffffffffffffffffff1673ffffffffffffffffffffffffffffffffffffffff16815260200190815260200160002054101561019157600080fd5b8060056000600460009054906101000a900473ffffffffffffffffffffffffffffffffffffffff1673ffffffffffffffffffffffffffffffffffffffff1673ffffffffffffffffffffffffffffffffffffffff16815260200190815260200160002060008282546102029190611c23565b9250508190555080600560003373ffffffffffffffffffffffffffffffffffffffff1673ffffffffffffffffffffffffffffffffffffffff16815260200190815260200160002060008282546102589190611c57565b92505081905550600460009054906101000a900473ffffffffffffffffffffffffffffffffffffffff1673ffffffffffffffffffffffffffffffffffffffff163373ffffffffffffffffffffffffffffffffffffffff16036102be576102bd81610637565b5b005b600080fd5b3480156102d157600080fd5b506102da6106a9565b6040516102e79190611d1b565b60405180910390f35b3480156102fc57600080fd5b5061031760048036038101906103129190611ddb565b610737565b6040516103249190611e36565b60405180910390f35b34801561033957600080fd5b506103426107c4565b60405161034f9190611e60565b60405180910390f35b34801561036457600080fd5b5061037f600480360381019061037a9190611e7b565b6107ca565b60405161038c9190611e36565b60405180910390f35b3480156103a157600080fd5b506103aa61099f565b005b3480156103b857600080fd5b506103c1610dd9565b6040516103ce919061201e565b60405180910390f35b3480156103e357600080fd5b506103ec610f99565b6040516103f9919061205c565b60405180910390f35b34801561040e57600080fd5b5061042960048036038101906104249190612077565b610fac565b60405161043691906120b3565b60405180910390f35b34801561044b57600080fd5b5061046660048036038101906104619190612077565b610ff6565b005b34801561047457600080fd5b5061048f600480360381019061048a91906120ce565b611068565b60405161049c9190611e60565b60405180910390f35b3480156104b157600080fd5b506104ba6110b1565b6040516104c791906121d5565b60405180910390f35b3480156104dc57600080fd5b506104f760048036038101906104f29190611ddb565b611162565b6040516105059291906121f7565b60405180910390f35b34801561051a57600080fd5b5061053560048036038101906105309190612363565b6112b3565b6040516105429190611e36565b60405180910390f35b34801561055757600080fd5b50610560611973565b60405161056d9190611d1b565b60405180910390f35b34801561058257600080fd5b5061059d60048036038101906105989190611ddb565b611a01565b6040516105aa9190611e36565b60405180910390f35b6105bb611ab9565b005b3480156105c957600080fd5b506105e460048036038101906105df91906123bf565b611b0e565b6040516105f19190611e60565b60405180910390f35b34801561060657600080fd5b50610621600480360381019061061c91906120ce565b611b33565b60405161062e9190611e60565b60405180910390f35b80600560003373ffffffffffffffffffffffffffffffffffffffff1673ffffffffffffffffffffffffffffffffffffffff16815260200190815260200160002060008282546106869190611c57565b92505081905550806003600082825461069f9190611c57565b9250508190555050565b600080546106b69061242e565b80601f01602080910402602001604051908101604052809291908181526020018280546106e29061242e565b801561072f5780601f106107045761010080835404028352916020019161072f565b820191906000526020600020905b81548152906001019060200180831161071257829003601f168201915b505050505081565b600081600660003373ffffffffffffffffffffffffffffffffffffffff1673ffffffffffffffffffffffffffffffffffffffff16815260200190815260200160002060008573ffffffffffffffffffffffffffffffffffffffff1673ffffffffffffffffffffffffffffffffffffffff168152602001908152602001600020819055506001905092915050565b60035481565b600081600660008673ffffffffffffffffffffffffffffffffffffffff1673ffffffffffffffffffffffffffffffffffffffff16815260200190815260200160002060003373ffffffffffffffffffffffffffffffffffffffff1673ffffffffffffffffffffffffffffffffffffffff16815260200190815260200160002054101561085557600080fd5b81600660008673ffffffffffffffffffffffffffffffffffffffff1673ffffffffffffffffffffffffffffffffffffffff16815260200190815260200160002060003373ffffffffffffffffffffffffffffffffffffffff1673ffffffffffffffffffffffffffffffffffffffff16815260200190815260200160002060008282546108e19190611c23565b9250508190555081600560008673ffffffffffffffffffffffffffffffffffffffff1673ffffffffffffffffffffffffffffffffffffffff16815260200190815260200160002060008282546109379190611c23565b9250508190555081600560008573ffffffffffffffffffffffffffffffffffffffff1673ffffffffffffffffffffffffffffffffffffffff168152602001908152602001600020600082825461098d9190611c57565b92505081905550600190509392505050565b600754600560003373ffffffffffffffffffffffffffffffffffffffff1673ffffffffffffffffffffffffffffffffffffffff1681526020019081526020016000205410156109ed57600080fd5b600754600560003373ffffffffffffffffffffffffffffffffffffffff1673ffffffffffffffffffffffffffffffffffffffff1681526020019081526020016000206000828254610a3e9190611c23565b9250508190555060075460036000828254610a599190611c23565b925050819055506000424143604051602001610a77939291906124da565b6040516020818303038152906040528051906020012060001c9050600381610a9f9190612546565b9050600a60003373ffffffffffffffffffffffffffffffffffffffff1673ffffffffffffffffffffffffffffffffffffffff168152602001908152602001600020604051806040016040528060098481548110610aff57610afe612577565b5b906000526020600020018054610b149061242e565b80601f0160208091040260200160405190810160405280929190818152602001828054610b409061242e565b8015610b8d5780601f10610b6257610100808354040283529160200191610b8d565b820191906000526020600020905b815481529060010190602001808311610b7057829003601f168201915b5050505050815260200160088481548110610bab57610baa612577565b5b906000526020600020018054610bc09061242e565b80601f0160208091040260200160405190810160405280929190818152602001828054610bec9061242e565b8015610c395780601f10610c0e57610100808354040283529160200191610c39565b820191906000526020600020905b815481529060010190602001808311610c1c57829003601f168201915b505050505081525090806001815401808255809150506001900390600052602060002090600202016000909190919091506000820151816000019081610c7f9190612752565b506020820151816001019081610c959190612752565b5050506000805b600b80549050811015610d39573373ffffffffffffffffffffffffffffffffffffffff16600b8281548110610cd457610cd3612577565b5b9060005260206000200160000160009054906101000a900473ffffffffffffffffffffffffffffffffffffffff1673ffffffffffffffffffffffffffffffffffffffff1603610d265760019150610d39565b8080610d3190612824565b915050610c9c565b5080610dd557600b60405180602001604052803373ffffffffffffffffffffffffffffffffffffffff168152509080600181540180825580915050600190039060005260206000200160009091909190915060008201518160000160006101000a81548173ffffffffffffffffffffffffffffffffffffffff021916908373ffffffffffffffffffffffffffffffffffffffff16021790555050505b5050565b6060600a60003373ffffffffffffffffffffffffffffffffffffffff1673ffffffffffffffffffffffffffffffffffffffff168152602001908152602001600020805480602002602001604051908101604052809291908181526020016000905b82821015610f905783829060005260206000209060020201604051806040016040529081600082018054610e6d9061242e565b80601f0160208091040260200160405190810160405280929190818152602001828054610e999061242e565b8015610ee65780601f10610ebb57610100808354040283529160200191610ee6565b820191906000526020600020905b815481529060010190602001808311610ec957829003601f168201915b50505050508152602001600182018054610eff9061242e565b80601f0160208091040260200160405190810160405280929190818152602001828054610f2b9061242e565b8015610f785780601f10610f4d57610100808354040283529160200191610f78565b820191906000526020600020905b815481529060010190602001808311610f5b57829003601f168201915b50505050508152505081526020019060010190610e3a565b50505050905090565b600260009054906101000a900460ff1681565b600b8181548110610fbc57600080fd5b906000526020600020016000915090508060000160009054906101000a900473ffffffffffffffffffffffffffffffffffffffff16905081565b80600560003373ffffffffffffffffffffffffffffffffffffffff1673ffffffffffffffffffffffffffffffffffffffff16815260200190815260200160002060008282546110459190611c23565b92505081905550806003600082825461105e9190611c23565b9250508190555050565b6000600560008373ffffffffffffffffffffffffffffffffffffffff1673ffffffffffffffffffffffffffffffffffffffff168152602001908152602001600020549050919050565b6060600b805480602002602001604051908101604052809291908181526020016000905b82821015611159578382906000526020600020016040518060200160405290816000820160009054906101000a900473ffffffffffffffffffffffffffffffffffffffff1673ffffffffffffffffffffffffffffffffffffffff1673ffffffffffffffffffffffffffffffffffffffff1681525050815260200190600101906110d5565b50505050905090565b600a602052816000526040600020818154811061117e57600080fd5b9060005260206000209060020201600091509150508060000180546111a29061242e565b80601f01602080910402602001604051908101604052809291908181526020018280546111ce9061242e565b801561121b5780601f106111f05761010080835404028352916020019161121b565b820191906000526020600020905b8154815290600101906020018083116111fe57829003601f168201915b5050505050908060010180546112309061242e565b80601f016020809104026020016040519081016040528092919081815260200182805461125c9061242e565b80156112a95780601f1061127e576101008083540402835291602001916112a9565b820191906000526020600020905b81548152906001019060200180831161128c57829003601f168201915b5050505050905082565b600080600a60003373ffffffffffffffffffffffffffffffffffffffff1673ffffffffffffffffffffffffffffffffffffffff168152602001908152602001600020805480602002602001604051908101604052809291908181526020016000905b8282101561146b57838290600052602060002090600202016040518060400160405290816000820180546113489061242e565b80601f01602080910402602001604051908101604052809291908181526020018280546113749061242e565b80156113c15780601f10611396576101008083540402835291602001916113c1565b820191906000526020600020905b8154815290600101906020018083116113a457829003601f168201915b505050505081526020016001820180546113da9061242e565b80601f01602080910402602001604051908101604052809291908181526020018280546114069061242e565b80156114535780601f1061142857610100808354040283529160200191611453565b820191906000526020600020905b81548152906001019060200180831161143657829003601f168201915b50505050508152505081526020019060010190611315565b505050509050606060005b8251811015611966578460405160200161149091906128a8565b604051602081830303815290604052805190602001208382815181106114b9576114b8612577565b5b6020026020010151602001516040516020016114d591906128a8565b6040516020818303038152906040528051906020012003611953576000600a60003373ffffffffffffffffffffffffffffffffffffffff1673ffffffffffffffffffffffffffffffffffffffff168152602001908152602001600020828154811061154357611542612577565b5b9060005260206000209060020201600101805461155f9061242e565b80601f016020809104026020016040519081016040528092919081815260200182805461158b9061242e565b80156115d85780601f106115ad576101008083540402835291602001916115d8565b820191906000526020600020905b8154815290600101906020018083116115bb57829003601f168201915b505050505090506000600a60003373ffffffffffffffffffffffffffffffffffffffff1673ffffffffffffffffffffffffffffffffffffffff168152602001908152602001600020838154811061163257611631612577565b5b9060005260206000209060020201600001805461164e9061242e565b80601f016020809104026020016040519081016040528092919081815260200182805461167a9061242e565b80156116c75780601f1061169c576101008083540402835291602001916116c7565b820191906000526020600020905b8154815290600101906020018083116116aa57829003601f168201915b50505050509050600a60008973ffffffffffffffffffffffffffffffffffffffff1673ffffffffffffffffffffffffffffffffffffffff168152602001908152602001600020604051806040016040528083815260200184815250908060018154018082558091505060019003906000526020600020906002020160009091909190915060008201518160000190816117609190612752565b5060208201518160010190816117769190612752565b5050506001600a60003373ffffffffffffffffffffffffffffffffffffffff1673ffffffffffffffffffffffffffffffffffffffff168152602001908152602001600020805490506117c89190611c23565b8310156118c857600a60003373ffffffffffffffffffffffffffffffffffffffff1673ffffffffffffffffffffffffffffffffffffffff1681526020019081526020016000206001865161181c9190611c23565b8154811061182d5761182c612577565b5b9060005260206000209060020201600a60003373ffffffffffffffffffffffffffffffffffffffff1673ffffffffffffffffffffffffffffffffffffffff168152602001908152602001600020848154811061188c5761188b612577565b5b9060005260206000209060020201600082018160000190816118ae91906128d5565b50600182018160010190816118c391906128d5565b509050505b600a60003373ffffffffffffffffffffffffffffffffffffffff1673ffffffffffffffffffffffffffffffffffffffff168152602001908152602001600020805480611917576119166129bd565b5b60019003818190600052602060002090600202016000808201600061193c9190611b4b565b60018201600061194c9190611b4b565b5050905550505b808061195e90612824565b915050611476565b5060019250505092915050565b600180546119809061242e565b80601f01602080910402602001604051908101604052809291908181526020018280546119ac9061242e565b80156119f95780601f106119ce576101008083540402835291602001916119f9565b820191906000526020600020905b8154815290600101906020018083116119dc57829003601f168201915b505050505081565b600081600560003373ffffffffffffffffffffffffffffffffffffffff1673ffffffffffffffffffffffffffffffffffffffff1681526020019081526020016000206000828254611a529190611c23565b9250508190555081600560008573ffffffffffffffffffffffffffffffffffffffff1673ffffffffffffffffffffffffffffffffffffffff1681526020019081526020016000206000828254611aa89190611c57565b925050819055506001905092915050565b600030905060008190508073ffffffffffffffffffffffffffffffffffffffff166108fc349081150290604051600060405180830381858888f19350505050158015611b09573d6000803e3d6000fd5b505050565b6006602052816000526040600020602052806000526040600020600091509150505481565b60056020528060005260406000206000915090505481565b508054611b579061242e565b6000825580601f10611b695750611b88565b601f016020900490600052602060002090810190611b879190611b8b565b5b50565b5b80821115611ba4576000816000905550600101611b8c565b5090565b6000819050919050565b7f4e487b7100000000000000000000000000000000000000000000000000000000600052601160045260246000fd5b6000611bec82611ba8565b9150611bf783611ba8565b9250828202611c0581611ba8565b91508282048414831517611c1c57611c1b611bb2565b5b5092915050565b6000611c2e82611ba8565b9150611c3983611ba8565b9250828203905081811115611c5157611c50611bb2565b5b92915050565b6000611c6282611ba8565b9150611c6d83611ba8565b9250828201905080821115611c8557611c84611bb2565b5b92915050565b600081519050919050565b600082825260208201905092915050565b60005b83811015611cc5578082015181840152602081019050611caa565b60008484015250505050565b6000601f19601f8301169050919050565b6000611ced82611c8b565b611cf78185611c96565b9350611d07818560208601611ca7565b611d1081611cd1565b840191505092915050565b60006020820190508181036000830152611d358184611ce2565b905092915050565b6000604051905090565b600080fd5b600080fd5b600073ffffffffffffffffffffffffffffffffffffffff82169050919050565b6000611d7c82611d51565b9050919050565b611d8c81611d71565b8114611d9757600080fd5b50565b600081359050611da981611d83565b92915050565b611db881611ba8565b8114611dc357600080fd5b50565b600081359050611dd581611daf565b92915050565b60008060408385031215611df257611df1611d47565b5b6000611e0085828601611d9a565b9250506020611e1185828601611dc6565b9150509250929050565b60008115159050919050565b611e3081611e1b565b82525050565b6000602082019050611e4b6000830184611e27565b92915050565b611e5a81611ba8565b82525050565b6000602082019050611e756000830184611e51565b92915050565b600080600060608486031215611e9457611e93611d47565b5b6000611ea286828701611d9a565b9350506020611eb386828701611d9a565b9250506040611ec486828701611dc6565b9150509250925092565b600081519050919050565b600082825260208201905092915050565b6000819050602082019050919050565b600082825260208201905092915050565b6000611f1682611c8b565b611f208185611efa565b9350611f30818560208601611ca7565b611f3981611cd1565b840191505092915050565b60006040830160008301518482036000860152611f618282611f0b565b91505060208301518482036020860152611f7b8282611f0b565b9150508091505092915050565b6000611f948383611f44565b905092915050565b6000602082019050919050565b6000611fb482611ece565b611fbe8185611ed9565b935083602082028501611fd085611eea565b8060005b8581101561200c5784840389528151611fed8582611f88565b9450611ff883611f9c565b925060208a01995050600181019050611fd4565b50829750879550505050505092915050565b600060208201905081810360008301526120388184611fa9565b905092915050565b600060ff82169050919050565b61205681612040565b82525050565b6000602082019050612071600083018461204d565b92915050565b60006020828403121561208d5761208c611d47565b5b600061209b84828501611dc6565b91505092915050565b6120ad81611d71565b82525050565b60006020820190506120c860008301846120a4565b92915050565b6000602082840312156120e4576120e3611d47565b5b60006120f284828501611d9a565b91505092915050565b600081519050919050565b600082825260208201905092915050565b6000819050602082019050919050565b61213081611d71565b82525050565b60208201600082015161214c6000850182612127565b50505050565b600061215e8383612136565b60208301905092915050565b6000602082019050919050565b6000612182826120fb565b61218c8185612106565b935061219783612117565b8060005b838110156121c85781516121af8882612152565b97506121ba8361216a565b92505060018101905061219b565b5085935050505092915050565b600060208201905081810360008301526121ef8184612177565b905092915050565b600060408201905081810360008301526122118185611ce2565b905081810360208301526122258184611ce2565b90509392505050565b600080fd5b600080fd5b7f4e487b7100000000000000000000000000000000000000000000000000000000600052604160045260246000fd5b61227082611cd1565b810181811067ffffffffffffffff8211171561228f5761228e612238565b5b80604052505050565b60006122a2611d3d565b90506122ae8282612267565b919050565b600067ffffffffffffffff8211156122ce576122cd612238565b5b6122d782611cd1565b9050602081019050919050565b82818337600083830152505050565b6000612306612301846122b3565b612298565b90508281526020810184848401111561232257612321612233565b5b61232d8482856122e4565b509392505050565b600082601f83011261234a5761234961222e565b5b813561235a8482602086016122f3565b91505092915050565b6000806040838503121561237a57612379611d47565b5b600061238885828601611d9a565b925050602083013567ffffffffffffffff8111156123a9576123a8611d4c565b5b6123b585828601612335565b9150509250929050565b600080604083850312156123d6576123d5611d47565b5b60006123e485828601611d9a565b92505060206123f585828601611d9a565b9150509250929050565b7f4e487b7100000000000000000000000000000000000000000000000000000000600052602260045260246000fd5b6000600282049050600182168061244657607f821691505b602082108103612459576124586123ff565b5b50919050565b6000819050919050565b61247a61247582611ba8565b61245f565b82525050565b600061248b82611d51565b9050919050565b60008160601b9050919050565b60006124aa82612492565b9050919050565b60006124bc8261249f565b9050919050565b6124d46124cf82612480565b6124b1565b82525050565b60006124e68286612469565b6020820191506124f682856124c3565b6014820191506125068284612469565b602082019150819050949350505050565b7f4e487b7100000000000000000000000000000000000000000000000000000000600052601260045260246000fd5b600061255182611ba8565b915061255c83611ba8565b92508261256c5761256b612517565b5b828206905092915050565b7f4e487b7100000000000000000000000000000000000000000000000000000000600052603260045260246000fd5b60008190508160005260206000209050919050565b60006020601f8301049050919050565b600082821b905092915050565b6000600883026126087fffffffffffffffffffffffffffffffffffffffffffffffffffffffffffffffff826125cb565b61261286836125cb565b95508019841693508086168417925050509392505050565b6000819050919050565b600061264f61264a61264584611ba8565b61262a565b611ba8565b9050919050565b6000819050919050565b61266983612634565b61267d61267582612656565b8484546125d8565b825550505050565b600090565b612692612685565b61269d818484612660565b505050565b5b818110156126c1576126b660008261268a565b6001810190506126a3565b5050565b601f821115612706576126d7816125a6565b6126e0846125bb565b810160208510156126ef578190505b6127036126fb856125bb565b8301826126a2565b50505b505050565b600082821c905092915050565b60006127296000198460080261270b565b1980831691505092915050565b60006127428383612718565b9150826002028217905092915050565b61275b82611c8b565b67ffffffffffffffff81111561277457612773612238565b5b61277e825461242e565b6127898282856126c5565b600060209050601f8311600181146127bc57600084156127aa578287015190505b6127b48582612736565b86555061281c565b601f1984166127ca866125a6565b60005b828110156127f2578489015182556001820191506020850194506020810190506127cd565b8683101561280f578489015161280b601f891682612718565b8355505b6001600288020188555050505b505050505050565b600061282f82611ba8565b91507fffffffffffffffffffffffffffffffffffffffffffffffffffffffffffffffff820361286157612860611bb2565b5b600182019050919050565b600081905092915050565b600061288282611c8b565b61288c818561286c565b935061289c818560208601611ca7565b80840191505092915050565b60006128b48284612877565b915081905092915050565b6000815490506128ce8161242e565b9050919050565b8181036128e35750506129bb565b6128ec826128bf565b67ffffffffffffffff81111561290557612904612238565b5b61290f825461242e565b61291a8282856126c5565b6000601f8311600181146129495760008415612937578287015490505b6129418582612736565b8655506129b4565b601f198416612957876125a6565b9650612962866125a6565b60005b8281101561298a57848901548255600182019150600185019450602081019050612965565b868310156129a757848901546129a3601f891682612718565b8355505b6001600288020188555050505b5050505050505b565b7f4e487b7100000000000000000000000000000000000000000000000000000000600052603160045260246000fdfea2646970667358221220fcc56c83013979fb669c36021e522b65eecc67c5b1353550c978aef81121267364736f6c6343000813003368747470733a2f2f6d656469612e62756e6a616e672e636f2e6b722f70726f647563742f3230383334313138305f315f313639313534383732395f773138302e6a706768747470733a2f2f69312e72756c697765622e636f6d2f696d672f31392f31312f30382f31366534396539663166663530393338362e6a706768747470733a2f2f7374617469632e77696b69612e6e6f636f6f6b69652e6e65742f706f6b656d6f6e2f696d616765732f382f38652f2545422539342542302545422539442542432545442538312539305f2545412542332542352545432538422539445f2545432539442542432545422539462541432545432538412541342545442538412542382e706e672f7265766973696f6e2f6c61746573743f63623d323031373038303430353435303226706174682d7072656669783d6b6f",
			"opcodes": "PUSH1 0x80 PUSH1 0x40 MSTORE PUSH1 0x12 PUSH1 0x2 PUSH1 0x0 PUSH2 0x100 EXP DUP2 SLOAD DUP2 PUSH1 0xFF MUL NOT AND SWAP1 DUP4 PUSH1 0xFF AND MUL OR SWAP1 SSTORE POP PUSH9 0x3635C9ADC5DEA00000 PUSH1 0x7 SSTORE PUSH1 0x40 MLOAD DUP1 PUSH1 0x60 ADD PUSH1 0x40 MSTORE DUP1 PUSH1 0x40 MLOAD DUP1 PUSH1 0x40 ADD PUSH1 0x40 MSTORE DUP1 PUSH1 0x7 DUP2 MSTORE PUSH1 0x20 ADD PUSH32 0x70696B6163687500000000000000000000000000000000000000000000000000 DUP2 MSTORE POP DUP2 MSTORE PUSH1 0x20 ADD PUSH1 0x40 MLOAD DUP1 PUSH1 0x40 ADD PUSH1 0x40 MSTORE DUP1 PUSH1 0x5 DUP2 MSTORE PUSH1 0x20 ADD PUSH32 0x6B6F62756B000000000000000000000000000000000000000000000000000000 DUP2 MSTORE POP DUP2 MSTORE PUSH1 0x20 ADD PUSH1 0x40 MLOAD DUP1 PUSH1 0x40 ADD PUSH1 0x40 MSTORE DUP1 PUSH1 0xA DUP2 MSTORE PUSH1 0x20 ADD PUSH32 0x436861726D616E64657200000000000000000000000000000000000000000000 DUP2 MSTORE POP DUP2 MSTORE POP PUSH1 0x8 SWAP1 PUSH1 0x3 PUSH3 0xF9 SWAP3 SWAP2 SWAP1 PUSH3 0x395 JUMP JUMPDEST POP PUSH1 0x40 MLOAD DUP1 PUSH1 0x60 ADD PUSH1 0x40 MSTORE DUP1 PUSH1 0x40 MLOAD DUP1 PUSH1 0xE0 ADD PUSH1 0x40 MSTORE DUP1 PUSH1 0xBE DUP2 MSTORE PUSH1 0x20 ADD PUSH3 0x34EB PUSH1 0xBE SWAP2 CODECOPY DUP2 MSTORE PUSH1 0x20 ADD PUSH1 0x40 MLOAD DUP1 PUSH1 0x80 ADD PUSH1 0x40 MSTORE DUP1 PUSH1 0x43 DUP2 MSTORE PUSH1 0x20 ADD PUSH3 0x346F PUSH1 0x43 SWAP2 CODECOPY DUP2 MSTORE PUSH1 0x20 ADD PUSH1 0x40 MLOAD DUP1 PUSH1 0x60 ADD PUSH1 0x40 MSTORE DUP1 PUSH1 0x39 DUP2 MSTORE PUSH1 0x20 ADD PUSH3 0x34B2 PUSH1 0x39 SWAP2 CODECOPY DUP2 MSTORE POP PUSH1 0x9 SWAP1 PUSH1 0x3 PUSH3 0x172 SWAP3 SWAP2 SWAP1 PUSH3 0x395 JUMP JUMPDEST POP CALLVALUE DUP1 ISZERO PUSH3 0x180 JUMPI PUSH1 0x0 DUP1 REVERT JUMPDEST POP PUSH1 0x40 MLOAD DUP1 PUSH1 0x40 ADD PUSH1 0x40 MSTORE DUP1 PUSH1 0x8 DUP2 MSTORE PUSH1 0x20 ADD PUSH32 0x506F6B65746D6F6E000000000000000000000000000000000000000000000000 DUP2 MSTORE POP PUSH1 0x40 MLOAD DUP1 PUSH1 0x40 ADD PUSH1 0x40 MSTORE DUP1 PUSH1 0x3 DUP2 MSTORE PUSH1 0x20 ADD PUSH32 0x504B540000000000000000000000000000000000000000000000000000000000 DUP2 MSTORE POP PUSH2 0x2710 CALLER PUSH1 0x4 PUSH1 0x0 PUSH2 0x100 EXP DUP2 SLOAD DUP2 PUSH20 0xFFFFFFFFFFFFFFFFFFFFFFFFFFFFFFFFFFFFFFFF MUL NOT AND SWAP1 DUP4 PUSH20 0xFFFFFFFFFFFFFFFFFFFFFFFFFFFFFFFFFFFFFFFF AND MUL OR SWAP1 SSTORE POP DUP3 PUSH1 0x0 SWAP1 DUP2 PUSH3 0x242 SWAP2 SWAP1 PUSH3 0x6FC JUMP JUMPDEST POP PUSH1 0x1 DUP1 SLOAD PUSH3 0x252 SWAP1 PUSH3 0x4EB JUMP JUMPDEST DUP1 PUSH1 0x1F ADD PUSH1 0x20 DUP1 SWAP2 DIV MUL PUSH1 0x20 ADD PUSH1 0x40 MLOAD SWAP1 DUP2 ADD PUSH1 0x40 MSTORE DUP1 SWAP3 SWAP2 SWAP1 DUP2 DUP2 MSTORE PUSH1 0x20 ADD DUP3 DUP1 SLOAD PUSH3 0x280 SWAP1 PUSH3 0x4EB JUMP JUMPDEST DUP1 ISZERO PUSH3 0x2D1 JUMPI DUP1 PUSH1 0x1F LT PUSH3 0x2A5 JUMPI PUSH2 0x100 DUP1 DUP4 SLOAD DIV MUL DUP4 MSTORE SWAP2 PUSH1 0x20 ADD SWAP2 PUSH3 0x2D1 JUMP JUMPDEST DUP3 ADD SWAP2 SWAP1 PUSH1 0x0 MSTORE PUSH1 0x20 PUSH1 0x0 KECCAK256 SWAP1 JUMPDEST DUP2 SLOAD DUP2 MSTORE SWAP1 PUSH1 0x1 ADD SWAP1 PUSH1 0x20 ADD DUP1 DUP4 GT PUSH3 0x2B3 JUMPI DUP3 SWAP1 SUB PUSH1 0x1F AND DUP3 ADD SWAP2 JUMPDEST POP POP POP POP POP SWAP2 POP PUSH3 0x316 PUSH1 0x2 PUSH1 0x0 SWAP1 SLOAD SWAP1 PUSH2 0x100 EXP SWAP1 DIV PUSH1 0xFF AND PUSH1 0xFF AND PUSH1 0xA PUSH3 0x2FD SWAP2 SWAP1 PUSH3 0x966 JUMP JUMPDEST DUP3 PUSH3 0x30A SWAP2 SWAP1 PUSH3 0x9B7 JUMP JUMPDEST PUSH3 0x31F PUSH1 0x20 SHL PUSH1 0x20 SHR JUMP JUMPDEST POP POP POP PUSH3 0xA3D JUMP JUMPDEST DUP1 PUSH1 0x5 PUSH1 0x0 CALLER PUSH20 0xFFFFFFFFFFFFFFFFFFFFFFFFFFFFFFFFFFFFFFFF AND PUSH20 0xFFFFFFFFFFFFFFFFFFFFFFFFFFFFFFFFFFFFFFFF AND DUP2 MSTORE PUSH1 0x20 ADD SWAP1 DUP2 MSTORE PUSH1 0x20 ADD PUSH1 0x0 KECCAK256 PUSH1 0x0 DUP3 DUP3 SLOAD PUSH3 0x370 SWAP2 SWAP1 PUSH3 0xA02 JUMP JUMPDEST SWAP3 POP POP DUP2 SWAP1 SSTORE POP DUP1 PUSH1 0x3 PUSH1 0x0 DUP3 DUP3 SLOAD PUSH3 0x38B SWAP2 SWAP1 PUSH3 0xA02 JUMP JUMPDEST SWAP3 POP POP DUP2 SWAP1 SSTORE POP POP JUMP JUMPDEST DUP3 DUP1 SLOAD DUP3 DUP3 SSTORE SWAP1 PUSH1 0x0 MSTORE PUSH1 0x20 PUSH1 0x0 KECCAK256 SWAP1 DUP2 ADD SWAP3 DUP3 ISZERO PUSH3 0x3E2 JUMPI SWAP2 PUSH1 0x20 MUL DUP3 ADD JUMPDEST DUP3 DUP2 GT ISZERO PUSH3 0x3E1 JUMPI DUP3 MLOAD DUP3 SWAP1 DUP2 PUSH3 0x3D0 SWAP2 SWAP1 PUSH3 0x6FC JUMP JUMPDEST POP SWAP2 PUSH1 0x20 ADD SWAP2 SWAP1 PUSH1 0x1 ADD SWAP1 PUSH3 0x3B6 JUMP JUMPDEST JUMPDEST POP SWAP1 POP PUSH3 0x3F1 SWAP2 SWAP1 PUSH3 0x3F5 JUMP JUMPDEST POP SWAP1 JUMP JUMPDEST JUMPDEST DUP1 DUP3 GT ISZERO PUSH3 0x419 JUMPI PUSH1 0x0 DUP2 DUP2 PUSH3 0x40F SWAP2 SWAP1 PUSH3 0x41D JUMP JUMPDEST POP PUSH1 0x1 ADD PUSH3 0x3F6 JUMP JUMPDEST POP SWAP1 JUMP JUMPDEST POP DUP1 SLOAD PUSH3 0x42B SWAP1 PUSH3 0x4EB JUMP JUMPDEST PUSH1 0x0 DUP3 SSTORE DUP1 PUSH1 0x1F LT PUSH3 0x43F JUMPI POP PUSH3 0x460 JUMP JUMPDEST PUSH1 0x1F ADD PUSH1 0x20 SWAP1 DIV SWAP1 PUSH1 0x0 MSTORE PUSH1 0x20 PUSH1 0x0 KECCAK256 SWAP1 DUP2 ADD SWAP1 PUSH3 0x45F SWAP2 SWAP1 PUSH3 0x463 JUMP JUMPDEST JUMPDEST POP JUMP JUMPDEST JUMPDEST DUP1 DUP3 GT ISZERO PUSH3 0x47E JUMPI PUSH1 0x0 DUP2 PUSH1 0x0 SWAP1 SSTORE POP PUSH1 0x1 ADD PUSH3 0x464 JUMP JUMPDEST POP SWAP1 JUMP JUMPDEST PUSH1 0x0 DUP2 MLOAD SWAP1 POP SWAP2 SWAP1 POP JUMP JUMPDEST PUSH32 0x4E487B7100000000000000000000000000000000000000000000000000000000 PUSH1 0x0 MSTORE PUSH1 0x41 PUSH1 0x4 MSTORE PUSH1 0x24 PUSH1 0x0 REVERT JUMPDEST PUSH32 0x4E487B7100000000000000000000000000000000000000000000000000000000 PUSH1 0x0 MSTORE PUSH1 0x22 PUSH1 0x4 MSTORE PUSH1 0x24 PUSH1 0x0 REVERT JUMPDEST PUSH1 0x0 PUSH1 0x2 DUP3 DIV SWAP1 POP PUSH1 0x1 DUP3 AND DUP1 PUSH3 0x504 JUMPI PUSH1 0x7F DUP3 AND SWAP2 POP JUMPDEST PUSH1 0x20 DUP3 LT DUP2 SUB PUSH3 0x51A JUMPI PUSH3 0x519 PUSH3 0x4BC JUMP JUMPDEST JUMPDEST POP SWAP2 SWAP1 POP JUMP JUMPDEST PUSH1 0x0 DUP2 SWAP1 POP DUP2 PUSH1 0x0 MSTORE PUSH1 0x20 PUSH1 0x0 KECCAK256 SWAP1 POP SWAP2 SWAP1 POP JUMP JUMPDEST PUSH1 0x0 PUSH1 0x20 PUSH1 0x1F DUP4 ADD DIV SWAP1 POP SWAP2 SWAP1 POP JUMP JUMPDEST PUSH1 0x0 DUP3 DUP3 SHL SWAP1 POP SWAP3 SWAP2 POP POP JUMP JUMPDEST PUSH1 0x0 PUSH1 0x8 DUP4 MUL PUSH3 0x584 PUSH32 0xFFFFFFFFFFFFFFFFFFFFFFFFFFFFFFFFFFFFFFFFFFFFFFFFFFFFFFFFFFFFFFFF DUP3 PUSH3 0x545 JUMP JUMPDEST PUSH3 0x590 DUP7 DUP4 PUSH3 0x545 JUMP JUMPDEST SWAP6 POP DUP1 NOT DUP5 AND SWAP4 POP DUP1 DUP7 AND DUP5 OR SWAP3 POP POP POP SWAP4 SWAP3 POP POP POP JUMP JUMPDEST PUSH1 0x0 DUP2 SWAP1 POP SWAP2 SWAP1 POP JUMP JUMPDEST PUSH1 0x0 DUP2 SWAP1 POP SWAP2 SWAP1 POP JUMP JUMPDEST PUSH1 0x0 PUSH3 0x5DD PUSH3 0x5D7 PUSH3 0x5D1 DUP5 PUSH3 0x5A8 JUMP JUMPDEST PUSH3 0x5B2 JUMP JUMPDEST PUSH3 0x5A8 JUMP JUMPDEST SWAP1 POP SWAP2 SWAP1 POP JUMP JUMPDEST PUSH1 0x0 DUP2 SWAP1 POP SWAP2 SWAP1 POP JUMP JUMPDEST PUSH3 0x5F9 DUP4 PUSH3 0x5BC JUMP JUMPDEST PUSH3 0x611 PUSH3 0x608 DUP3 PUSH3 0x5E4 JUMP JUMPDEST DUP5 DUP5 SLOAD PUSH3 0x552 JUMP JUMPDEST DUP3 SSTORE POP POP POP POP JUMP JUMPDEST PUSH1 0x0 SWAP1 JUMP JUMPDEST PUSH3 0x628 PUSH3 0x619 JUMP JUMPDEST PUSH3 0x635 DUP2 DUP5 DUP5 PUSH3 0x5EE JUMP JUMPDEST POP POP POP JUMP JUMPDEST JUMPDEST DUP2 DUP2 LT ISZERO PUSH3 0x65D JUMPI PUSH3 0x651 PUSH1 0x0 DUP3 PUSH3 0x61E JUMP JUMPDEST PUSH1 0x1 DUP2 ADD SWAP1 POP PUSH3 0x63B JUMP JUMPDEST POP POP JUMP JUMPDEST PUSH1 0x1F DUP3 GT ISZERO PUSH3 0x6AC JUMPI PUSH3 0x676 DUP2 PUSH3 0x520 JUMP JUMPDEST PUSH3 0x681 DUP5 PUSH3 0x535 JUMP JUMPDEST DUP2 ADD PUSH1 0x20 DUP6 LT ISZERO PUSH3 0x691 JUMPI DUP2 SWAP1 POP JUMPDEST PUSH3 0x6A9 PUSH3 0x6A0 DUP6 PUSH3 0x535 JUMP JUMPDEST DUP4 ADD DUP3 PUSH3 0x63A JUMP JUMPDEST POP POP JUMPDEST POP POP POP JUMP JUMPDEST PUSH1 0x0 DUP3 DUP3 SHR SWAP1 POP SWAP3 SWAP2 POP POP JUMP JUMPDEST PUSH1 0x0 PUSH3 0x6D1 PUSH1 0x0 NOT DUP5 PUSH1 0x8 MUL PUSH3 0x6B1 JUMP JUMPDEST NOT DUP1 DUP4 AND SWAP2 POP POP SWAP3 SWAP2 POP POP JUMP JUMPDEST PUSH1 0x0 PUSH3 0x6EC DUP4 DUP4 PUSH3 0x6BE JUMP JUMPDEST SWAP2 POP DUP3 PUSH1 0x2 MUL DUP3 OR SWAP1 POP SWAP3 SWAP2 POP POP JUMP JUMPDEST PUSH3 0x707 DUP3 PUSH3 0x482 JUMP JUMPDEST PUSH8 0xFFFFFFFFFFFFFFFF DUP2 GT ISZERO PUSH3 0x723 JUMPI PUSH3 0x722 PUSH3 0x48D JUMP JUMPDEST JUMPDEST PUSH3 0x72F DUP3 SLOAD PUSH3 0x4EB JUMP JUMPDEST PUSH3 0x73C DUP3 DUP3 DUP6 PUSH3 0x661 JUMP JUMPDEST PUSH1 0x0 PUSH1 0x20 SWAP1 POP PUSH1 0x1F DUP4 GT PUSH1 0x1 DUP2 EQ PUSH3 0x774 JUMPI PUSH1 0x0 DUP5 ISZERO PUSH3 0x75F JUMPI DUP3 DUP8 ADD MLOAD SWAP1 POP JUMPDEST PUSH3 0x76B DUP6 DUP3 PUSH3 0x6DE JUMP JUMPDEST DUP7 SSTORE POP PUSH3 0x7DB JUMP JUMPDEST PUSH1 0x1F NOT DUP5 AND PUSH3 0x784 DUP7 PUSH3 0x520 JUMP JUMPDEST PUSH1 0x0 JUMPDEST DUP3 DUP2 LT ISZERO PUSH3 0x7AE JUMPI DUP5 DUP10 ADD MLOAD DUP3 SSTORE PUSH1 0x1 DUP3 ADD SWAP2 POP PUSH1 0x20 DUP6 ADD SWAP5 POP PUSH1 0x20 DUP2 ADD SWAP1 POP PUSH3 0x787 JUMP JUMPDEST DUP7 DUP4 LT ISZERO PUSH3 0x7CE JUMPI DUP5 DUP10 ADD MLOAD PUSH3 0x7CA PUSH1 0x1F DUP10 AND DUP3 PUSH3 0x6BE JUMP JUMPDEST DUP4 SSTORE POP JUMPDEST PUSH1 0x1 PUSH1 0x2 DUP9 MUL ADD DUP9 SSTORE POP POP POP JUMPDEST POP POP POP POP POP POP JUMP JUMPDEST PUSH32 0x4E487B7100000000000000000000000000000000000000000000000000000000 PUSH1 0x0 MSTORE PUSH1 0x11 PUSH1 0x4 MSTORE PUSH1 0x24 PUSH1 0x0 REVERT JUMPDEST PUSH1 0x0 DUP2 PUSH1 0x1 SHR SWAP1 POP SWAP2 SWAP1 POP JUMP JUMPDEST PUSH1 0x0 DUP1 DUP3 SWAP2 POP DUP4 SWAP1 POP JUMPDEST PUSH1 0x1 DUP6 GT ISZERO PUSH3 0x871 JUMPI DUP1 DUP7 DIV DUP2 GT ISZERO PUSH3 0x849 JUMPI PUSH3 0x848 PUSH3 0x7E3 JUMP JUMPDEST JUMPDEST PUSH1 0x1 DUP6 AND ISZERO PUSH3 0x859 JUMPI DUP1 DUP3 MUL SWAP2 POP JUMPDEST DUP1 DUP2 MUL SWAP1 POP PUSH3 0x869 DUP6 PUSH3 0x812 JUMP JUMPDEST SWAP5 POP PUSH3 0x829 JUMP JUMPDEST SWAP5 POP SWAP5 SWAP3 POP POP POP JUMP JUMPDEST PUSH1 0x0 DUP3 PUSH3 0x88C JUMPI PUSH1 0x1 SWAP1 POP PUSH3 0x95F JUMP JUMPDEST DUP2 PUSH3 0x89C JUMPI PUSH1 0x0 SWAP1 POP PUSH3 0x95F JUMP JUMPDEST DUP2 PUSH1 0x1 DUP2 EQ PUSH3 0x8B5 JUMPI PUSH1 0x2 DUP2 EQ PUSH3 0x8C0 JUMPI PUSH3 0x8F6 JUMP JUMPDEST PUSH1 0x1 SWAP2 POP POP PUSH3 0x95F JUMP JUMPDEST PUSH1 0xFF DUP5 GT ISZERO PUSH3 0x8D5 JUMPI PUSH3 0x8D4 PUSH3 0x7E3 JUMP JUMPDEST JUMPDEST DUP4 PUSH1 0x2 EXP SWAP2 POP DUP5 DUP3 GT ISZERO PUSH3 0x8EF JUMPI PUSH3 0x8EE PUSH3 0x7E3 JUMP JUMPDEST JUMPDEST POP PUSH3 0x95F JUMP JUMPDEST POP PUSH1 0x20 DUP4 LT PUSH2 0x133 DUP4 LT AND PUSH1 0x4E DUP5 LT PUSH1 0xB DUP5 LT AND OR ISZERO PUSH3 0x930 JUMPI DUP3 DUP3 EXP SWAP1 POP DUP4 DUP2 GT ISZERO PUSH3 0x92A JUMPI PUSH3 0x929 PUSH3 0x7E3 JUMP JUMPDEST JUMPDEST PUSH3 0x95F JUMP JUMPDEST PUSH3 0x93F DUP5 DUP5 DUP5 PUSH1 0x1 PUSH3 0x81F JUMP JUMPDEST SWAP3 POP SWAP1 POP DUP2 DUP5 DIV DUP2 GT ISZERO PUSH3 0x959 JUMPI PUSH3 0x958 PUSH3 0x7E3 JUMP JUMPDEST JUMPDEST DUP2 DUP2 MUL SWAP1 POP JUMPDEST SWAP4 SWAP3 POP POP POP JUMP JUMPDEST PUSH1 0x0 PUSH3 0x973 DUP3 PUSH3 0x5A8 JUMP JUMPDEST SWAP2 POP PUSH3 0x980 DUP4 PUSH3 0x5A8 JUMP JUMPDEST SWAP3 POP PUSH3 0x9AF PUSH32 0xFFFFFFFFFFFFFFFFFFFFFFFFFFFFFFFFFFFFFFFFFFFFFFFFFFFFFFFFFFFFFFFF DUP5 DUP5 PUSH3 0x87A JUMP JUMPDEST SWAP1 POP SWAP3 SWAP2 POP POP JUMP JUMPDEST PUSH1 0x0 PUSH3 0x9C4 DUP3 PUSH3 0x5A8 JUMP JUMPDEST SWAP2 POP PUSH3 0x9D1 DUP4 PUSH3 0x5A8 JUMP JUMPDEST SWAP3 POP DUP3 DUP3 MUL PUSH3 0x9E1 DUP2 PUSH3 0x5A8 JUMP JUMPDEST SWAP2 POP DUP3 DUP3 DIV DUP5 EQ DUP4 ISZERO OR PUSH3 0x9FB JUMPI PUSH3 0x9FA PUSH3 0x7E3 JUMP JUMPDEST JUMPDEST POP SWAP3 SWAP2 POP POP JUMP JUMPDEST PUSH1 0x0 PUSH3 0xA0F DUP3 PUSH3 0x5A8 JUMP JUMPDEST SWAP2 POP PUSH3 0xA1C DUP4 PUSH3 0x5A8 JUMP JUMPDEST SWAP3 POP DUP3 DUP3 ADD SWAP1 POP DUP1 DUP3 GT ISZERO PUSH3 0xA37 JUMPI PUSH3 0xA36 PUSH3 0x7E3 JUMP JUMPDEST JUMPDEST SWAP3 SWAP2 POP POP JUMP JUMPDEST PUSH2 0x2A22 DUP1 PUSH3 0xA4D PUSH1 0x0 CODECOPY PUSH1 0x0 RETURN INVALID PUSH1 0x80 PUSH1 0x40 MSTORE PUSH1 0x4 CALLDATASIZE LT PUSH2 0x10D JUMPI PUSH1 0x0 CALLDATALOAD PUSH1 0xE0 SHR DUP1 PUSH4 0x70A08231 GT PUSH2 0x95 JUMPI DUP1 PUSH4 0x95D89B41 GT PUSH2 0x64 JUMPI DUP1 PUSH4 0x95D89B41 EQ PUSH2 0x54B JUMPI DUP1 PUSH4 0xA9059CBB EQ PUSH2 0x576 JUMPI DUP1 PUSH4 0xD756AE70 EQ PUSH2 0x5B3 JUMPI DUP1 PUSH4 0xDD62ED3E EQ PUSH2 0x5BD JUMPI DUP1 PUSH4 0xE3D670D7 EQ PUSH2 0x5FA JUMPI PUSH2 0x2C0 JUMP JUMPDEST DUP1 PUSH4 0x70A08231 EQ PUSH2 0x468 JUMPI DUP1 PUSH4 0x7FF9CD71 EQ PUSH2 0x4A5 JUMPI DUP1 PUSH4 0x860B951D EQ PUSH2 0x4D0 JUMPI DUP1 PUSH4 0x92961939 EQ PUSH2 0x50E JUMPI PUSH2 0x2C0 JUMP JUMPDEST DUP1 PUSH4 0x26255D8D GT PUSH2 0xDC JUMPI DUP1 PUSH4 0x26255D8D EQ PUSH2 0x395 JUMPI DUP1 PUSH4 0x2EAB183D EQ PUSH2 0x3AC JUMPI DUP1 PUSH4 0x313CE567 EQ PUSH2 0x3D7 JUMPI DUP1 PUSH4 0x365B98B2 EQ PUSH2 0x402 JUMPI DUP1 PUSH4 0x42966C68 EQ PUSH2 0x43F JUMPI PUSH2 0x2C0 JUMP JUMPDEST DUP1 PUSH4 0x6FDDE03 EQ PUSH2 0x2C5 JUMPI DUP1 PUSH4 0x95EA7B3 EQ PUSH2 0x2F0 JUMPI DUP1 PUSH4 0x18160DDD EQ PUSH2 0x32D JUMPI DUP1 PUSH4 0x23B872DD EQ PUSH2 0x358 JUMPI PUSH2 0x2C0 JUMP JUMPDEST CALLDATASIZE PUSH2 0x2C0 JUMPI PUSH1 0x0 PUSH1 0xC8 CALLVALUE PUSH2 0x121 SWAP2 SWAP1 PUSH2 0x1BE1 JUMP JUMPDEST SWAP1 POP DUP1 PUSH1 0x5 PUSH1 0x0 PUSH1 0x4 PUSH1 0x0 SWAP1 SLOAD SWAP1 PUSH2 0x100 EXP SWAP1 DIV PUSH20 0xFFFFFFFFFFFFFFFFFFFFFFFFFFFFFFFFFFFFFFFF AND PUSH20 0xFFFFFFFFFFFFFFFFFFFFFFFFFFFFFFFFFFFFFFFF AND PUSH20 0xFFFFFFFFFFFFFFFFFFFFFFFFFFFFFFFFFFFFFFFF AND DUP2 MSTORE PUSH1 0x20 ADD SWAP1 DUP2 MSTORE PUSH1 0x20 ADD PUSH1 0x0 KECCAK256 SLOAD LT ISZERO PUSH2 0x191 JUMPI PUSH1 0x0 DUP1 REVERT JUMPDEST DUP1 PUSH1 0x5 PUSH1 0x0 PUSH1 0x4 PUSH1 0x0 SWAP1 SLOAD SWAP1 PUSH2 0x100 EXP SWAP1 DIV PUSH20 0xFFFFFFFFFFFFFFFFFFFFFFFFFFFFFFFFFFFFFFFF AND PUSH20 0xFFFFFFFFFFFFFFFFFFFFFFFFFFFFFFFFFFFFFFFF AND PUSH20 0xFFFFFFFFFFFFFFFFFFFFFFFFFFFFFFFFFFFFFFFF AND DUP2 MSTORE PUSH1 0x20 ADD SWAP1 DUP2 MSTORE PUSH1 0x20 ADD PUSH1 0x0 KECCAK256 PUSH1 0x0 DUP3 DUP3 SLOAD PUSH2 0x202 SWAP2 SWAP1 PUSH2 0x1C23 JUMP JUMPDEST SWAP3 POP POP DUP2 SWAP1 SSTORE POP DUP1 PUSH1 0x5 PUSH1 0x0 CALLER PUSH20 0xFFFFFFFFFFFFFFFFFFFFFFFFFFFFFFFFFFFFFFFF AND PUSH20 0xFFFFFFFFFFFFFFFFFFFFFFFFFFFFFFFFFFFFFFFF AND DUP2 MSTORE PUSH1 0x20 ADD SWAP1 DUP2 MSTORE PUSH1 0x20 ADD PUSH1 0x0 KECCAK256 PUSH1 0x0 DUP3 DUP3 SLOAD PUSH2 0x258 SWAP2 SWAP1 PUSH2 0x1C57 JUMP JUMPDEST SWAP3 POP POP DUP2 SWAP1 SSTORE POP PUSH1 0x4 PUSH1 0x0 SWAP1 SLOAD SWAP1 PUSH2 0x100 EXP SWAP1 DIV PUSH20 0xFFFFFFFFFFFFFFFFFFFFFFFFFFFFFFFFFFFFFFFF AND PUSH20 0xFFFFFFFFFFFFFFFFFFFFFFFFFFFFFFFFFFFFFFFF AND CALLER PUSH20 0xFFFFFFFFFFFFFFFFFFFFFFFFFFFFFFFFFFFFFFFF AND SUB PUSH2 0x2BE JUMPI PUSH2 0x2BD DUP2 PUSH2 0x637 JUMP JUMPDEST JUMPDEST STOP JUMPDEST PUSH1 0x0 DUP1 REVERT JUMPDEST CALLVALUE DUP1 ISZERO PUSH2 0x2D1 JUMPI PUSH1 0x0 DUP1 REVERT JUMPDEST POP PUSH2 0x2DA PUSH2 0x6A9 JUMP JUMPDEST PUSH1 0x40 MLOAD PUSH2 0x2E7 SWAP2 SWAP1 PUSH2 0x1D1B JUMP JUMPDEST PUSH1 0x40 MLOAD DUP1 SWAP2 SUB SWAP1 RETURN JUMPDEST CALLVALUE DUP1 ISZERO PUSH2 0x2FC JUMPI PUSH1 0x0 DUP1 REVERT JUMPDEST POP PUSH2 0x317 PUSH1 0x4 DUP1 CALLDATASIZE SUB DUP2 ADD SWAP1 PUSH2 0x312 SWAP2 SWAP1 PUSH2 0x1DDB JUMP JUMPDEST PUSH2 0x737 JUMP JUMPDEST PUSH1 0x40 MLOAD PUSH2 0x324 SWAP2 SWAP1 PUSH2 0x1E36 JUMP JUMPDEST PUSH1 0x40 MLOAD DUP1 SWAP2 SUB SWAP1 RETURN JUMPDEST CALLVALUE DUP1 ISZERO PUSH2 0x339 JUMPI PUSH1 0x0 DUP1 REVERT JUMPDEST POP PUSH2 0x342 PUSH2 0x7C4 JUMP JUMPDEST PUSH1 0x40 MLOAD PUSH2 0x34F SWAP2 SWAP1 PUSH2 0x1E60 JUMP JUMPDEST PUSH1 0x40 MLOAD DUP1 SWAP2 SUB SWAP1 RETURN JUMPDEST CALLVALUE DUP1 ISZERO PUSH2 0x364 JUMPI PUSH1 0x0 DUP1 REVERT JUMPDEST POP PUSH2 0x37F PUSH1 0x4 DUP1 CALLDATASIZE SUB DUP2 ADD SWAP1 PUSH2 0x37A SWAP2 SWAP1 PUSH2 0x1E7B JUMP JUMPDEST PUSH2 0x7CA JUMP JUMPDEST PUSH1 0x40 MLOAD PUSH2 0x38C SWAP2 SWAP1 PUSH2 0x1E36 JUMP JUMPDEST PUSH1 0x40 MLOAD DUP1 SWAP2 SUB SWAP1 RETURN JUMPDEST CALLVALUE DUP1 ISZERO PUSH2 0x3A1 JUMPI PUSH1 0x0 DUP1 REVERT JUMPDEST POP PUSH2 0x3AA PUSH2 0x99F JUMP JUMPDEST STOP JUMPDEST CALLVALUE DUP1 ISZERO PUSH2 0x3B8 JUMPI PUSH1 0x0 DUP1 REVERT JUMPDEST POP PUSH2 0x3C1 PUSH2 0xDD9 JUMP JUMPDEST PUSH1 0x40 MLOAD PUSH2 0x3CE SWAP2 SWAP1 PUSH2 0x201E JUMP JUMPDEST PUSH1 0x40 MLOAD DUP1 SWAP2 SUB SWAP1 RETURN JUMPDEST CALLVALUE DUP1 ISZERO PUSH2 0x3E3 JUMPI PUSH1 0x0 DUP1 REVERT JUMPDEST POP PUSH2 0x3EC PUSH2 0xF99 JUMP JUMPDEST PUSH1 0x40 MLOAD PUSH2 0x3F9 SWAP2 SWAP1 PUSH2 0x205C JUMP JUMPDEST PUSH1 0x40 MLOAD DUP1 SWAP2 SUB SWAP1 RETURN JUMPDEST CALLVALUE DUP1 ISZERO PUSH2 0x40E JUMPI PUSH1 0x0 DUP1 REVERT JUMPDEST POP PUSH2 0x429 PUSH1 0x4 DUP1 CALLDATASIZE SUB DUP2 ADD SWAP1 PUSH2 0x424 SWAP2 SWAP1 PUSH2 0x2077 JUMP JUMPDEST PUSH2 0xFAC JUMP JUMPDEST PUSH1 0x40 MLOAD PUSH2 0x436 SWAP2 SWAP1 PUSH2 0x20B3 JUMP JUMPDEST PUSH1 0x40 MLOAD DUP1 SWAP2 SUB SWAP1 RETURN JUMPDEST CALLVALUE DUP1 ISZERO PUSH2 0x44B JUMPI PUSH1 0x0 DUP1 REVERT JUMPDEST POP PUSH2 0x466 PUSH1 0x4 DUP1 CALLDATASIZE SUB DUP2 ADD SWAP1 PUSH2 0x461 SWAP2 SWAP1 PUSH2 0x2077 JUMP JUMPDEST PUSH2 0xFF6 JUMP JUMPDEST STOP JUMPDEST CALLVALUE DUP1 ISZERO PUSH2 0x474 JUMPI PUSH1 0x0 DUP1 REVERT JUMPDEST POP PUSH2 0x48F PUSH1 0x4 DUP1 CALLDATASIZE SUB DUP2 ADD SWAP1 PUSH2 0x48A SWAP2 SWAP1 PUSH2 0x20CE JUMP JUMPDEST PUSH2 0x1068 JUMP JUMPDEST PUSH1 0x40 MLOAD PUSH2 0x49C SWAP2 SWAP1 PUSH2 0x1E60 JUMP JUMPDEST PUSH1 0x40 MLOAD DUP1 SWAP2 SUB SWAP1 RETURN JUMPDEST CALLVALUE DUP1 ISZERO PUSH2 0x4B1 JUMPI PUSH1 0x0 DUP1 REVERT JUMPDEST POP PUSH2 0x4BA PUSH2 0x10B1 JUMP JUMPDEST PUSH1 0x40 MLOAD PUSH2 0x4C7 SWAP2 SWAP1 PUSH2 0x21D5 JUMP JUMPDEST PUSH1 0x40 MLOAD DUP1 SWAP2 SUB SWAP1 RETURN JUMPDEST CALLVALUE DUP1 ISZERO PUSH2 0x4DC JUMPI PUSH1 0x0 DUP1 REVERT JUMPDEST POP PUSH2 0x4F7 PUSH1 0x4 DUP1 CALLDATASIZE SUB DUP2 ADD SWAP1 PUSH2 0x4F2 SWAP2 SWAP1 PUSH2 0x1DDB JUMP JUMPDEST PUSH2 0x1162 JUMP JUMPDEST PUSH1 0x40 MLOAD PUSH2 0x505 SWAP3 SWAP2 SWAP1 PUSH2 0x21F7 JUMP JUMPDEST PUSH1 0x40 MLOAD DUP1 SWAP2 SUB SWAP1 RETURN JUMPDEST CALLVALUE DUP1 ISZERO PUSH2 0x51A JUMPI PUSH1 0x0 DUP1 REVERT JUMPDEST POP PUSH2 0x535 PUSH1 0x4 DUP1 CALLDATASIZE SUB DUP2 ADD SWAP1 PUSH2 0x530 SWAP2 SWAP1 PUSH2 0x2363 JUMP JUMPDEST PUSH2 0x12B3 JUMP JUMPDEST PUSH1 0x40 MLOAD PUSH2 0x542 SWAP2 SWAP1 PUSH2 0x1E36 JUMP JUMPDEST PUSH1 0x40 MLOAD DUP1 SWAP2 SUB SWAP1 RETURN JUMPDEST CALLVALUE DUP1 ISZERO PUSH2 0x557 JUMPI PUSH1 0x0 DUP1 REVERT JUMPDEST POP PUSH2 0x560 PUSH2 0x1973 JUMP JUMPDEST PUSH1 0x40 MLOAD PUSH2 0x56D SWAP2 SWAP1 PUSH2 0x1D1B JUMP JUMPDEST PUSH1 0x40 MLOAD DUP1 SWAP2 SUB SWAP1 RETURN JUMPDEST CALLVALUE DUP1 ISZERO PUSH2 0x582 JUMPI PUSH1 0x0 DUP1 REVERT JUMPDEST POP PUSH2 0x59D PUSH1 0x4 DUP1 CALLDATASIZE SUB DUP2 ADD SWAP1 PUSH2 0x598 SWAP2 SWAP1 PUSH2 0x1DDB JUMP JUMPDEST PUSH2 0x1A01 JUMP JUMPDEST PUSH1 0x40 MLOAD PUSH2 0x5AA SWAP2 SWAP1 PUSH2 0x1E36 JUMP JUMPDEST PUSH1 0x40 MLOAD DUP1 SWAP2 SUB SWAP1 RETURN JUMPDEST PUSH2 0x5BB PUSH2 0x1AB9 JUMP JUMPDEST STOP JUMPDEST CALLVALUE DUP1 ISZERO PUSH2 0x5C9 JUMPI PUSH1 0x0 DUP1 REVERT JUMPDEST POP PUSH2 0x5E4 PUSH1 0x4 DUP1 CALLDATASIZE SUB DUP2 ADD SWAP1 PUSH2 0x5DF SWAP2 SWAP1 PUSH2 0x23BF JUMP JUMPDEST PUSH2 0x1B0E JUMP JUMPDEST PUSH1 0x40 MLOAD PUSH2 0x5F1 SWAP2 SWAP1 PUSH2 0x1E60 JUMP JUMPDEST PUSH1 0x40 MLOAD DUP1 SWAP2 SUB SWAP1 RETURN JUMPDEST CALLVALUE DUP1 ISZERO PUSH2 0x606 JUMPI PUSH1 0x0 DUP1 REVERT JUMPDEST POP PUSH2 0x621 PUSH1 0x4 DUP1 CALLDATASIZE SUB DUP2 ADD SWAP1 PUSH2 0x61C SWAP2 SWAP1 PUSH2 0x20CE JUMP JUMPDEST PUSH2 0x1B33 JUMP JUMPDEST PUSH1 0x40 MLOAD PUSH2 0x62E SWAP2 SWAP1 PUSH2 0x1E60 JUMP JUMPDEST PUSH1 0x40 MLOAD DUP1 SWAP2 SUB SWAP1 RETURN JUMPDEST DUP1 PUSH1 0x5 PUSH1 0x0 CALLER PUSH20 0xFFFFFFFFFFFFFFFFFFFFFFFFFFFFFFFFFFFFFFFF AND PUSH20 0xFFFFFFFFFFFFFFFFFFFFFFFFFFFFFFFFFFFFFFFF AND DUP2 MSTORE PUSH1 0x20 ADD SWAP1 DUP2 MSTORE PUSH1 0x20 ADD PUSH1 0x0 KECCAK256 PUSH1 0x0 DUP3 DUP3 SLOAD PUSH2 0x686 SWAP2 SWAP1 PUSH2 0x1C57 JUMP JUMPDEST SWAP3 POP POP DUP2 SWAP1 SSTORE POP DUP1 PUSH1 0x3 PUSH1 0x0 DUP3 DUP3 SLOAD PUSH2 0x69F SWAP2 SWAP1 PUSH2 0x1C57 JUMP JUMPDEST SWAP3 POP POP DUP2 SWAP1 SSTORE POP POP JUMP JUMPDEST PUSH1 0x0 DUP1 SLOAD PUSH2 0x6B6 SWAP1 PUSH2 0x242E JUMP JUMPDEST DUP1 PUSH1 0x1F ADD PUSH1 0x20 DUP1 SWAP2 DIV MUL PUSH1 0x20 ADD PUSH1 0x40 MLOAD SWAP1 DUP2 ADD PUSH1 0x40 MSTORE DUP1 SWAP3 SWAP2 SWAP1 DUP2 DUP2 MSTORE PUSH1 0x20 ADD DUP3 DUP1 SLOAD PUSH2 0x6E2 SWAP1 PUSH2 0x242E JUMP JUMPDEST DUP1 ISZERO PUSH2 0x72F JUMPI DUP1 PUSH1 0x1F LT PUSH2 0x704 JUMPI PUSH2 0x100 DUP1 DUP4 SLOAD DIV MUL DUP4 MSTORE SWAP2 PUSH1 0x20 ADD SWAP2 PUSH2 0x72F JUMP JUMPDEST DUP3 ADD SWAP2 SWAP1 PUSH1 0x0 MSTORE PUSH1 0x20 PUSH1 0x0 KECCAK256 SWAP1 JUMPDEST DUP2 SLOAD DUP2 MSTORE SWAP1 PUSH1 0x1 ADD SWAP1 PUSH1 0x20 ADD DUP1 DUP4 GT PUSH2 0x712 JUMPI DUP3 SWAP1 SUB PUSH1 0x1F AND DUP3 ADD SWAP2 JUMPDEST POP POP POP POP POP DUP2 JUMP JUMPDEST PUSH1 0x0 DUP2 PUSH1 0x6 PUSH1 0x0 CALLER PUSH20 0xFFFFFFFFFFFFFFFFFFFFFFFFFFFFFFFFFFFFFFFF AND PUSH20 0xFFFFFFFFFFFFFFFFFFFFFFFFFFFFFFFFFFFFFFFF AND DUP2 MSTORE PUSH1 0x20 ADD SWAP1 DUP2 MSTORE PUSH1 0x20 ADD PUSH1 0x0 KECCAK256 PUSH1 0x0 DUP6 PUSH20 0xFFFFFFFFFFFFFFFFFFFFFFFFFFFFFFFFFFFFFFFF AND PUSH20 0xFFFFFFFFFFFFFFFFFFFFFFFFFFFFFFFFFFFFFFFF AND DUP2 MSTORE PUSH1 0x20 ADD SWAP1 DUP2 MSTORE PUSH1 0x20 ADD PUSH1 0x0 KECCAK256 DUP2 SWAP1 SSTORE POP PUSH1 0x1 SWAP1 POP SWAP3 SWAP2 POP POP JUMP JUMPDEST PUSH1 0x3 SLOAD DUP2 JUMP JUMPDEST PUSH1 0x0 DUP2 PUSH1 0x6 PUSH1 0x0 DUP7 PUSH20 0xFFFFFFFFFFFFFFFFFFFFFFFFFFFFFFFFFFFFFFFF AND PUSH20 0xFFFFFFFFFFFFFFFFFFFFFFFFFFFFFFFFFFFFFFFF AND DUP2 MSTORE PUSH1 0x20 ADD SWAP1 DUP2 MSTORE PUSH1 0x20 ADD PUSH1 0x0 KECCAK256 PUSH1 0x0 CALLER PUSH20 0xFFFFFFFFFFFFFFFFFFFFFFFFFFFFFFFFFFFFFFFF AND PUSH20 0xFFFFFFFFFFFFFFFFFFFFFFFFFFFFFFFFFFFFFFFF AND DUP2 MSTORE PUSH1 0x20 ADD SWAP1 DUP2 MSTORE PUSH1 0x20 ADD PUSH1 0x0 KECCAK256 SLOAD LT ISZERO PUSH2 0x855 JUMPI PUSH1 0x0 DUP1 REVERT JUMPDEST DUP2 PUSH1 0x6 PUSH1 0x0 DUP7 PUSH20 0xFFFFFFFFFFFFFFFFFFFFFFFFFFFFFFFFFFFFFFFF AND PUSH20 0xFFFFFFFFFFFFFFFFFFFFFFFFFFFFFFFFFFFFFFFF AND DUP2 MSTORE PUSH1 0x20 ADD SWAP1 DUP2 MSTORE PUSH1 0x20 ADD PUSH1 0x0 KECCAK256 PUSH1 0x0 CALLER PUSH20 0xFFFFFFFFFFFFFFFFFFFFFFFFFFFFFFFFFFFFFFFF AND PUSH20 0xFFFFFFFFFFFFFFFFFFFFFFFFFFFFFFFFFFFFFFFF AND DUP2 MSTORE PUSH1 0x20 ADD SWAP1 DUP2 MSTORE PUSH1 0x20 ADD PUSH1 0x0 KECCAK256 PUSH1 0x0 DUP3 DUP3 SLOAD PUSH2 0x8E1 SWAP2 SWAP1 PUSH2 0x1C23 JUMP JUMPDEST SWAP3 POP POP DUP2 SWAP1 SSTORE POP DUP2 PUSH1 0x5 PUSH1 0x0 DUP7 PUSH20 0xFFFFFFFFFFFFFFFFFFFFFFFFFFFFFFFFFFFFFFFF AND PUSH20 0xFFFFFFFFFFFFFFFFFFFFFFFFFFFFFFFFFFFFFFFF AND DUP2 MSTORE PUSH1 0x20 ADD SWAP1 DUP2 MSTORE PUSH1 0x20 ADD PUSH1 0x0 KECCAK256 PUSH1 0x0 DUP3 DUP3 SLOAD PUSH2 0x937 SWAP2 SWAP1 PUSH2 0x1C23 JUMP JUMPDEST SWAP3 POP POP DUP2 SWAP1 SSTORE POP DUP2 PUSH1 0x5 PUSH1 0x0 DUP6 PUSH20 0xFFFFFFFFFFFFFFFFFFFFFFFFFFFFFFFFFFFFFFFF AND PUSH20 0xFFFFFFFFFFFFFFFFFFFFFFFFFFFFFFFFFFFFFFFF AND DUP2 MSTORE PUSH1 0x20 ADD SWAP1 DUP2 MSTORE PUSH1 0x20 ADD PUSH1 0x0 KECCAK256 PUSH1 0x0 DUP3 DUP3 SLOAD PUSH2 0x98D SWAP2 SWAP1 PUSH2 0x1C57 JUMP JUMPDEST SWAP3 POP POP DUP2 SWAP1 SSTORE POP PUSH1 0x1 SWAP1 POP SWAP4 SWAP3 POP POP POP JUMP JUMPDEST PUSH1 0x7 SLOAD PUSH1 0x5 PUSH1 0x0 CALLER PUSH20 0xFFFFFFFFFFFFFFFFFFFFFFFFFFFFFFFFFFFFFFFF AND PUSH20 0xFFFFFFFFFFFFFFFFFFFFFFFFFFFFFFFFFFFFFFFF AND DUP2 MSTORE PUSH1 0x20 ADD SWAP1 DUP2 MSTORE PUSH1 0x20 ADD PUSH1 0x0 KECCAK256 SLOAD LT ISZERO PUSH2 0x9ED JUMPI PUSH1 0x0 DUP1 REVERT JUMPDEST PUSH1 0x7 SLOAD PUSH1 0x5 PUSH1 0x0 CALLER PUSH20 0xFFFFFFFFFFFFFFFFFFFFFFFFFFFFFFFFFFFFFFFF AND PUSH20 0xFFFFFFFFFFFFFFFFFFFFFFFFFFFFFFFFFFFFFFFF AND DUP2 MSTORE PUSH1 0x20 ADD SWAP1 DUP2 MSTORE PUSH1 0x20 ADD PUSH1 0x0 KECCAK256 PUSH1 0x0 DUP3 DUP3 SLOAD PUSH2 0xA3E SWAP2 SWAP1 PUSH2 0x1C23 JUMP JUMPDEST SWAP3 POP POP DUP2 SWAP1 SSTORE POP PUSH1 0x7 SLOAD PUSH1 0x3 PUSH1 0x0 DUP3 DUP3 SLOAD PUSH2 0xA59 SWAP2 SWAP1 PUSH2 0x1C23 JUMP JUMPDEST SWAP3 POP POP DUP2 SWAP1 SSTORE POP PUSH1 0x0 TIMESTAMP COINBASE NUMBER PUSH1 0x40 MLOAD PUSH1 0x20 ADD PUSH2 0xA77 SWAP4 SWAP3 SWAP2 SWAP1 PUSH2 0x24DA JUMP JUMPDEST PUSH1 0x40 MLOAD PUSH1 0x20 DUP2 DUP4 SUB SUB DUP2 MSTORE SWAP1 PUSH1 0x40 MSTORE DUP1 MLOAD SWAP1 PUSH1 0x20 ADD KECCAK256 PUSH1 0x0 SHR SWAP1 POP PUSH1 0x3 DUP2 PUSH2 0xA9F SWAP2 SWAP1 PUSH2 0x2546 JUMP JUMPDEST SWAP1 POP PUSH1 0xA PUSH1 0x0 CALLER PUSH20 0xFFFFFFFFFFFFFFFFFFFFFFFFFFFFFFFFFFFFFFFF AND PUSH20 0xFFFFFFFFFFFFFFFFFFFFFFFFFFFFFFFFFFFFFFFF AND DUP2 MSTORE PUSH1 0x20 ADD SWAP1 DUP2 MSTORE PUSH1 0x20 ADD PUSH1 0x0 KECCAK256 PUSH1 0x40 MLOAD DUP1 PUSH1 0x40 ADD PUSH1 0x40 MSTORE DUP1 PUSH1 0x9 DUP5 DUP2 SLOAD DUP2 LT PUSH2 0xAFF JUMPI PUSH2 0xAFE PUSH2 0x2577 JUMP JUMPDEST JUMPDEST SWAP1 PUSH1 0x0 MSTORE PUSH1 0x20 PUSH1 0x0 KECCAK256 ADD DUP1 SLOAD PUSH2 0xB14 SWAP1 PUSH2 0x242E JUMP JUMPDEST DUP1 PUSH1 0x1F ADD PUSH1 0x20 DUP1 SWAP2 DIV MUL PUSH1 0x20 ADD PUSH1 0x40 MLOAD SWAP1 DUP2 ADD PUSH1 0x40 MSTORE DUP1 SWAP3 SWAP2 SWAP1 DUP2 DUP2 MSTORE PUSH1 0x20 ADD DUP3 DUP1 SLOAD PUSH2 0xB40 SWAP1 PUSH2 0x242E JUMP JUMPDEST DUP1 ISZERO PUSH2 0xB8D JUMPI DUP1 PUSH1 0x1F LT PUSH2 0xB62 JUMPI PUSH2 0x100 DUP1 DUP4 SLOAD DIV MUL DUP4 MSTORE SWAP2 PUSH1 0x20 ADD SWAP2 PUSH2 0xB8D JUMP JUMPDEST DUP3 ADD SWAP2 SWAP1 PUSH1 0x0 MSTORE PUSH1 0x20 PUSH1 0x0 KECCAK256 SWAP1 JUMPDEST DUP2 SLOAD DUP2 MSTORE SWAP1 PUSH1 0x1 ADD SWAP1 PUSH1 0x20 ADD DUP1 DUP4 GT PUSH2 0xB70 JUMPI DUP3 SWAP1 SUB PUSH1 0x1F AND DUP3 ADD SWAP2 JUMPDEST POP POP POP POP POP DUP2 MSTORE PUSH1 0x20 ADD PUSH1 0x8 DUP5 DUP2 SLOAD DUP2 LT PUSH2 0xBAB JUMPI PUSH2 0xBAA PUSH2 0x2577 JUMP JUMPDEST JUMPDEST SWAP1 PUSH1 0x0 MSTORE PUSH1 0x20 PUSH1 0x0 KECCAK256 ADD DUP1 SLOAD PUSH2 0xBC0 SWAP1 PUSH2 0x242E JUMP JUMPDEST DUP1 PUSH1 0x1F ADD PUSH1 0x20 DUP1 SWAP2 DIV MUL PUSH1 0x20 ADD PUSH1 0x40 MLOAD SWAP1 DUP2 ADD PUSH1 0x40 MSTORE DUP1 SWAP3 SWAP2 SWAP1 DUP2 DUP2 MSTORE PUSH1 0x20 ADD DUP3 DUP1 SLOAD PUSH2 0xBEC SWAP1 PUSH2 0x242E JUMP JUMPDEST DUP1 ISZERO PUSH2 0xC39 JUMPI DUP1 PUSH1 0x1F LT PUSH2 0xC0E JUMPI PUSH2 0x100 DUP1 DUP4 SLOAD DIV MUL DUP4 MSTORE SWAP2 PUSH1 0x20 ADD SWAP2 PUSH2 0xC39 JUMP JUMPDEST DUP3 ADD SWAP2 SWAP1 PUSH1 0x0 MSTORE PUSH1 0x20 PUSH1 0x0 KECCAK256 SWAP1 JUMPDEST DUP2 SLOAD DUP2 MSTORE SWAP1 PUSH1 0x1 ADD SWAP1 PUSH1 0x20 ADD DUP1 DUP4 GT PUSH2 0xC1C JUMPI DUP3 SWAP1 SUB PUSH1 0x1F AND DUP3 ADD SWAP2 JUMPDEST POP POP POP POP POP DUP2 MSTORE POP SWAP1 DUP1 PUSH1 0x1 DUP2 SLOAD ADD DUP1 DUP3 SSTORE DUP1 SWAP2 POP POP PUSH1 0x1 SWAP1 SUB SWAP1 PUSH1 0x0 MSTORE PUSH1 0x20 PUSH1 0x0 KECCAK256 SWAP1 PUSH1 0x2 MUL ADD PUSH1 0x0 SWAP1 SWAP2 SWAP1 SWAP2 SWAP1 SWAP2 POP PUSH1 0x0 DUP3 ADD MLOAD DUP2 PUSH1 0x0 ADD SWAP1 DUP2 PUSH2 0xC7F SWAP2 SWAP1 PUSH2 0x2752 JUMP JUMPDEST POP PUSH1 0x20 DUP3 ADD MLOAD DUP2 PUSH1 0x1 ADD SWAP1 DUP2 PUSH2 0xC95 SWAP2 SWAP1 PUSH2 0x2752 JUMP JUMPDEST POP POP POP PUSH1 0x0 DUP1 JUMPDEST PUSH1 0xB DUP1 SLOAD SWAP1 POP DUP2 LT ISZERO PUSH2 0xD39 JUMPI CALLER PUSH20 0xFFFFFFFFFFFFFFFFFFFFFFFFFFFFFFFFFFFFFFFF AND PUSH1 0xB DUP3 DUP2 SLOAD DUP2 LT PUSH2 0xCD4 JUMPI PUSH2 0xCD3 PUSH2 0x2577 JUMP JUMPDEST JUMPDEST SWAP1 PUSH1 0x0 MSTORE PUSH1 0x20 PUSH1 0x0 KECCAK256 ADD PUSH1 0x0 ADD PUSH1 0x0 SWAP1 SLOAD SWAP1 PUSH2 0x100 EXP SWAP1 DIV PUSH20 0xFFFFFFFFFFFFFFFFFFFFFFFFFFFFFFFFFFFFFFFF AND PUSH20 0xFFFFFFFFFFFFFFFFFFFFFFFFFFFFFFFFFFFFFFFF AND SUB PUSH2 0xD26 JUMPI PUSH1 0x1 SWAP2 POP PUSH2 0xD39 JUMP JUMPDEST DUP1 DUP1 PUSH2 0xD31 SWAP1 PUSH2 0x2824 JUMP JUMPDEST SWAP2 POP POP PUSH2 0xC9C JUMP JUMPDEST POP DUP1 PUSH2 0xDD5 JUMPI PUSH1 0xB PUSH1 0x40 MLOAD DUP1 PUSH1 0x20 ADD PUSH1 0x40 MSTORE DUP1 CALLER PUSH20 0xFFFFFFFFFFFFFFFFFFFFFFFFFFFFFFFFFFFFFFFF AND DUP2 MSTORE POP SWAP1 DUP1 PUSH1 0x1 DUP2 SLOAD ADD DUP1 DUP3 SSTORE DUP1 SWAP2 POP POP PUSH1 0x1 SWAP1 SUB SWAP1 PUSH1 0x0 MSTORE PUSH1 0x20 PUSH1 0x0 KECCAK256 ADD PUSH1 0x0 SWAP1 SWAP2 SWAP1 SWAP2 SWAP1 SWAP2 POP PUSH1 0x0 DUP3 ADD MLOAD DUP2 PUSH1 0x0 ADD PUSH1 0x0 PUSH2 0x100 EXP DUP2 SLOAD DUP2 PUSH20 0xFFFFFFFFFFFFFFFFFFFFFFFFFFFFFFFFFFFFFFFF MUL NOT AND SWAP1 DUP4 PUSH20 0xFFFFFFFFFFFFFFFFFFFFFFFFFFFFFFFFFFFFFFFF AND MUL OR SWAP1 SSTORE POP POP POP JUMPDEST POP POP JUMP JUMPDEST PUSH1 0x60 PUSH1 0xA PUSH1 0x0 CALLER PUSH20 0xFFFFFFFFFFFFFFFFFFFFFFFFFFFFFFFFFFFFFFFF AND PUSH20 0xFFFFFFFFFFFFFFFFFFFFFFFFFFFFFFFFFFFFFFFF AND DUP2 MSTORE PUSH1 0x20 ADD SWAP1 DUP2 MSTORE PUSH1 0x20 ADD PUSH1 0x0 KECCAK256 DUP1 SLOAD DUP1 PUSH1 0x20 MUL PUSH1 0x20 ADD PUSH1 0x40 MLOAD SWAP1 DUP2 ADD PUSH1 0x40 MSTORE DUP1 SWAP3 SWAP2 SWAP1 DUP2 DUP2 MSTORE PUSH1 0x20 ADD PUSH1 0x0 SWAP1 JUMPDEST DUP3 DUP3 LT ISZERO PUSH2 0xF90 JUMPI DUP4 DUP3 SWAP1 PUSH1 0x0 MSTORE PUSH1 0x20 PUSH1 0x0 KECCAK256 SWAP1 PUSH1 0x2 MUL ADD PUSH1 0x40 MLOAD DUP1 PUSH1 0x40 ADD PUSH1 0x40 MSTORE SWAP1 DUP2 PUSH1 0x0 DUP3 ADD DUP1 SLOAD PUSH2 0xE6D SWAP1 PUSH2 0x242E JUMP JUMPDEST DUP1 PUSH1 0x1F ADD PUSH1 0x20 DUP1 SWAP2 DIV MUL PUSH1 0x20 ADD PUSH1 0x40 MLOAD SWAP1 DUP2 ADD PUSH1 0x40 MSTORE DUP1 SWAP3 SWAP2 SWAP1 DUP2 DUP2 MSTORE PUSH1 0x20 ADD DUP3 DUP1 SLOAD PUSH2 0xE99 SWAP1 PUSH2 0x242E JUMP JUMPDEST DUP1 ISZERO PUSH2 0xEE6 JUMPI DUP1 PUSH1 0x1F LT PUSH2 0xEBB JUMPI PUSH2 0x100 DUP1 DUP4 SLOAD DIV MUL DUP4 MSTORE SWAP2 PUSH1 0x20 ADD SWAP2 PUSH2 0xEE6 JUMP JUMPDEST DUP3 ADD SWAP2 SWAP1 PUSH1 0x0 MSTORE PUSH1 0x20 PUSH1 0x0 KECCAK256 SWAP1 JUMPDEST DUP2 SLOAD DUP2 MSTORE SWAP1 PUSH1 0x1 ADD SWAP1 PUSH1 0x20 ADD DUP1 DUP4 GT PUSH2 0xEC9 JUMPI DUP3 SWAP1 SUB PUSH1 0x1F AND DUP3 ADD SWAP2 JUMPDEST POP POP POP POP POP DUP2 MSTORE PUSH1 0x20 ADD PUSH1 0x1 DUP3 ADD DUP1 SLOAD PUSH2 0xEFF SWAP1 PUSH2 0x242E JUMP JUMPDEST DUP1 PUSH1 0x1F ADD PUSH1 0x20 DUP1 SWAP2 DIV MUL PUSH1 0x20 ADD PUSH1 0x40 MLOAD SWAP1 DUP2 ADD PUSH1 0x40 MSTORE DUP1 SWAP3 SWAP2 SWAP1 DUP2 DUP2 MSTORE PUSH1 0x20 ADD DUP3 DUP1 SLOAD PUSH2 0xF2B SWAP1 PUSH2 0x242E JUMP JUMPDEST DUP1 ISZERO PUSH2 0xF78 JUMPI DUP1 PUSH1 0x1F LT PUSH2 0xF4D JUMPI PUSH2 0x100 DUP1 DUP4 SLOAD DIV MUL DUP4 MSTORE SWAP2 PUSH1 0x20 ADD SWAP2 PUSH2 0xF78 JUMP JUMPDEST DUP3 ADD SWAP2 SWAP1 PUSH1 0x0 MSTORE PUSH1 0x20 PUSH1 0x0 KECCAK256 SWAP1 JUMPDEST DUP2 SLOAD DUP2 MSTORE SWAP1 PUSH1 0x1 ADD SWAP1 PUSH1 0x20 ADD DUP1 DUP4 GT PUSH2 0xF5B JUMPI DUP3 SWAP1 SUB PUSH1 0x1F AND DUP3 ADD SWAP2 JUMPDEST POP POP POP POP POP DUP2 MSTORE POP POP DUP2 MSTORE PUSH1 0x20 ADD SWAP1 PUSH1 0x1 ADD SWAP1 PUSH2 0xE3A JUMP JUMPDEST POP POP POP POP SWAP1 POP SWAP1 JUMP JUMPDEST PUSH1 0x2 PUSH1 0x0 SWAP1 SLOAD SWAP1 PUSH2 0x100 EXP SWAP1 DIV PUSH1 0xFF AND DUP2 JUMP JUMPDEST PUSH1 0xB DUP2 DUP2 SLOAD DUP2 LT PUSH2 0xFBC JUMPI PUSH1 0x0 DUP1 REVERT JUMPDEST SWAP1 PUSH1 0x0 MSTORE PUSH1 0x20 PUSH1 0x0 KECCAK256 ADD PUSH1 0x0 SWAP2 POP SWAP1 POP DUP1 PUSH1 0x0 ADD PUSH1 0x0 SWAP1 SLOAD SWAP1 PUSH2 0x100 EXP SWAP1 DIV PUSH20 0xFFFFFFFFFFFFFFFFFFFFFFFFFFFFFFFFFFFFFFFF AND SWAP1 POP DUP2 JUMP JUMPDEST DUP1 PUSH1 0x5 PUSH1 0x0 CALLER PUSH20 0xFFFFFFFFFFFFFFFFFFFFFFFFFFFFFFFFFFFFFFFF AND PUSH20 0xFFFFFFFFFFFFFFFFFFFFFFFFFFFFFFFFFFFFFFFF AND DUP2 MSTORE PUSH1 0x20 ADD SWAP1 DUP2 MSTORE PUSH1 0x20 ADD PUSH1 0x0 KECCAK256 PUSH1 0x0 DUP3 DUP3 SLOAD PUSH2 0x1045 SWAP2 SWAP1 PUSH2 0x1C23 JUMP JUMPDEST SWAP3 POP POP DUP2 SWAP1 SSTORE POP DUP1 PUSH1 0x3 PUSH1 0x0 DUP3 DUP3 SLOAD PUSH2 0x105E SWAP2 SWAP1 PUSH2 0x1C23 JUMP JUMPDEST SWAP3 POP POP DUP2 SWAP1 SSTORE POP POP JUMP JUMPDEST PUSH1 0x0 PUSH1 0x5 PUSH1 0x0 DUP4 PUSH20 0xFFFFFFFFFFFFFFFFFFFFFFFFFFFFFFFFFFFFFFFF AND PUSH20 0xFFFFFFFFFFFFFFFFFFFFFFFFFFFFFFFFFFFFFFFF AND DUP2 MSTORE PUSH1 0x20 ADD SWAP1 DUP2 MSTORE PUSH1 0x20 ADD PUSH1 0x0 KECCAK256 SLOAD SWAP1 POP SWAP2 SWAP1 POP JUMP JUMPDEST PUSH1 0x60 PUSH1 0xB DUP1 SLOAD DUP1 PUSH1 0x20 MUL PUSH1 0x20 ADD PUSH1 0x40 MLOAD SWAP1 DUP2 ADD PUSH1 0x40 MSTORE DUP1 SWAP3 SWAP2 SWAP1 DUP2 DUP2 MSTORE PUSH1 0x20 ADD PUSH1 0x0 SWAP1 JUMPDEST DUP3 DUP3 LT ISZERO PUSH2 0x1159 JUMPI DUP4 DUP3 SWAP1 PUSH1 0x0 MSTORE PUSH1 0x20 PUSH1 0x0 KECCAK256 ADD PUSH1 0x40 MLOAD DUP1 PUSH1 0x20 ADD PUSH1 0x40 MSTORE SWAP1 DUP2 PUSH1 0x0 DUP3 ADD PUSH1 0x0 SWAP1 SLOAD SWAP1 PUSH2 0x100 EXP SWAP1 DIV PUSH20 0xFFFFFFFFFFFFFFFFFFFFFFFFFFFFFFFFFFFFFFFF AND PUSH20 0xFFFFFFFFFFFFFFFFFFFFFFFFFFFFFFFFFFFFFFFF AND PUSH20 0xFFFFFFFFFFFFFFFFFFFFFFFFFFFFFFFFFFFFFFFF AND DUP2 MSTORE POP POP DUP2 MSTORE PUSH1 0x20 ADD SWAP1 PUSH1 0x1 ADD SWAP1 PUSH2 0x10D5 JUMP JUMPDEST POP POP POP POP SWAP1 POP SWAP1 JUMP JUMPDEST PUSH1 0xA PUSH1 0x20 MSTORE DUP2 PUSH1 0x0 MSTORE PUSH1 0x40 PUSH1 0x0 KECCAK256 DUP2 DUP2 SLOAD DUP2 LT PUSH2 0x117E JUMPI PUSH1 0x0 DUP1 REVERT JUMPDEST SWAP1 PUSH1 0x0 MSTORE PUSH1 0x20 PUSH1 0x0 KECCAK256 SWAP1 PUSH1 0x2 MUL ADD PUSH1 0x0 SWAP2 POP SWAP2 POP POP DUP1 PUSH1 0x0 ADD DUP1 SLOAD PUSH2 0x11A2 SWAP1 PUSH2 0x242E JUMP JUMPDEST DUP1 PUSH1 0x1F ADD PUSH1 0x20 DUP1 SWAP2 DIV MUL PUSH1 0x20 ADD PUSH1 0x40 MLOAD SWAP1 DUP2 ADD PUSH1 0x40 MSTORE DUP1 SWAP3 SWAP2 SWAP1 DUP2 DUP2 MSTORE PUSH1 0x20 ADD DUP3 DUP1 SLOAD PUSH2 0x11CE SWAP1 PUSH2 0x242E JUMP JUMPDEST DUP1 ISZERO PUSH2 0x121B JUMPI DUP1 PUSH1 0x1F LT PUSH2 0x11F0 JUMPI PUSH2 0x100 DUP1 DUP4 SLOAD DIV MUL DUP4 MSTORE SWAP2 PUSH1 0x20 ADD SWAP2 PUSH2 0x121B JUMP JUMPDEST DUP3 ADD SWAP2 SWAP1 PUSH1 0x0 MSTORE PUSH1 0x20 PUSH1 0x0 KECCAK256 SWAP1 JUMPDEST DUP2 SLOAD DUP2 MSTORE SWAP1 PUSH1 0x1 ADD SWAP1 PUSH1 0x20 ADD DUP1 DUP4 GT PUSH2 0x11FE JUMPI DUP3 SWAP1 SUB PUSH1 0x1F AND DUP3 ADD SWAP2 JUMPDEST POP POP POP POP POP SWAP1 DUP1 PUSH1 0x1 ADD DUP1 SLOAD PUSH2 0x1230 SWAP1 PUSH2 0x242E JUMP JUMPDEST DUP1 PUSH1 0x1F ADD PUSH1 0x20 DUP1 SWAP2 DIV MUL PUSH1 0x20 ADD PUSH1 0x40 MLOAD SWAP1 DUP2 ADD PUSH1 0x40 MSTORE DUP1 SWAP3 SWAP2 SWAP1 DUP2 DUP2 MSTORE PUSH1 0x20 ADD DUP3 DUP1 SLOAD PUSH2 0x125C SWAP1 PUSH2 0x242E JUMP JUMPDEST DUP1 ISZERO PUSH2 0x12A9 JUMPI DUP1 PUSH1 0x1F LT PUSH2 0x127E JUMPI PUSH2 0x100 DUP1 DUP4 SLOAD DIV MUL DUP4 MSTORE SWAP2 PUSH1 0x20 ADD SWAP2 PUSH2 0x12A9 JUMP JUMPDEST DUP3 ADD SWAP2 SWAP1 PUSH1 0x0 MSTORE PUSH1 0x20 PUSH1 0x0 KECCAK256 SWAP1 JUMPDEST DUP2 SLOAD DUP2 MSTORE SWAP1 PUSH1 0x1 ADD SWAP1 PUSH1 0x20 ADD DUP1 DUP4 GT PUSH2 0x128C JUMPI DUP3 SWAP1 SUB PUSH1 0x1F AND DUP3 ADD SWAP2 JUMPDEST POP POP POP POP POP SWAP1 POP DUP3 JUMP JUMPDEST PUSH1 0x0 DUP1 PUSH1 0xA PUSH1 0x0 CALLER PUSH20 0xFFFFFFFFFFFFFFFFFFFFFFFFFFFFFFFFFFFFFFFF AND PUSH20 0xFFFFFFFFFFFFFFFFFFFFFFFFFFFFFFFFFFFFFFFF AND DUP2 MSTORE PUSH1 0x20 ADD SWAP1 DUP2 MSTORE PUSH1 0x20 ADD PUSH1 0x0 KECCAK256 DUP1 SLOAD DUP1 PUSH1 0x20 MUL PUSH1 0x20 ADD PUSH1 0x40 MLOAD SWAP1 DUP2 ADD PUSH1 0x40 MSTORE DUP1 SWAP3 SWAP2 SWAP1 DUP2 DUP2 MSTORE PUSH1 0x20 ADD PUSH1 0x0 SWAP1 JUMPDEST DUP3 DUP3 LT ISZERO PUSH2 0x146B JUMPI DUP4 DUP3 SWAP1 PUSH1 0x0 MSTORE PUSH1 0x20 PUSH1 0x0 KECCAK256 SWAP1 PUSH1 0x2 MUL ADD PUSH1 0x40 MLOAD DUP1 PUSH1 0x40 ADD PUSH1 0x40 MSTORE SWAP1 DUP2 PUSH1 0x0 DUP3 ADD DUP1 SLOAD PUSH2 0x1348 SWAP1 PUSH2 0x242E JUMP JUMPDEST DUP1 PUSH1 0x1F ADD PUSH1 0x20 DUP1 SWAP2 DIV MUL PUSH1 0x20 ADD PUSH1 0x40 MLOAD SWAP1 DUP2 ADD PUSH1 0x40 MSTORE DUP1 SWAP3 SWAP2 SWAP1 DUP2 DUP2 MSTORE PUSH1 0x20 ADD DUP3 DUP1 SLOAD PUSH2 0x1374 SWAP1 PUSH2 0x242E JUMP JUMPDEST DUP1 ISZERO PUSH2 0x13C1 JUMPI DUP1 PUSH1 0x1F LT PUSH2 0x1396 JUMPI PUSH2 0x100 DUP1 DUP4 SLOAD DIV MUL DUP4 MSTORE SWAP2 PUSH1 0x20 ADD SWAP2 PUSH2 0x13C1 JUMP JUMPDEST DUP3 ADD SWAP2 SWAP1 PUSH1 0x0 MSTORE PUSH1 0x20 PUSH1 0x0 KECCAK256 SWAP1 JUMPDEST DUP2 SLOAD DUP2 MSTORE SWAP1 PUSH1 0x1 ADD SWAP1 PUSH1 0x20 ADD DUP1 DUP4 GT PUSH2 0x13A4 JUMPI DUP3 SWAP1 SUB PUSH1 0x1F AND DUP3 ADD SWAP2 JUMPDEST POP POP POP POP POP DUP2 MSTORE PUSH1 0x20 ADD PUSH1 0x1 DUP3 ADD DUP1 SLOAD PUSH2 0x13DA SWAP1 PUSH2 0x242E JUMP JUMPDEST DUP1 PUSH1 0x1F ADD PUSH1 0x20 DUP1 SWAP2 DIV MUL PUSH1 0x20 ADD PUSH1 0x40 MLOAD SWAP1 DUP2 ADD PUSH1 0x40 MSTORE DUP1 SWAP3 SWAP2 SWAP1 DUP2 DUP2 MSTORE PUSH1 0x20 ADD DUP3 DUP1 SLOAD PUSH2 0x1406 SWAP1 PUSH2 0x242E JUMP JUMPDEST DUP1 ISZERO PUSH2 0x1453 JUMPI DUP1 PUSH1 0x1F LT PUSH2 0x1428 JUMPI PUSH2 0x100 DUP1 DUP4 SLOAD DIV MUL DUP4 MSTORE SWAP2 PUSH1 0x20 ADD SWAP2 PUSH2 0x1453 JUMP JUMPDEST DUP3 ADD SWAP2 SWAP1 PUSH1 0x0 MSTORE PUSH1 0x20 PUSH1 0x0 KECCAK256 SWAP1 JUMPDEST DUP2 SLOAD DUP2 MSTORE SWAP1 PUSH1 0x1 ADD SWAP1 PUSH1 0x20 ADD DUP1 DUP4 GT PUSH2 0x1436 JUMPI DUP3 SWAP1 SUB PUSH1 0x1F AND DUP3 ADD SWAP2 JUMPDEST POP POP POP POP POP DUP2 MSTORE POP POP DUP2 MSTORE PUSH1 0x20 ADD SWAP1 PUSH1 0x1 ADD SWAP1 PUSH2 0x1315 JUMP JUMPDEST POP POP POP POP SWAP1 POP PUSH1 0x60 PUSH1 0x0 JUMPDEST DUP3 MLOAD DUP2 LT ISZERO PUSH2 0x1966 JUMPI DUP5 PUSH1 0x40 MLOAD PUSH1 0x20 ADD PUSH2 0x1490 SWAP2 SWAP1 PUSH2 0x28A8 JUMP JUMPDEST PUSH1 0x40 MLOAD PUSH1 0x20 DUP2 DUP4 SUB SUB DUP2 MSTORE SWAP1 PUSH1 0x40 MSTORE DUP1 MLOAD SWAP1 PUSH1 0x20 ADD KECCAK256 DUP4 DUP3 DUP2 MLOAD DUP2 LT PUSH2 0x14B9 JUMPI PUSH2 0x14B8 PUSH2 0x2577 JUMP JUMPDEST JUMPDEST PUSH1 0x20 MUL PUSH1 0x20 ADD ADD MLOAD PUSH1 0x20 ADD MLOAD PUSH1 0x40 MLOAD PUSH1 0x20 ADD PUSH2 0x14D5 SWAP2 SWAP1 PUSH2 0x28A8 JUMP JUMPDEST PUSH1 0x40 MLOAD PUSH1 0x20 DUP2 DUP4 SUB SUB DUP2 MSTORE SWAP1 PUSH1 0x40 MSTORE DUP1 MLOAD SWAP1 PUSH1 0x20 ADD KECCAK256 SUB PUSH2 0x1953 JUMPI PUSH1 0x0 PUSH1 0xA PUSH1 0x0 CALLER PUSH20 0xFFFFFFFFFFFFFFFFFFFFFFFFFFFFFFFFFFFFFFFF AND PUSH20 0xFFFFFFFFFFFFFFFFFFFFFFFFFFFFFFFFFFFFFFFF AND DUP2 MSTORE PUSH1 0x20 ADD SWAP1 DUP2 MSTORE PUSH1 0x20 ADD PUSH1 0x0 KECCAK256 DUP3 DUP2 SLOAD DUP2 LT PUSH2 0x1543 JUMPI PUSH2 0x1542 PUSH2 0x2577 JUMP JUMPDEST JUMPDEST SWAP1 PUSH1 0x0 MSTORE PUSH1 0x20 PUSH1 0x0 KECCAK256 SWAP1 PUSH1 0x2 MUL ADD PUSH1 0x1 ADD DUP1 SLOAD PUSH2 0x155F SWAP1 PUSH2 0x242E JUMP JUMPDEST DUP1 PUSH1 0x1F ADD PUSH1 0x20 DUP1 SWAP2 DIV MUL PUSH1 0x20 ADD PUSH1 0x40 MLOAD SWAP1 DUP2 ADD PUSH1 0x40 MSTORE DUP1 SWAP3 SWAP2 SWAP1 DUP2 DUP2 MSTORE PUSH1 0x20 ADD DUP3 DUP1 SLOAD PUSH2 0x158B SWAP1 PUSH2 0x242E JUMP JUMPDEST DUP1 ISZERO PUSH2 0x15D8 JUMPI DUP1 PUSH1 0x1F LT PUSH2 0x15AD JUMPI PUSH2 0x100 DUP1 DUP4 SLOAD DIV MUL DUP4 MSTORE SWAP2 PUSH1 0x20 ADD SWAP2 PUSH2 0x15D8 JUMP JUMPDEST DUP3 ADD SWAP2 SWAP1 PUSH1 0x0 MSTORE PUSH1 0x20 PUSH1 0x0 KECCAK256 SWAP1 JUMPDEST DUP2 SLOAD DUP2 MSTORE SWAP1 PUSH1 0x1 ADD SWAP1 PUSH1 0x20 ADD DUP1 DUP4 GT PUSH2 0x15BB JUMPI DUP3 SWAP1 SUB PUSH1 0x1F AND DUP3 ADD SWAP2 JUMPDEST POP POP POP POP POP SWAP1 POP PUSH1 0x0 PUSH1 0xA PUSH1 0x0 CALLER PUSH20 0xFFFFFFFFFFFFFFFFFFFFFFFFFFFFFFFFFFFFFFFF AND PUSH20 0xFFFFFFFFFFFFFFFFFFFFFFFFFFFFFFFFFFFFFFFF AND DUP2 MSTORE PUSH1 0x20 ADD SWAP1 DUP2 MSTORE PUSH1 0x20 ADD PUSH1 0x0 KECCAK256 DUP4 DUP2 SLOAD DUP2 LT PUSH2 0x1632 JUMPI PUSH2 0x1631 PUSH2 0x2577 JUMP JUMPDEST JUMPDEST SWAP1 PUSH1 0x0 MSTORE PUSH1 0x20 PUSH1 0x0 KECCAK256 SWAP1 PUSH1 0x2 MUL ADD PUSH1 0x0 ADD DUP1 SLOAD PUSH2 0x164E SWAP1 PUSH2 0x242E JUMP JUMPDEST DUP1 PUSH1 0x1F ADD PUSH1 0x20 DUP1 SWAP2 DIV MUL PUSH1 0x20 ADD PUSH1 0x40 MLOAD SWAP1 DUP2 ADD PUSH1 0x40 MSTORE DUP1 SWAP3 SWAP2 SWAP1 DUP2 DUP2 MSTORE PUSH1 0x20 ADD DUP3 DUP1 SLOAD PUSH2 0x167A SWAP1 PUSH2 0x242E JUMP JUMPDEST DUP1 ISZERO PUSH2 0x16C7 JUMPI DUP1 PUSH1 0x1F LT PUSH2 0x169C JUMPI PUSH2 0x100 DUP1 DUP4 SLOAD DIV MUL DUP4 MSTORE SWAP2 PUSH1 0x20 ADD SWAP2 PUSH2 0x16C7 JUMP JUMPDEST DUP3 ADD SWAP2 SWAP1 PUSH1 0x0 MSTORE PUSH1 0x20 PUSH1 0x0 KECCAK256 SWAP1 JUMPDEST DUP2 SLOAD DUP2 MSTORE SWAP1 PUSH1 0x1 ADD SWAP1 PUSH1 0x20 ADD DUP1 DUP4 GT PUSH2 0x16AA JUMPI DUP3 SWAP1 SUB PUSH1 0x1F AND DUP3 ADD SWAP2 JUMPDEST POP POP POP POP POP SWAP1 POP PUSH1 0xA PUSH1 0x0 DUP10 PUSH20 0xFFFFFFFFFFFFFFFFFFFFFFFFFFFFFFFFFFFFFFFF AND PUSH20 0xFFFFFFFFFFFFFFFFFFFFFFFFFFFFFFFFFFFFFFFF AND DUP2 MSTORE PUSH1 0x20 ADD SWAP1 DUP2 MSTORE PUSH1 0x20 ADD PUSH1 0x0 KECCAK256 PUSH1 0x40 MLOAD DUP1 PUSH1 0x40 ADD PUSH1 0x40 MSTORE DUP1 DUP4 DUP2 MSTORE PUSH1 0x20 ADD DUP5 DUP2 MSTORE POP SWAP1 DUP1 PUSH1 0x1 DUP2 SLOAD ADD DUP1 DUP3 SSTORE DUP1 SWAP2 POP POP PUSH1 0x1 SWAP1 SUB SWAP1 PUSH1 0x0 MSTORE PUSH1 0x20 PUSH1 0x0 KECCAK256 SWAP1 PUSH1 0x2 MUL ADD PUSH1 0x0 SWAP1 SWAP2 SWAP1 SWAP2 SWAP1 SWAP2 POP PUSH1 0x0 DUP3 ADD MLOAD DUP2 PUSH1 0x0 ADD SWAP1 DUP2 PUSH2 0x1760 SWAP2 SWAP1 PUSH2 0x2752 JUMP JUMPDEST POP PUSH1 0x20 DUP3 ADD MLOAD DUP2 PUSH1 0x1 ADD SWAP1 DUP2 PUSH2 0x1776 SWAP2 SWAP1 PUSH2 0x2752 JUMP JUMPDEST POP POP POP PUSH1 0x1 PUSH1 0xA PUSH1 0x0 CALLER PUSH20 0xFFFFFFFFFFFFFFFFFFFFFFFFFFFFFFFFFFFFFFFF AND PUSH20 0xFFFFFFFFFFFFFFFFFFFFFFFFFFFFFFFFFFFFFFFF AND DUP2 MSTORE PUSH1 0x20 ADD SWAP1 DUP2 MSTORE PUSH1 0x20 ADD PUSH1 0x0 KECCAK256 DUP1 SLOAD SWAP1 POP PUSH2 0x17C8 SWAP2 SWAP1 PUSH2 0x1C23 JUMP JUMPDEST DUP4 LT ISZERO PUSH2 0x18C8 JUMPI PUSH1 0xA PUSH1 0x0 CALLER PUSH20 0xFFFFFFFFFFFFFFFFFFFFFFFFFFFFFFFFFFFFFFFF AND PUSH20 0xFFFFFFFFFFFFFFFFFFFFFFFFFFFFFFFFFFFFFFFF AND DUP2 MSTORE PUSH1 0x20 ADD SWAP1 DUP2 MSTORE PUSH1 0x20 ADD PUSH1 0x0 KECCAK256 PUSH1 0x1 DUP7 MLOAD PUSH2 0x181C SWAP2 SWAP1 PUSH2 0x1C23 JUMP JUMPDEST DUP2 SLOAD DUP2 LT PUSH2 0x182D JUMPI PUSH2 0x182C PUSH2 0x2577 JUMP JUMPDEST JUMPDEST SWAP1 PUSH1 0x0 MSTORE PUSH1 0x20 PUSH1 0x0 KECCAK256 SWAP1 PUSH1 0x2 MUL ADD PUSH1 0xA PUSH1 0x0 CALLER PUSH20 0xFFFFFFFFFFFFFFFFFFFFFFFFFFFFFFFFFFFFFFFF AND PUSH20 0xFFFFFFFFFFFFFFFFFFFFFFFFFFFFFFFFFFFFFFFF AND DUP2 MSTORE PUSH1 0x20 ADD SWAP1 DUP2 MSTORE PUSH1 0x20 ADD PUSH1 0x0 KECCAK256 DUP5 DUP2 SLOAD DUP2 LT PUSH2 0x188C JUMPI PUSH2 0x188B PUSH2 0x2577 JUMP JUMPDEST JUMPDEST SWAP1 PUSH1 0x0 MSTORE PUSH1 0x20 PUSH1 0x0 KECCAK256 SWAP1 PUSH1 0x2 MUL ADD PUSH1 0x0 DUP3 ADD DUP2 PUSH1 0x0 ADD SWAP1 DUP2 PUSH2 0x18AE SWAP2 SWAP1 PUSH2 0x28D5 JUMP JUMPDEST POP PUSH1 0x1 DUP3 ADD DUP2 PUSH1 0x1 ADD SWAP1 DUP2 PUSH2 0x18C3 SWAP2 SWAP1 PUSH2 0x28D5 JUMP JUMPDEST POP SWAP1 POP POP JUMPDEST PUSH1 0xA PUSH1 0x0 CALLER PUSH20 0xFFFFFFFFFFFFFFFFFFFFFFFFFFFFFFFFFFFFFFFF AND PUSH20 0xFFFFFFFFFFFFFFFFFFFFFFFFFFFFFFFFFFFFFFFF AND DUP2 MSTORE PUSH1 0x20 ADD SWAP1 DUP2 MSTORE PUSH1 0x20 ADD PUSH1 0x0 KECCAK256 DUP1 SLOAD DUP1 PUSH2 0x1917 JUMPI PUSH2 0x1916 PUSH2 0x29BD JUMP JUMPDEST JUMPDEST PUSH1 0x1 SWAP1 SUB DUP2 DUP2 SWAP1 PUSH1 0x0 MSTORE PUSH1 0x20 PUSH1 0x0 KECCAK256 SWAP1 PUSH1 0x2 MUL ADD PUSH1 0x0 DUP1 DUP3 ADD PUSH1 0x0 PUSH2 0x193C SWAP2 SWAP1 PUSH2 0x1B4B JUMP JUMPDEST PUSH1 0x1 DUP3 ADD PUSH1 0x0 PUSH2 0x194C SWAP2 SWAP1 PUSH2 0x1B4B JUMP JUMPDEST POP POP SWAP1 SSTORE POP POP JUMPDEST DUP1 DUP1 PUSH2 0x195E SWAP1 PUSH2 0x2824 JUMP JUMPDEST SWAP2 POP POP PUSH2 0x1476 JUMP JUMPDEST POP PUSH1 0x1 SWAP3 POP POP POP SWAP3 SWAP2 POP POP JUMP JUMPDEST PUSH1 0x1 DUP1 SLOAD PUSH2 0x1980 SWAP1 PUSH2 0x242E JUMP JUMPDEST DUP1 PUSH1 0x1F ADD PUSH1 0x20 DUP1 SWAP2 DIV MUL PUSH1 0x20 ADD PUSH1 0x40 MLOAD SWAP1 DUP2 ADD PUSH1 0x40 MSTORE DUP1 SWAP3 SWAP2 SWAP1 DUP2 DUP2 MSTORE PUSH1 0x20 ADD DUP3 DUP1 SLOAD PUSH2 0x19AC SWAP1 PUSH2 0x242E JUMP JUMPDEST DUP1 ISZERO PUSH2 0x19F9 JUMPI DUP1 PUSH1 0x1F LT PUSH2 0x19CE JUMPI PUSH2 0x100 DUP1 DUP4 SLOAD DIV MUL DUP4 MSTORE SWAP2 PUSH1 0x20 ADD SWAP2 PUSH2 0x19F9 JUMP JUMPDEST DUP3 ADD SWAP2 SWAP1 PUSH1 0x0 MSTORE PUSH1 0x20 PUSH1 0x0 KECCAK256 SWAP1 JUMPDEST DUP2 SLOAD DUP2 MSTORE SWAP1 PUSH1 0x1 ADD SWAP1 PUSH1 0x20 ADD DUP1 DUP4 GT PUSH2 0x19DC JUMPI DUP3 SWAP1 SUB PUSH1 0x1F AND DUP3 ADD SWAP2 JUMPDEST POP POP POP POP POP DUP2 JUMP JUMPDEST PUSH1 0x0 DUP2 PUSH1 0x5 PUSH1 0x0 CALLER PUSH20 0xFFFFFFFFFFFFFFFFFFFFFFFFFFFFFFFFFFFFFFFF AND PUSH20 0xFFFFFFFFFFFFFFFFFFFFFFFFFFFFFFFFFFFFFFFF AND DUP2 MSTORE PUSH1 0x20 ADD SWAP1 DUP2 MSTORE PUSH1 0x20 ADD PUSH1 0x0 KECCAK256 PUSH1 0x0 DUP3 DUP3 SLOAD PUSH2 0x1A52 SWAP2 SWAP1 PUSH2 0x1C23 JUMP JUMPDEST SWAP3 POP POP DUP2 SWAP1 SSTORE POP DUP2 PUSH1 0x5 PUSH1 0x0 DUP6 PUSH20 0xFFFFFFFFFFFFFFFFFFFFFFFFFFFFFFFFFFFFFFFF AND PUSH20 0xFFFFFFFFFFFFFFFFFFFFFFFFFFFFFFFFFFFFFFFF AND DUP2 MSTORE PUSH1 0x20 ADD SWAP1 DUP2 MSTORE PUSH1 0x20 ADD PUSH1 0x0 KECCAK256 PUSH1 0x0 DUP3 DUP3 SLOAD PUSH2 0x1AA8 SWAP2 SWAP1 PUSH2 0x1C57 JUMP JUMPDEST SWAP3 POP POP DUP2 SWAP1 SSTORE POP PUSH1 0x1 SWAP1 POP SWAP3 SWAP2 POP POP JUMP JUMPDEST PUSH1 0x0 ADDRESS SWAP1 POP PUSH1 0x0 DUP2 SWAP1 POP DUP1 PUSH20 0xFFFFFFFFFFFFFFFFFFFFFFFFFFFFFFFFFFFFFFFF AND PUSH2 0x8FC CALLVALUE SWAP1 DUP2 ISZERO MUL SWAP1 PUSH1 0x40 MLOAD PUSH1 0x0 PUSH1 0x40 MLOAD DUP1 DUP4 SUB DUP2 DUP6 DUP9 DUP9 CALL SWAP4 POP POP POP POP ISZERO DUP1 ISZERO PUSH2 0x1B09 JUMPI RETURNDATASIZE PUSH1 0x0 DUP1 RETURNDATACOPY RETURNDATASIZE PUSH1 0x0 REVERT JUMPDEST POP POP POP JUMP JUMPDEST PUSH1 0x6 PUSH1 0x20 MSTORE DUP2 PUSH1 0x0 MSTORE PUSH1 0x40 PUSH1 0x0 KECCAK256 PUSH1 0x20 MSTORE DUP1 PUSH1 0x0 MSTORE PUSH1 0x40 PUSH1 0x0 KECCAK256 PUSH1 0x0 SWAP2 POP SWAP2 POP POP SLOAD DUP2 JUMP JUMPDEST PUSH1 0x5 PUSH1 0x20 MSTORE DUP1 PUSH1 0x0 MSTORE PUSH1 0x40 PUSH1 0x0 KECCAK256 PUSH1 0x0 SWAP2 POP SWAP1 POP SLOAD DUP2 JUMP JUMPDEST POP DUP1 SLOAD PUSH2 0x1B57 SWAP1 PUSH2 0x242E JUMP JUMPDEST PUSH1 0x0 DUP3 SSTORE DUP1 PUSH1 0x1F LT PUSH2 0x1B69 JUMPI POP PUSH2 0x1B88 JUMP JUMPDEST PUSH1 0x1F ADD PUSH1 0x20 SWAP1 DIV SWAP1 PUSH1 0x0 MSTORE PUSH1 0x20 PUSH1 0x0 KECCAK256 SWAP1 DUP2 ADD SWAP1 PUSH2 0x1B87 SWAP2 SWAP1 PUSH2 0x1B8B JUMP JUMPDEST JUMPDEST POP JUMP JUMPDEST JUMPDEST DUP1 DUP3 GT ISZERO PUSH2 0x1BA4 JUMPI PUSH1 0x0 DUP2 PUSH1 0x0 SWAP1 SSTORE POP PUSH1 0x1 ADD PUSH2 0x1B8C JUMP JUMPDEST POP SWAP1 JUMP JUMPDEST PUSH1 0x0 DUP2 SWAP1 POP SWAP2 SWAP1 POP JUMP JUMPDEST PUSH32 0x4E487B7100000000000000000000000000000000000000000000000000000000 PUSH1 0x0 MSTORE PUSH1 0x11 PUSH1 0x4 MSTORE PUSH1 0x24 PUSH1 0x0 REVERT JUMPDEST PUSH1 0x0 PUSH2 0x1BEC DUP3 PUSH2 0x1BA8 JUMP JUMPDEST SWAP2 POP PUSH2 0x1BF7 DUP4 PUSH2 0x1BA8 JUMP JUMPDEST SWAP3 POP DUP3 DUP3 MUL PUSH2 0x1C05 DUP2 PUSH2 0x1BA8 JUMP JUMPDEST SWAP2 POP DUP3 DUP3 DIV DUP5 EQ DUP4 ISZERO OR PUSH2 0x1C1C JUMPI PUSH2 0x1C1B PUSH2 0x1BB2 JUMP JUMPDEST JUMPDEST POP SWAP3 SWAP2 POP POP JUMP JUMPDEST PUSH1 0x0 PUSH2 0x1C2E DUP3 PUSH2 0x1BA8 JUMP JUMPDEST SWAP2 POP PUSH2 0x1C39 DUP4 PUSH2 0x1BA8 JUMP JUMPDEST SWAP3 POP DUP3 DUP3 SUB SWAP1 POP DUP2 DUP2 GT ISZERO PUSH2 0x1C51 JUMPI PUSH2 0x1C50 PUSH2 0x1BB2 JUMP JUMPDEST JUMPDEST SWAP3 SWAP2 POP POP JUMP JUMPDEST PUSH1 0x0 PUSH2 0x1C62 DUP3 PUSH2 0x1BA8 JUMP JUMPDEST SWAP2 POP PUSH2 0x1C6D DUP4 PUSH2 0x1BA8 JUMP JUMPDEST SWAP3 POP DUP3 DUP3 ADD SWAP1 POP DUP1 DUP3 GT ISZERO PUSH2 0x1C85 JUMPI PUSH2 0x1C84 PUSH2 0x1BB2 JUMP JUMPDEST JUMPDEST SWAP3 SWAP2 POP POP JUMP JUMPDEST PUSH1 0x0 DUP2 MLOAD SWAP1 POP SWAP2 SWAP1 POP JUMP JUMPDEST PUSH1 0x0 DUP3 DUP3 MSTORE PUSH1 0x20 DUP3 ADD SWAP1 POP SWAP3 SWAP2 POP POP JUMP JUMPDEST PUSH1 0x0 JUMPDEST DUP4 DUP2 LT ISZERO PUSH2 0x1CC5 JUMPI DUP1 DUP3 ADD MLOAD DUP2 DUP5 ADD MSTORE PUSH1 0x20 DUP2 ADD SWAP1 POP PUSH2 0x1CAA JUMP JUMPDEST PUSH1 0x0 DUP5 DUP5 ADD MSTORE POP POP POP POP JUMP JUMPDEST PUSH1 0x0 PUSH1 0x1F NOT PUSH1 0x1F DUP4 ADD AND SWAP1 POP SWAP2 SWAP1 POP JUMP JUMPDEST PUSH1 0x0 PUSH2 0x1CED DUP3 PUSH2 0x1C8B JUMP JUMPDEST PUSH2 0x1CF7 DUP2 DUP6 PUSH2 0x1C96 JUMP JUMPDEST SWAP4 POP PUSH2 0x1D07 DUP2 DUP6 PUSH1 0x20 DUP7 ADD PUSH2 0x1CA7 JUMP JUMPDEST PUSH2 0x1D10 DUP2 PUSH2 0x1CD1 JUMP JUMPDEST DUP5 ADD SWAP2 POP POP SWAP3 SWAP2 POP POP JUMP JUMPDEST PUSH1 0x0 PUSH1 0x20 DUP3 ADD SWAP1 POP DUP2 DUP2 SUB PUSH1 0x0 DUP4 ADD MSTORE PUSH2 0x1D35 DUP2 DUP5 PUSH2 0x1CE2 JUMP JUMPDEST SWAP1 POP SWAP3 SWAP2 POP POP JUMP JUMPDEST PUSH1 0x0 PUSH1 0x40 MLOAD SWAP1 POP SWAP1 JUMP JUMPDEST PUSH1 0x0 DUP1 REVERT JUMPDEST PUSH1 0x0 DUP1 REVERT JUMPDEST PUSH1 0x0 PUSH20 0xFFFFFFFFFFFFFFFFFFFFFFFFFFFFFFFFFFFFFFFF DUP3 AND SWAP1 POP SWAP2 SWAP1 POP JUMP JUMPDEST PUSH1 0x0 PUSH2 0x1D7C DUP3 PUSH2 0x1D51 JUMP JUMPDEST SWAP1 POP SWAP2 SWAP1 POP JUMP JUMPDEST PUSH2 0x1D8C DUP2 PUSH2 0x1D71 JUMP JUMPDEST DUP2 EQ PUSH2 0x1D97 JUMPI PUSH1 0x0 DUP1 REVERT JUMPDEST POP JUMP JUMPDEST PUSH1 0x0 DUP2 CALLDATALOAD SWAP1 POP PUSH2 0x1DA9 DUP2 PUSH2 0x1D83 JUMP JUMPDEST SWAP3 SWAP2 POP POP JUMP JUMPDEST PUSH2 0x1DB8 DUP2 PUSH2 0x1BA8 JUMP JUMPDEST DUP2 EQ PUSH2 0x1DC3 JUMPI PUSH1 0x0 DUP1 REVERT JUMPDEST POP JUMP JUMPDEST PUSH1 0x0 DUP2 CALLDATALOAD SWAP1 POP PUSH2 0x1DD5 DUP2 PUSH2 0x1DAF JUMP JUMPDEST SWAP3 SWAP2 POP POP JUMP JUMPDEST PUSH1 0x0 DUP1 PUSH1 0x40 DUP4 DUP6 SUB SLT ISZERO PUSH2 0x1DF2 JUMPI PUSH2 0x1DF1 PUSH2 0x1D47 JUMP JUMPDEST JUMPDEST PUSH1 0x0 PUSH2 0x1E00 DUP6 DUP3 DUP7 ADD PUSH2 0x1D9A JUMP JUMPDEST SWAP3 POP POP PUSH1 0x20 PUSH2 0x1E11 DUP6 DUP3 DUP7 ADD PUSH2 0x1DC6 JUMP JUMPDEST SWAP2 POP POP SWAP3 POP SWAP3 SWAP1 POP JUMP JUMPDEST PUSH1 0x0 DUP2 ISZERO ISZERO SWAP1 POP SWAP2 SWAP1 POP JUMP JUMPDEST PUSH2 0x1E30 DUP2 PUSH2 0x1E1B JUMP JUMPDEST DUP3 MSTORE POP POP JUMP JUMPDEST PUSH1 0x0 PUSH1 0x20 DUP3 ADD SWAP1 POP PUSH2 0x1E4B PUSH1 0x0 DUP4 ADD DUP5 PUSH2 0x1E27 JUMP JUMPDEST SWAP3 SWAP2 POP POP JUMP JUMPDEST PUSH2 0x1E5A DUP2 PUSH2 0x1BA8 JUMP JUMPDEST DUP3 MSTORE POP POP JUMP JUMPDEST PUSH1 0x0 PUSH1 0x20 DUP3 ADD SWAP1 POP PUSH2 0x1E75 PUSH1 0x0 DUP4 ADD DUP5 PUSH2 0x1E51 JUMP JUMPDEST SWAP3 SWAP2 POP POP JUMP JUMPDEST PUSH1 0x0 DUP1 PUSH1 0x0 PUSH1 0x60 DUP5 DUP7 SUB SLT ISZERO PUSH2 0x1E94 JUMPI PUSH2 0x1E93 PUSH2 0x1D47 JUMP JUMPDEST JUMPDEST PUSH1 0x0 PUSH2 0x1EA2 DUP7 DUP3 DUP8 ADD PUSH2 0x1D9A JUMP JUMPDEST SWAP4 POP POP PUSH1 0x20 PUSH2 0x1EB3 DUP7 DUP3 DUP8 ADD PUSH2 0x1D9A JUMP JUMPDEST SWAP3 POP POP PUSH1 0x40 PUSH2 0x1EC4 DUP7 DUP3 DUP8 ADD PUSH2 0x1DC6 JUMP JUMPDEST SWAP2 POP POP SWAP3 POP SWAP3 POP SWAP3 JUMP JUMPDEST PUSH1 0x0 DUP2 MLOAD SWAP1 POP SWAP2 SWAP1 POP JUMP JUMPDEST PUSH1 0x0 DUP3 DUP3 MSTORE PUSH1 0x20 DUP3 ADD SWAP1 POP SWAP3 SWAP2 POP POP JUMP JUMPDEST PUSH1 0x0 DUP2 SWAP1 POP PUSH1 0x20 DUP3 ADD SWAP1 POP SWAP2 SWAP1 POP JUMP JUMPDEST PUSH1 0x0 DUP3 DUP3 MSTORE PUSH1 0x20 DUP3 ADD SWAP1 POP SWAP3 SWAP2 POP POP JUMP JUMPDEST PUSH1 0x0 PUSH2 0x1F16 DUP3 PUSH2 0x1C8B JUMP JUMPDEST PUSH2 0x1F20 DUP2 DUP6 PUSH2 0x1EFA JUMP JUMPDEST SWAP4 POP PUSH2 0x1F30 DUP2 DUP6 PUSH1 0x20 DUP7 ADD PUSH2 0x1CA7 JUMP JUMPDEST PUSH2 0x1F39 DUP2 PUSH2 0x1CD1 JUMP JUMPDEST DUP5 ADD SWAP2 POP POP SWAP3 SWAP2 POP POP JUMP JUMPDEST PUSH1 0x0 PUSH1 0x40 DUP4 ADD PUSH1 0x0 DUP4 ADD MLOAD DUP5 DUP3 SUB PUSH1 0x0 DUP7 ADD MSTORE PUSH2 0x1F61 DUP3 DUP3 PUSH2 0x1F0B JUMP JUMPDEST SWAP2 POP POP PUSH1 0x20 DUP4 ADD MLOAD DUP5 DUP3 SUB PUSH1 0x20 DUP7 ADD MSTORE PUSH2 0x1F7B DUP3 DUP3 PUSH2 0x1F0B JUMP JUMPDEST SWAP2 POP POP DUP1 SWAP2 POP POP SWAP3 SWAP2 POP POP JUMP JUMPDEST PUSH1 0x0 PUSH2 0x1F94 DUP4 DUP4 PUSH2 0x1F44 JUMP JUMPDEST SWAP1 POP SWAP3 SWAP2 POP POP JUMP JUMPDEST PUSH1 0x0 PUSH1 0x20 DUP3 ADD SWAP1 POP SWAP2 SWAP1 POP JUMP JUMPDEST PUSH1 0x0 PUSH2 0x1FB4 DUP3 PUSH2 0x1ECE JUMP JUMPDEST PUSH2 0x1FBE DUP2 DUP6 PUSH2 0x1ED9 JUMP JUMPDEST SWAP4 POP DUP4 PUSH1 0x20 DUP3 MUL DUP6 ADD PUSH2 0x1FD0 DUP6 PUSH2 0x1EEA JUMP JUMPDEST DUP1 PUSH1 0x0 JUMPDEST DUP6 DUP2 LT ISZERO PUSH2 0x200C JUMPI DUP5 DUP5 SUB DUP10 MSTORE DUP2 MLOAD PUSH2 0x1FED DUP6 DUP3 PUSH2 0x1F88 JUMP JUMPDEST SWAP5 POP PUSH2 0x1FF8 DUP4 PUSH2 0x1F9C JUMP JUMPDEST SWAP3 POP PUSH1 0x20 DUP11 ADD SWAP10 POP POP PUSH1 0x1 DUP2 ADD SWAP1 POP PUSH2 0x1FD4 JUMP JUMPDEST POP DUP3 SWAP8 POP DUP8 SWAP6 POP POP POP POP POP POP SWAP3 SWAP2 POP POP JUMP JUMPDEST PUSH1 0x0 PUSH1 0x20 DUP3 ADD SWAP1 POP DUP2 DUP2 SUB PUSH1 0x0 DUP4 ADD MSTORE PUSH2 0x2038 DUP2 DUP5 PUSH2 0x1FA9 JUMP JUMPDEST SWAP1 POP SWAP3 SWAP2 POP POP JUMP JUMPDEST PUSH1 0x0 PUSH1 0xFF DUP3 AND SWAP1 POP SWAP2 SWAP1 POP JUMP JUMPDEST PUSH2 0x2056 DUP2 PUSH2 0x2040 JUMP JUMPDEST DUP3 MSTORE POP POP JUMP JUMPDEST PUSH1 0x0 PUSH1 0x20 DUP3 ADD SWAP1 POP PUSH2 0x2071 PUSH1 0x0 DUP4 ADD DUP5 PUSH2 0x204D JUMP JUMPDEST SWAP3 SWAP2 POP POP JUMP JUMPDEST PUSH1 0x0 PUSH1 0x20 DUP3 DUP5 SUB SLT ISZERO PUSH2 0x208D JUMPI PUSH2 0x208C PUSH2 0x1D47 JUMP JUMPDEST JUMPDEST PUSH1 0x0 PUSH2 0x209B DUP5 DUP3 DUP6 ADD PUSH2 0x1DC6 JUMP JUMPDEST SWAP2 POP POP SWAP3 SWAP2 POP POP JUMP JUMPDEST PUSH2 0x20AD DUP2 PUSH2 0x1D71 JUMP JUMPDEST DUP3 MSTORE POP POP JUMP JUMPDEST PUSH1 0x0 PUSH1 0x20 DUP3 ADD SWAP1 POP PUSH2 0x20C8 PUSH1 0x0 DUP4 ADD DUP5 PUSH2 0x20A4 JUMP JUMPDEST SWAP3 SWAP2 POP POP JUMP JUMPDEST PUSH1 0x0 PUSH1 0x20 DUP3 DUP5 SUB SLT ISZERO PUSH2 0x20E4 JUMPI PUSH2 0x20E3 PUSH2 0x1D47 JUMP JUMPDEST JUMPDEST PUSH1 0x0 PUSH2 0x20F2 DUP5 DUP3 DUP6 ADD PUSH2 0x1D9A JUMP JUMPDEST SWAP2 POP POP SWAP3 SWAP2 POP POP JUMP JUMPDEST PUSH1 0x0 DUP2 MLOAD SWAP1 POP SWAP2 SWAP1 POP JUMP JUMPDEST PUSH1 0x0 DUP3 DUP3 MSTORE PUSH1 0x20 DUP3 ADD SWAP1 POP SWAP3 SWAP2 POP POP JUMP JUMPDEST PUSH1 0x0 DUP2 SWAP1 POP PUSH1 0x20 DUP3 ADD SWAP1 POP SWAP2 SWAP1 POP JUMP JUMPDEST PUSH2 0x2130 DUP2 PUSH2 0x1D71 JUMP JUMPDEST DUP3 MSTORE POP POP JUMP JUMPDEST PUSH1 0x20 DUP3 ADD PUSH1 0x0 DUP3 ADD MLOAD PUSH2 0x214C PUSH1 0x0 DUP6 ADD DUP3 PUSH2 0x2127 JUMP JUMPDEST POP POP POP POP JUMP JUMPDEST PUSH1 0x0 PUSH2 0x215E DUP4 DUP4 PUSH2 0x2136 JUMP JUMPDEST PUSH1 0x20 DUP4 ADD SWAP1 POP SWAP3 SWAP2 POP POP JUMP JUMPDEST PUSH1 0x0 PUSH1 0x20 DUP3 ADD SWAP1 POP SWAP2 SWAP1 POP JUMP JUMPDEST PUSH1 0x0 PUSH2 0x2182 DUP3 PUSH2 0x20FB JUMP JUMPDEST PUSH2 0x218C DUP2 DUP6 PUSH2 0x2106 JUMP JUMPDEST SWAP4 POP PUSH2 0x2197 DUP4 PUSH2 0x2117 JUMP JUMPDEST DUP1 PUSH1 0x0 JUMPDEST DUP4 DUP2 LT ISZERO PUSH2 0x21C8 JUMPI DUP2 MLOAD PUSH2 0x21AF DUP9 DUP3 PUSH2 0x2152 JUMP JUMPDEST SWAP8 POP PUSH2 0x21BA DUP4 PUSH2 0x216A JUMP JUMPDEST SWAP3 POP POP PUSH1 0x1 DUP2 ADD SWAP1 POP PUSH2 0x219B JUMP JUMPDEST POP DUP6 SWAP4 POP POP POP POP SWAP3 SWAP2 POP POP JUMP JUMPDEST PUSH1 0x0 PUSH1 0x20 DUP3 ADD SWAP1 POP DUP2 DUP2 SUB PUSH1 0x0 DUP4 ADD MSTORE PUSH2 0x21EF DUP2 DUP5 PUSH2 0x2177 JUMP JUMPDEST SWAP1 POP SWAP3 SWAP2 POP POP JUMP JUMPDEST PUSH1 0x0 PUSH1 0x40 DUP3 ADD SWAP1 POP DUP2 DUP2 SUB PUSH1 0x0 DUP4 ADD MSTORE PUSH2 0x2211 DUP2 DUP6 PUSH2 0x1CE2 JUMP JUMPDEST SWAP1 POP DUP2 DUP2 SUB PUSH1 0x20 DUP4 ADD MSTORE PUSH2 0x2225 DUP2 DUP5 PUSH2 0x1CE2 JUMP JUMPDEST SWAP1 POP SWAP4 SWAP3 POP POP POP JUMP JUMPDEST PUSH1 0x0 DUP1 REVERT JUMPDEST PUSH1 0x0 DUP1 REVERT JUMPDEST PUSH32 0x4E487B7100000000000000000000000000000000000000000000000000000000 PUSH1 0x0 MSTORE PUSH1 0x41 PUSH1 0x4 MSTORE PUSH1 0x24 PUSH1 0x0 REVERT JUMPDEST PUSH2 0x2270 DUP3 PUSH2 0x1CD1 JUMP JUMPDEST DUP2 ADD DUP2 DUP2 LT PUSH8 0xFFFFFFFFFFFFFFFF DUP3 GT OR ISZERO PUSH2 0x228F JUMPI PUSH2 0x228E PUSH2 0x2238 JUMP JUMPDEST JUMPDEST DUP1 PUSH1 0x40 MSTORE POP POP POP JUMP JUMPDEST PUSH1 0x0 PUSH2 0x22A2 PUSH2 0x1D3D JUMP JUMPDEST SWAP1 POP PUSH2 0x22AE DUP3 DUP3 PUSH2 0x2267 JUMP JUMPDEST SWAP2 SWAP1 POP JUMP JUMPDEST PUSH1 0x0 PUSH8 0xFFFFFFFFFFFFFFFF DUP3 GT ISZERO PUSH2 0x22CE JUMPI PUSH2 0x22CD PUSH2 0x2238 JUMP JUMPDEST JUMPDEST PUSH2 0x22D7 DUP3 PUSH2 0x1CD1 JUMP JUMPDEST SWAP1 POP PUSH1 0x20 DUP2 ADD SWAP1 POP SWAP2 SWAP1 POP JUMP JUMPDEST DUP3 DUP2 DUP4 CALLDATACOPY PUSH1 0x0 DUP4 DUP4 ADD MSTORE POP POP POP JUMP JUMPDEST PUSH1 0x0 PUSH2 0x2306 PUSH2 0x2301 DUP5 PUSH2 0x22B3 JUMP JUMPDEST PUSH2 0x2298 JUMP JUMPDEST SWAP1 POP DUP3 DUP2 MSTORE PUSH1 0x20 DUP2 ADD DUP5 DUP5 DUP5 ADD GT ISZERO PUSH2 0x2322 JUMPI PUSH2 0x2321 PUSH2 0x2233 JUMP JUMPDEST JUMPDEST PUSH2 0x232D DUP5 DUP3 DUP6 PUSH2 0x22E4 JUMP JUMPDEST POP SWAP4 SWAP3 POP POP POP JUMP JUMPDEST PUSH1 0x0 DUP3 PUSH1 0x1F DUP4 ADD SLT PUSH2 0x234A JUMPI PUSH2 0x2349 PUSH2 0x222E JUMP JUMPDEST JUMPDEST DUP2 CALLDATALOAD PUSH2 0x235A DUP5 DUP3 PUSH1 0x20 DUP7 ADD PUSH2 0x22F3 JUMP JUMPDEST SWAP2 POP POP SWAP3 SWAP2 POP POP JUMP JUMPDEST PUSH1 0x0 DUP1 PUSH1 0x40 DUP4 DUP6 SUB SLT ISZERO PUSH2 0x237A JUMPI PUSH2 0x2379 PUSH2 0x1D47 JUMP JUMPDEST JUMPDEST PUSH1 0x0 PUSH2 0x2388 DUP6 DUP3 DUP7 ADD PUSH2 0x1D9A JUMP JUMPDEST SWAP3 POP POP PUSH1 0x20 DUP4 ADD CALLDATALOAD PUSH8 0xFFFFFFFFFFFFFFFF DUP2 GT ISZERO PUSH2 0x23A9 JUMPI PUSH2 0x23A8 PUSH2 0x1D4C JUMP JUMPDEST JUMPDEST PUSH2 0x23B5 DUP6 DUP3 DUP7 ADD PUSH2 0x2335 JUMP JUMPDEST SWAP2 POP POP SWAP3 POP SWAP3 SWAP1 POP JUMP JUMPDEST PUSH1 0x0 DUP1 PUSH1 0x40 DUP4 DUP6 SUB SLT ISZERO PUSH2 0x23D6 JUMPI PUSH2 0x23D5 PUSH2 0x1D47 JUMP JUMPDEST JUMPDEST PUSH1 0x0 PUSH2 0x23E4 DUP6 DUP3 DUP7 ADD PUSH2 0x1D9A JUMP JUMPDEST SWAP3 POP POP PUSH1 0x20 PUSH2 0x23F5 DUP6 DUP3 DUP7 ADD PUSH2 0x1D9A JUMP JUMPDEST SWAP2 POP POP SWAP3 POP SWAP3 SWAP1 POP JUMP JUMPDEST PUSH32 0x4E487B7100000000000000000000000000000000000000000000000000000000 PUSH1 0x0 MSTORE PUSH1 0x22 PUSH1 0x4 MSTORE PUSH1 0x24 PUSH1 0x0 REVERT JUMPDEST PUSH1 0x0 PUSH1 0x2 DUP3 DIV SWAP1 POP PUSH1 0x1 DUP3 AND DUP1 PUSH2 0x2446 JUMPI PUSH1 0x7F DUP3 AND SWAP2 POP JUMPDEST PUSH1 0x20 DUP3 LT DUP2 SUB PUSH2 0x2459 JUMPI PUSH2 0x2458 PUSH2 0x23FF JUMP JUMPDEST JUMPDEST POP SWAP2 SWAP1 POP JUMP JUMPDEST PUSH1 0x0 DUP2 SWAP1 POP SWAP2 SWAP1 POP JUMP JUMPDEST PUSH2 0x247A PUSH2 0x2475 DUP3 PUSH2 0x1BA8 JUMP JUMPDEST PUSH2 0x245F JUMP JUMPDEST DUP3 MSTORE POP POP JUMP JUMPDEST PUSH1 0x0 PUSH2 0x248B DUP3 PUSH2 0x1D51 JUMP JUMPDEST SWAP1 POP SWAP2 SWAP1 POP JUMP JUMPDEST PUSH1 0x0 DUP2 PUSH1 0x60 SHL SWAP1 POP SWAP2 SWAP1 POP JUMP JUMPDEST PUSH1 0x0 PUSH2 0x24AA DUP3 PUSH2 0x2492 JUMP JUMPDEST SWAP1 POP SWAP2 SWAP1 POP JUMP JUMPDEST PUSH1 0x0 PUSH2 0x24BC DUP3 PUSH2 0x249F JUMP JUMPDEST SWAP1 POP SWAP2 SWAP1 POP JUMP JUMPDEST PUSH2 0x24D4 PUSH2 0x24CF DUP3 PUSH2 0x2480 JUMP JUMPDEST PUSH2 0x24B1 JUMP JUMPDEST DUP3 MSTORE POP POP JUMP JUMPDEST PUSH1 0x0 PUSH2 0x24E6 DUP3 DUP7 PUSH2 0x2469 JUMP JUMPDEST PUSH1 0x20 DUP3 ADD SWAP2 POP PUSH2 0x24F6 DUP3 DUP6 PUSH2 0x24C3 JUMP JUMPDEST PUSH1 0x14 DUP3 ADD SWAP2 POP PUSH2 0x2506 DUP3 DUP5 PUSH2 0x2469 JUMP JUMPDEST PUSH1 0x20 DUP3 ADD SWAP2 POP DUP2 SWAP1 POP SWAP5 SWAP4 POP POP POP POP JUMP JUMPDEST PUSH32 0x4E487B7100000000000000000000000000000000000000000000000000000000 PUSH1 0x0 MSTORE PUSH1 0x12 PUSH1 0x4 MSTORE PUSH1 0x24 PUSH1 0x0 REVERT JUMPDEST PUSH1 0x0 PUSH2 0x2551 DUP3 PUSH2 0x1BA8 JUMP JUMPDEST SWAP2 POP PUSH2 0x255C DUP4 PUSH2 0x1BA8 JUMP JUMPDEST SWAP3 POP DUP3 PUSH2 0x256C JUMPI PUSH2 0x256B PUSH2 0x2517 JUMP JUMPDEST JUMPDEST DUP3 DUP3 MOD SWAP1 POP SWAP3 SWAP2 POP POP JUMP JUMPDEST PUSH32 0x4E487B7100000000000000000000000000000000000000000000000000000000 PUSH1 0x0 MSTORE PUSH1 0x32 PUSH1 0x4 MSTORE PUSH1 0x24 PUSH1 0x0 REVERT JUMPDEST PUSH1 0x0 DUP2 SWAP1 POP DUP2 PUSH1 0x0 MSTORE PUSH1 0x20 PUSH1 0x0 KECCAK256 SWAP1 POP SWAP2 SWAP1 POP JUMP JUMPDEST PUSH1 0x0 PUSH1 0x20 PUSH1 0x1F DUP4 ADD DIV SWAP1 POP SWAP2 SWAP1 POP JUMP JUMPDEST PUSH1 0x0 DUP3 DUP3 SHL SWAP1 POP SWAP3 SWAP2 POP POP JUMP JUMPDEST PUSH1 0x0 PUSH1 0x8 DUP4 MUL PUSH2 0x2608 PUSH32 0xFFFFFFFFFFFFFFFFFFFFFFFFFFFFFFFFFFFFFFFFFFFFFFFFFFFFFFFFFFFFFFFF DUP3 PUSH2 0x25CB JUMP JUMPDEST PUSH2 0x2612 DUP7 DUP4 PUSH2 0x25CB JUMP JUMPDEST SWAP6 POP DUP1 NOT DUP5 AND SWAP4 POP DUP1 DUP7 AND DUP5 OR SWAP3 POP POP POP SWAP4 SWAP3 POP POP POP JUMP JUMPDEST PUSH1 0x0 DUP2 SWAP1 POP SWAP2 SWAP1 POP JUMP JUMPDEST PUSH1 0x0 PUSH2 0x264F PUSH2 0x264A PUSH2 0x2645 DUP5 PUSH2 0x1BA8 JUMP JUMPDEST PUSH2 0x262A JUMP JUMPDEST PUSH2 0x1BA8 JUMP JUMPDEST SWAP1 POP SWAP2 SWAP1 POP JUMP JUMPDEST PUSH1 0x0 DUP2 SWAP1 POP SWAP2 SWAP1 POP JUMP JUMPDEST PUSH2 0x2669 DUP4 PUSH2 0x2634 JUMP JUMPDEST PUSH2 0x267D PUSH2 0x2675 DUP3 PUSH2 0x2656 JUMP JUMPDEST DUP5 DUP5 SLOAD PUSH2 0x25D8 JUMP JUMPDEST DUP3 SSTORE POP POP POP POP JUMP JUMPDEST PUSH1 0x0 SWAP1 JUMP JUMPDEST PUSH2 0x2692 PUSH2 0x2685 JUMP JUMPDEST PUSH2 0x269D DUP2 DUP5 DUP5 PUSH2 0x2660 JUMP JUMPDEST POP POP POP JUMP JUMPDEST JUMPDEST DUP2 DUP2 LT ISZERO PUSH2 0x26C1 JUMPI PUSH2 0x26B6 PUSH1 0x0 DUP3 PUSH2 0x268A JUMP JUMPDEST PUSH1 0x1 DUP2 ADD SWAP1 POP PUSH2 0x26A3 JUMP JUMPDEST POP POP JUMP JUMPDEST PUSH1 0x1F DUP3 GT ISZERO PUSH2 0x2706 JUMPI PUSH2 0x26D7 DUP2 PUSH2 0x25A6 JUMP JUMPDEST PUSH2 0x26E0 DUP5 PUSH2 0x25BB JUMP JUMPDEST DUP2 ADD PUSH1 0x20 DUP6 LT ISZERO PUSH2 0x26EF JUMPI DUP2 SWAP1 POP JUMPDEST PUSH2 0x2703 PUSH2 0x26FB DUP6 PUSH2 0x25BB JUMP JUMPDEST DUP4 ADD DUP3 PUSH2 0x26A2 JUMP JUMPDEST POP POP JUMPDEST POP POP POP JUMP JUMPDEST PUSH1 0x0 DUP3 DUP3 SHR SWAP1 POP SWAP3 SWAP2 POP POP JUMP JUMPDEST PUSH1 0x0 PUSH2 0x2729 PUSH1 0x0 NOT DUP5 PUSH1 0x8 MUL PUSH2 0x270B JUMP JUMPDEST NOT DUP1 DUP4 AND SWAP2 POP POP SWAP3 SWAP2 POP POP JUMP JUMPDEST PUSH1 0x0 PUSH2 0x2742 DUP4 DUP4 PUSH2 0x2718 JUMP JUMPDEST SWAP2 POP DUP3 PUSH1 0x2 MUL DUP3 OR SWAP1 POP SWAP3 SWAP2 POP POP JUMP JUMPDEST PUSH2 0x275B DUP3 PUSH2 0x1C8B JUMP JUMPDEST PUSH8 0xFFFFFFFFFFFFFFFF DUP2 GT ISZERO PUSH2 0x2774 JUMPI PUSH2 0x2773 PUSH2 0x2238 JUMP JUMPDEST JUMPDEST PUSH2 0x277E DUP3 SLOAD PUSH2 0x242E JUMP JUMPDEST PUSH2 0x2789 DUP3 DUP3 DUP6 PUSH2 0x26C5 JUMP JUMPDEST PUSH1 0x0 PUSH1 0x20 SWAP1 POP PUSH1 0x1F DUP4 GT PUSH1 0x1 DUP2 EQ PUSH2 0x27BC JUMPI PUSH1 0x0 DUP5 ISZERO PUSH2 0x27AA JUMPI DUP3 DUP8 ADD MLOAD SWAP1 POP JUMPDEST PUSH2 0x27B4 DUP6 DUP3 PUSH2 0x2736 JUMP JUMPDEST DUP7 SSTORE POP PUSH2 0x281C JUMP JUMPDEST PUSH1 0x1F NOT DUP5 AND PUSH2 0x27CA DUP7 PUSH2 0x25A6 JUMP JUMPDEST PUSH1 0x0 JUMPDEST DUP3 DUP2 LT ISZERO PUSH2 0x27F2 JUMPI DUP5 DUP10 ADD MLOAD DUP3 SSTORE PUSH1 0x1 DUP3 ADD SWAP2 POP PUSH1 0x20 DUP6 ADD SWAP5 POP PUSH1 0x20 DUP2 ADD SWAP1 POP PUSH2 0x27CD JUMP JUMPDEST DUP7 DUP4 LT ISZERO PUSH2 0x280F JUMPI DUP5 DUP10 ADD MLOAD PUSH2 0x280B PUSH1 0x1F DUP10 AND DUP3 PUSH2 0x2718 JUMP JUMPDEST DUP4 SSTORE POP JUMPDEST PUSH1 0x1 PUSH1 0x2 DUP9 MUL ADD DUP9 SSTORE POP POP POP JUMPDEST POP POP POP POP POP POP JUMP JUMPDEST PUSH1 0x0 PUSH2 0x282F DUP3 PUSH2 0x1BA8 JUMP JUMPDEST SWAP2 POP PUSH32 0xFFFFFFFFFFFFFFFFFFFFFFFFFFFFFFFFFFFFFFFFFFFFFFFFFFFFFFFFFFFFFFFF DUP3 SUB PUSH2 0x2861 JUMPI PUSH2 0x2860 PUSH2 0x1BB2 JUMP JUMPDEST JUMPDEST PUSH1 0x1 DUP3 ADD SWAP1 POP SWAP2 SWAP1 POP JUMP JUMPDEST PUSH1 0x0 DUP2 SWAP1 POP SWAP3 SWAP2 POP POP JUMP JUMPDEST PUSH1 0x0 PUSH2 0x2882 DUP3 PUSH2 0x1C8B JUMP JUMPDEST PUSH2 0x288C DUP2 DUP6 PUSH2 0x286C JUMP JUMPDEST SWAP4 POP PUSH2 0x289C DUP2 DUP6 PUSH1 0x20 DUP7 ADD PUSH2 0x1CA7 JUMP JUMPDEST DUP1 DUP5 ADD SWAP2 POP POP SWAP3 SWAP2 POP POP JUMP JUMPDEST PUSH1 0x0 PUSH2 0x28B4 DUP3 DUP5 PUSH2 0x2877 JUMP JUMPDEST SWAP2 POP DUP2 SWAP1 POP SWAP3 SWAP2 POP POP JUMP JUMPDEST PUSH1 0x0 DUP2 SLOAD SWAP1 POP PUSH2 0x28CE DUP2 PUSH2 0x242E JUMP JUMPDEST SWAP1 POP SWAP2 SWAP1 POP JUMP JUMPDEST DUP2 DUP2 SUB PUSH2 0x28E3 JUMPI POP POP PUSH2 0x29BB JUMP JUMPDEST PUSH2 0x28EC DUP3 PUSH2 0x28BF JUMP JUMPDEST PUSH8 0xFFFFFFFFFFFFFFFF DUP2 GT ISZERO PUSH2 0x2905 JUMPI PUSH2 0x2904 PUSH2 0x2238 JUMP JUMPDEST JUMPDEST PUSH2 0x290F DUP3 SLOAD PUSH2 0x242E JUMP JUMPDEST PUSH2 0x291A DUP3 DUP3 DUP6 PUSH2 0x26C5 JUMP JUMPDEST PUSH1 0x0 PUSH1 0x1F DUP4 GT PUSH1 0x1 DUP2 EQ PUSH2 0x2949 JUMPI PUSH1 0x0 DUP5 ISZERO PUSH2 0x2937 JUMPI DUP3 DUP8 ADD SLOAD SWAP1 POP JUMPDEST PUSH2 0x2941 DUP6 DUP3 PUSH2 0x2736 JUMP JUMPDEST DUP7 SSTORE POP PUSH2 0x29B4 JUMP JUMPDEST PUSH1 0x1F NOT DUP5 AND PUSH2 0x2957 DUP8 PUSH2 0x25A6 JUMP JUMPDEST SWAP7 POP PUSH2 0x2962 DUP7 PUSH2 0x25A6 JUMP JUMPDEST PUSH1 0x0 JUMPDEST DUP3 DUP2 LT ISZERO PUSH2 0x298A JUMPI DUP5 DUP10 ADD SLOAD DUP3 SSTORE PUSH1 0x1 DUP3 ADD SWAP2 POP PUSH1 0x1 DUP6 ADD SWAP5 POP PUSH1 0x20 DUP2 ADD SWAP1 POP PUSH2 0x2965 JUMP JUMPDEST DUP7 DUP4 LT ISZERO PUSH2 0x29A7 JUMPI DUP5 DUP10 ADD SLOAD PUSH2 0x29A3 PUSH1 0x1F DUP10 AND DUP3 PUSH2 0x2718 JUMP JUMPDEST DUP4 SSTORE POP JUMPDEST PUSH1 0x1 PUSH1 0x2 DUP9 MUL ADD DUP9 SSTORE POP POP POP JUMPDEST POP POP POP POP POP POP JUMPDEST JUMP JUMPDEST PUSH32 0x4E487B7100000000000000000000000000000000000000000000000000000000 PUSH1 0x0 MSTORE PUSH1 0x31 PUSH1 0x4 MSTORE PUSH1 0x24 PUSH1 0x0 REVERT INVALID LOG2 PUSH5 0x6970667358 0x22 SLT KECCAK256 0xFC 0xC5 PUSH13 0x83013979FB669C36021E522B65 0xEE 0xCC PUSH8 0xC5B1353550C978AE 0xF8 GT 0x21 0x26 PUSH20 0x64736F6C6343000813003368747470733A2F2F6D PUSH6 0x6469612E6275 PUSH15 0x6A616E672E636F2E6B722F70726F64 PUSH22 0x63742F3230383334313138305F315F31363931353438 CALLDATACOPY ORIGIN CODECOPY 0x5F PUSH24 0x3138302E6A706768747470733A2F2F69312E72756C697765 PUSH3 0x2E636F PUSH14 0x2F696D672F31392F31312F30382F BALANCE CALLDATASIZE PUSH6 0x343965396631 PUSH7 0x66353039333836 0x2E PUSH11 0x706768747470733A2F2F73 PUSH21 0x617469632E77696B69612E6E6F636F6F6B69652E6E PUSH6 0x742F706F6B65 PUSH14 0x6F6E2F696D616765732F382F3865 0x2F 0x25 GASLIMIT TIMESTAMP 0x25 CODECOPY CALLVALUE 0x25 TIMESTAMP ADDRESS 0x25 GASLIMIT TIMESTAMP 0x25 CODECOPY PREVRANDAO 0x25 TIMESTAMP NUMBER 0x25 GASLIMIT PREVRANDAO 0x25 CODESIZE BALANCE 0x25 CODECOPY ADDRESS 0x5F 0x25 GASLIMIT COINBASE 0x25 TIMESTAMP CALLER 0x25 TIMESTAMP CALLDATALOAD 0x25 GASLIMIT NUMBER 0x25 CODESIZE TIMESTAMP 0x25 CODECOPY PREVRANDAO 0x5F 0x25 GASLIMIT NUMBER 0x25 CODECOPY PREVRANDAO 0x25 TIMESTAMP NUMBER 0x25 GASLIMIT TIMESTAMP 0x25 CODECOPY CHAINID 0x25 COINBASE NUMBER 0x25 GASLIMIT NUMBER 0x25 CODESIZE COINBASE 0x25 COINBASE CALLVALUE 0x25 GASLIMIT PREVRANDAO 0x25 CODESIZE COINBASE 0x25 TIMESTAMP CODESIZE 0x2E PUSH17 0x6E672F7265766973696F6E2F6C61746573 PUSH21 0x3F63623D3230313730383034303534353032267061 PUSH21 0x682D7072656669783D6B6F00000000000000000000 "
		},
		"gasEstimates": {
			"creation": {
				"codeDepositCost": "2157200",
				"executionCost": "infinite",
				"totalCost": "infinite"
			},
			"external": {
				"allowance(address,address)": "infinite",
				"approve(address,uint256)": "23169",
				"balance(address)": "2924",
				"balanceOf(address)": "2864",
				"burn(uint256)": "infinite",
				"buyPoketmon()": "infinite",
				"chargeToken()": "infinite",
				"decimals()": "2538",
				"getPoketmon()": "infinite",
				"getPoketmonUsers()": "infinite",
				"name()": "infinite",
				"poketmons(address,uint256)": "infinite",
				"symbol()": "infinite",
				"totalSupply()": "2497",
				"tradePoketmon(address,string)": "infinite",
				"transfer(address,uint256)": "infinite",
				"transferFrom(address,address,uint256)": "infinite",
				"users(uint256)": "5070"
			}
		},
		"methodIdentifiers": {
			"allowance(address,address)": "dd62ed3e",
			"approve(address,uint256)": "095ea7b3",
			"balance(address)": "e3d670d7",
			"balanceOf(address)": "70a08231",
			"burn(uint256)": "42966c68",
			"buyPoketmon()": "26255d8d",
			"chargeToken()": "d756ae70",
			"decimals()": "313ce567",
			"getPoketmon()": "2eab183d",
			"getPoketmonUsers()": "7ff9cd71",
			"name()": "06fdde03",
			"poketmons(address,uint256)": "860b951d",
			"symbol()": "95d89b41",
			"totalSupply()": "18160ddd",
			"tradePoketmon(address,string)": "92961939",
			"transfer(address,uint256)": "a9059cbb",
			"transferFrom(address,address,uint256)": "23b872dd",
			"users(uint256)": "365b98b2"
		}
	},
	"abi": [
		{
			"inputs": [],
			"stateMutability": "nonpayable",
			"type": "constructor"
		},
		{
			"inputs": [
				{
					"internalType": "address",
					"name": "",
					"type": "address"
				},
				{
					"internalType": "address",
					"name": "",
					"type": "address"
				}
			],
			"name": "allowance",
			"outputs": [
				{
					"internalType": "uint256",
					"name": "",
					"type": "uint256"
				}
			],
			"stateMutability": "view",
			"type": "function"
		},
		{
			"inputs": [
				{
					"internalType": "address",
					"name": "spender",
					"type": "address"
				},
				{
					"internalType": "uint256",
					"name": "amount",
					"type": "uint256"
				}
			],
			"name": "approve",
			"outputs": [
				{
					"internalType": "bool",
					"name": "",
					"type": "bool"
				}
			],
			"stateMutability": "nonpayable",
			"type": "function"
		},
		{
			"inputs": [
				{
					"internalType": "address",
					"name": "",
					"type": "address"
				}
			],
			"name": "balance",
			"outputs": [
				{
					"internalType": "uint256",
					"name": "",
					"type": "uint256"
				}
			],
			"stateMutability": "view",
			"type": "function"
		},
		{
			"inputs": [
				{
					"internalType": "address",
					"name": "account",
					"type": "address"
				}
			],
			"name": "balanceOf",
			"outputs": [
				{
					"internalType": "uint256",
					"name": "",
					"type": "uint256"
				}
			],
			"stateMutability": "view",
			"type": "function"
		},
		{
			"inputs": [
				{
					"internalType": "uint256",
					"name": "amount",
					"type": "uint256"
				}
			],
			"name": "burn",
			"outputs": [],
			"stateMutability": "nonpayable",
			"type": "function"
		},
		{
			"inputs": [],
			"name": "buyPoketmon",
			"outputs": [],
			"stateMutability": "nonpayable",
			"type": "function"
		},
		{
			"inputs": [],
			"name": "chargeToken",
			"outputs": [],
			"stateMutability": "payable",
			"type": "function"
		},
		{
			"inputs": [],
			"name": "decimals",
			"outputs": [
				{
					"internalType": "uint8",
					"name": "",
					"type": "uint8"
				}
			],
			"stateMutability": "view",
			"type": "function"
		},
		{
			"inputs": [],
			"name": "getPoketmon",
			"outputs": [
				{
					"components": [
						{
							"internalType": "string",
							"name": "url",
							"type": "string"
						},
						{
							"internalType": "string",
							"name": "name",
							"type": "string"
						}
					],
					"internalType": "struct Poketmon.Pokets[]",
					"name": "",
					"type": "tuple[]"
				}
			],
			"stateMutability": "view",
			"type": "function"
		},
		{
			"inputs": [],
			"name": "getPoketmonUsers",
			"outputs": [
				{
					"components": [
						{
							"internalType": "address",
							"name": "account",
							"type": "address"
						}
					],
					"internalType": "struct Poketmon.Users[]",
					"name": "",
					"type": "tuple[]"
				}
			],
			"stateMutability": "view",
			"type": "function"
		},
		{
			"inputs": [],
			"name": "name",
			"outputs": [
				{
					"internalType": "string",
					"name": "",
					"type": "string"
				}
			],
			"stateMutability": "view",
			"type": "function"
		},
		{
			"inputs": [
				{
					"internalType": "address",
					"name": "",
					"type": "address"
				},
				{
					"internalType": "uint256",
					"name": "",
					"type": "uint256"
				}
			],
			"name": "poketmons",
			"outputs": [
				{
					"internalType": "string",
					"name": "url",
					"type": "string"
				},
				{
					"internalType": "string",
					"name": "name",
					"type": "string"
				}
			],
			"stateMutability": "view",
			"type": "function"
		},
		{
			"inputs": [],
			"name": "symbol",
			"outputs": [
				{
					"internalType": "string",
					"name": "",
					"type": "string"
				}
			],
			"stateMutability": "view",
			"type": "function"
		},
		{
			"inputs": [],
			"name": "totalSupply",
			"outputs": [
				{
					"internalType": "uint256",
					"name": "",
					"type": "uint256"
				}
			],
			"stateMutability": "view",
			"type": "function"
		},
		{
			"inputs": [
				{
					"internalType": "address",
					"name": "to",
					"type": "address"
				},
				{
					"internalType": "string",
					"name": "tradePoketmonName",
					"type": "string"
				}
			],
			"name": "tradePoketmon",
			"outputs": [
				{
					"internalType": "bool",
					"name": "",
					"type": "bool"
				}
			],
			"stateMutability": "nonpayable",
			"type": "function"
		},
		{
			"inputs": [
				{
					"internalType": "address",
					"name": "to",
					"type": "address"
				},
				{
					"internalType": "uint256",
					"name": "amount",
					"type": "uint256"
				}
			],
			"name": "transfer",
			"outputs": [
				{
					"internalType": "bool",
					"name": "",
					"type": "bool"
				}
			],
			"stateMutability": "nonpayable",
			"type": "function"
		},
		{
			"inputs": [
				{
					"internalType": "address",
					"name": "sender",
					"type": "address"
				},
				{
					"internalType": "address",
					"name": "to",
					"type": "address"
				},
				{
					"internalType": "uint256",
					"name": "amount",
					"type": "uint256"
				}
			],
			"name": "transferFrom",
			"outputs": [
				{
					"internalType": "bool",
					"name": "",
					"type": "bool"
				}
			],
			"stateMutability": "nonpayable",
			"type": "function"
		},
		{
			"inputs": [
				{
					"internalType": "uint256",
					"name": "",
					"type": "uint256"
				}
			],
			"name": "users",
			"outputs": [
				{
					"internalType": "address",
					"name": "account",
					"type": "address"
				}
			],
			"stateMutability": "view",
			"type": "function"
		},
		{
			"stateMutability": "payable",
			"type": "receive"
		}
	]
}